{
  "_format": "hh-sol-artifact-1",
  "contractName": "Hello",
  "sourceName": "contracts/Count.sol",
  "abi": [
    {
      "inputs": [],
      "name": "count",
      "outputs": [
        {
          "internalType": "uint256",
          "name": "",
          "type": "uint256"
        }
      ],
      "stateMutability": "view",
      "type": "function"
    },
    {
      "inputs": [],
      "name": "desc",
      "outputs": [],
      "stateMutability": "nonpayable",
      "type": "function"
    },
    {
      "inputs": [],
      "name": "get",
      "outputs": [
        {
          "internalType": "uint256",
          "name": "",
          "type": "uint256"
        }
      ],
      "stateMutability": "view",
      "type": "function"
    },
    {
      "inputs": [],
      "name": "increment",
      "outputs": [],
      "stateMutability": "nonpayable",
      "type": "function"
    },
    {
      "inputs": [],
      "name": "name",
      "outputs": [
        {
          "internalType": "string",
          "name": "",
          "type": "string"
        }
      ],
      "stateMutability": "view",
      "type": "function"
    }
  ],
  "bytecode": "0x60806040526040518060400160405280600b81526020017f48656c6c6f20576f726c640000000000000000000000000000000000000000008152506000908161004891906102b0565b50600060015534801561005a57600080fd5b50610382565b600081519050919050565b7f4e487b7100000000000000000000000000000000000000000000000000000000600052604160045260246000fd5b7f4e487b7100000000000000000000000000000000000000000000000000000000600052602260045260246000fd5b600060028204905060018216806100e157607f821691505b6020821081036100f4576100f361009a565b5b50919050565b60008190508160005260206000209050919050565b60006020601f8301049050919050565b600082821b905092915050565b60006008830261015c7fffffffffffffffffffffffffffffffffffffffffffffffffffffffffffffffff8261011f565b610166868361011f565b95508019841693508086168417925050509392505050565b6000819050919050565b6000819050919050565b60006101ad6101a86101a38461017e565b610188565b61017e565b9050919050565b6000819050919050565b6101c783610192565b6101db6101d3826101b4565b84845461012c565b825550505050565b600090565b6101f06101e3565b6101fb8184846101be565b505050565b5b8181101561021f576102146000826101e8565b600181019050610201565b5050565b601f82111561026457610235816100fa565b61023e8461010f565b8101602085101561024d578190505b6102616102598561010f565b830182610200565b50505b505050565b600082821c905092915050565b600061028760001984600802610269565b1980831691505092915050565b60006102a08383610276565b9150826002028217905092915050565b6102b982610060565b67ffffffffffffffff8111156102d2576102d161006b565b5b6102dc82546100c9565b6102e7828285610223565b600060209050601f83116001811461031a5760008415610308578287015190505b6103128582610294565b86555061037a565b601f198416610328866100fa565b60005b828110156103505784890151825560018201915060208501945060208101905061032b565b8683101561036d5784890151610369601f891682610276565b8355505b6001600288020188555050505b505050505050565b6103b8806103916000396000f3fe608060405234801561001057600080fd5b50600436106100575760003560e01c806306661abd1461005c57806306fdde031461007a57806355f150f1146100985780636d4ce63c146100a2578063d09de08a146100c0575b600080fd5b6100646100ca565b60405161007191906101b5565b60405180910390f35b6100826100d0565b60405161008f9190610260565b60405180910390f35b6100a061015e565b005b6100aa610178565b6040516100b791906101b5565b60405180910390f35b6100c8610182565b005b60015481565b600080546100dd906102b1565b80601f0160208091040260200160405190810160405280929190818152602001828054610109906102b1565b80156101565780601f1061012b57610100808354040283529160200191610156565b820191906000526020600020905b81548152906001019060200180831161013957829003601f168201915b505050505081565b6001600081548092919061017190610311565b9190505550565b6000600154905090565b600160008154809291906101959061033a565b9190505550565b6000819050919050565b6101af8161019c565b82525050565b60006020820190506101ca60008301846101a6565b92915050565b600081519050919050565b600082825260208201905092915050565b60005b8381101561020a5780820151818401526020810190506101ef565b60008484015250505050565b6000601f19601f8301169050919050565b6000610232826101d0565b61023c81856101db565b935061024c8185602086016101ec565b61025581610216565b840191505092915050565b6000602082019050818103600083015261027a8184610227565b905092915050565b7f4e487b7100000000000000000000000000000000000000000000000000000000600052602260045260246000fd5b600060028204905060018216806102c957607f821691505b6020821081036102dc576102db610282565b5b50919050565b7f4e487b7100000000000000000000000000000000000000000000000000000000600052601160045260246000fd5b600061031c8261019c565b91506000820361032f5761032e6102e2565b5b600182039050919050565b60006103458261019c565b91507fffffffffffffffffffffffffffffffffffffffffffffffffffffffffffffffff8203610377576103766102e2565b5b60018201905091905056fea26469706673582212209fadebd20086159fa711dd3ae1e4659aa6bccf472ea6dd8af540df48f8f6deb264736f6c634300081c0033",
  "linkReferences": {},
  "deployedLinkReferences": {}
}