{
	"03-mapping/mapping.sol": {
		"Mapping": {
			"abi": [
				{
					"inputs": [],
					"stateMutability": "nonpayable",
					"type": "constructor"
				},
				{
					"inputs": [],
					"name": "IMMUTABLE_NUM",
					"outputs": [
						{
							"internalType": "uint256",
							"name": "",
							"type": "uint256"
						}
					],
					"stateMutability": "view",
					"type": "function"
				},
				{
					"inputs": [
						{
							"internalType": "uint256",
							"name": "",
							"type": "uint256"
						}
					],
					"name": "_a",
					"outputs": [
						{
							"internalType": "uint256",
							"name": "",
							"type": "uint256"
						}
					],
					"stateMutability": "view",
					"type": "function"
				},
				{
					"inputs": [
						{
							"internalType": "uint256",
							"name": "",
							"type": "uint256"
						}
					],
					"name": "_b",
					"outputs": [
						{
							"internalType": "uint256",
							"name": "",
							"type": "uint256"
						}
					],
					"stateMutability": "view",
					"type": "function"
				},
				{
					"inputs": [
						{
							"internalType": "uint256[]",
							"name": "arr",
							"type": "uint256[]"
						}
					],
					"name": "bubbleSort",
					"outputs": [
						{
							"internalType": "uint256[]",
							"name": "",
							"type": "uint256[]"
						}
					],
					"stateMutability": "pure",
					"type": "function"
				},
				{
					"inputs": [],
					"name": "forTest",
					"outputs": [
						{
							"internalType": "uint256",
							"name": "",
							"type": "uint256"
						}
					],
					"stateMutability": "pure",
					"type": "function"
				},
				{
					"inputs": [],
					"name": "forWhile",
					"outputs": [
						{
							"internalType": "uint256",
							"name": "",
							"type": "uint256"
						}
					],
					"stateMutability": "pure",
					"type": "function"
				},
				{
					"inputs": [
						{
							"internalType": "bytes32",
							"name": "_key",
							"type": "bytes32"
						}
					],
					"name": "getSymbol",
					"outputs": [
						{
							"internalType": "address",
							"name": "",
							"type": "address"
						}
					],
					"stateMutability": "view",
					"type": "function"
				},
				{
					"inputs": [
						{
							"internalType": "uint256",
							"name": "num",
							"type": "uint256"
						}
					],
					"name": "is_test",
					"outputs": [
						{
							"internalType": "bool",
							"name": "",
							"type": "bool"
						}
					],
					"stateMutability": "pure",
					"type": "function"
				},
				{
					"inputs": [
						{
							"internalType": "uint256",
							"name": "",
							"type": "uint256"
						}
					],
					"name": "new_address",
					"outputs": [
						{
							"internalType": "address",
							"name": "",
							"type": "address"
						}
					],
					"stateMutability": "view",
					"type": "function"
				},
				{
					"inputs": [],
					"name": "set_immutable_num",
					"outputs": [
						{
							"internalType": "uint256",
							"name": "",
							"type": "uint256"
						}
					],
					"stateMutability": "pure",
					"type": "function"
				},
				{
					"inputs": [
						{
							"internalType": "bytes32",
							"name": "",
							"type": "bytes32"
						}
					],
					"name": "symbol",
					"outputs": [
						{
							"internalType": "address",
							"name": "",
							"type": "address"
						}
					],
					"stateMutability": "view",
					"type": "function"
				},
				{
					"inputs": [
						{
							"internalType": "string",
							"name": "_key",
							"type": "string"
						},
						{
							"internalType": "address",
							"name": "_value",
							"type": "address"
						}
					],
					"name": "wariteSymbolMap",
					"outputs": [],
					"stateMutability": "nonpayable",
					"type": "function"
				},
				{
					"inputs": [
						{
							"internalType": "uint256",
							"name": "_key",
							"type": "uint256"
						},
						{
							"internalType": "address",
							"name": "_value",
							"type": "address"
						}
					],
					"name": "writeAddressMap",
					"outputs": [],
					"stateMutability": "nonpayable",
					"type": "function"
				}
			],
			"devdoc": {
				"kind": "dev",
				"methods": {},
				"version": 1
			},
			"evm": {
				"assembly": "    /* \"03-mapping/mapping.sol\":58:2150  contract Mapping {... */\n  mstore(0x40, 0xa0)\n    /* \"03-mapping/mapping.sol\":274:284  9999999999 */\n  0x02540be3ff\n    /* \"03-mapping/mapping.sol\":233:284  uint256 public immutable IMMUTABLE_NUM = 9999999999 */\n  0x80\n  swap1\n  dup2\n  mstore\n  pop\n    /* \"03-mapping/mapping.sol\":316:345  uint256[2] public _b = [7, 8] */\n  mload(0x40)\n  dup1\n  0x40\n  add\n  0x40\n  mstore\n  dup1\n    /* \"03-mapping/mapping.sol\":340:341  7 */\n  0x07\n    /* \"03-mapping/mapping.sol\":316:345  uint256[2] public _b = [7, 8] */\n  0xff\n  and\n  dup2\n  mstore\n  0x20\n  add\n    /* \"03-mapping/mapping.sol\":343:344  8 */\n  0x08\n    /* \"03-mapping/mapping.sol\":316:345  uint256[2] public _b = [7, 8] */\n  0xff\n  and\n  dup2\n  mstore\n  pop\n  0x01\n  swap1\n  0x02\n  tag_1\n  swap3\n  swap2\n  swap1\n  tag_2\n  jump\t// in\ntag_1:\n  pop\n    /* \"03-mapping/mapping.sol\":630:696  constructor() {... */\n  callvalue\n  dup1\n  iszero\n  tag_3\n  jumpi\n  0x00\n  dup1\n  revert\ntag_3:\n  pop\n    /* \"03-mapping/mapping.sol\":670:689  set_immutable_num() */\n  tag_6\n    /* \"03-mapping/mapping.sol\":670:687  set_immutable_num */\n  shl(0x20, tag_7)\n    /* \"03-mapping/mapping.sol\":670:689  set_immutable_num() */\n  0x20\n  shr\n  jump\t// in\ntag_6:\n    /* \"03-mapping/mapping.sol\":654:689  IMMUTABLE_NUM = set_immutable_num() */\n  0x80\n  dup2\n  dup2\n  mstore\n  pop\n  pop\n    /* \"03-mapping/mapping.sol\":58:2150  contract Mapping {... */\n  jump(tag_8)\n    /* \"03-mapping/mapping.sol\":1041:1153  function set_immutable_num() public pure returns (uint256) {... */\ntag_7:\n    /* \"03-mapping/mapping.sol\":1091:1098  uint256 */\n  0x00\n    /* \"03-mapping/mapping.sol\":1110:1121  uint256 num */\n  dup1\n    /* \"03-mapping/mapping.sol\":1124:1126  10 */\n  0x0a\n    /* \"03-mapping/mapping.sol\":1110:1126  uint256 num = 10 */\n  swap1\n  pop\n    /* \"03-mapping/mapping.sol\":1143:1146  num */\n  dup1\n    /* \"03-mapping/mapping.sol\":1136:1146  return num */\n  swap2\n  pop\n  pop\n    /* \"03-mapping/mapping.sol\":1041:1153  function set_immutable_num() public pure returns (uint256) {... */\n  swap1\n  jump\t// out\n    /* \"03-mapping/mapping.sol\":58:2150  contract Mapping {... */\ntag_2:\n  dup3\n  0x02\n  dup2\n  add\n  swap3\n  dup3\n  iszero\n  tag_10\n  jumpi\n  swap2\n  0x20\n  mul\n  dup3\n  add\ntag_11:\n  dup3\n  dup2\n  gt\n  iszero\n  tag_12\n  jumpi\n  dup3\n  mload\n  dup3\n  swap1\n  0xff\n  and\n  swap1\n  sstore\n  swap2\n  0x20\n  add\n  swap2\n  swap1\n  0x01\n  add\n  swap1\n  jump(tag_11)\ntag_12:\ntag_10:\n  pop\n  swap1\n  pop\n  tag_13\n  swap2\n  swap1\n  tag_14\n  jump\t// in\ntag_13:\n  pop\n  swap1\n  jump\t// out\ntag_14:\ntag_15:\n  dup1\n  dup3\n  gt\n  iszero\n  tag_16\n  jumpi\n  0x00\n  dup2\n  0x00\n  swap1\n  sstore\n  pop\n  0x01\n  add\n  jump(tag_15)\ntag_16:\n  pop\n  swap1\n  jump\t// out\ntag_8:\n  mload(0x80)\n  codecopy(0x00, dataOffset(sub_0), dataSize(sub_0))\n  0x00\n  assignImmutable(\"0x52f1a9b320cab38e5da8a8f97989383aab0a49165fc91c737310e4f7e9821021\")\n  return(0x00, dataSize(sub_0))\nstop\n\nsub_0: assembly {\n        /* \"03-mapping/mapping.sol\":58:2150  contract Mapping {... */\n      mstore(0x40, 0x80)\n      callvalue\n      dup1\n      iszero\n      tag_1\n      jumpi\n      0x00\n      dup1\n      revert\n    tag_1:\n      pop\n      jumpi(tag_2, lt(calldatasize, 0x04))\n      shr(0xe0, calldataload(0x00))\n      dup1\n      0x5cfac837\n      gt\n      tag_16\n      jumpi\n      dup1\n      0xc90fd7a7\n      gt\n      tag_17\n      jumpi\n      dup1\n      0xc90fd7a7\n      eq\n      tag_12\n      jumpi\n      dup1\n      0xde152f8d\n      eq\n      tag_13\n      jumpi\n      dup1\n      0xe30c36f1\n      eq\n      tag_14\n      jumpi\n      dup1\n      0xed7ff875\n      eq\n      tag_15\n      jumpi\n      jump(tag_2)\n    tag_17:\n      dup1\n      0x5cfac837\n      eq\n      tag_9\n      jumpi\n      dup1\n      0x6baa0330\n      eq\n      tag_10\n      jumpi\n      dup1\n      0xa09da550\n      eq\n      tag_11\n      jumpi\n      jump(tag_2)\n    tag_16:\n      dup1\n      0x101c9881\n      eq\n      tag_3\n      jumpi\n      dup1\n      0x227a025a\n      eq\n      tag_4\n      jumpi\n      dup1\n      0x4408e5c0\n      eq\n      tag_5\n      jumpi\n      dup1\n      0x441bbaf3\n      eq\n      tag_6\n      jumpi\n      dup1\n      0x45cb6f31\n      eq\n      tag_7\n      jumpi\n      dup1\n      0x58e40a5a\n      eq\n      tag_8\n      jumpi\n    tag_2:\n      0x00\n      dup1\n      revert\n        /* \"03-mapping/mapping.sol\":519:624  function writeAddressMap(uint256 _key, address _value) public {... */\n    tag_3:\n      tag_18\n      0x04\n      dup1\n      calldatasize\n      sub\n      dup2\n      add\n      swap1\n      tag_19\n      swap2\n      swap1\n      tag_20\n      jump\t// in\n    tag_19:\n      tag_21\n      jump\t// in\n    tag_18:\n      stop\n        /* \"03-mapping/mapping.sol\":702:930  function wariteSymbolMap(string calldata _key, address _value) external {... */\n    tag_4:\n      tag_22\n      0x04\n      dup1\n      calldatasize\n      sub\n      dup2\n      add\n      swap1\n      tag_23\n      swap2\n      swap1\n      tag_24\n      jump\t// in\n    tag_23:\n      tag_25\n      jump\t// in\n    tag_22:\n      stop\n        /* \"03-mapping/mapping.sol\":384:430  mapping(uint256 => address) public new_address */\n    tag_5:\n      tag_26\n      0x04\n      dup1\n      calldatasize\n      sub\n      dup2\n      add\n      swap1\n      tag_27\n      swap2\n      swap1\n      tag_28\n      jump\t// in\n    tag_27:\n      tag_29\n      jump\t// in\n    tag_26:\n      mload(0x40)\n      tag_30\n      swap2\n      swap1\n      tag_31\n      jump\t// in\n    tag_30:\n      mload(0x40)\n      dup1\n      swap2\n      sub\n      swap1\n      return\n        /* \"03-mapping/mapping.sol\":291:310  uint256[] public _a */\n    tag_6:\n      tag_32\n      0x04\n      dup1\n      calldatasize\n      sub\n      dup2\n      add\n      swap1\n      tag_33\n      swap2\n      swap1\n      tag_28\n      jump\t// in\n    tag_33:\n      tag_34\n      jump\t// in\n    tag_32:\n      mload(0x40)\n      tag_35\n      swap2\n      swap1\n      tag_36\n      jump\t// in\n    tag_35:\n      mload(0x40)\n      dup1\n      swap2\n      sub\n      swap1\n      return\n        /* \"03-mapping/mapping.sol\":1175:1341  function is_test(uint256 num) public pure returns (bool) {... */\n    tag_7:\n      tag_37\n      0x04\n      dup1\n      calldatasize\n      sub\n      dup2\n      add\n      swap1\n      tag_38\n      swap2\n      swap1\n      tag_28\n      jump\t// in\n    tag_38:\n      tag_39\n      jump\t// in\n    tag_37:\n      mload(0x40)\n      tag_40\n      swap2\n      swap1\n      tag_41\n      jump\t// in\n    tag_40:\n      mload(0x40)\n      dup1\n      swap2\n      sub\n      swap1\n      return\n        /* \"03-mapping/mapping.sol\":316:345  uint256[2] public _b = [7, 8] */\n    tag_8:\n      tag_42\n      0x04\n      dup1\n      calldatasize\n      sub\n      dup2\n      add\n      swap1\n      tag_43\n      swap2\n      swap1\n      tag_28\n      jump\t// in\n    tag_43:\n      tag_44\n      jump\t// in\n    tag_42:\n      mload(0x40)\n      tag_45\n      swap2\n      swap1\n      tag_36\n      jump\t// in\n    tag_45:\n      mload(0x40)\n      dup1\n      swap2\n      sub\n      swap1\n      return\n        /* \"03-mapping/mapping.sol\":936:1035  function getSymbol(bytes32 _key) public view returns (address) {... */\n    tag_9:\n      tag_46\n      0x04\n      dup1\n      calldatasize\n      sub\n      dup2\n      add\n      swap1\n      tag_47\n      swap2\n      swap1\n      tag_48\n      jump\t// in\n    tag_47:\n      tag_49\n      jump\t// in\n    tag_46:\n      mload(0x40)\n      tag_50\n      swap2\n      swap1\n      tag_31\n      jump\t// in\n    tag_50:\n      mload(0x40)\n      dup1\n      swap2\n      sub\n      swap1\n      return\n        /* \"03-mapping/mapping.sol\":471:512  mapping(bytes32 => address) public symbol */\n    tag_10:\n      tag_51\n      0x04\n      dup1\n      calldatasize\n      sub\n      dup2\n      add\n      swap1\n      tag_52\n      swap2\n      swap1\n      tag_48\n      jump\t// in\n    tag_52:\n      tag_53\n      jump\t// in\n    tag_51:\n      mload(0x40)\n      tag_54\n      swap2\n      swap1\n      tag_31\n      jump\t// in\n    tag_54:\n      mload(0x40)\n      dup1\n      swap2\n      sub\n      swap1\n      return\n        /* \"03-mapping/mapping.sol\":1565:1760  function forWhile() public pure returns(uint) {... */\n    tag_11:\n      tag_55\n      tag_56\n      jump\t// in\n    tag_55:\n      mload(0x40)\n      tag_57\n      swap2\n      swap1\n      tag_36\n      jump\t// in\n    tag_57:\n      mload(0x40)\n      dup1\n      swap2\n      sub\n      swap1\n      return\n        /* \"03-mapping/mapping.sol\":1041:1153  function set_immutable_num() public pure returns (uint256) {... */\n    tag_12:\n      tag_58\n      tag_59\n      jump\t// in\n    tag_58:\n      mload(0x40)\n      tag_60\n      swap2\n      swap1\n      tag_36\n      jump\t// in\n    tag_60:\n      mload(0x40)\n      dup1\n      swap2\n      sub\n      swap1\n      return\n        /* \"03-mapping/mapping.sol\":1364:1541  function forTest() public pure returns (uint256) {... */\n    tag_13:\n      tag_61\n      tag_62\n      jump\t// in\n    tag_61:\n      mload(0x40)\n      tag_63\n      swap2\n      swap1\n      tag_36\n      jump\t// in\n    tag_63:\n      mload(0x40)\n      dup1\n      swap2\n      sub\n      swap1\n      return\n        /* \"03-mapping/mapping.sol\":1791:2147  function bubbleSort(uint[] memory arr) public pure returns(uint[] memory) {... */\n    tag_14:\n      tag_64\n      0x04\n      dup1\n      calldatasize\n      sub\n      dup2\n      add\n      swap1\n      tag_65\n      swap2\n      swap1\n      tag_66\n      jump\t// in\n    tag_65:\n      tag_67\n      jump\t// in\n    tag_64:\n      mload(0x40)\n      tag_68\n      swap2\n      swap1\n      tag_69\n      jump\t// in\n    tag_68:\n      mload(0x40)\n      dup1\n      swap2\n      sub\n      swap1\n      return\n        /* \"03-mapping/mapping.sol\":233:284  uint256 public immutable IMMUTABLE_NUM = 9999999999 */\n    tag_15:\n      tag_70\n      tag_71\n      jump\t// in\n    tag_70:\n      mload(0x40)\n      tag_72\n      swap2\n      swap1\n      tag_36\n      jump\t// in\n    tag_72:\n      mload(0x40)\n      dup1\n      swap2\n      sub\n      swap1\n      return\n        /* \"03-mapping/mapping.sol\":519:624  function writeAddressMap(uint256 _key, address _value) public {... */\n    tag_21:\n        /* \"03-mapping/mapping.sol\":611:617  _value */\n      dup1\n        /* \"03-mapping/mapping.sol\":591:602  new_address */\n      0x03\n        /* \"03-mapping/mapping.sol\":591:608  new_address[_key] */\n      0x00\n        /* \"03-mapping/mapping.sol\":603:607  _key */\n      dup5\n        /* \"03-mapping/mapping.sol\":591:608  new_address[_key] */\n      dup2\n      mstore\n      0x20\n      add\n      swap1\n      dup2\n      mstore\n      0x20\n      add\n      0x00\n      keccak256\n      0x00\n        /* \"03-mapping/mapping.sol\":591:617  new_address[_key] = _value */\n      0x0100\n      exp\n      dup2\n      sload\n      dup2\n      0xffffffffffffffffffffffffffffffffffffffff\n      mul\n      not\n      and\n      swap1\n      dup4\n      0xffffffffffffffffffffffffffffffffffffffff\n      and\n      mul\n      or\n      swap1\n      sstore\n      pop\n        /* \"03-mapping/mapping.sol\":519:624  function writeAddressMap(uint256 _key, address _value) public {... */\n      pop\n      pop\n      jump\t// out\n        /* \"03-mapping/mapping.sol\":702:930  function wariteSymbolMap(string calldata _key, address _value) external {... */\n    tag_25:\n        /* \"03-mapping/mapping.sol\":838:853  bytes32 has_key */\n      0x00\n        /* \"03-mapping/mapping.sol\":883:887  _key */\n      dup4\n      dup4\n        /* \"03-mapping/mapping.sol\":866:888  abi.encodePacked(_key) */\n      add(0x20, mload(0x40))\n      tag_75\n      swap3\n      swap2\n      swap1\n      tag_76\n      jump\t// in\n    tag_75:\n      mload(0x40)\n      0x20\n      dup2\n      dup4\n      sub\n      sub\n      dup2\n      mstore\n      swap1\n      0x40\n      mstore\n        /* \"03-mapping/mapping.sol\":856:889  keccak256(abi.encodePacked(_key)) */\n      dup1\n      mload\n      swap1\n      0x20\n      add\n      keccak256\n        /* \"03-mapping/mapping.sol\":838:889  bytes32 has_key = keccak256(abi.encodePacked(_key)) */\n      swap1\n      pop\n        /* \"03-mapping/mapping.sol\":917:923  _value */\n      dup2\n        /* \"03-mapping/mapping.sol\":899:905  symbol */\n      0x04\n        /* \"03-mapping/mapping.sol\":899:914  symbol[has_key] */\n      0x00\n        /* \"03-mapping/mapping.sol\":906:913  has_key */\n      dup4\n        /* \"03-mapping/mapping.sol\":899:914  symbol[has_key] */\n      dup2\n      mstore\n      0x20\n      add\n      swap1\n      dup2\n      mstore\n      0x20\n      add\n      0x00\n      keccak256\n      0x00\n        /* \"03-mapping/mapping.sol\":899:923  symbol[has_key] = _value */\n      0x0100\n      exp\n      dup2\n      sload\n      dup2\n      0xffffffffffffffffffffffffffffffffffffffff\n      mul\n      not\n      and\n      swap1\n      dup4\n      0xffffffffffffffffffffffffffffffffffffffff\n      and\n      mul\n      or\n      swap1\n      sstore\n      pop\n        /* \"03-mapping/mapping.sol\":774:930  {... */\n      pop\n        /* \"03-mapping/mapping.sol\":702:930  function wariteSymbolMap(string calldata _key, address _value) external {... */\n      pop\n      pop\n      pop\n      jump\t// out\n        /* \"03-mapping/mapping.sol\":384:430  mapping(uint256 => address) public new_address */\n    tag_29:\n      mstore(0x20, 0x03)\n      dup1\n      0x00\n      mstore\n      keccak256(0x00, 0x40)\n      0x00\n      swap2\n      pop\n      sload\n      swap1\n      0x0100\n      exp\n      swap1\n      div\n      0xffffffffffffffffffffffffffffffffffffffff\n      and\n      dup2\n      jump\t// out\n        /* \"03-mapping/mapping.sol\":291:310  uint256[] public _a */\n    tag_34:\n      0x00\n      dup2\n      dup2\n      sload\n      dup2\n      lt\n      tag_77\n      jumpi\n      0x00\n      dup1\n      revert\n    tag_77:\n      swap1\n      0x00\n      mstore\n      keccak256(0x00, 0x20)\n      add\n      0x00\n      swap2\n      pop\n      swap1\n      pop\n      sload\n      dup2\n      jump\t// out\n        /* \"03-mapping/mapping.sol\":1175:1341  function is_test(uint256 num) public pure returns (bool) {... */\n    tag_39:\n        /* \"03-mapping/mapping.sol\":1226:1230  bool */\n      0x00\n        /* \"03-mapping/mapping.sol\":1253:1254  0 */\n      dup1\n        /* \"03-mapping/mapping.sol\":1246:1249  num */\n      dup3\n        /* \"03-mapping/mapping.sol\":1246:1254  num == 0 */\n      sub\n        /* \"03-mapping/mapping.sol\":1242:1335  if (num == 0) {... */\n      tag_80\n      jumpi\n        /* \"03-mapping/mapping.sol\":1277:1282  false */\n      0x00\n        /* \"03-mapping/mapping.sol\":1270:1282  return false */\n      swap1\n      pop\n      jump(tag_79)\n        /* \"03-mapping/mapping.sol\":1242:1335  if (num == 0) {... */\n    tag_80:\n        /* \"03-mapping/mapping.sol\":1320:1324  true */\n      0x01\n        /* \"03-mapping/mapping.sol\":1313:1324  return true */\n      swap1\n      pop\n        /* \"03-mapping/mapping.sol\":1175:1341  function is_test(uint256 num) public pure returns (bool) {... */\n    tag_79:\n      swap2\n      swap1\n      pop\n      jump\t// out\n        /* \"03-mapping/mapping.sol\":316:345  uint256[2] public _b = [7, 8] */\n    tag_44:\n      0x01\n      dup2\n      0x02\n      dup2\n      lt\n      tag_82\n      jumpi\n      0x00\n      dup1\n      revert\n    tag_82:\n      add\n      0x00\n      swap2\n      pop\n      swap1\n      pop\n      sload\n      dup2\n      jump\t// out\n        /* \"03-mapping/mapping.sol\":936:1035  function getSymbol(bytes32 _key) public view returns (address) {... */\n    tag_49:\n        /* \"03-mapping/mapping.sol\":990:997  address */\n      0x00\n        /* \"03-mapping/mapping.sol\":1016:1022  symbol */\n      0x04\n        /* \"03-mapping/mapping.sol\":1016:1028  symbol[_key] */\n      0x00\n        /* \"03-mapping/mapping.sol\":1023:1027  _key */\n      dup4\n        /* \"03-mapping/mapping.sol\":1016:1028  symbol[_key] */\n      dup2\n      mstore\n      0x20\n      add\n      swap1\n      dup2\n      mstore\n      0x20\n      add\n      0x00\n      keccak256\n      0x00\n      swap1\n      sload\n      swap1\n      0x0100\n      exp\n      swap1\n      div\n      0xffffffffffffffffffffffffffffffffffffffff\n      and\n        /* \"03-mapping/mapping.sol\":1009:1028  return symbol[_key] */\n      swap1\n      pop\n        /* \"03-mapping/mapping.sol\":936:1035  function getSymbol(bytes32 _key) public view returns (address) {... */\n      swap2\n      swap1\n      pop\n      jump\t// out\n        /* \"03-mapping/mapping.sol\":471:512  mapping(bytes32 => address) public symbol */\n    tag_53:\n      mstore(0x20, 0x04)\n      dup1\n      0x00\n      mstore\n      keccak256(0x00, 0x40)\n      0x00\n      swap2\n      pop\n      sload\n      swap1\n      0x0100\n      exp\n      swap1\n      div\n      0xffffffffffffffffffffffffffffffffffffffff\n      and\n      dup2\n      jump\t// out\n        /* \"03-mapping/mapping.sol\":1565:1760  function forWhile() public pure returns(uint) {... */\n    tag_56:\n        /* \"03-mapping/mapping.sol\":1605:1609  uint */\n      0x00\n        /* \"03-mapping/mapping.sol\":1621:1629  uint sum */\n      dup1\n        /* \"03-mapping/mapping.sol\":1632:1633  0 */\n      0x00\n        /* \"03-mapping/mapping.sol\":1621:1633  uint sum = 0 */\n      swap1\n      pop\n        /* \"03-mapping/mapping.sol\":1643:1649  uint i */\n      0x00\n        /* \"03-mapping/mapping.sol\":1662:1734  while (i <= 10) {... */\n    tag_86:\n        /* \"03-mapping/mapping.sol\":1674:1676  10 */\n      0x0a\n        /* \"03-mapping/mapping.sol\":1669:1670  i */\n      dup2\n        /* \"03-mapping/mapping.sol\":1669:1676  i <= 10 */\n      gt\n        /* \"03-mapping/mapping.sol\":1662:1734  while (i <= 10) {... */\n      tag_87\n      jumpi\n        /* \"03-mapping/mapping.sol\":1697:1698  i */\n      dup1\n        /* \"03-mapping/mapping.sol\":1692:1698  sum+=i */\n      dup3\n      tag_88\n      swap2\n      swap1\n      tag_89\n      jump\t// in\n    tag_88:\n      swap2\n      pop\n        /* \"03-mapping/mapping.sol\":1712:1715  i++ */\n      dup1\n      dup1\n      tag_90\n      swap1\n      tag_91\n      jump\t// in\n    tag_90:\n      swap2\n      pop\n      pop\n        /* \"03-mapping/mapping.sol\":1662:1734  while (i <= 10) {... */\n      jump(tag_86)\n    tag_87:\n        /* \"03-mapping/mapping.sol\":1750:1753  sum */\n      dup2\n        /* \"03-mapping/mapping.sol\":1743:1753  return sum */\n      swap3\n      pop\n      pop\n      pop\n        /* \"03-mapping/mapping.sol\":1565:1760  function forWhile() public pure returns(uint) {... */\n      swap1\n      jump\t// out\n        /* \"03-mapping/mapping.sol\":1041:1153  function set_immutable_num() public pure returns (uint256) {... */\n    tag_59:\n        /* \"03-mapping/mapping.sol\":1091:1098  uint256 */\n      0x00\n        /* \"03-mapping/mapping.sol\":1110:1121  uint256 num */\n      dup1\n        /* \"03-mapping/mapping.sol\":1124:1126  10 */\n      0x0a\n        /* \"03-mapping/mapping.sol\":1110:1126  uint256 num = 10 */\n      swap1\n      pop\n        /* \"03-mapping/mapping.sol\":1143:1146  num */\n      dup1\n        /* \"03-mapping/mapping.sol\":1136:1146  return num */\n      swap2\n      pop\n      pop\n        /* \"03-mapping/mapping.sol\":1041:1153  function set_immutable_num() public pure returns (uint256) {... */\n      swap1\n      jump\t// out\n        /* \"03-mapping/mapping.sol\":1364:1541  function forTest() public pure returns (uint256) {... */\n    tag_62:\n        /* \"03-mapping/mapping.sol\":1404:1411  uint256 */\n      0x00\n        /* \"03-mapping/mapping.sol\":1423:1434  uint256 num */\n      dup1\n        /* \"03-mapping/mapping.sol\":1437:1438  0 */\n      0x00\n        /* \"03-mapping/mapping.sol\":1423:1438  uint256 num = 0 */\n      swap1\n      pop\n        /* \"03-mapping/mapping.sol\":1453:1462  uint256 i */\n      0x00\n        /* \"03-mapping/mapping.sol\":1448:1515  for (uint256 i = 0; i <= 10; i++) {... */\n    tag_94:\n        /* \"03-mapping/mapping.sol\":1473:1475  10 */\n      0x0a\n        /* \"03-mapping/mapping.sol\":1468:1469  i */\n      dup2\n        /* \"03-mapping/mapping.sol\":1468:1475  i <= 10 */\n      gt\n        /* \"03-mapping/mapping.sol\":1448:1515  for (uint256 i = 0; i <= 10; i++) {... */\n      tag_95\n      jumpi\n        /* \"03-mapping/mapping.sol\":1503:1504  i */\n      dup1\n        /* \"03-mapping/mapping.sol\":1496:1504  num += i */\n      dup3\n      tag_97\n      swap2\n      swap1\n      tag_89\n      jump\t// in\n    tag_97:\n      swap2\n      pop\n        /* \"03-mapping/mapping.sol\":1477:1480  i++ */\n      dup1\n      dup1\n      tag_98\n      swap1\n      tag_91\n      jump\t// in\n    tag_98:\n      swap2\n      pop\n      pop\n        /* \"03-mapping/mapping.sol\":1448:1515  for (uint256 i = 0; i <= 10; i++) {... */\n      jump(tag_94)\n    tag_95:\n      pop\n        /* \"03-mapping/mapping.sol\":1531:1534  num */\n      dup1\n        /* \"03-mapping/mapping.sol\":1524:1534  return num */\n      swap2\n      pop\n      pop\n        /* \"03-mapping/mapping.sol\":1364:1541  function forTest() public pure returns (uint256) {... */\n      swap1\n      jump\t// out\n        /* \"03-mapping/mapping.sol\":1791:2147  function bubbleSort(uint[] memory arr) public pure returns(uint[] memory) {... */\n    tag_67:\n        /* \"03-mapping/mapping.sol\":1850:1863  uint[] memory */\n      0x60\n        /* \"03-mapping/mapping.sol\":1880:1886  uint i */\n      0x00\n        /* \"03-mapping/mapping.sol\":1887:1888  1 */\n      0x01\n        /* \"03-mapping/mapping.sol\":1880:1888  uint i=1 */\n      swap1\n      pop\n        /* \"03-mapping/mapping.sol\":1875:2121  for (uint i=1;i<arr.length;i++) {... */\n    tag_100:\n        /* \"03-mapping/mapping.sol\":1891:1894  arr */\n      dup3\n        /* \"03-mapping/mapping.sol\":1891:1901  arr.length */\n      mload\n        /* \"03-mapping/mapping.sol\":1889:1890  i */\n      dup2\n        /* \"03-mapping/mapping.sol\":1889:1901  i<arr.length */\n      lt\n        /* \"03-mapping/mapping.sol\":1875:2121  for (uint i=1;i<arr.length;i++) {... */\n      iszero\n      tag_101\n      jumpi\n        /* \"03-mapping/mapping.sol\":1921:1930  uint temp */\n      0x00\n        /* \"03-mapping/mapping.sol\":1933:1936  arr */\n      dup4\n        /* \"03-mapping/mapping.sol\":1937:1938  i */\n      dup3\n        /* \"03-mapping/mapping.sol\":1933:1939  arr[i] */\n      dup2\n      mload\n      dup2\n      lt\n      tag_103\n      jumpi\n      tag_104\n      tag_105\n      jump\t// in\n    tag_104:\n    tag_103:\n      0x20\n      mul\n      0x20\n      add\n      add\n      mload\n        /* \"03-mapping/mapping.sol\":1921:1939  uint temp = arr[i] */\n      swap1\n      pop\n        /* \"03-mapping/mapping.sol\":1953:1959  uint j */\n      0x00\n        /* \"03-mapping/mapping.sol\":1962:1963  i */\n      dup3\n        /* \"03-mapping/mapping.sol\":1953:1963  uint j = i */\n      swap1\n      pop\n        /* \"03-mapping/mapping.sol\":1977:2084  while ((j >=1) &&(temp < arr[j-1])) {... */\n    tag_106:\n        /* \"03-mapping/mapping.sol\":1989:1990  1 */\n      0x01\n        /* \"03-mapping/mapping.sol\":1985:1986  j */\n      dup2\n        /* \"03-mapping/mapping.sol\":1985:1990  j >=1 */\n      lt\n      iszero\n        /* \"03-mapping/mapping.sol\":1984:2011  (j >=1) &&(temp < arr[j-1]) */\n      dup1\n      iszero\n      tag_108\n      jumpi\n      pop\n        /* \"03-mapping/mapping.sol\":2002:2005  arr */\n      dup5\n        /* \"03-mapping/mapping.sol\":2008:2009  1 */\n      0x01\n        /* \"03-mapping/mapping.sol\":2006:2007  j */\n      dup3\n        /* \"03-mapping/mapping.sol\":2006:2009  j-1 */\n      tag_109\n      swap2\n      swap1\n      tag_110\n      jump\t// in\n    tag_109:\n        /* \"03-mapping/mapping.sol\":2002:2010  arr[j-1] */\n      dup2\n      mload\n      dup2\n      lt\n      tag_111\n      jumpi\n      tag_112\n      tag_105\n      jump\t// in\n    tag_112:\n    tag_111:\n      0x20\n      mul\n      0x20\n      add\n      add\n      mload\n        /* \"03-mapping/mapping.sol\":1995:1999  temp */\n      dup3\n        /* \"03-mapping/mapping.sol\":1995:2010  temp < arr[j-1] */\n      lt\n        /* \"03-mapping/mapping.sol\":1984:2011  (j >=1) &&(temp < arr[j-1]) */\n    tag_108:\n        /* \"03-mapping/mapping.sol\":1977:2084  while ((j >=1) &&(temp < arr[j-1])) {... */\n      iszero\n      tag_107\n      jumpi\n        /* \"03-mapping/mapping.sol\":2040:2043  arr */\n      dup5\n        /* \"03-mapping/mapping.sol\":2046:2047  1 */\n      0x01\n        /* \"03-mapping/mapping.sol\":2044:2045  j */\n      dup3\n        /* \"03-mapping/mapping.sol\":2044:2047  j-1 */\n      tag_113\n      swap2\n      swap1\n      tag_110\n      jump\t// in\n    tag_113:\n        /* \"03-mapping/mapping.sol\":2040:2048  arr[j-1] */\n      dup2\n      mload\n      dup2\n      lt\n      tag_114\n      jumpi\n      tag_115\n      tag_105\n      jump\t// in\n    tag_115:\n    tag_114:\n      0x20\n      mul\n      0x20\n      add\n      add\n      mload\n        /* \"03-mapping/mapping.sol\":2031:2034  arr */\n      dup6\n        /* \"03-mapping/mapping.sol\":2035:2036  j */\n      dup3\n        /* \"03-mapping/mapping.sol\":2031:2037  arr[j] */\n      dup2\n      mload\n      dup2\n      lt\n      tag_116\n      jumpi\n      tag_117\n      tag_105\n      jump\t// in\n    tag_117:\n    tag_116:\n      0x20\n      mul\n      0x20\n      add\n      add\n        /* \"03-mapping/mapping.sol\":2031:2048  arr[j] = arr[j-1] */\n      dup2\n      dup2\n      mstore\n      pop\n      pop\n        /* \"03-mapping/mapping.sol\":2066:2069  j-- */\n      dup1\n      dup1\n      tag_118\n      swap1\n      tag_119\n      jump\t// in\n    tag_118:\n      swap2\n      pop\n      pop\n        /* \"03-mapping/mapping.sol\":1977:2084  while ((j >=1) &&(temp < arr[j-1])) {... */\n      jump(tag_106)\n    tag_107:\n        /* \"03-mapping/mapping.sol\":2106:2110  temp */\n      dup2\n        /* \"03-mapping/mapping.sol\":2097:2100  arr */\n      dup6\n        /* \"03-mapping/mapping.sol\":2101:2102  j */\n      dup3\n        /* \"03-mapping/mapping.sol\":2097:2103  arr[j] */\n      dup2\n      mload\n      dup2\n      lt\n      tag_120\n      jumpi\n      tag_121\n      tag_105\n      jump\t// in\n    tag_121:\n    tag_120:\n      0x20\n      mul\n      0x20\n      add\n      add\n        /* \"03-mapping/mapping.sol\":2097:2110  arr[j] = temp */\n      dup2\n      dup2\n      mstore\n      pop\n      pop\n        /* \"03-mapping/mapping.sol\":1907:2121  {... */\n      pop\n      pop\n        /* \"03-mapping/mapping.sol\":1902:1905  i++ */\n      dup1\n      dup1\n      0x01\n      add\n      swap2\n      pop\n      pop\n        /* \"03-mapping/mapping.sol\":1875:2121  for (uint i=1;i<arr.length;i++) {... */\n      jump(tag_100)\n    tag_101:\n      pop\n        /* \"03-mapping/mapping.sol\":2137:2140  arr */\n      dup2\n        /* \"03-mapping/mapping.sol\":2130:2140  return arr */\n      swap1\n      pop\n        /* \"03-mapping/mapping.sol\":1791:2147  function bubbleSort(uint[] memory arr) public pure returns(uint[] memory) {... */\n      swap2\n      swap1\n      pop\n      jump\t// out\n        /* \"03-mapping/mapping.sol\":233:284  uint256 public immutable IMMUTABLE_NUM = 9999999999 */\n    tag_71:\n      immutable(\"0x52f1a9b320cab38e5da8a8f97989383aab0a49165fc91c737310e4f7e9821021\")\n      dup2\n      jump\t// out\n        /* \"#utility.yul\":7:82   */\n    tag_122:\n        /* \"#utility.yul\":40:46   */\n      0x00\n        /* \"#utility.yul\":73:75   */\n      0x40\n        /* \"#utility.yul\":67:76   */\n      mload\n        /* \"#utility.yul\":57:76   */\n      swap1\n      pop\n        /* \"#utility.yul\":7:82   */\n      swap1\n      jump\t// out\n        /* \"#utility.yul\":88:205   */\n    tag_123:\n        /* \"#utility.yul\":197:198   */\n      0x00\n        /* \"#utility.yul\":194:195   */\n      dup1\n        /* \"#utility.yul\":187:199   */\n      revert\n        /* \"#utility.yul\":211:328   */\n    tag_124:\n        /* \"#utility.yul\":320:321   */\n      0x00\n        /* \"#utility.yul\":317:318   */\n      dup1\n        /* \"#utility.yul\":310:322   */\n      revert\n        /* \"#utility.yul\":334:411   */\n    tag_125:\n        /* \"#utility.yul\":371:378   */\n      0x00\n        /* \"#utility.yul\":400:405   */\n      dup2\n        /* \"#utility.yul\":389:405   */\n      swap1\n      pop\n        /* \"#utility.yul\":334:411   */\n      swap2\n      swap1\n      pop\n      jump\t// out\n        /* \"#utility.yul\":417:539   */\n    tag_126:\n        /* \"#utility.yul\":490:514   */\n      tag_167\n        /* \"#utility.yul\":508:513   */\n      dup2\n        /* \"#utility.yul\":490:514   */\n      tag_125\n      jump\t// in\n    tag_167:\n        /* \"#utility.yul\":483:488   */\n      dup2\n        /* \"#utility.yul\":480:515   */\n      eq\n        /* \"#utility.yul\":470:533   */\n      tag_168\n      jumpi\n        /* \"#utility.yul\":529:530   */\n      0x00\n        /* \"#utility.yul\":526:527   */\n      dup1\n        /* \"#utility.yul\":519:531   */\n      revert\n        /* \"#utility.yul\":470:533   */\n    tag_168:\n        /* \"#utility.yul\":417:539   */\n      pop\n      jump\t// out\n        /* \"#utility.yul\":545:684   */\n    tag_127:\n        /* \"#utility.yul\":591:596   */\n      0x00\n        /* \"#utility.yul\":629:635   */\n      dup2\n        /* \"#utility.yul\":616:636   */\n      calldataload\n        /* \"#utility.yul\":607:636   */\n      swap1\n      pop\n        /* \"#utility.yul\":645:678   */\n      tag_170\n        /* \"#utility.yul\":672:677   */\n      dup2\n        /* \"#utility.yul\":645:678   */\n      tag_126\n      jump\t// in\n    tag_170:\n        /* \"#utility.yul\":545:684   */\n      swap3\n      swap2\n      pop\n      pop\n      jump\t// out\n        /* \"#utility.yul\":690:816   */\n    tag_128:\n        /* \"#utility.yul\":727:734   */\n      0x00\n        /* \"#utility.yul\":767:809   */\n      0xffffffffffffffffffffffffffffffffffffffff\n        /* \"#utility.yul\":760:765   */\n      dup3\n        /* \"#utility.yul\":756:810   */\n      and\n        /* \"#utility.yul\":745:810   */\n      swap1\n      pop\n        /* \"#utility.yul\":690:816   */\n      swap2\n      swap1\n      pop\n      jump\t// out\n        /* \"#utility.yul\":822:918   */\n    tag_129:\n        /* \"#utility.yul\":859:866   */\n      0x00\n        /* \"#utility.yul\":888:912   */\n      tag_173\n        /* \"#utility.yul\":906:911   */\n      dup3\n        /* \"#utility.yul\":888:912   */\n      tag_128\n      jump\t// in\n    tag_173:\n        /* \"#utility.yul\":877:912   */\n      swap1\n      pop\n        /* \"#utility.yul\":822:918   */\n      swap2\n      swap1\n      pop\n      jump\t// out\n        /* \"#utility.yul\":924:1046   */\n    tag_130:\n        /* \"#utility.yul\":997:1021   */\n      tag_175\n        /* \"#utility.yul\":1015:1020   */\n      dup2\n        /* \"#utility.yul\":997:1021   */\n      tag_129\n      jump\t// in\n    tag_175:\n        /* \"#utility.yul\":990:995   */\n      dup2\n        /* \"#utility.yul\":987:1022   */\n      eq\n        /* \"#utility.yul\":977:1040   */\n      tag_176\n      jumpi\n        /* \"#utility.yul\":1036:1037   */\n      0x00\n        /* \"#utility.yul\":1033:1034   */\n      dup1\n        /* \"#utility.yul\":1026:1038   */\n      revert\n        /* \"#utility.yul\":977:1040   */\n    tag_176:\n        /* \"#utility.yul\":924:1046   */\n      pop\n      jump\t// out\n        /* \"#utility.yul\":1052:1191   */\n    tag_131:\n        /* \"#utility.yul\":1098:1103   */\n      0x00\n        /* \"#utility.yul\":1136:1142   */\n      dup2\n        /* \"#utility.yul\":1123:1143   */\n      calldataload\n        /* \"#utility.yul\":1114:1143   */\n      swap1\n      pop\n        /* \"#utility.yul\":1152:1185   */\n      tag_178\n        /* \"#utility.yul\":1179:1184   */\n      dup2\n        /* \"#utility.yul\":1152:1185   */\n      tag_130\n      jump\t// in\n    tag_178:\n        /* \"#utility.yul\":1052:1191   */\n      swap3\n      swap2\n      pop\n      pop\n      jump\t// out\n        /* \"#utility.yul\":1197:1671   */\n    tag_20:\n        /* \"#utility.yul\":1265:1271   */\n      0x00\n        /* \"#utility.yul\":1273:1279   */\n      dup1\n        /* \"#utility.yul\":1322:1324   */\n      0x40\n        /* \"#utility.yul\":1310:1319   */\n      dup4\n        /* \"#utility.yul\":1301:1308   */\n      dup6\n        /* \"#utility.yul\":1297:1320   */\n      sub\n        /* \"#utility.yul\":1293:1325   */\n      slt\n        /* \"#utility.yul\":1290:1409   */\n      iszero\n      tag_180\n      jumpi\n        /* \"#utility.yul\":1328:1407   */\n      tag_181\n      tag_123\n      jump\t// in\n    tag_181:\n        /* \"#utility.yul\":1290:1409   */\n    tag_180:\n        /* \"#utility.yul\":1448:1449   */\n      0x00\n        /* \"#utility.yul\":1473:1526   */\n      tag_182\n        /* \"#utility.yul\":1518:1525   */\n      dup6\n        /* \"#utility.yul\":1509:1515   */\n      dup3\n        /* \"#utility.yul\":1498:1507   */\n      dup7\n        /* \"#utility.yul\":1494:1516   */\n      add\n        /* \"#utility.yul\":1473:1526   */\n      tag_127\n      jump\t// in\n    tag_182:\n        /* \"#utility.yul\":1463:1526   */\n      swap3\n      pop\n        /* \"#utility.yul\":1419:1536   */\n      pop\n        /* \"#utility.yul\":1575:1577   */\n      0x20\n        /* \"#utility.yul\":1601:1654   */\n      tag_183\n        /* \"#utility.yul\":1646:1653   */\n      dup6\n        /* \"#utility.yul\":1637:1643   */\n      dup3\n        /* \"#utility.yul\":1626:1635   */\n      dup7\n        /* \"#utility.yul\":1622:1644   */\n      add\n        /* \"#utility.yul\":1601:1654   */\n      tag_131\n      jump\t// in\n    tag_183:\n        /* \"#utility.yul\":1591:1654   */\n      swap2\n      pop\n        /* \"#utility.yul\":1546:1664   */\n      pop\n        /* \"#utility.yul\":1197:1671   */\n      swap3\n      pop\n      swap3\n      swap1\n      pop\n      jump\t// out\n        /* \"#utility.yul\":1677:1794   */\n    tag_132:\n        /* \"#utility.yul\":1786:1787   */\n      0x00\n        /* \"#utility.yul\":1783:1784   */\n      dup1\n        /* \"#utility.yul\":1776:1788   */\n      revert\n        /* \"#utility.yul\":1800:1917   */\n    tag_133:\n        /* \"#utility.yul\":1909:1910   */\n      0x00\n        /* \"#utility.yul\":1906:1907   */\n      dup1\n        /* \"#utility.yul\":1899:1911   */\n      revert\n        /* \"#utility.yul\":1923:2040   */\n    tag_134:\n        /* \"#utility.yul\":2032:2033   */\n      0x00\n        /* \"#utility.yul\":2029:2030   */\n      dup1\n        /* \"#utility.yul\":2022:2034   */\n      revert\n        /* \"#utility.yul\":2060:2613   */\n    tag_135:\n        /* \"#utility.yul\":2118:2126   */\n      0x00\n        /* \"#utility.yul\":2128:2134   */\n      dup1\n        /* \"#utility.yul\":2178:2181   */\n      dup4\n        /* \"#utility.yul\":2171:2175   */\n      0x1f\n        /* \"#utility.yul\":2163:2169   */\n      dup5\n        /* \"#utility.yul\":2159:2176   */\n      add\n        /* \"#utility.yul\":2155:2182   */\n      slt\n        /* \"#utility.yul\":2145:2267   */\n      tag_188\n      jumpi\n        /* \"#utility.yul\":2186:2265   */\n      tag_189\n      tag_132\n      jump\t// in\n    tag_189:\n        /* \"#utility.yul\":2145:2267   */\n    tag_188:\n        /* \"#utility.yul\":2299:2305   */\n      dup3\n        /* \"#utility.yul\":2286:2306   */\n      calldataload\n        /* \"#utility.yul\":2276:2306   */\n      swap1\n      pop\n        /* \"#utility.yul\":2329:2347   */\n      0xffffffffffffffff\n        /* \"#utility.yul\":2321:2327   */\n      dup2\n        /* \"#utility.yul\":2318:2348   */\n      gt\n        /* \"#utility.yul\":2315:2432   */\n      iszero\n      tag_190\n      jumpi\n        /* \"#utility.yul\":2351:2430   */\n      tag_191\n      tag_133\n      jump\t// in\n    tag_191:\n        /* \"#utility.yul\":2315:2432   */\n    tag_190:\n        /* \"#utility.yul\":2465:2469   */\n      0x20\n        /* \"#utility.yul\":2457:2463   */\n      dup4\n        /* \"#utility.yul\":2453:2470   */\n      add\n        /* \"#utility.yul\":2441:2470   */\n      swap2\n      pop\n        /* \"#utility.yul\":2519:2522   */\n      dup4\n        /* \"#utility.yul\":2511:2515   */\n      0x01\n        /* \"#utility.yul\":2503:2509   */\n      dup3\n        /* \"#utility.yul\":2499:2516   */\n      mul\n        /* \"#utility.yul\":2489:2497   */\n      dup4\n        /* \"#utility.yul\":2485:2517   */\n      add\n        /* \"#utility.yul\":2482:2523   */\n      gt\n        /* \"#utility.yul\":2479:2607   */\n      iszero\n      tag_192\n      jumpi\n        /* \"#utility.yul\":2526:2605   */\n      tag_193\n      tag_134\n      jump\t// in\n    tag_193:\n        /* \"#utility.yul\":2479:2607   */\n    tag_192:\n        /* \"#utility.yul\":2060:2613   */\n      swap3\n      pop\n      swap3\n      swap1\n      pop\n      jump\t// out\n        /* \"#utility.yul\":2619:3293   */\n    tag_24:\n        /* \"#utility.yul\":2699:2705   */\n      0x00\n        /* \"#utility.yul\":2707:2713   */\n      dup1\n        /* \"#utility.yul\":2715:2721   */\n      0x00\n        /* \"#utility.yul\":2764:2766   */\n      0x40\n        /* \"#utility.yul\":2752:2761   */\n      dup5\n        /* \"#utility.yul\":2743:2750   */\n      dup7\n        /* \"#utility.yul\":2739:2762   */\n      sub\n        /* \"#utility.yul\":2735:2767   */\n      slt\n        /* \"#utility.yul\":2732:2851   */\n      iszero\n      tag_195\n      jumpi\n        /* \"#utility.yul\":2770:2849   */\n      tag_196\n      tag_123\n      jump\t// in\n    tag_196:\n        /* \"#utility.yul\":2732:2851   */\n    tag_195:\n        /* \"#utility.yul\":2918:2919   */\n      0x00\n        /* \"#utility.yul\":2907:2916   */\n      dup5\n        /* \"#utility.yul\":2903:2920   */\n      add\n        /* \"#utility.yul\":2890:2921   */\n      calldataload\n        /* \"#utility.yul\":2948:2966   */\n      0xffffffffffffffff\n        /* \"#utility.yul\":2940:2946   */\n      dup2\n        /* \"#utility.yul\":2937:2967   */\n      gt\n        /* \"#utility.yul\":2934:3051   */\n      iszero\n      tag_197\n      jumpi\n        /* \"#utility.yul\":2970:3049   */\n      tag_198\n      tag_124\n      jump\t// in\n    tag_198:\n        /* \"#utility.yul\":2934:3051   */\n    tag_197:\n        /* \"#utility.yul\":3083:3148   */\n      tag_199\n        /* \"#utility.yul\":3140:3147   */\n      dup7\n        /* \"#utility.yul\":3131:3137   */\n      dup3\n        /* \"#utility.yul\":3120:3129   */\n      dup8\n        /* \"#utility.yul\":3116:3138   */\n      add\n        /* \"#utility.yul\":3083:3148   */\n      tag_135\n      jump\t// in\n    tag_199:\n        /* \"#utility.yul\":3065:3148   */\n      swap4\n      pop\n      swap4\n      pop\n        /* \"#utility.yul\":2861:3158   */\n      pop\n        /* \"#utility.yul\":3197:3199   */\n      0x20\n        /* \"#utility.yul\":3223:3276   */\n      tag_200\n        /* \"#utility.yul\":3268:3275   */\n      dup7\n        /* \"#utility.yul\":3259:3265   */\n      dup3\n        /* \"#utility.yul\":3248:3257   */\n      dup8\n        /* \"#utility.yul\":3244:3266   */\n      add\n        /* \"#utility.yul\":3223:3276   */\n      tag_131\n      jump\t// in\n    tag_200:\n        /* \"#utility.yul\":3213:3276   */\n      swap2\n      pop\n        /* \"#utility.yul\":3168:3286   */\n      pop\n        /* \"#utility.yul\":2619:3293   */\n      swap3\n      pop\n      swap3\n      pop\n      swap3\n      jump\t// out\n        /* \"#utility.yul\":3299:3628   */\n    tag_28:\n        /* \"#utility.yul\":3358:3364   */\n      0x00\n        /* \"#utility.yul\":3407:3409   */\n      0x20\n        /* \"#utility.yul\":3395:3404   */\n      dup3\n        /* \"#utility.yul\":3386:3393   */\n      dup5\n        /* \"#utility.yul\":3382:3405   */\n      sub\n        /* \"#utility.yul\":3378:3410   */\n      slt\n        /* \"#utility.yul\":3375:3494   */\n      iszero\n      tag_202\n      jumpi\n        /* \"#utility.yul\":3413:3492   */\n      tag_203\n      tag_123\n      jump\t// in\n    tag_203:\n        /* \"#utility.yul\":3375:3494   */\n    tag_202:\n        /* \"#utility.yul\":3533:3534   */\n      0x00\n        /* \"#utility.yul\":3558:3611   */\n      tag_204\n        /* \"#utility.yul\":3603:3610   */\n      dup5\n        /* \"#utility.yul\":3594:3600   */\n      dup3\n        /* \"#utility.yul\":3583:3592   */\n      dup6\n        /* \"#utility.yul\":3579:3601   */\n      add\n        /* \"#utility.yul\":3558:3611   */\n      tag_127\n      jump\t// in\n    tag_204:\n        /* \"#utility.yul\":3548:3611   */\n      swap2\n      pop\n        /* \"#utility.yul\":3504:3621   */\n      pop\n        /* \"#utility.yul\":3299:3628   */\n      swap3\n      swap2\n      pop\n      pop\n      jump\t// out\n        /* \"#utility.yul\":3634:3752   */\n    tag_136:\n        /* \"#utility.yul\":3721:3745   */\n      tag_206\n        /* \"#utility.yul\":3739:3744   */\n      dup2\n        /* \"#utility.yul\":3721:3745   */\n      tag_129\n      jump\t// in\n    tag_206:\n        /* \"#utility.yul\":3716:3719   */\n      dup3\n        /* \"#utility.yul\":3709:3746   */\n      mstore\n        /* \"#utility.yul\":3634:3752   */\n      pop\n      pop\n      jump\t// out\n        /* \"#utility.yul\":3758:3980   */\n    tag_31:\n        /* \"#utility.yul\":3851:3855   */\n      0x00\n        /* \"#utility.yul\":3889:3891   */\n      0x20\n        /* \"#utility.yul\":3878:3887   */\n      dup3\n        /* \"#utility.yul\":3874:3892   */\n      add\n        /* \"#utility.yul\":3866:3892   */\n      swap1\n      pop\n        /* \"#utility.yul\":3902:3973   */\n      tag_208\n        /* \"#utility.yul\":3970:3971   */\n      0x00\n        /* \"#utility.yul\":3959:3968   */\n      dup4\n        /* \"#utility.yul\":3955:3972   */\n      add\n        /* \"#utility.yul\":3946:3952   */\n      dup5\n        /* \"#utility.yul\":3902:3973   */\n      tag_136\n      jump\t// in\n    tag_208:\n        /* \"#utility.yul\":3758:3980   */\n      swap3\n      swap2\n      pop\n      pop\n      jump\t// out\n        /* \"#utility.yul\":3986:4104   */\n    tag_137:\n        /* \"#utility.yul\":4073:4097   */\n      tag_210\n        /* \"#utility.yul\":4091:4096   */\n      dup2\n        /* \"#utility.yul\":4073:4097   */\n      tag_125\n      jump\t// in\n    tag_210:\n        /* \"#utility.yul\":4068:4071   */\n      dup3\n        /* \"#utility.yul\":4061:4098   */\n      mstore\n        /* \"#utility.yul\":3986:4104   */\n      pop\n      pop\n      jump\t// out\n        /* \"#utility.yul\":4110:4332   */\n    tag_36:\n        /* \"#utility.yul\":4203:4207   */\n      0x00\n        /* \"#utility.yul\":4241:4243   */\n      0x20\n        /* \"#utility.yul\":4230:4239   */\n      dup3\n        /* \"#utility.yul\":4226:4244   */\n      add\n        /* \"#utility.yul\":4218:4244   */\n      swap1\n      pop\n        /* \"#utility.yul\":4254:4325   */\n      tag_212\n        /* \"#utility.yul\":4322:4323   */\n      0x00\n        /* \"#utility.yul\":4311:4320   */\n      dup4\n        /* \"#utility.yul\":4307:4324   */\n      add\n        /* \"#utility.yul\":4298:4304   */\n      dup5\n        /* \"#utility.yul\":4254:4325   */\n      tag_137\n      jump\t// in\n    tag_212:\n        /* \"#utility.yul\":4110:4332   */\n      swap3\n      swap2\n      pop\n      pop\n      jump\t// out\n        /* \"#utility.yul\":4338:4428   */\n    tag_138:\n        /* \"#utility.yul\":4372:4379   */\n      0x00\n        /* \"#utility.yul\":4415:4420   */\n      dup2\n        /* \"#utility.yul\":4408:4421   */\n      iszero\n        /* \"#utility.yul\":4401:4422   */\n      iszero\n        /* \"#utility.yul\":4390:4422   */\n      swap1\n      pop\n        /* \"#utility.yul\":4338:4428   */\n      swap2\n      swap1\n      pop\n      jump\t// out\n        /* \"#utility.yul\":4434:4543   */\n    tag_139:\n        /* \"#utility.yul\":4515:4536   */\n      tag_215\n        /* \"#utility.yul\":4530:4535   */\n      dup2\n        /* \"#utility.yul\":4515:4536   */\n      tag_138\n      jump\t// in\n    tag_215:\n        /* \"#utility.yul\":4510:4513   */\n      dup3\n        /* \"#utility.yul\":4503:4537   */\n      mstore\n        /* \"#utility.yul\":4434:4543   */\n      pop\n      pop\n      jump\t// out\n        /* \"#utility.yul\":4549:4759   */\n    tag_41:\n        /* \"#utility.yul\":4636:4640   */\n      0x00\n        /* \"#utility.yul\":4674:4676   */\n      0x20\n        /* \"#utility.yul\":4663:4672   */\n      dup3\n        /* \"#utility.yul\":4659:4677   */\n      add\n        /* \"#utility.yul\":4651:4677   */\n      swap1\n      pop\n        /* \"#utility.yul\":4687:4752   */\n      tag_217\n        /* \"#utility.yul\":4749:4750   */\n      0x00\n        /* \"#utility.yul\":4738:4747   */\n      dup4\n        /* \"#utility.yul\":4734:4751   */\n      add\n        /* \"#utility.yul\":4725:4731   */\n      dup5\n        /* \"#utility.yul\":4687:4752   */\n      tag_139\n      jump\t// in\n    tag_217:\n        /* \"#utility.yul\":4549:4759   */\n      swap3\n      swap2\n      pop\n      pop\n      jump\t// out\n        /* \"#utility.yul\":4765:4842   */\n    tag_140:\n        /* \"#utility.yul\":4802:4809   */\n      0x00\n        /* \"#utility.yul\":4831:4836   */\n      dup2\n        /* \"#utility.yul\":4820:4836   */\n      swap1\n      pop\n        /* \"#utility.yul\":4765:4842   */\n      swap2\n      swap1\n      pop\n      jump\t// out\n        /* \"#utility.yul\":4848:4970   */\n    tag_141:\n        /* \"#utility.yul\":4921:4945   */\n      tag_220\n        /* \"#utility.yul\":4939:4944   */\n      dup2\n        /* \"#utility.yul\":4921:4945   */\n      tag_140\n      jump\t// in\n    tag_220:\n        /* \"#utility.yul\":4914:4919   */\n      dup2\n        /* \"#utility.yul\":4911:4946   */\n      eq\n        /* \"#utility.yul\":4901:4964   */\n      tag_221\n      jumpi\n        /* \"#utility.yul\":4960:4961   */\n      0x00\n        /* \"#utility.yul\":4957:4958   */\n      dup1\n        /* \"#utility.yul\":4950:4962   */\n      revert\n        /* \"#utility.yul\":4901:4964   */\n    tag_221:\n        /* \"#utility.yul\":4848:4970   */\n      pop\n      jump\t// out\n        /* \"#utility.yul\":4976:5115   */\n    tag_142:\n        /* \"#utility.yul\":5022:5027   */\n      0x00\n        /* \"#utility.yul\":5060:5066   */\n      dup2\n        /* \"#utility.yul\":5047:5067   */\n      calldataload\n        /* \"#utility.yul\":5038:5067   */\n      swap1\n      pop\n        /* \"#utility.yul\":5076:5109   */\n      tag_223\n        /* \"#utility.yul\":5103:5108   */\n      dup2\n        /* \"#utility.yul\":5076:5109   */\n      tag_141\n      jump\t// in\n    tag_223:\n        /* \"#utility.yul\":4976:5115   */\n      swap3\n      swap2\n      pop\n      pop\n      jump\t// out\n        /* \"#utility.yul\":5121:5450   */\n    tag_48:\n        /* \"#utility.yul\":5180:5186   */\n      0x00\n        /* \"#utility.yul\":5229:5231   */\n      0x20\n        /* \"#utility.yul\":5217:5226   */\n      dup3\n        /* \"#utility.yul\":5208:5215   */\n      dup5\n        /* \"#utility.yul\":5204:5227   */\n      sub\n        /* \"#utility.yul\":5200:5232   */\n      slt\n        /* \"#utility.yul\":5197:5316   */\n      iszero\n      tag_225\n      jumpi\n        /* \"#utility.yul\":5235:5314   */\n      tag_226\n      tag_123\n      jump\t// in\n    tag_226:\n        /* \"#utility.yul\":5197:5316   */\n    tag_225:\n        /* \"#utility.yul\":5355:5356   */\n      0x00\n        /* \"#utility.yul\":5380:5433   */\n      tag_227\n        /* \"#utility.yul\":5425:5432   */\n      dup5\n        /* \"#utility.yul\":5416:5422   */\n      dup3\n        /* \"#utility.yul\":5405:5414   */\n      dup6\n        /* \"#utility.yul\":5401:5423   */\n      add\n        /* \"#utility.yul\":5380:5433   */\n      tag_142\n      jump\t// in\n    tag_227:\n        /* \"#utility.yul\":5370:5433   */\n      swap2\n      pop\n        /* \"#utility.yul\":5326:5443   */\n      pop\n        /* \"#utility.yul\":5121:5450   */\n      swap3\n      swap2\n      pop\n      pop\n      jump\t// out\n        /* \"#utility.yul\":5456:5558   */\n    tag_143:\n        /* \"#utility.yul\":5497:5503   */\n      0x00\n        /* \"#utility.yul\":5548:5550   */\n      0x1f\n        /* \"#utility.yul\":5544:5551   */\n      not\n        /* \"#utility.yul\":5539:5541   */\n      0x1f\n        /* \"#utility.yul\":5532:5537   */\n      dup4\n        /* \"#utility.yul\":5528:5542   */\n      add\n        /* \"#utility.yul\":5524:5552   */\n      and\n        /* \"#utility.yul\":5514:5552   */\n      swap1\n      pop\n        /* \"#utility.yul\":5456:5558   */\n      swap2\n      swap1\n      pop\n      jump\t// out\n        /* \"#utility.yul\":5564:5744   */\n    tag_144:\n        /* \"#utility.yul\":5612:5689   */\n      0x4e487b7100000000000000000000000000000000000000000000000000000000\n        /* \"#utility.yul\":5609:5610   */\n      0x00\n        /* \"#utility.yul\":5602:5690   */\n      mstore\n        /* \"#utility.yul\":5709:5713   */\n      0x41\n        /* \"#utility.yul\":5706:5707   */\n      0x04\n        /* \"#utility.yul\":5699:5714   */\n      mstore\n        /* \"#utility.yul\":5733:5737   */\n      0x24\n        /* \"#utility.yul\":5730:5731   */\n      0x00\n        /* \"#utility.yul\":5723:5738   */\n      revert\n        /* \"#utility.yul\":5750:6031   */\n    tag_145:\n        /* \"#utility.yul\":5833:5860   */\n      tag_231\n        /* \"#utility.yul\":5855:5859   */\n      dup3\n        /* \"#utility.yul\":5833:5860   */\n      tag_143\n      jump\t// in\n    tag_231:\n        /* \"#utility.yul\":5825:5831   */\n      dup2\n        /* \"#utility.yul\":5821:5861   */\n      add\n        /* \"#utility.yul\":5963:5969   */\n      dup2\n        /* \"#utility.yul\":5951:5961   */\n      dup2\n        /* \"#utility.yul\":5948:5970   */\n      lt\n        /* \"#utility.yul\":5927:5945   */\n      0xffffffffffffffff\n        /* \"#utility.yul\":5915:5925   */\n      dup3\n        /* \"#utility.yul\":5912:5946   */\n      gt\n        /* \"#utility.yul\":5909:5971   */\n      or\n        /* \"#utility.yul\":5906:5994   */\n      iszero\n      tag_232\n      jumpi\n        /* \"#utility.yul\":5974:5992   */\n      tag_233\n      tag_144\n      jump\t// in\n    tag_233:\n        /* \"#utility.yul\":5906:5994   */\n    tag_232:\n        /* \"#utility.yul\":6014:6024   */\n      dup1\n        /* \"#utility.yul\":6010:6012   */\n      0x40\n        /* \"#utility.yul\":6003:6025   */\n      mstore\n        /* \"#utility.yul\":5793:6031   */\n      pop\n        /* \"#utility.yul\":5750:6031   */\n      pop\n      pop\n      jump\t// out\n        /* \"#utility.yul\":6037:6166   */\n    tag_146:\n        /* \"#utility.yul\":6071:6077   */\n      0x00\n        /* \"#utility.yul\":6098:6118   */\n      tag_235\n      tag_122\n      jump\t// in\n    tag_235:\n        /* \"#utility.yul\":6088:6118   */\n      swap1\n      pop\n        /* \"#utility.yul\":6127:6160   */\n      tag_236\n        /* \"#utility.yul\":6155:6159   */\n      dup3\n        /* \"#utility.yul\":6147:6153   */\n      dup3\n        /* \"#utility.yul\":6127:6160   */\n      tag_145\n      jump\t// in\n    tag_236:\n        /* \"#utility.yul\":6037:6166   */\n      swap2\n      swap1\n      pop\n      jump\t// out\n        /* \"#utility.yul\":6172:6483   */\n    tag_147:\n        /* \"#utility.yul\":6249:6253   */\n      0x00\n        /* \"#utility.yul\":6339:6357   */\n      0xffffffffffffffff\n        /* \"#utility.yul\":6331:6337   */\n      dup3\n        /* \"#utility.yul\":6328:6358   */\n      gt\n        /* \"#utility.yul\":6325:6381   */\n      iszero\n      tag_238\n      jumpi\n        /* \"#utility.yul\":6361:6379   */\n      tag_239\n      tag_144\n      jump\t// in\n    tag_239:\n        /* \"#utility.yul\":6325:6381   */\n    tag_238:\n        /* \"#utility.yul\":6411:6415   */\n      0x20\n        /* \"#utility.yul\":6403:6409   */\n      dup3\n        /* \"#utility.yul\":6399:6416   */\n      mul\n        /* \"#utility.yul\":6391:6416   */\n      swap1\n      pop\n        /* \"#utility.yul\":6471:6475   */\n      0x20\n        /* \"#utility.yul\":6465:6469   */\n      dup2\n        /* \"#utility.yul\":6461:6476   */\n      add\n        /* \"#utility.yul\":6453:6476   */\n      swap1\n      pop\n        /* \"#utility.yul\":6172:6483   */\n      swap2\n      swap1\n      pop\n      jump\t// out\n        /* \"#utility.yul\":6506:7216   */\n    tag_148:\n        /* \"#utility.yul\":6602:6607   */\n      0x00\n        /* \"#utility.yul\":6627:6708   */\n      tag_241\n        /* \"#utility.yul\":6643:6707   */\n      tag_242\n        /* \"#utility.yul\":6700:6706   */\n      dup5\n        /* \"#utility.yul\":6643:6707   */\n      tag_147\n      jump\t// in\n    tag_242:\n        /* \"#utility.yul\":6627:6708   */\n      tag_146\n      jump\t// in\n    tag_241:\n        /* \"#utility.yul\":6618:6708   */\n      swap1\n      pop\n        /* \"#utility.yul\":6728:6733   */\n      dup1\n        /* \"#utility.yul\":6757:6763   */\n      dup4\n        /* \"#utility.yul\":6750:6755   */\n      dup3\n        /* \"#utility.yul\":6743:6764   */\n      mstore\n        /* \"#utility.yul\":6791:6795   */\n      0x20\n        /* \"#utility.yul\":6784:6789   */\n      dup3\n        /* \"#utility.yul\":6780:6796   */\n      add\n        /* \"#utility.yul\":6773:6796   */\n      swap1\n      pop\n        /* \"#utility.yul\":6844:6848   */\n      0x20\n        /* \"#utility.yul\":6836:6842   */\n      dup5\n        /* \"#utility.yul\":6832:6849   */\n      mul\n        /* \"#utility.yul\":6824:6830   */\n      dup4\n        /* \"#utility.yul\":6820:6850   */\n      add\n        /* \"#utility.yul\":6873:6876   */\n      dup6\n        /* \"#utility.yul\":6865:6871   */\n      dup2\n        /* \"#utility.yul\":6862:6877   */\n      gt\n        /* \"#utility.yul\":6859:6981   */\n      iszero\n      tag_243\n      jumpi\n        /* \"#utility.yul\":6892:6971   */\n      tag_244\n      tag_134\n      jump\t// in\n    tag_244:\n        /* \"#utility.yul\":6859:6981   */\n    tag_243:\n        /* \"#utility.yul\":7007:7013   */\n      dup4\n        /* \"#utility.yul\":6990:7210   */\n    tag_245:\n        /* \"#utility.yul\":7024:7030   */\n      dup2\n        /* \"#utility.yul\":7019:7022   */\n      dup2\n        /* \"#utility.yul\":7016:7031   */\n      lt\n        /* \"#utility.yul\":6990:7210   */\n      iszero\n      tag_247\n      jumpi\n        /* \"#utility.yul\":7099:7102   */\n      dup1\n        /* \"#utility.yul\":7128:7165   */\n      tag_248\n        /* \"#utility.yul\":7161:7164   */\n      dup9\n        /* \"#utility.yul\":7149:7159   */\n      dup3\n        /* \"#utility.yul\":7128:7165   */\n      tag_127\n      jump\t// in\n    tag_248:\n        /* \"#utility.yul\":7123:7126   */\n      dup5\n        /* \"#utility.yul\":7116:7166   */\n      mstore\n        /* \"#utility.yul\":7195:7199   */\n      0x20\n        /* \"#utility.yul\":7190:7193   */\n      dup5\n        /* \"#utility.yul\":7186:7200   */\n      add\n        /* \"#utility.yul\":7179:7200   */\n      swap4\n      pop\n        /* \"#utility.yul\":7066:7210   */\n      pop\n        /* \"#utility.yul\":7050:7054   */\n      0x20\n        /* \"#utility.yul\":7045:7048   */\n      dup2\n        /* \"#utility.yul\":7041:7055   */\n      add\n        /* \"#utility.yul\":7034:7055   */\n      swap1\n      pop\n        /* \"#utility.yul\":6990:7210   */\n      jump(tag_245)\n    tag_247:\n        /* \"#utility.yul\":6994:7015   */\n      pop\n        /* \"#utility.yul\":6608:7216   */\n      pop\n      pop\n        /* \"#utility.yul\":6506:7216   */\n      swap4\n      swap3\n      pop\n      pop\n      pop\n      jump\t// out\n        /* \"#utility.yul\":7239:7609   */\n    tag_149:\n        /* \"#utility.yul\":7310:7315   */\n      0x00\n        /* \"#utility.yul\":7359:7362   */\n      dup3\n        /* \"#utility.yul\":7352:7356   */\n      0x1f\n        /* \"#utility.yul\":7344:7350   */\n      dup4\n        /* \"#utility.yul\":7340:7357   */\n      add\n        /* \"#utility.yul\":7336:7363   */\n      slt\n        /* \"#utility.yul\":7326:7448   */\n      tag_250\n      jumpi\n        /* \"#utility.yul\":7367:7446   */\n      tag_251\n      tag_132\n      jump\t// in\n    tag_251:\n        /* \"#utility.yul\":7326:7448   */\n    tag_250:\n        /* \"#utility.yul\":7484:7490   */\n      dup2\n        /* \"#utility.yul\":7471:7491   */\n      calldataload\n        /* \"#utility.yul\":7509:7603   */\n      tag_252\n        /* \"#utility.yul\":7599:7602   */\n      dup5\n        /* \"#utility.yul\":7591:7597   */\n      dup3\n        /* \"#utility.yul\":7584:7588   */\n      0x20\n        /* \"#utility.yul\":7576:7582   */\n      dup7\n        /* \"#utility.yul\":7572:7589   */\n      add\n        /* \"#utility.yul\":7509:7603   */\n      tag_148\n      jump\t// in\n    tag_252:\n        /* \"#utility.yul\":7500:7603   */\n      swap2\n      pop\n        /* \"#utility.yul\":7316:7609   */\n      pop\n        /* \"#utility.yul\":7239:7609   */\n      swap3\n      swap2\n      pop\n      pop\n      jump\t// out\n        /* \"#utility.yul\":7615:8154   */\n    tag_66:\n        /* \"#utility.yul\":7699:7705   */\n      0x00\n        /* \"#utility.yul\":7748:7750   */\n      0x20\n        /* \"#utility.yul\":7736:7745   */\n      dup3\n        /* \"#utility.yul\":7727:7734   */\n      dup5\n        /* \"#utility.yul\":7723:7746   */\n      sub\n        /* \"#utility.yul\":7719:7751   */\n      slt\n        /* \"#utility.yul\":7716:7835   */\n      iszero\n      tag_254\n      jumpi\n        /* \"#utility.yul\":7754:7833   */\n      tag_255\n      tag_123\n      jump\t// in\n    tag_255:\n        /* \"#utility.yul\":7716:7835   */\n    tag_254:\n        /* \"#utility.yul\":7902:7903   */\n      0x00\n        /* \"#utility.yul\":7891:7900   */\n      dup3\n        /* \"#utility.yul\":7887:7904   */\n      add\n        /* \"#utility.yul\":7874:7905   */\n      calldataload\n        /* \"#utility.yul\":7932:7950   */\n      0xffffffffffffffff\n        /* \"#utility.yul\":7924:7930   */\n      dup2\n        /* \"#utility.yul\":7921:7951   */\n      gt\n        /* \"#utility.yul\":7918:8035   */\n      iszero\n      tag_256\n      jumpi\n        /* \"#utility.yul\":7954:8033   */\n      tag_257\n      tag_124\n      jump\t// in\n    tag_257:\n        /* \"#utility.yul\":7918:8035   */\n    tag_256:\n        /* \"#utility.yul\":8059:8137   */\n      tag_258\n        /* \"#utility.yul\":8129:8136   */\n      dup5\n        /* \"#utility.yul\":8120:8126   */\n      dup3\n        /* \"#utility.yul\":8109:8118   */\n      dup6\n        /* \"#utility.yul\":8105:8127   */\n      add\n        /* \"#utility.yul\":8059:8137   */\n      tag_149\n      jump\t// in\n    tag_258:\n        /* \"#utility.yul\":8049:8137   */\n      swap2\n      pop\n        /* \"#utility.yul\":7845:8147   */\n      pop\n        /* \"#utility.yul\":7615:8154   */\n      swap3\n      swap2\n      pop\n      pop\n      jump\t// out\n        /* \"#utility.yul\":8160:8274   */\n    tag_150:\n        /* \"#utility.yul\":8227:8233   */\n      0x00\n        /* \"#utility.yul\":8261:8266   */\n      dup2\n        /* \"#utility.yul\":8255:8267   */\n      mload\n        /* \"#utility.yul\":8245:8267   */\n      swap1\n      pop\n        /* \"#utility.yul\":8160:8274   */\n      swap2\n      swap1\n      pop\n      jump\t// out\n        /* \"#utility.yul\":8280:8464   */\n    tag_151:\n        /* \"#utility.yul\":8379:8390   */\n      0x00\n        /* \"#utility.yul\":8413:8419   */\n      dup3\n        /* \"#utility.yul\":8408:8411   */\n      dup3\n        /* \"#utility.yul\":8401:8420   */\n      mstore\n        /* \"#utility.yul\":8453:8457   */\n      0x20\n        /* \"#utility.yul\":8448:8451   */\n      dup3\n        /* \"#utility.yul\":8444:8458   */\n      add\n        /* \"#utility.yul\":8429:8458   */\n      swap1\n      pop\n        /* \"#utility.yul\":8280:8464   */\n      swap3\n      swap2\n      pop\n      pop\n      jump\t// out\n        /* \"#utility.yul\":8470:8602   */\n    tag_152:\n        /* \"#utility.yul\":8537:8541   */\n      0x00\n        /* \"#utility.yul\":8560:8563   */\n      dup2\n        /* \"#utility.yul\":8552:8563   */\n      swap1\n      pop\n        /* \"#utility.yul\":8590:8594   */\n      0x20\n        /* \"#utility.yul\":8585:8588   */\n      dup3\n        /* \"#utility.yul\":8581:8595   */\n      add\n        /* \"#utility.yul\":8573:8595   */\n      swap1\n      pop\n        /* \"#utility.yul\":8470:8602   */\n      swap2\n      swap1\n      pop\n      jump\t// out\n        /* \"#utility.yul\":8608:8716   */\n    tag_153:\n        /* \"#utility.yul\":8685:8709   */\n      tag_263\n        /* \"#utility.yul\":8703:8708   */\n      dup2\n        /* \"#utility.yul\":8685:8709   */\n      tag_125\n      jump\t// in\n    tag_263:\n        /* \"#utility.yul\":8680:8683   */\n      dup3\n        /* \"#utility.yul\":8673:8710   */\n      mstore\n        /* \"#utility.yul\":8608:8716   */\n      pop\n      pop\n      jump\t// out\n        /* \"#utility.yul\":8722:8901   */\n    tag_154:\n        /* \"#utility.yul\":8791:8801   */\n      0x00\n        /* \"#utility.yul\":8812:8858   */\n      tag_265\n        /* \"#utility.yul\":8854:8857   */\n      dup4\n        /* \"#utility.yul\":8846:8852   */\n      dup4\n        /* \"#utility.yul\":8812:8858   */\n      tag_153\n      jump\t// in\n    tag_265:\n        /* \"#utility.yul\":8890:8894   */\n      0x20\n        /* \"#utility.yul\":8885:8888   */\n      dup4\n        /* \"#utility.yul\":8881:8895   */\n      add\n        /* \"#utility.yul\":8867:8895   */\n      swap1\n      pop\n        /* \"#utility.yul\":8722:8901   */\n      swap3\n      swap2\n      pop\n      pop\n      jump\t// out\n        /* \"#utility.yul\":8907:9020   */\n    tag_155:\n        /* \"#utility.yul\":8977:8981   */\n      0x00\n        /* \"#utility.yul\":9009:9013   */\n      0x20\n        /* \"#utility.yul\":9004:9007   */\n      dup3\n        /* \"#utility.yul\":9000:9014   */\n      add\n        /* \"#utility.yul\":8992:9014   */\n      swap1\n      pop\n        /* \"#utility.yul\":8907:9020   */\n      swap2\n      swap1\n      pop\n      jump\t// out\n        /* \"#utility.yul\":9056:9788   */\n    tag_156:\n        /* \"#utility.yul\":9175:9178   */\n      0x00\n        /* \"#utility.yul\":9204:9258   */\n      tag_268\n        /* \"#utility.yul\":9252:9257   */\n      dup3\n        /* \"#utility.yul\":9204:9258   */\n      tag_150\n      jump\t// in\n    tag_268:\n        /* \"#utility.yul\":9274:9360   */\n      tag_269\n        /* \"#utility.yul\":9353:9359   */\n      dup2\n        /* \"#utility.yul\":9348:9351   */\n      dup6\n        /* \"#utility.yul\":9274:9360   */\n      tag_151\n      jump\t// in\n    tag_269:\n        /* \"#utility.yul\":9267:9360   */\n      swap4\n      pop\n        /* \"#utility.yul\":9384:9440   */\n      tag_270\n        /* \"#utility.yul\":9434:9439   */\n      dup4\n        /* \"#utility.yul\":9384:9440   */\n      tag_152\n      jump\t// in\n    tag_270:\n        /* \"#utility.yul\":9463:9470   */\n      dup1\n        /* \"#utility.yul\":9494:9495   */\n      0x00\n        /* \"#utility.yul\":9479:9763   */\n    tag_271:\n        /* \"#utility.yul\":9504:9510   */\n      dup4\n        /* \"#utility.yul\":9501:9502   */\n      dup2\n        /* \"#utility.yul\":9498:9511   */\n      lt\n        /* \"#utility.yul\":9479:9763   */\n      iszero\n      tag_273\n      jumpi\n        /* \"#utility.yul\":9580:9586   */\n      dup2\n        /* \"#utility.yul\":9574:9587   */\n      mload\n        /* \"#utility.yul\":9607:9670   */\n      tag_274\n        /* \"#utility.yul\":9666:9669   */\n      dup9\n        /* \"#utility.yul\":9651:9664   */\n      dup3\n        /* \"#utility.yul\":9607:9670   */\n      tag_154\n      jump\t// in\n    tag_274:\n        /* \"#utility.yul\":9600:9670   */\n      swap8\n      pop\n        /* \"#utility.yul\":9693:9753   */\n      tag_275\n        /* \"#utility.yul\":9746:9752   */\n      dup4\n        /* \"#utility.yul\":9693:9753   */\n      tag_155\n      jump\t// in\n    tag_275:\n        /* \"#utility.yul\":9683:9753   */\n      swap3\n      pop\n        /* \"#utility.yul\":9539:9763   */\n      pop\n        /* \"#utility.yul\":9526:9527   */\n      0x01\n        /* \"#utility.yul\":9523:9524   */\n      dup2\n        /* \"#utility.yul\":9519:9528   */\n      add\n        /* \"#utility.yul\":9514:9528   */\n      swap1\n      pop\n        /* \"#utility.yul\":9479:9763   */\n      jump(tag_271)\n    tag_273:\n        /* \"#utility.yul\":9483:9497   */\n      pop\n        /* \"#utility.yul\":9779:9782   */\n      dup6\n        /* \"#utility.yul\":9772:9782   */\n      swap4\n      pop\n        /* \"#utility.yul\":9180:9788   */\n      pop\n      pop\n      pop\n        /* \"#utility.yul\":9056:9788   */\n      swap3\n      swap2\n      pop\n      pop\n      jump\t// out\n        /* \"#utility.yul\":9794:10167   */\n    tag_69:\n        /* \"#utility.yul\":9937:9941   */\n      0x00\n        /* \"#utility.yul\":9975:9977   */\n      0x20\n        /* \"#utility.yul\":9964:9973   */\n      dup3\n        /* \"#utility.yul\":9960:9978   */\n      add\n        /* \"#utility.yul\":9952:9978   */\n      swap1\n      pop\n        /* \"#utility.yul\":10024:10033   */\n      dup2\n        /* \"#utility.yul\":10018:10022   */\n      dup2\n        /* \"#utility.yul\":10014:10034   */\n      sub\n        /* \"#utility.yul\":10010:10011   */\n      0x00\n        /* \"#utility.yul\":9999:10008   */\n      dup4\n        /* \"#utility.yul\":9995:10012   */\n      add\n        /* \"#utility.yul\":9988:10035   */\n      mstore\n        /* \"#utility.yul\":10052:10160   */\n      tag_277\n        /* \"#utility.yul\":10155:10159   */\n      dup2\n        /* \"#utility.yul\":10146:10152   */\n      dup5\n        /* \"#utility.yul\":10052:10160   */\n      tag_156\n      jump\t// in\n    tag_277:\n        /* \"#utility.yul\":10044:10160   */\n      swap1\n      pop\n        /* \"#utility.yul\":9794:10167   */\n      swap3\n      swap2\n      pop\n      pop\n      jump\t// out\n        /* \"#utility.yul\":10173:10321   */\n    tag_157:\n        /* \"#utility.yul\":10275:10286   */\n      0x00\n        /* \"#utility.yul\":10312:10315   */\n      dup2\n        /* \"#utility.yul\":10297:10315   */\n      swap1\n      pop\n        /* \"#utility.yul\":10173:10321   */\n      swap3\n      swap2\n      pop\n      pop\n      jump\t// out\n        /* \"#utility.yul\":10327:10475   */\n    tag_158:\n        /* \"#utility.yul\":10425:10431   */\n      dup3\n        /* \"#utility.yul\":10420:10423   */\n      dup2\n        /* \"#utility.yul\":10415:10418   */\n      dup4\n        /* \"#utility.yul\":10402:10432   */\n      calldatacopy\n        /* \"#utility.yul\":10466:10467   */\n      0x00\n        /* \"#utility.yul\":10457:10463   */\n      dup4\n        /* \"#utility.yul\":10452:10455   */\n      dup4\n        /* \"#utility.yul\":10448:10464   */\n      add\n        /* \"#utility.yul\":10441:10468   */\n      mstore\n        /* \"#utility.yul\":10327:10475   */\n      pop\n      pop\n      pop\n      jump\t// out\n        /* \"#utility.yul\":10505:10835   */\n    tag_159:\n        /* \"#utility.yul\":10621:10624   */\n      0x00\n        /* \"#utility.yul\":10642:10731   */\n      tag_281\n        /* \"#utility.yul\":10724:10730   */\n      dup4\n        /* \"#utility.yul\":10719:10722   */\n      dup6\n        /* \"#utility.yul\":10642:10731   */\n      tag_157\n      jump\t// in\n    tag_281:\n        /* \"#utility.yul\":10635:10731   */\n      swap4\n      pop\n        /* \"#utility.yul\":10741:10797   */\n      tag_282\n        /* \"#utility.yul\":10790:10796   */\n      dup4\n        /* \"#utility.yul\":10785:10788   */\n      dup6\n        /* \"#utility.yul\":10778:10783   */\n      dup5\n        /* \"#utility.yul\":10741:10797   */\n      tag_158\n      jump\t// in\n    tag_282:\n        /* \"#utility.yul\":10822:10828   */\n      dup3\n        /* \"#utility.yul\":10817:10820   */\n      dup5\n        /* \"#utility.yul\":10813:10829   */\n      add\n        /* \"#utility.yul\":10806:10829   */\n      swap1\n      pop\n        /* \"#utility.yul\":10505:10835   */\n      swap4\n      swap3\n      pop\n      pop\n      pop\n      jump\t// out\n        /* \"#utility.yul\":10841:11136   */\n    tag_76:\n        /* \"#utility.yul\":10983:10986   */\n      0x00\n        /* \"#utility.yul\":11005:11110   */\n      tag_284\n        /* \"#utility.yul\":11106:11109   */\n      dup3\n        /* \"#utility.yul\":11097:11103   */\n      dup5\n        /* \"#utility.yul\":11089:11095   */\n      dup7\n        /* \"#utility.yul\":11005:11110   */\n      tag_159\n      jump\t// in\n    tag_284:\n        /* \"#utility.yul\":10998:11110   */\n      swap2\n      pop\n        /* \"#utility.yul\":11127:11130   */\n      dup2\n        /* \"#utility.yul\":11120:11130   */\n      swap1\n      pop\n        /* \"#utility.yul\":10841:11136   */\n      swap4\n      swap3\n      pop\n      pop\n      pop\n      jump\t// out\n        /* \"#utility.yul\":11142:11322   */\n    tag_160:\n        /* \"#utility.yul\":11190:11267   */\n      0x4e487b7100000000000000000000000000000000000000000000000000000000\n        /* \"#utility.yul\":11187:11188   */\n      0x00\n        /* \"#utility.yul\":11180:11268   */\n      mstore\n        /* \"#utility.yul\":11287:11291   */\n      0x11\n        /* \"#utility.yul\":11284:11285   */\n      0x04\n        /* \"#utility.yul\":11277:11292   */\n      mstore\n        /* \"#utility.yul\":11311:11315   */\n      0x24\n        /* \"#utility.yul\":11308:11309   */\n      0x00\n        /* \"#utility.yul\":11301:11316   */\n      revert\n        /* \"#utility.yul\":11328:11519   */\n    tag_89:\n        /* \"#utility.yul\":11368:11371   */\n      0x00\n        /* \"#utility.yul\":11387:11407   */\n      tag_287\n        /* \"#utility.yul\":11405:11406   */\n      dup3\n        /* \"#utility.yul\":11387:11407   */\n      tag_125\n      jump\t// in\n    tag_287:\n        /* \"#utility.yul\":11382:11407   */\n      swap2\n      pop\n        /* \"#utility.yul\":11421:11441   */\n      tag_288\n        /* \"#utility.yul\":11439:11440   */\n      dup4\n        /* \"#utility.yul\":11421:11441   */\n      tag_125\n      jump\t// in\n    tag_288:\n        /* \"#utility.yul\":11416:11441   */\n      swap3\n      pop\n        /* \"#utility.yul\":11464:11465   */\n      dup3\n        /* \"#utility.yul\":11461:11462   */\n      dup3\n        /* \"#utility.yul\":11457:11466   */\n      add\n        /* \"#utility.yul\":11450:11466   */\n      swap1\n      pop\n        /* \"#utility.yul\":11485:11488   */\n      dup1\n        /* \"#utility.yul\":11482:11483   */\n      dup3\n        /* \"#utility.yul\":11479:11489   */\n      gt\n        /* \"#utility.yul\":11476:11512   */\n      iszero\n      tag_289\n      jumpi\n        /* \"#utility.yul\":11492:11510   */\n      tag_290\n      tag_160\n      jump\t// in\n    tag_290:\n        /* \"#utility.yul\":11476:11512   */\n    tag_289:\n        /* \"#utility.yul\":11328:11519   */\n      swap3\n      swap2\n      pop\n      pop\n      jump\t// out\n        /* \"#utility.yul\":11525:11758   */\n    tag_91:\n        /* \"#utility.yul\":11564:11567   */\n      0x00\n        /* \"#utility.yul\":11587:11611   */\n      tag_292\n        /* \"#utility.yul\":11605:11610   */\n      dup3\n        /* \"#utility.yul\":11587:11611   */\n      tag_125\n      jump\t// in\n    tag_292:\n        /* \"#utility.yul\":11578:11611   */\n      swap2\n      pop\n        /* \"#utility.yul\":11633:11699   */\n      0xffffffffffffffffffffffffffffffffffffffffffffffffffffffffffffffff\n        /* \"#utility.yul\":11626:11631   */\n      dup3\n        /* \"#utility.yul\":11623:11700   */\n      sub\n        /* \"#utility.yul\":11620:11723   */\n      tag_293\n      jumpi\n        /* \"#utility.yul\":11703:11721   */\n      tag_294\n      tag_160\n      jump\t// in\n    tag_294:\n        /* \"#utility.yul\":11620:11723   */\n    tag_293:\n        /* \"#utility.yul\":11750:11751   */\n      0x01\n        /* \"#utility.yul\":11743:11748   */\n      dup3\n        /* \"#utility.yul\":11739:11752   */\n      add\n        /* \"#utility.yul\":11732:11752   */\n      swap1\n      pop\n        /* \"#utility.yul\":11525:11758   */\n      swap2\n      swap1\n      pop\n      jump\t// out\n        /* \"#utility.yul\":11764:11944   */\n    tag_105:\n        /* \"#utility.yul\":11812:11889   */\n      0x4e487b7100000000000000000000000000000000000000000000000000000000\n        /* \"#utility.yul\":11809:11810   */\n      0x00\n        /* \"#utility.yul\":11802:11890   */\n      mstore\n        /* \"#utility.yul\":11909:11913   */\n      0x32\n        /* \"#utility.yul\":11906:11907   */\n      0x04\n        /* \"#utility.yul\":11899:11914   */\n      mstore\n        /* \"#utility.yul\":11933:11937   */\n      0x24\n        /* \"#utility.yul\":11930:11931   */\n      0x00\n        /* \"#utility.yul\":11923:11938   */\n      revert\n        /* \"#utility.yul\":11950:12144   */\n    tag_110:\n        /* \"#utility.yul\":11990:11994   */\n      0x00\n        /* \"#utility.yul\":12010:12030   */\n      tag_297\n        /* \"#utility.yul\":12028:12029   */\n      dup3\n        /* \"#utility.yul\":12010:12030   */\n      tag_125\n      jump\t// in\n    tag_297:\n        /* \"#utility.yul\":12005:12030   */\n      swap2\n      pop\n        /* \"#utility.yul\":12044:12064   */\n      tag_298\n        /* \"#utility.yul\":12062:12063   */\n      dup4\n        /* \"#utility.yul\":12044:12064   */\n      tag_125\n      jump\t// in\n    tag_298:\n        /* \"#utility.yul\":12039:12064   */\n      swap3\n      pop\n        /* \"#utility.yul\":12088:12089   */\n      dup3\n        /* \"#utility.yul\":12085:12086   */\n      dup3\n        /* \"#utility.yul\":12081:12090   */\n      sub\n        /* \"#utility.yul\":12073:12090   */\n      swap1\n      pop\n        /* \"#utility.yul\":12112:12113   */\n      dup2\n        /* \"#utility.yul\":12106:12110   */\n      dup2\n        /* \"#utility.yul\":12103:12114   */\n      gt\n        /* \"#utility.yul\":12100:12137   */\n      iszero\n      tag_299\n      jumpi\n        /* \"#utility.yul\":12117:12135   */\n      tag_300\n      tag_160\n      jump\t// in\n    tag_300:\n        /* \"#utility.yul\":12100:12137   */\n    tag_299:\n        /* \"#utility.yul\":11950:12144   */\n      swap3\n      swap2\n      pop\n      pop\n      jump\t// out\n        /* \"#utility.yul\":12150:12321   */\n    tag_119:\n        /* \"#utility.yul\":12189:12192   */\n      0x00\n        /* \"#utility.yul\":12212:12236   */\n      tag_302\n        /* \"#utility.yul\":12230:12235   */\n      dup3\n        /* \"#utility.yul\":12212:12236   */\n      tag_125\n      jump\t// in\n    tag_302:\n        /* \"#utility.yul\":12203:12236   */\n      swap2\n      pop\n        /* \"#utility.yul\":12258:12262   */\n      0x00\n        /* \"#utility.yul\":12251:12256   */\n      dup3\n        /* \"#utility.yul\":12248:12263   */\n      sub\n        /* \"#utility.yul\":12245:12286   */\n      tag_303\n      jumpi\n        /* \"#utility.yul\":12266:12284   */\n      tag_304\n      tag_160\n      jump\t// in\n    tag_304:\n        /* \"#utility.yul\":12245:12286   */\n    tag_303:\n        /* \"#utility.yul\":12313:12314   */\n      0x01\n        /* \"#utility.yul\":12306:12311   */\n      dup3\n        /* \"#utility.yul\":12302:12315   */\n      sub\n        /* \"#utility.yul\":12295:12315   */\n      swap1\n      pop\n        /* \"#utility.yul\":12150:12321   */\n      swap2\n      swap1\n      pop\n      jump\t// out\n\n    auxdata: 0xa264697066735822122062ced73b096c8b0e3637f52dec703bddf9f0651575e08b10e9288b3fdc51440664736f6c634300081a0033\n}\n",
				"bytecode": {
					"linkReferences": {},
					"object": "60a06040526402540be3ff6080908152506040518060400160405280600760ff168152602001600860ff16815250600190600261003d929190610071565b50348015610049575f80fd5b5061005861006460201b60201c565b608081815250506100d1565b5f80600a90508091505090565b82600281019282156100a5579160200282015b828111156100a4578251829060ff16905591602001919060010190610084565b5b5090506100b291906100b6565b5090565b5b808211156100cd575f815f9055506001016100b7565b5090565b608051610cf56100e95f395f61060f0152610cf55ff3fe608060405234801561000f575f80fd5b50600436106100cd575f3560e01c80635cfac8371161008a578063c90fd7a711610064578063c90fd7a714610247578063de152f8d14610265578063e30c36f114610283578063ed7ff875146102b3576100cd565b80635cfac837146101c95780636baa0330146101f9578063a09da55014610229576100cd565b8063101c9881146100d1578063227a025a146100ed5780634408e5c014610109578063441bbaf31461013957806345cb6f311461016957806358e40a5a14610199575b5f80fd5b6100eb60048036038101906100e691906106cf565b6102d1565b005b6101076004803603810190610102919061076e565b610324565b005b610123600480360381019061011e91906107cb565b6103a5565b6040516101309190610805565b60405180910390f35b610153600480360381019061014e91906107cb565b6103d5565b604051610160919061082d565b60405180910390f35b610183600480360381019061017e91906107cb565b6103f4565b6040516101909190610860565b60405180910390f35b6101b360048036038101906101ae91906107cb565b61040e565b6040516101c0919061082d565b60405180910390f35b6101e360048036038101906101de91906108ac565b610427565b6040516101f09190610805565b60405180910390f35b610213600480360381019061020e91906108ac565b610460565b6040516102209190610805565b60405180910390f35b610231610490565b60405161023e919061082d565b60405180910390f35b61024f6104c8565b60405161025c919061082d565b60405180910390f35b61026d6104d5565b60405161027a919061082d565b60405180910390f35b61029d60048036038101906102989190610a1f565b61050d565b6040516102aa9190610b1d565b60405180910390f35b6102bb61060d565b6040516102c8919061082d565b60405180910390f35b8060035f8481526020019081526020015f205f6101000a81548173ffffffffffffffffffffffffffffffffffffffff021916908373ffffffffffffffffffffffffffffffffffffffff1602179055505050565b5f8383604051602001610338929190610b79565b6040516020818303038152906040528051906020012090508160045f8381526020019081526020015f205f6101000a81548173ffffffffffffffffffffffffffffffffffffffff021916908373ffffffffffffffffffffffffffffffffffffffff16021790555050505050565b6003602052805f5260405f205f915054906101000a900473ffffffffffffffffffffffffffffffffffffffff1681565b5f81815481106103e3575f80fd5b905f5260205f20015f915090505481565b5f808203610404575f9050610409565b600190505b919050565b6001816002811061041d575f80fd5b015f915090505481565b5f60045f8381526020019081526020015f205f9054906101000a900473ffffffffffffffffffffffffffffffffffffffff169050919050565b6004602052805f5260405f205f915054906101000a900473ffffffffffffffffffffffffffffffffffffffff1681565b5f805f90505f5b600a81116104c05780826104ab9190610bbe565b915080806104b890610bf1565b915050610497565b819250505090565b5f80600a90508091505090565b5f805f90505f5b600a81116105055780826104f09190610bbe565b915080806104fd90610bf1565b9150506104dc565b508091505090565b60605f600190505b8251811015610604575f83828151811061053257610531610c38565b5b602002602001015190505f8290505b6001811015801561057757508460018261055b9190610c65565b8151811061056c5761056b610c38565b5b602002602001015182105b156105d5578460018261058a9190610c65565b8151811061059b5761059a610c38565b5b60200260200101518582815181106105b6576105b5610c38565b5b60200260200101818152505080806105cd90610c98565b915050610541565b818582815181106105e9576105e8610c38565b5b60200260200101818152505050508080600101915050610515565b50819050919050565b7f000000000000000000000000000000000000000000000000000000000000000081565b5f604051905090565b5f80fd5b5f80fd5b5f819050919050565b61065481610642565b811461065e575f80fd5b50565b5f8135905061066f8161064b565b92915050565b5f73ffffffffffffffffffffffffffffffffffffffff82169050919050565b5f61069e82610675565b9050919050565b6106ae81610694565b81146106b8575f80fd5b50565b5f813590506106c9816106a5565b92915050565b5f80604083850312156106e5576106e461063a565b5b5f6106f285828601610661565b9250506020610703858286016106bb565b9150509250929050565b5f80fd5b5f80fd5b5f80fd5b5f8083601f84011261072e5761072d61070d565b5b8235905067ffffffffffffffff81111561074b5761074a610711565b5b60208301915083600182028301111561076757610766610715565b5b9250929050565b5f805f604084860312156107855761078461063a565b5b5f84013567ffffffffffffffff8111156107a2576107a161063e565b5b6107ae86828701610719565b935093505060206107c1868287016106bb565b9150509250925092565b5f602082840312156107e0576107df61063a565b5b5f6107ed84828501610661565b91505092915050565b6107ff81610694565b82525050565b5f6020820190506108185f8301846107f6565b92915050565b61082781610642565b82525050565b5f6020820190506108405f83018461081e565b92915050565b5f8115159050919050565b61085a81610846565b82525050565b5f6020820190506108735f830184610851565b92915050565b5f819050919050565b61088b81610879565b8114610895575f80fd5b50565b5f813590506108a681610882565b92915050565b5f602082840312156108c1576108c061063a565b5b5f6108ce84828501610898565b91505092915050565b5f601f19601f8301169050919050565b7f4e487b71000000000000000000000000000000000000000000000000000000005f52604160045260245ffd5b61091d826108d7565b810181811067ffffffffffffffff8211171561093c5761093b6108e7565b5b80604052505050565b5f61094e610631565b905061095a8282610914565b919050565b5f67ffffffffffffffff821115610979576109786108e7565b5b602082029050602081019050919050565b5f61099c6109978461095f565b610945565b905080838252602082019050602084028301858111156109bf576109be610715565b5b835b818110156109e857806109d48882610661565b8452602084019350506020810190506109c1565b5050509392505050565b5f82601f830112610a0657610a0561070d565b5b8135610a1684826020860161098a565b91505092915050565b5f60208284031215610a3457610a3361063a565b5b5f82013567ffffffffffffffff811115610a5157610a5061063e565b5b610a5d848285016109f2565b91505092915050565b5f81519050919050565b5f82825260208201905092915050565b5f819050602082019050919050565b610a9881610642565b82525050565b5f610aa98383610a8f565b60208301905092915050565b5f602082019050919050565b5f610acb82610a66565b610ad58185610a70565b9350610ae083610a80565b805f5b83811015610b10578151610af78882610a9e565b9750610b0283610ab5565b925050600181019050610ae3565b5085935050505092915050565b5f6020820190508181035f830152610b358184610ac1565b905092915050565b5f81905092915050565b828183375f83830152505050565b5f610b608385610b3d565b9350610b6d838584610b47565b82840190509392505050565b5f610b85828486610b55565b91508190509392505050565b7f4e487b71000000000000000000000000000000000000000000000000000000005f52601160045260245ffd5b5f610bc882610642565b9150610bd383610642565b9250828201905080821115610beb57610bea610b91565b5b92915050565b5f610bfb82610642565b91507fffffffffffffffffffffffffffffffffffffffffffffffffffffffffffffffff8203610c2d57610c2c610b91565b5b600182019050919050565b7f4e487b71000000000000000000000000000000000000000000000000000000005f52603260045260245ffd5b5f610c6f82610642565b9150610c7a83610642565b9250828203905081811115610c9257610c91610b91565b5b92915050565b5f610ca282610642565b91505f8203610cb457610cb3610b91565b5b60018203905091905056fea264697066735822122062ced73b096c8b0e3637f52dec703bddf9f0651575e08b10e9288b3fdc51440664736f6c634300081a0033",
					"opcodes": "PUSH1 0xA0 PUSH1 0x40 MSTORE PUSH5 0x2540BE3FF PUSH1 0x80 SWAP1 DUP2 MSTORE POP PUSH1 0x40 MLOAD DUP1 PUSH1 0x40 ADD PUSH1 0x40 MSTORE DUP1 PUSH1 0x7 PUSH1 0xFF AND DUP2 MSTORE PUSH1 0x20 ADD PUSH1 0x8 PUSH1 0xFF AND DUP2 MSTORE POP PUSH1 0x1 SWAP1 PUSH1 0x2 PUSH2 0x3D SWAP3 SWAP2 SWAP1 PUSH2 0x71 JUMP JUMPDEST POP CALLVALUE DUP1 ISZERO PUSH2 0x49 JUMPI PUSH0 DUP1 REVERT JUMPDEST POP PUSH2 0x58 PUSH2 0x64 PUSH1 0x20 SHL PUSH1 0x20 SHR JUMP JUMPDEST PUSH1 0x80 DUP2 DUP2 MSTORE POP POP PUSH2 0xD1 JUMP JUMPDEST PUSH0 DUP1 PUSH1 0xA SWAP1 POP DUP1 SWAP2 POP POP SWAP1 JUMP JUMPDEST DUP3 PUSH1 0x2 DUP2 ADD SWAP3 DUP3 ISZERO PUSH2 0xA5 JUMPI SWAP2 PUSH1 0x20 MUL DUP3 ADD JUMPDEST DUP3 DUP2 GT ISZERO PUSH2 0xA4 JUMPI DUP3 MLOAD DUP3 SWAP1 PUSH1 0xFF AND SWAP1 SSTORE SWAP2 PUSH1 0x20 ADD SWAP2 SWAP1 PUSH1 0x1 ADD SWAP1 PUSH2 0x84 JUMP JUMPDEST JUMPDEST POP SWAP1 POP PUSH2 0xB2 SWAP2 SWAP1 PUSH2 0xB6 JUMP JUMPDEST POP SWAP1 JUMP JUMPDEST JUMPDEST DUP1 DUP3 GT ISZERO PUSH2 0xCD JUMPI PUSH0 DUP2 PUSH0 SWAP1 SSTORE POP PUSH1 0x1 ADD PUSH2 0xB7 JUMP JUMPDEST POP SWAP1 JUMP JUMPDEST PUSH1 0x80 MLOAD PUSH2 0xCF5 PUSH2 0xE9 PUSH0 CODECOPY PUSH0 PUSH2 0x60F ADD MSTORE PUSH2 0xCF5 PUSH0 RETURN INVALID PUSH1 0x80 PUSH1 0x40 MSTORE CALLVALUE DUP1 ISZERO PUSH2 0xF JUMPI PUSH0 DUP1 REVERT JUMPDEST POP PUSH1 0x4 CALLDATASIZE LT PUSH2 0xCD JUMPI PUSH0 CALLDATALOAD PUSH1 0xE0 SHR DUP1 PUSH4 0x5CFAC837 GT PUSH2 0x8A JUMPI DUP1 PUSH4 0xC90FD7A7 GT PUSH2 0x64 JUMPI DUP1 PUSH4 0xC90FD7A7 EQ PUSH2 0x247 JUMPI DUP1 PUSH4 0xDE152F8D EQ PUSH2 0x265 JUMPI DUP1 PUSH4 0xE30C36F1 EQ PUSH2 0x283 JUMPI DUP1 PUSH4 0xED7FF875 EQ PUSH2 0x2B3 JUMPI PUSH2 0xCD JUMP JUMPDEST DUP1 PUSH4 0x5CFAC837 EQ PUSH2 0x1C9 JUMPI DUP1 PUSH4 0x6BAA0330 EQ PUSH2 0x1F9 JUMPI DUP1 PUSH4 0xA09DA550 EQ PUSH2 0x229 JUMPI PUSH2 0xCD JUMP JUMPDEST DUP1 PUSH4 0x101C9881 EQ PUSH2 0xD1 JUMPI DUP1 PUSH4 0x227A025A EQ PUSH2 0xED JUMPI DUP1 PUSH4 0x4408E5C0 EQ PUSH2 0x109 JUMPI DUP1 PUSH4 0x441BBAF3 EQ PUSH2 0x139 JUMPI DUP1 PUSH4 0x45CB6F31 EQ PUSH2 0x169 JUMPI DUP1 PUSH4 0x58E40A5A EQ PUSH2 0x199 JUMPI JUMPDEST PUSH0 DUP1 REVERT JUMPDEST PUSH2 0xEB PUSH1 0x4 DUP1 CALLDATASIZE SUB DUP2 ADD SWAP1 PUSH2 0xE6 SWAP2 SWAP1 PUSH2 0x6CF JUMP JUMPDEST PUSH2 0x2D1 JUMP JUMPDEST STOP JUMPDEST PUSH2 0x107 PUSH1 0x4 DUP1 CALLDATASIZE SUB DUP2 ADD SWAP1 PUSH2 0x102 SWAP2 SWAP1 PUSH2 0x76E JUMP JUMPDEST PUSH2 0x324 JUMP JUMPDEST STOP JUMPDEST PUSH2 0x123 PUSH1 0x4 DUP1 CALLDATASIZE SUB DUP2 ADD SWAP1 PUSH2 0x11E SWAP2 SWAP1 PUSH2 0x7CB JUMP JUMPDEST PUSH2 0x3A5 JUMP JUMPDEST PUSH1 0x40 MLOAD PUSH2 0x130 SWAP2 SWAP1 PUSH2 0x805 JUMP JUMPDEST PUSH1 0x40 MLOAD DUP1 SWAP2 SUB SWAP1 RETURN JUMPDEST PUSH2 0x153 PUSH1 0x4 DUP1 CALLDATASIZE SUB DUP2 ADD SWAP1 PUSH2 0x14E SWAP2 SWAP1 PUSH2 0x7CB JUMP JUMPDEST PUSH2 0x3D5 JUMP JUMPDEST PUSH1 0x40 MLOAD PUSH2 0x160 SWAP2 SWAP1 PUSH2 0x82D JUMP JUMPDEST PUSH1 0x40 MLOAD DUP1 SWAP2 SUB SWAP1 RETURN JUMPDEST PUSH2 0x183 PUSH1 0x4 DUP1 CALLDATASIZE SUB DUP2 ADD SWAP1 PUSH2 0x17E SWAP2 SWAP1 PUSH2 0x7CB JUMP JUMPDEST PUSH2 0x3F4 JUMP JUMPDEST PUSH1 0x40 MLOAD PUSH2 0x190 SWAP2 SWAP1 PUSH2 0x860 JUMP JUMPDEST PUSH1 0x40 MLOAD DUP1 SWAP2 SUB SWAP1 RETURN JUMPDEST PUSH2 0x1B3 PUSH1 0x4 DUP1 CALLDATASIZE SUB DUP2 ADD SWAP1 PUSH2 0x1AE SWAP2 SWAP1 PUSH2 0x7CB JUMP JUMPDEST PUSH2 0x40E JUMP JUMPDEST PUSH1 0x40 MLOAD PUSH2 0x1C0 SWAP2 SWAP1 PUSH2 0x82D JUMP JUMPDEST PUSH1 0x40 MLOAD DUP1 SWAP2 SUB SWAP1 RETURN JUMPDEST PUSH2 0x1E3 PUSH1 0x4 DUP1 CALLDATASIZE SUB DUP2 ADD SWAP1 PUSH2 0x1DE SWAP2 SWAP1 PUSH2 0x8AC JUMP JUMPDEST PUSH2 0x427 JUMP JUMPDEST PUSH1 0x40 MLOAD PUSH2 0x1F0 SWAP2 SWAP1 PUSH2 0x805 JUMP JUMPDEST PUSH1 0x40 MLOAD DUP1 SWAP2 SUB SWAP1 RETURN JUMPDEST PUSH2 0x213 PUSH1 0x4 DUP1 CALLDATASIZE SUB DUP2 ADD SWAP1 PUSH2 0x20E SWAP2 SWAP1 PUSH2 0x8AC JUMP JUMPDEST PUSH2 0x460 JUMP JUMPDEST PUSH1 0x40 MLOAD PUSH2 0x220 SWAP2 SWAP1 PUSH2 0x805 JUMP JUMPDEST PUSH1 0x40 MLOAD DUP1 SWAP2 SUB SWAP1 RETURN JUMPDEST PUSH2 0x231 PUSH2 0x490 JUMP JUMPDEST PUSH1 0x40 MLOAD PUSH2 0x23E SWAP2 SWAP1 PUSH2 0x82D JUMP JUMPDEST PUSH1 0x40 MLOAD DUP1 SWAP2 SUB SWAP1 RETURN JUMPDEST PUSH2 0x24F PUSH2 0x4C8 JUMP JUMPDEST PUSH1 0x40 MLOAD PUSH2 0x25C SWAP2 SWAP1 PUSH2 0x82D JUMP JUMPDEST PUSH1 0x40 MLOAD DUP1 SWAP2 SUB SWAP1 RETURN JUMPDEST PUSH2 0x26D PUSH2 0x4D5 JUMP JUMPDEST PUSH1 0x40 MLOAD PUSH2 0x27A SWAP2 SWAP1 PUSH2 0x82D JUMP JUMPDEST PUSH1 0x40 MLOAD DUP1 SWAP2 SUB SWAP1 RETURN JUMPDEST PUSH2 0x29D PUSH1 0x4 DUP1 CALLDATASIZE SUB DUP2 ADD SWAP1 PUSH2 0x298 SWAP2 SWAP1 PUSH2 0xA1F JUMP JUMPDEST PUSH2 0x50D JUMP JUMPDEST PUSH1 0x40 MLOAD PUSH2 0x2AA SWAP2 SWAP1 PUSH2 0xB1D JUMP JUMPDEST PUSH1 0x40 MLOAD DUP1 SWAP2 SUB SWAP1 RETURN JUMPDEST PUSH2 0x2BB PUSH2 0x60D JUMP JUMPDEST PUSH1 0x40 MLOAD PUSH2 0x2C8 SWAP2 SWAP1 PUSH2 0x82D JUMP JUMPDEST PUSH1 0x40 MLOAD DUP1 SWAP2 SUB SWAP1 RETURN JUMPDEST DUP1 PUSH1 0x3 PUSH0 DUP5 DUP2 MSTORE PUSH1 0x20 ADD SWAP1 DUP2 MSTORE PUSH1 0x20 ADD PUSH0 KECCAK256 PUSH0 PUSH2 0x100 EXP DUP2 SLOAD DUP2 PUSH20 0xFFFFFFFFFFFFFFFFFFFFFFFFFFFFFFFFFFFFFFFF MUL NOT AND SWAP1 DUP4 PUSH20 0xFFFFFFFFFFFFFFFFFFFFFFFFFFFFFFFFFFFFFFFF AND MUL OR SWAP1 SSTORE POP POP POP JUMP JUMPDEST PUSH0 DUP4 DUP4 PUSH1 0x40 MLOAD PUSH1 0x20 ADD PUSH2 0x338 SWAP3 SWAP2 SWAP1 PUSH2 0xB79 JUMP JUMPDEST PUSH1 0x40 MLOAD PUSH1 0x20 DUP2 DUP4 SUB SUB DUP2 MSTORE SWAP1 PUSH1 0x40 MSTORE DUP1 MLOAD SWAP1 PUSH1 0x20 ADD KECCAK256 SWAP1 POP DUP2 PUSH1 0x4 PUSH0 DUP4 DUP2 MSTORE PUSH1 0x20 ADD SWAP1 DUP2 MSTORE PUSH1 0x20 ADD PUSH0 KECCAK256 PUSH0 PUSH2 0x100 EXP DUP2 SLOAD DUP2 PUSH20 0xFFFFFFFFFFFFFFFFFFFFFFFFFFFFFFFFFFFFFFFF MUL NOT AND SWAP1 DUP4 PUSH20 0xFFFFFFFFFFFFFFFFFFFFFFFFFFFFFFFFFFFFFFFF AND MUL OR SWAP1 SSTORE POP POP POP POP POP JUMP JUMPDEST PUSH1 0x3 PUSH1 0x20 MSTORE DUP1 PUSH0 MSTORE PUSH1 0x40 PUSH0 KECCAK256 PUSH0 SWAP2 POP SLOAD SWAP1 PUSH2 0x100 EXP SWAP1 DIV PUSH20 0xFFFFFFFFFFFFFFFFFFFFFFFFFFFFFFFFFFFFFFFF AND DUP2 JUMP JUMPDEST PUSH0 DUP2 DUP2 SLOAD DUP2 LT PUSH2 0x3E3 JUMPI PUSH0 DUP1 REVERT JUMPDEST SWAP1 PUSH0 MSTORE PUSH1 0x20 PUSH0 KECCAK256 ADD PUSH0 SWAP2 POP SWAP1 POP SLOAD DUP2 JUMP JUMPDEST PUSH0 DUP1 DUP3 SUB PUSH2 0x404 JUMPI PUSH0 SWAP1 POP PUSH2 0x409 JUMP JUMPDEST PUSH1 0x1 SWAP1 POP JUMPDEST SWAP2 SWAP1 POP JUMP JUMPDEST PUSH1 0x1 DUP2 PUSH1 0x2 DUP2 LT PUSH2 0x41D JUMPI PUSH0 DUP1 REVERT JUMPDEST ADD PUSH0 SWAP2 POP SWAP1 POP SLOAD DUP2 JUMP JUMPDEST PUSH0 PUSH1 0x4 PUSH0 DUP4 DUP2 MSTORE PUSH1 0x20 ADD SWAP1 DUP2 MSTORE PUSH1 0x20 ADD PUSH0 KECCAK256 PUSH0 SWAP1 SLOAD SWAP1 PUSH2 0x100 EXP SWAP1 DIV PUSH20 0xFFFFFFFFFFFFFFFFFFFFFFFFFFFFFFFFFFFFFFFF AND SWAP1 POP SWAP2 SWAP1 POP JUMP JUMPDEST PUSH1 0x4 PUSH1 0x20 MSTORE DUP1 PUSH0 MSTORE PUSH1 0x40 PUSH0 KECCAK256 PUSH0 SWAP2 POP SLOAD SWAP1 PUSH2 0x100 EXP SWAP1 DIV PUSH20 0xFFFFFFFFFFFFFFFFFFFFFFFFFFFFFFFFFFFFFFFF AND DUP2 JUMP JUMPDEST PUSH0 DUP1 PUSH0 SWAP1 POP PUSH0 JUMPDEST PUSH1 0xA DUP2 GT PUSH2 0x4C0 JUMPI DUP1 DUP3 PUSH2 0x4AB SWAP2 SWAP1 PUSH2 0xBBE JUMP JUMPDEST SWAP2 POP DUP1 DUP1 PUSH2 0x4B8 SWAP1 PUSH2 0xBF1 JUMP JUMPDEST SWAP2 POP POP PUSH2 0x497 JUMP JUMPDEST DUP2 SWAP3 POP POP POP SWAP1 JUMP JUMPDEST PUSH0 DUP1 PUSH1 0xA SWAP1 POP DUP1 SWAP2 POP POP SWAP1 JUMP JUMPDEST PUSH0 DUP1 PUSH0 SWAP1 POP PUSH0 JUMPDEST PUSH1 0xA DUP2 GT PUSH2 0x505 JUMPI DUP1 DUP3 PUSH2 0x4F0 SWAP2 SWAP1 PUSH2 0xBBE JUMP JUMPDEST SWAP2 POP DUP1 DUP1 PUSH2 0x4FD SWAP1 PUSH2 0xBF1 JUMP JUMPDEST SWAP2 POP POP PUSH2 0x4DC JUMP JUMPDEST POP DUP1 SWAP2 POP POP SWAP1 JUMP JUMPDEST PUSH1 0x60 PUSH0 PUSH1 0x1 SWAP1 POP JUMPDEST DUP3 MLOAD DUP2 LT ISZERO PUSH2 0x604 JUMPI PUSH0 DUP4 DUP3 DUP2 MLOAD DUP2 LT PUSH2 0x532 JUMPI PUSH2 0x531 PUSH2 0xC38 JUMP JUMPDEST JUMPDEST PUSH1 0x20 MUL PUSH1 0x20 ADD ADD MLOAD SWAP1 POP PUSH0 DUP3 SWAP1 POP JUMPDEST PUSH1 0x1 DUP2 LT ISZERO DUP1 ISZERO PUSH2 0x577 JUMPI POP DUP5 PUSH1 0x1 DUP3 PUSH2 0x55B SWAP2 SWAP1 PUSH2 0xC65 JUMP JUMPDEST DUP2 MLOAD DUP2 LT PUSH2 0x56C JUMPI PUSH2 0x56B PUSH2 0xC38 JUMP JUMPDEST JUMPDEST PUSH1 0x20 MUL PUSH1 0x20 ADD ADD MLOAD DUP3 LT JUMPDEST ISZERO PUSH2 0x5D5 JUMPI DUP5 PUSH1 0x1 DUP3 PUSH2 0x58A SWAP2 SWAP1 PUSH2 0xC65 JUMP JUMPDEST DUP2 MLOAD DUP2 LT PUSH2 0x59B JUMPI PUSH2 0x59A PUSH2 0xC38 JUMP JUMPDEST JUMPDEST PUSH1 0x20 MUL PUSH1 0x20 ADD ADD MLOAD DUP6 DUP3 DUP2 MLOAD DUP2 LT PUSH2 0x5B6 JUMPI PUSH2 0x5B5 PUSH2 0xC38 JUMP JUMPDEST JUMPDEST PUSH1 0x20 MUL PUSH1 0x20 ADD ADD DUP2 DUP2 MSTORE POP POP DUP1 DUP1 PUSH2 0x5CD SWAP1 PUSH2 0xC98 JUMP JUMPDEST SWAP2 POP POP PUSH2 0x541 JUMP JUMPDEST DUP2 DUP6 DUP3 DUP2 MLOAD DUP2 LT PUSH2 0x5E9 JUMPI PUSH2 0x5E8 PUSH2 0xC38 JUMP JUMPDEST JUMPDEST PUSH1 0x20 MUL PUSH1 0x20 ADD ADD DUP2 DUP2 MSTORE POP POP POP POP DUP1 DUP1 PUSH1 0x1 ADD SWAP2 POP POP PUSH2 0x515 JUMP JUMPDEST POP DUP2 SWAP1 POP SWAP2 SWAP1 POP JUMP JUMPDEST PUSH32 0x0 DUP2 JUMP JUMPDEST PUSH0 PUSH1 0x40 MLOAD SWAP1 POP SWAP1 JUMP JUMPDEST PUSH0 DUP1 REVERT JUMPDEST PUSH0 DUP1 REVERT JUMPDEST PUSH0 DUP2 SWAP1 POP SWAP2 SWAP1 POP JUMP JUMPDEST PUSH2 0x654 DUP2 PUSH2 0x642 JUMP JUMPDEST DUP2 EQ PUSH2 0x65E JUMPI PUSH0 DUP1 REVERT JUMPDEST POP JUMP JUMPDEST PUSH0 DUP2 CALLDATALOAD SWAP1 POP PUSH2 0x66F DUP2 PUSH2 0x64B JUMP JUMPDEST SWAP3 SWAP2 POP POP JUMP JUMPDEST PUSH0 PUSH20 0xFFFFFFFFFFFFFFFFFFFFFFFFFFFFFFFFFFFFFFFF DUP3 AND SWAP1 POP SWAP2 SWAP1 POP JUMP JUMPDEST PUSH0 PUSH2 0x69E DUP3 PUSH2 0x675 JUMP JUMPDEST SWAP1 POP SWAP2 SWAP1 POP JUMP JUMPDEST PUSH2 0x6AE DUP2 PUSH2 0x694 JUMP JUMPDEST DUP2 EQ PUSH2 0x6B8 JUMPI PUSH0 DUP1 REVERT JUMPDEST POP JUMP JUMPDEST PUSH0 DUP2 CALLDATALOAD SWAP1 POP PUSH2 0x6C9 DUP2 PUSH2 0x6A5 JUMP JUMPDEST SWAP3 SWAP2 POP POP JUMP JUMPDEST PUSH0 DUP1 PUSH1 0x40 DUP4 DUP6 SUB SLT ISZERO PUSH2 0x6E5 JUMPI PUSH2 0x6E4 PUSH2 0x63A JUMP JUMPDEST JUMPDEST PUSH0 PUSH2 0x6F2 DUP6 DUP3 DUP7 ADD PUSH2 0x661 JUMP JUMPDEST SWAP3 POP POP PUSH1 0x20 PUSH2 0x703 DUP6 DUP3 DUP7 ADD PUSH2 0x6BB JUMP JUMPDEST SWAP2 POP POP SWAP3 POP SWAP3 SWAP1 POP JUMP JUMPDEST PUSH0 DUP1 REVERT JUMPDEST PUSH0 DUP1 REVERT JUMPDEST PUSH0 DUP1 REVERT JUMPDEST PUSH0 DUP1 DUP4 PUSH1 0x1F DUP5 ADD SLT PUSH2 0x72E JUMPI PUSH2 0x72D PUSH2 0x70D JUMP JUMPDEST JUMPDEST DUP3 CALLDATALOAD SWAP1 POP PUSH8 0xFFFFFFFFFFFFFFFF DUP2 GT ISZERO PUSH2 0x74B JUMPI PUSH2 0x74A PUSH2 0x711 JUMP JUMPDEST JUMPDEST PUSH1 0x20 DUP4 ADD SWAP2 POP DUP4 PUSH1 0x1 DUP3 MUL DUP4 ADD GT ISZERO PUSH2 0x767 JUMPI PUSH2 0x766 PUSH2 0x715 JUMP JUMPDEST JUMPDEST SWAP3 POP SWAP3 SWAP1 POP JUMP JUMPDEST PUSH0 DUP1 PUSH0 PUSH1 0x40 DUP5 DUP7 SUB SLT ISZERO PUSH2 0x785 JUMPI PUSH2 0x784 PUSH2 0x63A JUMP JUMPDEST JUMPDEST PUSH0 DUP5 ADD CALLDATALOAD PUSH8 0xFFFFFFFFFFFFFFFF DUP2 GT ISZERO PUSH2 0x7A2 JUMPI PUSH2 0x7A1 PUSH2 0x63E JUMP JUMPDEST JUMPDEST PUSH2 0x7AE DUP7 DUP3 DUP8 ADD PUSH2 0x719 JUMP JUMPDEST SWAP4 POP SWAP4 POP POP PUSH1 0x20 PUSH2 0x7C1 DUP7 DUP3 DUP8 ADD PUSH2 0x6BB JUMP JUMPDEST SWAP2 POP POP SWAP3 POP SWAP3 POP SWAP3 JUMP JUMPDEST PUSH0 PUSH1 0x20 DUP3 DUP5 SUB SLT ISZERO PUSH2 0x7E0 JUMPI PUSH2 0x7DF PUSH2 0x63A JUMP JUMPDEST JUMPDEST PUSH0 PUSH2 0x7ED DUP5 DUP3 DUP6 ADD PUSH2 0x661 JUMP JUMPDEST SWAP2 POP POP SWAP3 SWAP2 POP POP JUMP JUMPDEST PUSH2 0x7FF DUP2 PUSH2 0x694 JUMP JUMPDEST DUP3 MSTORE POP POP JUMP JUMPDEST PUSH0 PUSH1 0x20 DUP3 ADD SWAP1 POP PUSH2 0x818 PUSH0 DUP4 ADD DUP5 PUSH2 0x7F6 JUMP JUMPDEST SWAP3 SWAP2 POP POP JUMP JUMPDEST PUSH2 0x827 DUP2 PUSH2 0x642 JUMP JUMPDEST DUP3 MSTORE POP POP JUMP JUMPDEST PUSH0 PUSH1 0x20 DUP3 ADD SWAP1 POP PUSH2 0x840 PUSH0 DUP4 ADD DUP5 PUSH2 0x81E JUMP JUMPDEST SWAP3 SWAP2 POP POP JUMP JUMPDEST PUSH0 DUP2 ISZERO ISZERO SWAP1 POP SWAP2 SWAP1 POP JUMP JUMPDEST PUSH2 0x85A DUP2 PUSH2 0x846 JUMP JUMPDEST DUP3 MSTORE POP POP JUMP JUMPDEST PUSH0 PUSH1 0x20 DUP3 ADD SWAP1 POP PUSH2 0x873 PUSH0 DUP4 ADD DUP5 PUSH2 0x851 JUMP JUMPDEST SWAP3 SWAP2 POP POP JUMP JUMPDEST PUSH0 DUP2 SWAP1 POP SWAP2 SWAP1 POP JUMP JUMPDEST PUSH2 0x88B DUP2 PUSH2 0x879 JUMP JUMPDEST DUP2 EQ PUSH2 0x895 JUMPI PUSH0 DUP1 REVERT JUMPDEST POP JUMP JUMPDEST PUSH0 DUP2 CALLDATALOAD SWAP1 POP PUSH2 0x8A6 DUP2 PUSH2 0x882 JUMP JUMPDEST SWAP3 SWAP2 POP POP JUMP JUMPDEST PUSH0 PUSH1 0x20 DUP3 DUP5 SUB SLT ISZERO PUSH2 0x8C1 JUMPI PUSH2 0x8C0 PUSH2 0x63A JUMP JUMPDEST JUMPDEST PUSH0 PUSH2 0x8CE DUP5 DUP3 DUP6 ADD PUSH2 0x898 JUMP JUMPDEST SWAP2 POP POP SWAP3 SWAP2 POP POP JUMP JUMPDEST PUSH0 PUSH1 0x1F NOT PUSH1 0x1F DUP4 ADD AND SWAP1 POP SWAP2 SWAP1 POP JUMP JUMPDEST PUSH32 0x4E487B7100000000000000000000000000000000000000000000000000000000 PUSH0 MSTORE PUSH1 0x41 PUSH1 0x4 MSTORE PUSH1 0x24 PUSH0 REVERT JUMPDEST PUSH2 0x91D DUP3 PUSH2 0x8D7 JUMP JUMPDEST DUP2 ADD DUP2 DUP2 LT PUSH8 0xFFFFFFFFFFFFFFFF DUP3 GT OR ISZERO PUSH2 0x93C JUMPI PUSH2 0x93B PUSH2 0x8E7 JUMP JUMPDEST JUMPDEST DUP1 PUSH1 0x40 MSTORE POP POP POP JUMP JUMPDEST PUSH0 PUSH2 0x94E PUSH2 0x631 JUMP JUMPDEST SWAP1 POP PUSH2 0x95A DUP3 DUP3 PUSH2 0x914 JUMP JUMPDEST SWAP2 SWAP1 POP JUMP JUMPDEST PUSH0 PUSH8 0xFFFFFFFFFFFFFFFF DUP3 GT ISZERO PUSH2 0x979 JUMPI PUSH2 0x978 PUSH2 0x8E7 JUMP JUMPDEST JUMPDEST PUSH1 0x20 DUP3 MUL SWAP1 POP PUSH1 0x20 DUP2 ADD SWAP1 POP SWAP2 SWAP1 POP JUMP JUMPDEST PUSH0 PUSH2 0x99C PUSH2 0x997 DUP5 PUSH2 0x95F JUMP JUMPDEST PUSH2 0x945 JUMP JUMPDEST SWAP1 POP DUP1 DUP4 DUP3 MSTORE PUSH1 0x20 DUP3 ADD SWAP1 POP PUSH1 0x20 DUP5 MUL DUP4 ADD DUP6 DUP2 GT ISZERO PUSH2 0x9BF JUMPI PUSH2 0x9BE PUSH2 0x715 JUMP JUMPDEST JUMPDEST DUP4 JUMPDEST DUP2 DUP2 LT ISZERO PUSH2 0x9E8 JUMPI DUP1 PUSH2 0x9D4 DUP9 DUP3 PUSH2 0x661 JUMP JUMPDEST DUP5 MSTORE PUSH1 0x20 DUP5 ADD SWAP4 POP POP PUSH1 0x20 DUP2 ADD SWAP1 POP PUSH2 0x9C1 JUMP JUMPDEST POP POP POP SWAP4 SWAP3 POP POP POP JUMP JUMPDEST PUSH0 DUP3 PUSH1 0x1F DUP4 ADD SLT PUSH2 0xA06 JUMPI PUSH2 0xA05 PUSH2 0x70D JUMP JUMPDEST JUMPDEST DUP2 CALLDATALOAD PUSH2 0xA16 DUP5 DUP3 PUSH1 0x20 DUP7 ADD PUSH2 0x98A JUMP JUMPDEST SWAP2 POP POP SWAP3 SWAP2 POP POP JUMP JUMPDEST PUSH0 PUSH1 0x20 DUP3 DUP5 SUB SLT ISZERO PUSH2 0xA34 JUMPI PUSH2 0xA33 PUSH2 0x63A JUMP JUMPDEST JUMPDEST PUSH0 DUP3 ADD CALLDATALOAD PUSH8 0xFFFFFFFFFFFFFFFF DUP2 GT ISZERO PUSH2 0xA51 JUMPI PUSH2 0xA50 PUSH2 0x63E JUMP JUMPDEST JUMPDEST PUSH2 0xA5D DUP5 DUP3 DUP6 ADD PUSH2 0x9F2 JUMP JUMPDEST SWAP2 POP POP SWAP3 SWAP2 POP POP JUMP JUMPDEST PUSH0 DUP2 MLOAD SWAP1 POP SWAP2 SWAP1 POP JUMP JUMPDEST PUSH0 DUP3 DUP3 MSTORE PUSH1 0x20 DUP3 ADD SWAP1 POP SWAP3 SWAP2 POP POP JUMP JUMPDEST PUSH0 DUP2 SWAP1 POP PUSH1 0x20 DUP3 ADD SWAP1 POP SWAP2 SWAP1 POP JUMP JUMPDEST PUSH2 0xA98 DUP2 PUSH2 0x642 JUMP JUMPDEST DUP3 MSTORE POP POP JUMP JUMPDEST PUSH0 PUSH2 0xAA9 DUP4 DUP4 PUSH2 0xA8F JUMP JUMPDEST PUSH1 0x20 DUP4 ADD SWAP1 POP SWAP3 SWAP2 POP POP JUMP JUMPDEST PUSH0 PUSH1 0x20 DUP3 ADD SWAP1 POP SWAP2 SWAP1 POP JUMP JUMPDEST PUSH0 PUSH2 0xACB DUP3 PUSH2 0xA66 JUMP JUMPDEST PUSH2 0xAD5 DUP2 DUP6 PUSH2 0xA70 JUMP JUMPDEST SWAP4 POP PUSH2 0xAE0 DUP4 PUSH2 0xA80 JUMP JUMPDEST DUP1 PUSH0 JUMPDEST DUP4 DUP2 LT ISZERO PUSH2 0xB10 JUMPI DUP2 MLOAD PUSH2 0xAF7 DUP9 DUP3 PUSH2 0xA9E JUMP JUMPDEST SWAP8 POP PUSH2 0xB02 DUP4 PUSH2 0xAB5 JUMP JUMPDEST SWAP3 POP POP PUSH1 0x1 DUP2 ADD SWAP1 POP PUSH2 0xAE3 JUMP JUMPDEST POP DUP6 SWAP4 POP POP POP POP SWAP3 SWAP2 POP POP JUMP JUMPDEST PUSH0 PUSH1 0x20 DUP3 ADD SWAP1 POP DUP2 DUP2 SUB PUSH0 DUP4 ADD MSTORE PUSH2 0xB35 DUP2 DUP5 PUSH2 0xAC1 JUMP JUMPDEST SWAP1 POP SWAP3 SWAP2 POP POP JUMP JUMPDEST PUSH0 DUP2 SWAP1 POP SWAP3 SWAP2 POP POP JUMP JUMPDEST DUP3 DUP2 DUP4 CALLDATACOPY PUSH0 DUP4 DUP4 ADD MSTORE POP POP POP JUMP JUMPDEST PUSH0 PUSH2 0xB60 DUP4 DUP6 PUSH2 0xB3D JUMP JUMPDEST SWAP4 POP PUSH2 0xB6D DUP4 DUP6 DUP5 PUSH2 0xB47 JUMP JUMPDEST DUP3 DUP5 ADD SWAP1 POP SWAP4 SWAP3 POP POP POP JUMP JUMPDEST PUSH0 PUSH2 0xB85 DUP3 DUP5 DUP7 PUSH2 0xB55 JUMP JUMPDEST SWAP2 POP DUP2 SWAP1 POP SWAP4 SWAP3 POP POP POP JUMP JUMPDEST PUSH32 0x4E487B7100000000000000000000000000000000000000000000000000000000 PUSH0 MSTORE PUSH1 0x11 PUSH1 0x4 MSTORE PUSH1 0x24 PUSH0 REVERT JUMPDEST PUSH0 PUSH2 0xBC8 DUP3 PUSH2 0x642 JUMP JUMPDEST SWAP2 POP PUSH2 0xBD3 DUP4 PUSH2 0x642 JUMP JUMPDEST SWAP3 POP DUP3 DUP3 ADD SWAP1 POP DUP1 DUP3 GT ISZERO PUSH2 0xBEB JUMPI PUSH2 0xBEA PUSH2 0xB91 JUMP JUMPDEST JUMPDEST SWAP3 SWAP2 POP POP JUMP JUMPDEST PUSH0 PUSH2 0xBFB DUP3 PUSH2 0x642 JUMP JUMPDEST SWAP2 POP PUSH32 0xFFFFFFFFFFFFFFFFFFFFFFFFFFFFFFFFFFFFFFFFFFFFFFFFFFFFFFFFFFFFFFFF DUP3 SUB PUSH2 0xC2D JUMPI PUSH2 0xC2C PUSH2 0xB91 JUMP JUMPDEST JUMPDEST PUSH1 0x1 DUP3 ADD SWAP1 POP SWAP2 SWAP1 POP JUMP JUMPDEST PUSH32 0x4E487B7100000000000000000000000000000000000000000000000000000000 PUSH0 MSTORE PUSH1 0x32 PUSH1 0x4 MSTORE PUSH1 0x24 PUSH0 REVERT JUMPDEST PUSH0 PUSH2 0xC6F DUP3 PUSH2 0x642 JUMP JUMPDEST SWAP2 POP PUSH2 0xC7A DUP4 PUSH2 0x642 JUMP JUMPDEST SWAP3 POP DUP3 DUP3 SUB SWAP1 POP DUP2 DUP2 GT ISZERO PUSH2 0xC92 JUMPI PUSH2 0xC91 PUSH2 0xB91 JUMP JUMPDEST JUMPDEST SWAP3 SWAP2 POP POP JUMP JUMPDEST PUSH0 PUSH2 0xCA2 DUP3 PUSH2 0x642 JUMP JUMPDEST SWAP2 POP PUSH0 DUP3 SUB PUSH2 0xCB4 JUMPI PUSH2 0xCB3 PUSH2 0xB91 JUMP JUMPDEST JUMPDEST PUSH1 0x1 DUP3 SUB SWAP1 POP SWAP2 SWAP1 POP JUMP INVALID LOG2 PUSH5 0x6970667358 0x22 SLT KECCAK256 PUSH3 0xCED73B MULMOD PUSH13 0x8B0E3637F52DEC703BDDF9F065 ISZERO PUSH22 0xE08B10E9288B3FDC51440664736F6C634300081A0033 "
				},
				"gasEstimates": {
					"creation": {
						"codeDepositCost": "663400",
						"executionCost": "infinite",
						"totalCost": "infinite"
					},
					"external": {
						"IMMUTABLE_NUM()": "infinite",
						"_a(uint256)": "infinite",
						"_b(uint256)": "infinite",
						"bubbleSort(uint256[])": "infinite",
						"forTest()": "infinite",
						"forWhile()": "infinite",
						"getSymbol(bytes32)": "2875",
						"is_test(uint256)": "721",
						"new_address(uint256)": "2872",
						"set_immutable_num()": "367",
						"symbol(bytes32)": "2872",
						"wariteSymbolMap(string,address)": "infinite",
						"writeAddressMap(uint256,address)": "24963"
					}
				},
				"methodIdentifiers": {
					"IMMUTABLE_NUM()": "ed7ff875",
					"_a(uint256)": "441bbaf3",
					"_b(uint256)": "58e40a5a",
					"bubbleSort(uint256[])": "e30c36f1",
					"forTest()": "de152f8d",
					"forWhile()": "a09da550",
					"getSymbol(bytes32)": "5cfac837",
					"is_test(uint256)": "45cb6f31",
					"new_address(uint256)": "4408e5c0",
					"set_immutable_num()": "c90fd7a7",
					"symbol(bytes32)": "6baa0330",
					"wariteSymbolMap(string,address)": "227a025a",
					"writeAddressMap(uint256,address)": "101c9881"
				}
			},
			"storageLayout": {
				"storage": [
					{
						"astId": 10,
						"contract": "03-mapping/mapping.sol:Mapping",
						"label": "_a",
						"offset": 0,
						"slot": "0",
						"type": "t_array(t_uint256)dyn_storage"
					},
					{
						"astId": 17,
						"contract": "03-mapping/mapping.sol:Mapping",
						"label": "_b",
						"offset": 0,
						"slot": "1",
						"type": "t_array(t_uint256)2_storage"
					},
					{
						"astId": 21,
						"contract": "03-mapping/mapping.sol:Mapping",
						"label": "new_address",
						"offset": 0,
						"slot": "3",
						"type": "t_mapping(t_uint256,t_address)"
					},
					{
						"astId": 25,
						"contract": "03-mapping/mapping.sol:Mapping",
						"label": "symbol",
						"offset": 0,
						"slot": "4",
						"type": "t_mapping(t_bytes32,t_address)"
					}
				],
				"types": {
					"t_address": {
						"encoding": "inplace",
						"label": "address",
						"numberOfBytes": "20"
					},
					"t_array(t_uint256)2_storage": {
						"base": "t_uint256",
						"encoding": "inplace",
						"label": "uint256[2]",
						"numberOfBytes": "64"
					},
					"t_array(t_uint256)dyn_storage": {
						"base": "t_uint256",
						"encoding": "dynamic_array",
						"label": "uint256[]",
						"numberOfBytes": "32"
					},
					"t_bytes32": {
						"encoding": "inplace",
						"label": "bytes32",
						"numberOfBytes": "32"
					},
					"t_mapping(t_bytes32,t_address)": {
						"encoding": "mapping",
						"key": "t_bytes32",
						"label": "mapping(bytes32 => address)",
						"numberOfBytes": "32",
						"value": "t_address"
					},
					"t_mapping(t_uint256,t_address)": {
						"encoding": "mapping",
						"key": "t_uint256",
						"label": "mapping(uint256 => address)",
						"numberOfBytes": "32",
						"value": "t_address"
					},
					"t_uint256": {
						"encoding": "inplace",
						"label": "uint256",
						"numberOfBytes": "32"
					}
				}
			},
			"userdoc": {
				"kind": "user",
				"methods": {},
				"version": 1
			}
		}
	}
}