{
	"13-hardhat/contracts/Token2.sol": {
		"testUnitsGas": {
			"abi": [
				{
					"inputs": [
						{
							"internalType": "uint256",
							"name": "x",
							"type": "uint256"
						},
						{
							"internalType": "uint256",
							"name": "y",
							"type": "uint256"
						}
					],
					"name": "add_high_gas",
					"outputs": [],
					"stateMutability": "nonpayable",
					"type": "function"
				},
				{
					"inputs": [
						{
							"internalType": "uint256",
							"name": "x",
							"type": "uint256"
						},
						{
							"internalType": "uint256",
							"name": "y",
							"type": "uint256"
						}
					],
					"name": "add_less_gas",
					"outputs": [],
					"stateMutability": "nonpayable",
					"type": "function"
				},
				{
					"inputs": [],
					"name": "sayHi",
					"outputs": [
						{
							"internalType": "uint256",
							"name": "",
							"type": "uint256"
						}
					],
					"stateMutability": "pure",
					"type": "function"
				},
				{
					"inputs": [
						{
							"internalType": "address payable",
							"name": "x",
							"type": "address"
						}
					],
					"name": "testTrasfer",
					"outputs": [],
					"stateMutability": "nonpayable",
					"type": "function"
				}
			],
			"devdoc": {
				"kind": "dev",
				"methods": {},
				"version": 1
			},
			"evm": {
				"assembly": "    /* \"13-hardhat/contracts/Token2.sol\":58:575  contract testUnitsGas {... */\n  mstore(0x40, 0x80)\n  callvalue\n  dup1\n  iszero\n  tag_1\n  jumpi\n  0x00\n  dup1\n  revert\ntag_1:\n  pop\n  dataSize(sub_0)\n  dup1\n  dataOffset(sub_0)\n  0x00\n  codecopy\n  0x00\n  return\nstop\n\nsub_0: assembly {\n        /* \"13-hardhat/contracts/Token2.sol\":58:575  contract testUnitsGas {... */\n      mstore(0x40, 0x80)\n      callvalue\n      dup1\n      iszero\n      tag_1\n      jumpi\n      0x00\n      dup1\n      revert\n    tag_1:\n      pop\n      jumpi(tag_2, lt(calldatasize, 0x04))\n      shr(0xe0, calldataload(0x00))\n      dup1\n      0x0c49c36c\n      eq\n      tag_3\n      jumpi\n      dup1\n      0x8bdbd1be\n      eq\n      tag_4\n      jumpi\n      dup1\n      0xbca93aa9\n      eq\n      tag_5\n      jumpi\n      dup1\n      0xfb215640\n      eq\n      tag_6\n      jumpi\n    tag_2:\n      0x00\n      dup1\n      revert\n        /* \"13-hardhat/contracts/Token2.sol\":498:573  function sayHi() public pure returns  (uint) {... */\n    tag_3:\n      tag_7\n      tag_8\n      jump\t// in\n    tag_7:\n      mload(0x40)\n      tag_9\n      swap2\n      swap1\n      tag_10\n      jump\t// in\n    tag_9:\n      mload(0x40)\n      dup1\n      swap2\n      sub\n      swap1\n      return\n        /* \"13-hardhat/contracts/Token2.sol\":189:296  function add_less_gas(uint x, uint y) public  {... */\n    tag_4:\n      tag_11\n      0x04\n      dup1\n      calldatasize\n      sub\n      dup2\n      add\n      swap1\n      tag_12\n      swap2\n      swap1\n      tag_13\n      jump\t// in\n    tag_12:\n      tag_14\n      jump\t// in\n    tag_11:\n      stop\n        /* \"13-hardhat/contracts/Token2.sol\":303:491  function testTrasfer(address payable x) public {... */\n    tag_5:\n      tag_15\n      0x04\n      dup1\n      calldatasize\n      sub\n      dup2\n      add\n      swap1\n      tag_16\n      swap2\n      swap1\n      tag_17\n      jump\t// in\n    tag_16:\n      tag_18\n      jump\t// in\n    tag_15:\n      stop\n        /* \"13-hardhat/contracts/Token2.sol\":99:171  function add_high_gas(uint x, uint y) public {... */\n    tag_6:\n      tag_19\n      0x04\n      dup1\n      calldatasize\n      sub\n      dup2\n      add\n      swap1\n      tag_20\n      swap2\n      swap1\n      tag_13\n      jump\t// in\n    tag_20:\n      tag_21\n      jump\t// in\n    tag_19:\n      stop\n        /* \"13-hardhat/contracts/Token2.sol\":498:573  function sayHi() public pure returns  (uint) {... */\n    tag_8:\n        /* \"13-hardhat/contracts/Token2.sol\":537:541  uint */\n      0x00\n        /* \"13-hardhat/contracts/Token2.sol\":560:562  10 */\n      0x0a\n        /* \"13-hardhat/contracts/Token2.sol\":553:562  return 10 */\n      swap1\n      pop\n        /* \"13-hardhat/contracts/Token2.sol\":498:573  function sayHi() public pure returns  (uint) {... */\n      swap1\n      jump\t// out\n        /* \"13-hardhat/contracts/Token2.sol\":189:296  function add_less_gas(uint x, uint y) public  {... */\n    tag_14:\n        /* \"13-hardhat/contracts/Token2.sol\":278:279  y */\n      dup1\n        /* \"13-hardhat/contracts/Token2.sol\":274:275  x */\n      dup3\n        /* \"13-hardhat/contracts/Token2.sol\":274:279  x + y */\n      add\n        /* \"13-hardhat/contracts/Token2.sol\":269:271  z2 */\n      0x01\n        /* \"13-hardhat/contracts/Token2.sol\":269:279  z2 = x + y */\n      dup2\n      swap1\n      sstore\n      pop\n        /* \"13-hardhat/contracts/Token2.sol\":189:296  function add_less_gas(uint x, uint y) public  {... */\n      pop\n      pop\n      jump\t// out\n        /* \"13-hardhat/contracts/Token2.sol\":303:491  function testTrasfer(address payable x) public {... */\n    tag_18:\n        /* \"13-hardhat/contracts/Token2.sol\":359:376  address myAddress */\n      0x00\n        /* \"13-hardhat/contracts/Token2.sol\":387:391  this */\n      address\n        /* \"13-hardhat/contracts/Token2.sol\":359:392  address myAddress = address(this) */\n      swap1\n      pop\n        /* \"13-hardhat/contracts/Token2.sol\":417:419  10 */\n      0x0a\n        /* \"13-hardhat/contracts/Token2.sol\":405:406  x */\n      dup3\n        /* \"13-hardhat/contracts/Token2.sol\":405:414  x.balance */\n      0xffffffffffffffffffffffffffffffffffffffff\n      and\n      balance\n        /* \"13-hardhat/contracts/Token2.sol\":405:419  x.balance < 10 */\n      lt\n        /* \"13-hardhat/contracts/Token2.sol\":405:446  x.balance < 10 && myAddress.balance >= 10 */\n      dup1\n      iszero\n      tag_25\n      jumpi\n      pop\n        /* \"13-hardhat/contracts/Token2.sol\":444:446  10 */\n      0x0a\n        /* \"13-hardhat/contracts/Token2.sol\":423:432  myAddress */\n      dup2\n        /* \"13-hardhat/contracts/Token2.sol\":423:440  myAddress.balance */\n      0xffffffffffffffffffffffffffffffffffffffff\n      and\n      balance\n        /* \"13-hardhat/contracts/Token2.sol\":423:446  myAddress.balance >= 10 */\n      lt\n      iszero\n        /* \"13-hardhat/contracts/Token2.sol\":405:446  x.balance < 10 && myAddress.balance >= 10 */\n    tag_25:\n        /* \"13-hardhat/contracts/Token2.sol\":401:485  if (x.balance < 10 && myAddress.balance >= 10) {... */\n      iszero\n      tag_26\n      jumpi\n        /* \"13-hardhat/contracts/Token2.sol\":461:462  x */\n      dup2\n        /* \"13-hardhat/contracts/Token2.sol\":461:471  x.transfer */\n      0xffffffffffffffffffffffffffffffffffffffff\n      and\n        /* \"13-hardhat/contracts/Token2.sol\":461:475  x.transfer(10) */\n      0x08fc\n        /* \"13-hardhat/contracts/Token2.sol\":472:474  10 */\n      0x0a\n        /* \"13-hardhat/contracts/Token2.sol\":461:475  x.transfer(10) */\n      swap1\n      dup2\n      iszero\n      mul\n      swap1\n      mload(0x40)\n      0x00\n      mload(0x40)\n      dup1\n      dup4\n      sub\n      dup2\n      dup6\n      dup9\n      dup9\n      call\n      swap4\n      pop\n      pop\n      pop\n      pop\n      iszero\n      dup1\n      iszero\n      tag_28\n      jumpi\n      returndatasize\n      0x00\n      dup1\n      returndatacopy\n      revert(0x00, returndatasize)\n    tag_28:\n      pop\n        /* \"13-hardhat/contracts/Token2.sol\":401:485  if (x.balance < 10 && myAddress.balance >= 10) {... */\n    tag_26:\n        /* \"13-hardhat/contracts/Token2.sol\":350:491  {... */\n      pop\n        /* \"13-hardhat/contracts/Token2.sol\":303:491  function testTrasfer(address payable x) public {... */\n      pop\n      jump\t// out\n        /* \"13-hardhat/contracts/Token2.sol\":99:171  function add_high_gas(uint x, uint y) public {... */\n    tag_21:\n        /* \"13-hardhat/contracts/Token2.sol\":163:164  y */\n      dup1\n        /* \"13-hardhat/contracts/Token2.sol\":159:160  x */\n      dup3\n        /* \"13-hardhat/contracts/Token2.sol\":159:164  x + y */\n      tag_30\n      swap2\n      swap1\n      tag_31\n      jump\t// in\n    tag_30:\n        /* \"13-hardhat/contracts/Token2.sol\":154:156  z1 */\n      0x00\n        /* \"13-hardhat/contracts/Token2.sol\":154:164  z1 = x + y */\n      dup2\n      swap1\n      sstore\n      pop\n        /* \"13-hardhat/contracts/Token2.sol\":99:171  function add_high_gas(uint x, uint y) public {... */\n      pop\n      pop\n      jump\t// out\n        /* \"#utility.yul\":7:84   */\n    tag_32:\n        /* \"#utility.yul\":44:51   */\n      0x00\n        /* \"#utility.yul\":73:78   */\n      dup2\n        /* \"#utility.yul\":62:78   */\n      swap1\n      pop\n        /* \"#utility.yul\":7:84   */\n      swap2\n      swap1\n      pop\n      jump\t// out\n        /* \"#utility.yul\":90:208   */\n    tag_33:\n        /* \"#utility.yul\":177:201   */\n      tag_47\n        /* \"#utility.yul\":195:200   */\n      dup2\n        /* \"#utility.yul\":177:201   */\n      tag_32\n      jump\t// in\n    tag_47:\n        /* \"#utility.yul\":172:175   */\n      dup3\n        /* \"#utility.yul\":165:202   */\n      mstore\n        /* \"#utility.yul\":90:208   */\n      pop\n      pop\n      jump\t// out\n        /* \"#utility.yul\":214:436   */\n    tag_10:\n        /* \"#utility.yul\":307:311   */\n      0x00\n        /* \"#utility.yul\":345:347   */\n      0x20\n        /* \"#utility.yul\":334:343   */\n      dup3\n        /* \"#utility.yul\":330:348   */\n      add\n        /* \"#utility.yul\":322:348   */\n      swap1\n      pop\n        /* \"#utility.yul\":358:429   */\n      tag_49\n        /* \"#utility.yul\":426:427   */\n      0x00\n        /* \"#utility.yul\":415:424   */\n      dup4\n        /* \"#utility.yul\":411:428   */\n      add\n        /* \"#utility.yul\":402:408   */\n      dup5\n        /* \"#utility.yul\":358:429   */\n      tag_33\n      jump\t// in\n    tag_49:\n        /* \"#utility.yul\":214:436   */\n      swap3\n      swap2\n      pop\n      pop\n      jump\t// out\n        /* \"#utility.yul\":523:640   */\n    tag_35:\n        /* \"#utility.yul\":632:633   */\n      0x00\n        /* \"#utility.yul\":629:630   */\n      dup1\n        /* \"#utility.yul\":622:634   */\n      revert\n        /* \"#utility.yul\":769:891   */\n    tag_37:\n        /* \"#utility.yul\":842:866   */\n      tag_54\n        /* \"#utility.yul\":860:865   */\n      dup2\n        /* \"#utility.yul\":842:866   */\n      tag_32\n      jump\t// in\n    tag_54:\n        /* \"#utility.yul\":835:840   */\n      dup2\n        /* \"#utility.yul\":832:867   */\n      eq\n        /* \"#utility.yul\":822:885   */\n      tag_55\n      jumpi\n        /* \"#utility.yul\":881:882   */\n      0x00\n        /* \"#utility.yul\":878:879   */\n      dup1\n        /* \"#utility.yul\":871:883   */\n      revert\n        /* \"#utility.yul\":822:885   */\n    tag_55:\n        /* \"#utility.yul\":769:891   */\n      pop\n      jump\t// out\n        /* \"#utility.yul\":897:1036   */\n    tag_38:\n        /* \"#utility.yul\":943:948   */\n      0x00\n        /* \"#utility.yul\":981:987   */\n      dup2\n        /* \"#utility.yul\":968:988   */\n      calldataload\n        /* \"#utility.yul\":959:988   */\n      swap1\n      pop\n        /* \"#utility.yul\":997:1030   */\n      tag_57\n        /* \"#utility.yul\":1024:1029   */\n      dup2\n        /* \"#utility.yul\":997:1030   */\n      tag_37\n      jump\t// in\n    tag_57:\n        /* \"#utility.yul\":897:1036   */\n      swap3\n      swap2\n      pop\n      pop\n      jump\t// out\n        /* \"#utility.yul\":1042:1516   */\n    tag_13:\n        /* \"#utility.yul\":1110:1116   */\n      0x00\n        /* \"#utility.yul\":1118:1124   */\n      dup1\n        /* \"#utility.yul\":1167:1169   */\n      0x40\n        /* \"#utility.yul\":1155:1164   */\n      dup4\n        /* \"#utility.yul\":1146:1153   */\n      dup6\n        /* \"#utility.yul\":1142:1165   */\n      sub\n        /* \"#utility.yul\":1138:1170   */\n      slt\n        /* \"#utility.yul\":1135:1254   */\n      iszero\n      tag_59\n      jumpi\n        /* \"#utility.yul\":1173:1252   */\n      tag_60\n      tag_35\n      jump\t// in\n    tag_60:\n        /* \"#utility.yul\":1135:1254   */\n    tag_59:\n        /* \"#utility.yul\":1293:1294   */\n      0x00\n        /* \"#utility.yul\":1318:1371   */\n      tag_61\n        /* \"#utility.yul\":1363:1370   */\n      dup6\n        /* \"#utility.yul\":1354:1360   */\n      dup3\n        /* \"#utility.yul\":1343:1352   */\n      dup7\n        /* \"#utility.yul\":1339:1361   */\n      add\n        /* \"#utility.yul\":1318:1371   */\n      tag_38\n      jump\t// in\n    tag_61:\n        /* \"#utility.yul\":1308:1371   */\n      swap3\n      pop\n        /* \"#utility.yul\":1264:1381   */\n      pop\n        /* \"#utility.yul\":1420:1422   */\n      0x20\n        /* \"#utility.yul\":1446:1499   */\n      tag_62\n        /* \"#utility.yul\":1491:1498   */\n      dup6\n        /* \"#utility.yul\":1482:1488   */\n      dup3\n        /* \"#utility.yul\":1471:1480   */\n      dup7\n        /* \"#utility.yul\":1467:1489   */\n      add\n        /* \"#utility.yul\":1446:1499   */\n      tag_38\n      jump\t// in\n    tag_62:\n        /* \"#utility.yul\":1436:1499   */\n      swap2\n      pop\n        /* \"#utility.yul\":1391:1509   */\n      pop\n        /* \"#utility.yul\":1042:1516   */\n      swap3\n      pop\n      swap3\n      swap1\n      pop\n      jump\t// out\n        /* \"#utility.yul\":1522:1648   */\n    tag_39:\n        /* \"#utility.yul\":1559:1566   */\n      0x00\n        /* \"#utility.yul\":1599:1641   */\n      0xffffffffffffffffffffffffffffffffffffffff\n        /* \"#utility.yul\":1592:1597   */\n      dup3\n        /* \"#utility.yul\":1588:1642   */\n      and\n        /* \"#utility.yul\":1577:1642   */\n      swap1\n      pop\n        /* \"#utility.yul\":1522:1648   */\n      swap2\n      swap1\n      pop\n      jump\t// out\n        /* \"#utility.yul\":1654:1758   */\n    tag_40:\n        /* \"#utility.yul\":1699:1706   */\n      0x00\n        /* \"#utility.yul\":1728:1752   */\n      tag_65\n        /* \"#utility.yul\":1746:1751   */\n      dup3\n        /* \"#utility.yul\":1728:1752   */\n      tag_39\n      jump\t// in\n    tag_65:\n        /* \"#utility.yul\":1717:1752   */\n      swap1\n      pop\n        /* \"#utility.yul\":1654:1758   */\n      swap2\n      swap1\n      pop\n      jump\t// out\n        /* \"#utility.yul\":1764:1902   */\n    tag_41:\n        /* \"#utility.yul\":1845:1877   */\n      tag_67\n        /* \"#utility.yul\":1871:1876   */\n      dup2\n        /* \"#utility.yul\":1845:1877   */\n      tag_40\n      jump\t// in\n    tag_67:\n        /* \"#utility.yul\":1838:1843   */\n      dup2\n        /* \"#utility.yul\":1835:1878   */\n      eq\n        /* \"#utility.yul\":1825:1896   */\n      tag_68\n      jumpi\n        /* \"#utility.yul\":1892:1893   */\n      0x00\n        /* \"#utility.yul\":1889:1890   */\n      dup1\n        /* \"#utility.yul\":1882:1894   */\n      revert\n        /* \"#utility.yul\":1825:1896   */\n    tag_68:\n        /* \"#utility.yul\":1764:1902   */\n      pop\n      jump\t// out\n        /* \"#utility.yul\":1908:2063   */\n    tag_42:\n        /* \"#utility.yul\":1962:1967   */\n      0x00\n        /* \"#utility.yul\":2000:2006   */\n      dup2\n        /* \"#utility.yul\":1987:2007   */\n      calldataload\n        /* \"#utility.yul\":1978:2007   */\n      swap1\n      pop\n        /* \"#utility.yul\":2016:2057   */\n      tag_70\n        /* \"#utility.yul\":2051:2056   */\n      dup2\n        /* \"#utility.yul\":2016:2057   */\n      tag_41\n      jump\t// in\n    tag_70:\n        /* \"#utility.yul\":1908:2063   */\n      swap3\n      swap2\n      pop\n      pop\n      jump\t// out\n        /* \"#utility.yul\":2069:2414   */\n    tag_17:\n        /* \"#utility.yul\":2136:2142   */\n      0x00\n        /* \"#utility.yul\":2185:2187   */\n      0x20\n        /* \"#utility.yul\":2173:2182   */\n      dup3\n        /* \"#utility.yul\":2164:2171   */\n      dup5\n        /* \"#utility.yul\":2160:2183   */\n      sub\n        /* \"#utility.yul\":2156:2188   */\n      slt\n        /* \"#utility.yul\":2153:2272   */\n      iszero\n      tag_72\n      jumpi\n        /* \"#utility.yul\":2191:2270   */\n      tag_73\n      tag_35\n      jump\t// in\n    tag_73:\n        /* \"#utility.yul\":2153:2272   */\n    tag_72:\n        /* \"#utility.yul\":2311:2312   */\n      0x00\n        /* \"#utility.yul\":2336:2397   */\n      tag_74\n        /* \"#utility.yul\":2389:2396   */\n      dup5\n        /* \"#utility.yul\":2380:2386   */\n      dup3\n        /* \"#utility.yul\":2369:2378   */\n      dup6\n        /* \"#utility.yul\":2365:2387   */\n      add\n        /* \"#utility.yul\":2336:2397   */\n      tag_42\n      jump\t// in\n    tag_74:\n        /* \"#utility.yul\":2326:2397   */\n      swap2\n      pop\n        /* \"#utility.yul\":2282:2407   */\n      pop\n        /* \"#utility.yul\":2069:2414   */\n      swap3\n      swap2\n      pop\n      pop\n      jump\t// out\n        /* \"#utility.yul\":2420:2600   */\n    tag_43:\n        /* \"#utility.yul\":2468:2545   */\n      0x4e487b7100000000000000000000000000000000000000000000000000000000\n        /* \"#utility.yul\":2465:2466   */\n      0x00\n        /* \"#utility.yul\":2458:2546   */\n      mstore\n        /* \"#utility.yul\":2565:2569   */\n      0x11\n        /* \"#utility.yul\":2562:2563   */\n      0x04\n        /* \"#utility.yul\":2555:2570   */\n      mstore\n        /* \"#utility.yul\":2589:2593   */\n      0x24\n        /* \"#utility.yul\":2586:2587   */\n      0x00\n        /* \"#utility.yul\":2579:2594   */\n      revert\n        /* \"#utility.yul\":2606:2797   */\n    tag_31:\n        /* \"#utility.yul\":2646:2649   */\n      0x00\n        /* \"#utility.yul\":2665:2685   */\n      tag_77\n        /* \"#utility.yul\":2683:2684   */\n      dup3\n        /* \"#utility.yul\":2665:2685   */\n      tag_32\n      jump\t// in\n    tag_77:\n        /* \"#utility.yul\":2660:2685   */\n      swap2\n      pop\n        /* \"#utility.yul\":2699:2719   */\n      tag_78\n        /* \"#utility.yul\":2717:2718   */\n      dup4\n        /* \"#utility.yul\":2699:2719   */\n      tag_32\n      jump\t// in\n    tag_78:\n        /* \"#utility.yul\":2694:2719   */\n      swap3\n      pop\n        /* \"#utility.yul\":2742:2743   */\n      dup3\n        /* \"#utility.yul\":2739:2740   */\n      dup3\n        /* \"#utility.yul\":2735:2744   */\n      add\n        /* \"#utility.yul\":2728:2744   */\n      swap1\n      pop\n        /* \"#utility.yul\":2763:2766   */\n      dup1\n        /* \"#utility.yul\":2760:2761   */\n      dup3\n        /* \"#utility.yul\":2757:2767   */\n      gt\n        /* \"#utility.yul\":2754:2790   */\n      iszero\n      tag_79\n      jumpi\n        /* \"#utility.yul\":2770:2788   */\n      tag_80\n      tag_43\n      jump\t// in\n    tag_80:\n        /* \"#utility.yul\":2754:2790   */\n    tag_79:\n        /* \"#utility.yul\":2606:2797   */\n      swap3\n      swap2\n      pop\n      pop\n      jump\t// out\n\n    auxdata: 0xa2646970667358221220cac08ed3f11ddf039d1497e13c17fa27ae550402f8cfb9315b00e061770b9c4864736f6c634300081a0033\n}\n",
				"bytecode": {
					"linkReferences": {},
					"object": "6080604052348015600e575f80fd5b506103348061001c5f395ff3fe608060405234801561000f575f80fd5b506004361061004a575f3560e01c80630c49c36c1461004e5780638bdbd1be1461006c578063bca93aa914610088578063fb215640146100a4575b5f80fd5b6100566100c0565b6040516100639190610194565b60405180910390f35b610086600480360381019061008191906101db565b6100c8565b005b6100a2600480360381019061009d9190610273565b6100d5565b005b6100be60048036038101906100b991906101db565b610167565b005b5f600a905090565b8082016001819055505050565b5f309050600a8273ffffffffffffffffffffffffffffffffffffffff16311080156101185750600a8173ffffffffffffffffffffffffffffffffffffffff163110155b15610163578173ffffffffffffffffffffffffffffffffffffffff166108fc600a90811502906040515f60405180830381858888f19350505050158015610161573d5f803e3d5ffd5b505b5050565b808261017391906102cb565b5f819055505050565b5f819050919050565b61018e8161017c565b82525050565b5f6020820190506101a75f830184610185565b92915050565b5f80fd5b6101ba8161017c565b81146101c4575f80fd5b50565b5f813590506101d5816101b1565b92915050565b5f80604083850312156101f1576101f06101ad565b5b5f6101fe858286016101c7565b925050602061020f858286016101c7565b9150509250929050565b5f73ffffffffffffffffffffffffffffffffffffffff82169050919050565b5f61024282610219565b9050919050565b61025281610238565b811461025c575f80fd5b50565b5f8135905061026d81610249565b92915050565b5f60208284031215610288576102876101ad565b5b5f6102958482850161025f565b91505092915050565b7f4e487b71000000000000000000000000000000000000000000000000000000005f52601160045260245ffd5b5f6102d58261017c565b91506102e08361017c565b92508282019050808211156102f8576102f761029e565b5b9291505056fea2646970667358221220cac08ed3f11ddf039d1497e13c17fa27ae550402f8cfb9315b00e061770b9c4864736f6c634300081a0033",
					"opcodes": "PUSH1 0x80 PUSH1 0x40 MSTORE CALLVALUE DUP1 ISZERO PUSH1 0xE JUMPI PUSH0 DUP1 REVERT JUMPDEST POP PUSH2 0x334 DUP1 PUSH2 0x1C PUSH0 CODECOPY PUSH0 RETURN INVALID PUSH1 0x80 PUSH1 0x40 MSTORE CALLVALUE DUP1 ISZERO PUSH2 0xF JUMPI PUSH0 DUP1 REVERT JUMPDEST POP PUSH1 0x4 CALLDATASIZE LT PUSH2 0x4A JUMPI PUSH0 CALLDATALOAD PUSH1 0xE0 SHR DUP1 PUSH4 0xC49C36C EQ PUSH2 0x4E JUMPI DUP1 PUSH4 0x8BDBD1BE EQ PUSH2 0x6C JUMPI DUP1 PUSH4 0xBCA93AA9 EQ PUSH2 0x88 JUMPI DUP1 PUSH4 0xFB215640 EQ PUSH2 0xA4 JUMPI JUMPDEST PUSH0 DUP1 REVERT JUMPDEST PUSH2 0x56 PUSH2 0xC0 JUMP JUMPDEST PUSH1 0x40 MLOAD PUSH2 0x63 SWAP2 SWAP1 PUSH2 0x194 JUMP JUMPDEST PUSH1 0x40 MLOAD DUP1 SWAP2 SUB SWAP1 RETURN JUMPDEST PUSH2 0x86 PUSH1 0x4 DUP1 CALLDATASIZE SUB DUP2 ADD SWAP1 PUSH2 0x81 SWAP2 SWAP1 PUSH2 0x1DB JUMP JUMPDEST PUSH2 0xC8 JUMP JUMPDEST STOP JUMPDEST PUSH2 0xA2 PUSH1 0x4 DUP1 CALLDATASIZE SUB DUP2 ADD SWAP1 PUSH2 0x9D SWAP2 SWAP1 PUSH2 0x273 JUMP JUMPDEST PUSH2 0xD5 JUMP JUMPDEST STOP JUMPDEST PUSH2 0xBE PUSH1 0x4 DUP1 CALLDATASIZE SUB DUP2 ADD SWAP1 PUSH2 0xB9 SWAP2 SWAP1 PUSH2 0x1DB JUMP JUMPDEST PUSH2 0x167 JUMP JUMPDEST STOP JUMPDEST PUSH0 PUSH1 0xA SWAP1 POP SWAP1 JUMP JUMPDEST DUP1 DUP3 ADD PUSH1 0x1 DUP2 SWAP1 SSTORE POP POP POP JUMP JUMPDEST PUSH0 ADDRESS SWAP1 POP PUSH1 0xA DUP3 PUSH20 0xFFFFFFFFFFFFFFFFFFFFFFFFFFFFFFFFFFFFFFFF AND BALANCE LT DUP1 ISZERO PUSH2 0x118 JUMPI POP PUSH1 0xA DUP2 PUSH20 0xFFFFFFFFFFFFFFFFFFFFFFFFFFFFFFFFFFFFFFFF AND BALANCE LT ISZERO JUMPDEST ISZERO PUSH2 0x163 JUMPI DUP2 PUSH20 0xFFFFFFFFFFFFFFFFFFFFFFFFFFFFFFFFFFFFFFFF AND PUSH2 0x8FC PUSH1 0xA SWAP1 DUP2 ISZERO MUL SWAP1 PUSH1 0x40 MLOAD PUSH0 PUSH1 0x40 MLOAD DUP1 DUP4 SUB DUP2 DUP6 DUP9 DUP9 CALL SWAP4 POP POP POP POP ISZERO DUP1 ISZERO PUSH2 0x161 JUMPI RETURNDATASIZE PUSH0 DUP1 RETURNDATACOPY RETURNDATASIZE PUSH0 REVERT JUMPDEST POP JUMPDEST POP POP JUMP JUMPDEST DUP1 DUP3 PUSH2 0x173 SWAP2 SWAP1 PUSH2 0x2CB JUMP JUMPDEST PUSH0 DUP2 SWAP1 SSTORE POP POP POP JUMP JUMPDEST PUSH0 DUP2 SWAP1 POP SWAP2 SWAP1 POP JUMP JUMPDEST PUSH2 0x18E DUP2 PUSH2 0x17C JUMP JUMPDEST DUP3 MSTORE POP POP JUMP JUMPDEST PUSH0 PUSH1 0x20 DUP3 ADD SWAP1 POP PUSH2 0x1A7 PUSH0 DUP4 ADD DUP5 PUSH2 0x185 JUMP JUMPDEST SWAP3 SWAP2 POP POP JUMP JUMPDEST PUSH0 DUP1 REVERT JUMPDEST PUSH2 0x1BA DUP2 PUSH2 0x17C JUMP JUMPDEST DUP2 EQ PUSH2 0x1C4 JUMPI PUSH0 DUP1 REVERT JUMPDEST POP JUMP JUMPDEST PUSH0 DUP2 CALLDATALOAD SWAP1 POP PUSH2 0x1D5 DUP2 PUSH2 0x1B1 JUMP JUMPDEST SWAP3 SWAP2 POP POP JUMP JUMPDEST PUSH0 DUP1 PUSH1 0x40 DUP4 DUP6 SUB SLT ISZERO PUSH2 0x1F1 JUMPI PUSH2 0x1F0 PUSH2 0x1AD JUMP JUMPDEST JUMPDEST PUSH0 PUSH2 0x1FE DUP6 DUP3 DUP7 ADD PUSH2 0x1C7 JUMP JUMPDEST SWAP3 POP POP PUSH1 0x20 PUSH2 0x20F DUP6 DUP3 DUP7 ADD PUSH2 0x1C7 JUMP JUMPDEST SWAP2 POP POP SWAP3 POP SWAP3 SWAP1 POP JUMP JUMPDEST PUSH0 PUSH20 0xFFFFFFFFFFFFFFFFFFFFFFFFFFFFFFFFFFFFFFFF DUP3 AND SWAP1 POP SWAP2 SWAP1 POP JUMP JUMPDEST PUSH0 PUSH2 0x242 DUP3 PUSH2 0x219 JUMP JUMPDEST SWAP1 POP SWAP2 SWAP1 POP JUMP JUMPDEST PUSH2 0x252 DUP2 PUSH2 0x238 JUMP JUMPDEST DUP2 EQ PUSH2 0x25C JUMPI PUSH0 DUP1 REVERT JUMPDEST POP JUMP JUMPDEST PUSH0 DUP2 CALLDATALOAD SWAP1 POP PUSH2 0x26D DUP2 PUSH2 0x249 JUMP JUMPDEST SWAP3 SWAP2 POP POP JUMP JUMPDEST PUSH0 PUSH1 0x20 DUP3 DUP5 SUB SLT ISZERO PUSH2 0x288 JUMPI PUSH2 0x287 PUSH2 0x1AD JUMP JUMPDEST JUMPDEST PUSH0 PUSH2 0x295 DUP5 DUP3 DUP6 ADD PUSH2 0x25F JUMP JUMPDEST SWAP2 POP POP SWAP3 SWAP2 POP POP JUMP JUMPDEST PUSH32 0x4E487B7100000000000000000000000000000000000000000000000000000000 PUSH0 MSTORE PUSH1 0x11 PUSH1 0x4 MSTORE PUSH1 0x24 PUSH0 REVERT JUMPDEST PUSH0 PUSH2 0x2D5 DUP3 PUSH2 0x17C JUMP JUMPDEST SWAP2 POP PUSH2 0x2E0 DUP4 PUSH2 0x17C JUMP JUMPDEST SWAP3 POP DUP3 DUP3 ADD SWAP1 POP DUP1 DUP3 GT ISZERO PUSH2 0x2F8 JUMPI PUSH2 0x2F7 PUSH2 0x29E JUMP JUMPDEST JUMPDEST SWAP3 SWAP2 POP POP JUMP INVALID LOG2 PUSH5 0x6970667358 0x22 SLT KECCAK256 0xCA 0xC0 DUP15 0xD3 CALL SAR 0xDF SUB SWAP14 EQ SWAP8 0xE1 EXTCODECOPY OR STATICCALL 0x27 0xAE SSTORE DIV MUL 0xF8 0xCF 0xB9 BALANCE JUMPDEST STOP 0xE0 PUSH2 0x770B SWAP13 BASEFEE PUSH5 0x736F6C6343 STOP ADDMOD BYTE STOP CALLER "
				},
				"gasEstimates": {
					"creation": {
						"codeDepositCost": "164000",
						"executionCost": "206",
						"totalCost": "164206"
					},
					"external": {
						"add_high_gas(uint256,uint256)": "infinite",
						"add_less_gas(uint256,uint256)": "infinite",
						"sayHi()": "310",
						"testTrasfer(address)": "infinite"
					}
				},
				"methodIdentifiers": {
					"add_high_gas(uint256,uint256)": "fb215640",
					"add_less_gas(uint256,uint256)": "8bdbd1be",
					"sayHi()": "0c49c36c",
					"testTrasfer(address)": "bca93aa9"
				}
			},
			"storageLayout": {
				"storage": [
					{
						"astId": 3,
						"contract": "13-hardhat/contracts/Token2.sol:testUnitsGas",
						"label": "z1",
						"offset": 0,
						"slot": "0",
						"type": "t_uint256"
					},
					{
						"astId": 19,
						"contract": "13-hardhat/contracts/Token2.sol:testUnitsGas",
						"label": "z2",
						"offset": 0,
						"slot": "1",
						"type": "t_uint256"
					}
				],
				"types": {
					"t_uint256": {
						"encoding": "inplace",
						"label": "uint256",
						"numberOfBytes": "32"
					}
				}
			},
			"userdoc": {
				"kind": "user",
				"methods": {},
				"version": 1
			}
		}
	}
}