{
	"01-hello-web3/hello.sol": {
		"HelloWeb3": {
			"abi": [
				{
					"inputs": [],
					"name": "_address_1",
					"outputs": [
						{
							"internalType": "address",
							"name": "",
							"type": "address"
						}
					],
					"stateMutability": "view",
					"type": "function"
				},
				{
					"inputs": [],
					"name": "_address_2",
					"outputs": [
						{
							"internalType": "address payable",
							"name": "",
							"type": "address"
						}
					],
					"stateMutability": "view",
					"type": "function"
				},
				{
					"inputs": [],
					"name": "_byte1",
					"outputs": [
						{
							"internalType": "bytes1",
							"name": "",
							"type": "bytes1"
						}
					],
					"stateMutability": "view",
					"type": "function"
				},
				{
					"inputs": [],
					"name": "_byte32",
					"outputs": [
						{
							"internalType": "bytes32",
							"name": "",
							"type": "bytes32"
						}
					],
					"stateMutability": "view",
					"type": "function"
				},
				{
					"inputs": [],
					"name": "_is_first",
					"outputs": [
						{
							"internalType": "bool",
							"name": "",
							"type": "bool"
						}
					],
					"stateMutability": "view",
					"type": "function"
				},
				{
					"inputs": [],
					"name": "_name",
					"outputs": [
						{
							"internalType": "string",
							"name": "",
							"type": "string"
						}
					],
					"stateMutability": "view",
					"type": "function"
				},
				{
					"inputs": [],
					"name": "_num_1",
					"outputs": [
						{
							"internalType": "int256",
							"name": "",
							"type": "int256"
						}
					],
					"stateMutability": "view",
					"type": "function"
				},
				{
					"inputs": [],
					"name": "_num_2",
					"outputs": [
						{
							"internalType": "uint256",
							"name": "",
							"type": "uint256"
						}
					],
					"stateMutability": "view",
					"type": "function"
				},
				{
					"inputs": [],
					"name": "_num_3",
					"outputs": [
						{
							"internalType": "uint256",
							"name": "",
							"type": "uint256"
						}
					],
					"stateMutability": "view",
					"type": "function"
				},
				{
					"inputs": [],
					"name": "_num_4",
					"outputs": [
						{
							"internalType": "int256",
							"name": "",
							"type": "int256"
						}
					],
					"stateMutability": "view",
					"type": "function"
				},
				{
					"inputs": [],
					"name": "_num_5",
					"outputs": [
						{
							"internalType": "uint256",
							"name": "",
							"type": "uint256"
						}
					],
					"stateMutability": "view",
					"type": "function"
				},
				{
					"inputs": [],
					"name": "_status_1",
					"outputs": [
						{
							"internalType": "uint256",
							"name": "",
							"type": "uint256"
						}
					],
					"stateMutability": "view",
					"type": "function"
				},
				{
					"inputs": [],
					"name": "add",
					"outputs": [],
					"stateMutability": "nonpayable",
					"type": "function"
				},
				{
					"inputs": [
						{
							"internalType": "uint256",
							"name": "number",
							"type": "uint256"
						}
					],
					"name": "addPure",
					"outputs": [
						{
							"internalType": "uint256",
							"name": "new_number",
							"type": "uint256"
						}
					],
					"stateMutability": "pure",
					"type": "function"
				},
				{
					"inputs": [],
					"name": "addView",
					"outputs": [
						{
							"internalType": "uint256",
							"name": "new_number_2",
							"type": "uint256"
						}
					],
					"stateMutability": "view",
					"type": "function"
				},
				{
					"inputs": [],
					"name": "balance",
					"outputs": [
						{
							"internalType": "uint256",
							"name": "",
							"type": "uint256"
						}
					],
					"stateMutability": "view",
					"type": "function"
				},
				{
					"inputs": [],
					"name": "minutes2_call",
					"outputs": [],
					"stateMutability": "nonpayable",
					"type": "function"
				},
				{
					"inputs": [],
					"name": "minutesPayable",
					"outputs": [
						{
							"internalType": "uint256",
							"name": "currentBalance",
							"type": "uint256"
						}
					],
					"stateMutability": "payable",
					"type": "function"
				},
				{
					"inputs": [],
					"name": "readReturnName",
					"outputs": [],
					"stateMutability": "pure",
					"type": "function"
				},
				{
					"inputs": [],
					"name": "returnName",
					"outputs": [
						{
							"internalType": "uint256",
							"name": "_number",
							"type": "uint256"
						},
						{
							"internalType": "bool",
							"name": "_bool",
							"type": "bool"
						},
						{
							"internalType": "uint256[3]",
							"name": "_array",
							"type": "uint256[3]"
						}
					],
					"stateMutability": "pure",
					"type": "function"
				},
				{
					"inputs": [],
					"name": "returnName2",
					"outputs": [
						{
							"internalType": "int256",
							"name": "_number",
							"type": "int256"
						},
						{
							"internalType": "bool",
							"name": "_bool",
							"type": "bool"
						}
					],
					"stateMutability": "pure",
					"type": "function"
				},
				{
					"inputs": [],
					"name": "return_numbe2",
					"outputs": [
						{
							"internalType": "int256",
							"name": "_number",
							"type": "int256"
						},
						{
							"internalType": "bool",
							"name": "_bool",
							"type": "bool"
						}
					],
					"stateMutability": "view",
					"type": "function"
				}
			],
			"devdoc": {
				"kind": "dev",
				"methods": {},
				"version": 1
			},
			"evm": {
				"assembly": "    /* \"01-hello-web3/hello.sol\":58:3319  contract HelloWeb3 {... */\n  mstore(0x40, 0x80)\n    /* \"01-hello-web3/hello.sol\":83:147  string public _name = \"hello solidity,this is my first project.\" */\n  mload(0x40)\n  dup1\n  0x60\n  add\n  0x40\n  mstore\n  dup1\n  0x28\n  dup2\n  mstore\n  0x20\n  add\n  data_0e1c2c755636190fc34c47eab02ed86f26ac627817aa35057e859c79e585b6a1\n  0x28\n  swap2\n  codecopy\n  0x00\n  swap1\n  dup2\n  tag_1\n  swap2\n  swap1\n  tag_2\n  jump\t// in\ntag_1:\n  pop\n    /* \"01-hello-web3/hello.sol\":576:580  true */\n  0x01\n    /* \"01-hello-web3/hello.sol\":551:580  bool public  _is_first = true */\n  dup1\n  exp(0x0100, 0x00)\n  dup2\n  sload\n  dup2\n  0xff\n  mul\n  not\n  and\n  swap1\n  dup4\n  iszero\n  iszero\n  mul\n  or\n  swap1\n  sstore\n  pop\n    /* \"01-hello-web3/hello.sol\":605:607  -1 */\n  0xffffffffffffffffffffffffffffffffffffffffffffffffffffffffffffffff\n    /* \"01-hello-web3/hello.sol\":585:607  int public _num_1 = -1 */\n  0x02\n  sstore\n    /* \"01-hello-web3/hello.sol\":647:648  1 */\n  0x01\n    /* \"01-hello-web3/hello.sol\":625:648  uint public  _num_2 = 1 */\n  0x03\n  sstore\n    /* \"01-hello-web3/hello.sol\":691:697  201233 */\n  0x031211\n    /* \"01-hello-web3/hello.sol\":666:697  uint256 public  _num_3 = 201233 */\n  0x04\n  sstore\n    /* \"01-hello-web3/hello.sol\":727:732  7 % 5 */\n  0x02\n    /* \"01-hello-web3/hello.sol\":702:732  uint256 public  _num_5 = 7 % 5 */\n  0x05\n  sstore\n    /* \"01-hello-web3/hello.sol\":767:768  1 */\n  0x01\n    /* \"01-hello-web3/hello.sol\":758:764  _num_1 */\n  sload(0x02)\n    /* \"01-hello-web3/hello.sol\":758:768  _num_1 + 1 */\n  tag_3\n  swap2\n  swap1\n  tag_4\n  jump\t// in\ntag_3:\n    /* \"01-hello-web3/hello.sol\":737:768  int public  _num_4 = _num_1 + 1 */\n  0x06\n  sstore\n    /* \"01-hello-web3/hello.sol\":795:797  10 */\n  0x0a\n    /* \"01-hello-web3/hello.sol\":774:797  int private _num_6 = 10 */\n  0x07\n  sstore\n    /* \"01-hello-web3/hello.sol\":850:892  0x6c85e349A70791e95fD6D9D5e066C6Ec136E0a92 */\n  0x6c85e349a70791e95fd6d9d5e066c6ec136e0a92\n    /* \"01-hello-web3/hello.sol\":822:892  address public _address_1 = 0x6c85e349A70791e95fD6D9D5e066C6Ec136E0a92 */\n  0x08\n  exp(0x0100, 0x00)\n  dup2\n  sload\n  dup2\n  0xffffffffffffffffffffffffffffffffffffffff\n  mul\n  not\n  and\n  swap1\n  dup4\n  0xffffffffffffffffffffffffffffffffffffffff\n  and\n  mul\n  or\n  swap1\n  sstore\n  pop\n    /* \"01-hello-web3/hello.sol\":970:980  _address_1 */\n  0x08\n  0x00\n  swap1\n  sload\n  swap1\n  0x0100\n  exp\n  swap1\n  div\n  0xffffffffffffffffffffffffffffffffffffffff\n  and\n    /* \"01-hello-web3/hello.sol\":926:981  address payable public _address_2 = payable(_address_1) */\n  0x09\n  exp(0x0100, 0x00)\n  dup2\n  sload\n  dup2\n  0xffffffffffffffffffffffffffffffffffffffff\n  mul\n  not\n  and\n  swap1\n  dup4\n  0xffffffffffffffffffffffffffffffffffffffff\n  and\n  mul\n  or\n  swap1\n  sstore\n  pop\n    /* \"01-hello-web3/hello.sol\":1011:1021  _address_2 */\n  0x09\n  0x00\n  swap1\n  sload\n  swap1\n  0x0100\n  exp\n  swap1\n  div\n  0xffffffffffffffffffffffffffffffffffffffff\n  and\n    /* \"01-hello-web3/hello.sol\":1011:1029  _address_2.balance */\n  0xffffffffffffffffffffffffffffffffffffffff\n  and\n  balance\n    /* \"01-hello-web3/hello.sol\":986:1029  uint256 public balance = _address_2.balance */\n  0x0a\n  sstore\n    /* \"01-hello-web3/hello.sol\":1057:1089  bytes32 public _byte32 = \"aello\" */\n  sstore(0x0b, 0x61656c6c6f000000000000000000000000000000000000000000000000000000)\n    /* \"01-hello-web3/hello.sol\":1122:1129  _byte32 */\n  sload(0x0b)\n    /* \"01-hello-web3/hello.sol\":1130:1131  0 */\n  0x00\n    /* \"01-hello-web3/hello.sol\":1122:1132  _byte32[0] */\n  0x20\n  dup2\n  lt\n  tag_5\n  jumpi\n  tag_6\n  tag_7\n  jump\t// in\ntag_6:\ntag_5:\n  byte\n  0xf8\n  shl\n    /* \"01-hello-web3/hello.sol\":1099:1132  bytes1 public _byte1 = _byte32[0] */\n  0x0c\n  exp(0x0100, 0x00)\n  dup2\n  sload\n  dup2\n  0xff\n  mul\n  not\n  and\n  swap1\n  dup4\n  0xf8\n  shr\n  mul\n  or\n  swap1\n  sstore\n  pop\n    /* \"01-hello-web3/hello.sol\":1241:1255  Status.success */\n  0x01\n    /* \"01-hello-web3/hello.sol\":1223:1255  Status n_status = Status.success */\n  0x0c\n  exp(0x0100, 0x01)\n  dup2\n  sload\n  dup2\n  0xff\n  mul\n  not\n  and\n  swap1\n  dup4\n  0x01\n  dup2\n  gt\n  iszero\n  tag_8\n  jumpi\n  tag_9\n  tag_10\n  jump\t// in\ntag_9:\ntag_8:\n  mul\n  or\n  swap1\n  sstore\n  pop\n    /* \"01-hello-web3/hello.sol\":1318:1326  n_status */\n  0x0c\n  0x01\n  swap1\n  sload\n  swap1\n  0x0100\n  exp\n  swap1\n  div\n  0xff\n  and\n    /* \"01-hello-web3/hello.sol\":1313:1327  uint(n_status) */\n  0x01\n  dup2\n  gt\n  iszero\n  tag_11\n  jumpi\n  tag_12\n  tag_10\n  jump\t// in\ntag_12:\ntag_11:\n    /* \"01-hello-web3/hello.sol\":1289:1327  uint public _status_1 = uint(n_status) */\n  0x0d\n  sstore\n    /* \"01-hello-web3/hello.sol\":1357:1358  1 */\n  0x01\n    /* \"01-hello-web3/hello.sol\":1333:1358  int internal _interal = 1 */\n  0x0e\n  sstore\n    /* \"01-hello-web3/hello.sol\":1393:1395  10 */\n  0x0a\n    /* \"01-hello-web3/hello.sol\":1364:1395  int private   _private_num = 10 */\n  0x0f\n  sstore\n    /* \"01-hello-web3/hello.sol\":58:3319  contract HelloWeb3 {... */\n  callvalue\n  dup1\n  iszero\n  tag_13\n  jumpi\n  0x00\n  dup1\n  revert\ntag_13:\n  pop\n  jump(tag_14)\n    /* \"#utility.yul\":7:106   */\ntag_15:\n    /* \"#utility.yul\":59:65   */\n  0x00\n    /* \"#utility.yul\":93:98   */\n  dup2\n    /* \"#utility.yul\":87:99   */\n  mload\n    /* \"#utility.yul\":77:99   */\n  swap1\n  pop\n    /* \"#utility.yul\":7:106   */\n  swap2\n  swap1\n  pop\n  jump\t// out\n    /* \"#utility.yul\":112:292   */\ntag_16:\n    /* \"#utility.yul\":160:237   */\n  0x4e487b7100000000000000000000000000000000000000000000000000000000\n    /* \"#utility.yul\":157:158   */\n  0x00\n    /* \"#utility.yul\":150:238   */\n  mstore\n    /* \"#utility.yul\":257:261   */\n  0x41\n    /* \"#utility.yul\":254:255   */\n  0x04\n    /* \"#utility.yul\":247:262   */\n  mstore\n    /* \"#utility.yul\":281:285   */\n  0x24\n    /* \"#utility.yul\":278:279   */\n  0x00\n    /* \"#utility.yul\":271:286   */\n  revert\n    /* \"#utility.yul\":298:478   */\ntag_17:\n    /* \"#utility.yul\":346:423   */\n  0x4e487b7100000000000000000000000000000000000000000000000000000000\n    /* \"#utility.yul\":343:344   */\n  0x00\n    /* \"#utility.yul\":336:424   */\n  mstore\n    /* \"#utility.yul\":443:447   */\n  0x22\n    /* \"#utility.yul\":440:441   */\n  0x04\n    /* \"#utility.yul\":433:448   */\n  mstore\n    /* \"#utility.yul\":467:471   */\n  0x24\n    /* \"#utility.yul\":464:465   */\n  0x00\n    /* \"#utility.yul\":457:472   */\n  revert\n    /* \"#utility.yul\":484:804   */\ntag_18:\n    /* \"#utility.yul\":528:534   */\n  0x00\n    /* \"#utility.yul\":565:566   */\n  0x02\n    /* \"#utility.yul\":559:563   */\n  dup3\n    /* \"#utility.yul\":555:567   */\n  div\n    /* \"#utility.yul\":545:567   */\n  swap1\n  pop\n    /* \"#utility.yul\":612:613   */\n  0x01\n    /* \"#utility.yul\":606:610   */\n  dup3\n    /* \"#utility.yul\":602:614   */\n  and\n    /* \"#utility.yul\":633:651   */\n  dup1\n    /* \"#utility.yul\":623:704   */\n  tag_42\n  jumpi\n    /* \"#utility.yul\":689:693   */\n  0x7f\n    /* \"#utility.yul\":681:687   */\n  dup3\n    /* \"#utility.yul\":677:694   */\n  and\n    /* \"#utility.yul\":667:694   */\n  swap2\n  pop\n    /* \"#utility.yul\":623:704   */\ntag_42:\n    /* \"#utility.yul\":751:753   */\n  0x20\n    /* \"#utility.yul\":743:749   */\n  dup3\n    /* \"#utility.yul\":740:754   */\n  lt\n    /* \"#utility.yul\":720:738   */\n  dup2\n    /* \"#utility.yul\":717:755   */\n  sub\n    /* \"#utility.yul\":714:798   */\n  tag_43\n  jumpi\n    /* \"#utility.yul\":770:788   */\n  tag_44\n  tag_17\n  jump\t// in\ntag_44:\n    /* \"#utility.yul\":714:798   */\ntag_43:\n    /* \"#utility.yul\":535:804   */\n  pop\n    /* \"#utility.yul\":484:804   */\n  swap2\n  swap1\n  pop\n  jump\t// out\n    /* \"#utility.yul\":810:951   */\ntag_19:\n    /* \"#utility.yul\":859:863   */\n  0x00\n    /* \"#utility.yul\":882:885   */\n  dup2\n    /* \"#utility.yul\":874:885   */\n  swap1\n  pop\n    /* \"#utility.yul\":905:908   */\n  dup2\n    /* \"#utility.yul\":902:903   */\n  0x00\n    /* \"#utility.yul\":895:909   */\n  mstore\n    /* \"#utility.yul\":939:943   */\n  0x20\n    /* \"#utility.yul\":936:937   */\n  0x00\n    /* \"#utility.yul\":926:944   */\n  keccak256\n    /* \"#utility.yul\":918:944   */\n  swap1\n  pop\n    /* \"#utility.yul\":810:951   */\n  swap2\n  swap1\n  pop\n  jump\t// out\n    /* \"#utility.yul\":957:1050   */\ntag_20:\n    /* \"#utility.yul\":994:1000   */\n  0x00\n    /* \"#utility.yul\":1041:1043   */\n  0x20\n    /* \"#utility.yul\":1036:1038   */\n  0x1f\n    /* \"#utility.yul\":1029:1034   */\n  dup4\n    /* \"#utility.yul\":1025:1039   */\n  add\n    /* \"#utility.yul\":1021:1044   */\n  div\n    /* \"#utility.yul\":1011:1044   */\n  swap1\n  pop\n    /* \"#utility.yul\":957:1050   */\n  swap2\n  swap1\n  pop\n  jump\t// out\n    /* \"#utility.yul\":1056:1163   */\ntag_21:\n    /* \"#utility.yul\":1100:1108   */\n  0x00\n    /* \"#utility.yul\":1150:1155   */\n  dup3\n    /* \"#utility.yul\":1144:1148   */\n  dup3\n    /* \"#utility.yul\":1140:1156   */\n  shl\n    /* \"#utility.yul\":1119:1156   */\n  swap1\n  pop\n    /* \"#utility.yul\":1056:1163   */\n  swap3\n  swap2\n  pop\n  pop\n  jump\t// out\n    /* \"#utility.yul\":1169:1562   */\ntag_22:\n    /* \"#utility.yul\":1238:1244   */\n  0x00\n    /* \"#utility.yul\":1288:1289   */\n  0x08\n    /* \"#utility.yul\":1276:1286   */\n  dup4\n    /* \"#utility.yul\":1272:1290   */\n  mul\n    /* \"#utility.yul\":1311:1408   */\n  tag_49\n    /* \"#utility.yul\":1341:1407   */\n  0xffffffffffffffffffffffffffffffffffffffffffffffffffffffffffffffff\n    /* \"#utility.yul\":1330:1339   */\n  dup3\n    /* \"#utility.yul\":1311:1408   */\n  tag_21\n  jump\t// in\ntag_49:\n    /* \"#utility.yul\":1429:1468   */\n  tag_50\n    /* \"#utility.yul\":1459:1467   */\n  dup7\n    /* \"#utility.yul\":1448:1457   */\n  dup4\n    /* \"#utility.yul\":1429:1468   */\n  tag_21\n  jump\t// in\ntag_50:\n    /* \"#utility.yul\":1417:1468   */\n  swap6\n  pop\n    /* \"#utility.yul\":1501:1505   */\n  dup1\n    /* \"#utility.yul\":1497:1506   */\n  not\n    /* \"#utility.yul\":1490:1495   */\n  dup5\n    /* \"#utility.yul\":1486:1507   */\n  and\n    /* \"#utility.yul\":1477:1507   */\n  swap4\n  pop\n    /* \"#utility.yul\":1550:1554   */\n  dup1\n    /* \"#utility.yul\":1540:1548   */\n  dup7\n    /* \"#utility.yul\":1536:1555   */\n  and\n    /* \"#utility.yul\":1529:1534   */\n  dup5\n    /* \"#utility.yul\":1526:1556   */\n  or\n    /* \"#utility.yul\":1516:1556   */\n  swap3\n  pop\n    /* \"#utility.yul\":1245:1562   */\n  pop\n  pop\n    /* \"#utility.yul\":1169:1562   */\n  swap4\n  swap3\n  pop\n  pop\n  pop\n  jump\t// out\n    /* \"#utility.yul\":1568:1645   */\ntag_23:\n    /* \"#utility.yul\":1605:1612   */\n  0x00\n    /* \"#utility.yul\":1634:1639   */\n  dup2\n    /* \"#utility.yul\":1623:1639   */\n  swap1\n  pop\n    /* \"#utility.yul\":1568:1645   */\n  swap2\n  swap1\n  pop\n  jump\t// out\n    /* \"#utility.yul\":1651:1711   */\ntag_24:\n    /* \"#utility.yul\":1679:1682   */\n  0x00\n    /* \"#utility.yul\":1700:1705   */\n  dup2\n    /* \"#utility.yul\":1693:1705   */\n  swap1\n  pop\n    /* \"#utility.yul\":1651:1711   */\n  swap2\n  swap1\n  pop\n  jump\t// out\n    /* \"#utility.yul\":1717:1859   */\ntag_25:\n    /* \"#utility.yul\":1767:1776   */\n  0x00\n    /* \"#utility.yul\":1800:1853   */\n  tag_54\n    /* \"#utility.yul\":1818:1852   */\n  tag_55\n    /* \"#utility.yul\":1827:1851   */\n  tag_56\n    /* \"#utility.yul\":1845:1850   */\n  dup5\n    /* \"#utility.yul\":1827:1851   */\n  tag_23\n  jump\t// in\ntag_56:\n    /* \"#utility.yul\":1818:1852   */\n  tag_24\n  jump\t// in\ntag_55:\n    /* \"#utility.yul\":1800:1853   */\n  tag_23\n  jump\t// in\ntag_54:\n    /* \"#utility.yul\":1787:1853   */\n  swap1\n  pop\n    /* \"#utility.yul\":1717:1859   */\n  swap2\n  swap1\n  pop\n  jump\t// out\n    /* \"#utility.yul\":1865:1940   */\ntag_26:\n    /* \"#utility.yul\":1908:1911   */\n  0x00\n    /* \"#utility.yul\":1929:1934   */\n  dup2\n    /* \"#utility.yul\":1922:1934   */\n  swap1\n  pop\n    /* \"#utility.yul\":1865:1940   */\n  swap2\n  swap1\n  pop\n  jump\t// out\n    /* \"#utility.yul\":1946:2215   */\ntag_27:\n    /* \"#utility.yul\":2056:2095   */\n  tag_59\n    /* \"#utility.yul\":2087:2094   */\n  dup4\n    /* \"#utility.yul\":2056:2095   */\n  tag_25\n  jump\t// in\ntag_59:\n    /* \"#utility.yul\":2117:2208   */\n  tag_60\n    /* \"#utility.yul\":2166:2207   */\n  tag_61\n    /* \"#utility.yul\":2190:2206   */\n  dup3\n    /* \"#utility.yul\":2166:2207   */\n  tag_26\n  jump\t// in\ntag_61:\n    /* \"#utility.yul\":2158:2164   */\n  dup5\n    /* \"#utility.yul\":2151:2155   */\n  dup5\n    /* \"#utility.yul\":2145:2156   */\n  sload\n    /* \"#utility.yul\":2117:2208   */\n  tag_22\n  jump\t// in\ntag_60:\n    /* \"#utility.yul\":2111:2115   */\n  dup3\n    /* \"#utility.yul\":2104:2209   */\n  sstore\n    /* \"#utility.yul\":2022:2215   */\n  pop\n    /* \"#utility.yul\":1946:2215   */\n  pop\n  pop\n  pop\n  jump\t// out\n    /* \"#utility.yul\":2221:2294   */\ntag_28:\n    /* \"#utility.yul\":2266:2269   */\n  0x00\n    /* \"#utility.yul\":2221:2294   */\n  swap1\n  jump\t// out\n    /* \"#utility.yul\":2300:2489   */\ntag_29:\n    /* \"#utility.yul\":2377:2409   */\n  tag_64\n  tag_28\n  jump\t// in\ntag_64:\n    /* \"#utility.yul\":2418:2483   */\n  tag_65\n    /* \"#utility.yul\":2476:2482   */\n  dup2\n    /* \"#utility.yul\":2468:2474   */\n  dup5\n    /* \"#utility.yul\":2462:2466   */\n  dup5\n    /* \"#utility.yul\":2418:2483   */\n  tag_27\n  jump\t// in\ntag_65:\n    /* \"#utility.yul\":2353:2489   */\n  pop\n    /* \"#utility.yul\":2300:2489   */\n  pop\n  pop\n  jump\t// out\n    /* \"#utility.yul\":2495:2681   */\ntag_30:\n    /* \"#utility.yul\":2555:2675   */\ntag_67:\n    /* \"#utility.yul\":2572:2575   */\n  dup2\n    /* \"#utility.yul\":2565:2570   */\n  dup2\n    /* \"#utility.yul\":2562:2576   */\n  lt\n    /* \"#utility.yul\":2555:2675   */\n  iszero\n  tag_69\n  jumpi\n    /* \"#utility.yul\":2626:2665   */\n  tag_70\n    /* \"#utility.yul\":2663:2664   */\n  0x00\n    /* \"#utility.yul\":2656:2661   */\n  dup3\n    /* \"#utility.yul\":2626:2665   */\n  tag_29\n  jump\t// in\ntag_70:\n    /* \"#utility.yul\":2599:2600   */\n  0x01\n    /* \"#utility.yul\":2592:2597   */\n  dup2\n    /* \"#utility.yul\":2588:2601   */\n  add\n    /* \"#utility.yul\":2579:2601   */\n  swap1\n  pop\n    /* \"#utility.yul\":2555:2675   */\n  jump(tag_67)\ntag_69:\n    /* \"#utility.yul\":2495:2681   */\n  pop\n  pop\n  jump\t// out\n    /* \"#utility.yul\":2687:3230   */\ntag_31:\n    /* \"#utility.yul\":2788:2790   */\n  0x1f\n    /* \"#utility.yul\":2783:2786   */\n  dup3\n    /* \"#utility.yul\":2780:2791   */\n  gt\n    /* \"#utility.yul\":2777:3223   */\n  iszero\n  tag_72\n  jumpi\n    /* \"#utility.yul\":2822:2860   */\n  tag_73\n    /* \"#utility.yul\":2854:2859   */\n  dup2\n    /* \"#utility.yul\":2822:2860   */\n  tag_19\n  jump\t// in\ntag_73:\n    /* \"#utility.yul\":2906:2935   */\n  tag_74\n    /* \"#utility.yul\":2924:2934   */\n  dup5\n    /* \"#utility.yul\":2906:2935   */\n  tag_20\n  jump\t// in\ntag_74:\n    /* \"#utility.yul\":2896:2904   */\n  dup2\n    /* \"#utility.yul\":2892:2936   */\n  add\n    /* \"#utility.yul\":3089:3091   */\n  0x20\n    /* \"#utility.yul\":3077:3087   */\n  dup6\n    /* \"#utility.yul\":3074:3092   */\n  lt\n    /* \"#utility.yul\":3071:3120   */\n  iszero\n  tag_75\n  jumpi\n    /* \"#utility.yul\":3110:3118   */\n  dup2\n    /* \"#utility.yul\":3095:3118   */\n  swap1\n  pop\n    /* \"#utility.yul\":3071:3120   */\ntag_75:\n    /* \"#utility.yul\":3133:3213   */\n  tag_76\n    /* \"#utility.yul\":3189:3211   */\n  tag_77\n    /* \"#utility.yul\":3207:3210   */\n  dup6\n    /* \"#utility.yul\":3189:3211   */\n  tag_20\n  jump\t// in\ntag_77:\n    /* \"#utility.yul\":3179:3187   */\n  dup4\n    /* \"#utility.yul\":3175:3212   */\n  add\n    /* \"#utility.yul\":3162:3173   */\n  dup3\n    /* \"#utility.yul\":3133:3213   */\n  tag_30\n  jump\t// in\ntag_76:\n    /* \"#utility.yul\":2792:3223   */\n  pop\n  pop\n    /* \"#utility.yul\":2777:3223   */\ntag_72:\n    /* \"#utility.yul\":2687:3230   */\n  pop\n  pop\n  pop\n  jump\t// out\n    /* \"#utility.yul\":3236:3353   */\ntag_32:\n    /* \"#utility.yul\":3290:3298   */\n  0x00\n    /* \"#utility.yul\":3340:3345   */\n  dup3\n    /* \"#utility.yul\":3334:3338   */\n  dup3\n    /* \"#utility.yul\":3330:3346   */\n  shr\n    /* \"#utility.yul\":3309:3346   */\n  swap1\n  pop\n    /* \"#utility.yul\":3236:3353   */\n  swap3\n  swap2\n  pop\n  pop\n  jump\t// out\n    /* \"#utility.yul\":3359:3528   */\ntag_33:\n    /* \"#utility.yul\":3403:3409   */\n  0x00\n    /* \"#utility.yul\":3436:3487   */\n  tag_80\n    /* \"#utility.yul\":3484:3485   */\n  0x00\n    /* \"#utility.yul\":3480:3486   */\n  not\n    /* \"#utility.yul\":3472:3477   */\n  dup5\n    /* \"#utility.yul\":3469:3470   */\n  0x08\n    /* \"#utility.yul\":3465:3478   */\n  mul\n    /* \"#utility.yul\":3436:3487   */\n  tag_32\n  jump\t// in\ntag_80:\n    /* \"#utility.yul\":3432:3488   */\n  not\n    /* \"#utility.yul\":3517:3521   */\n  dup1\n    /* \"#utility.yul\":3511:3515   */\n  dup4\n    /* \"#utility.yul\":3507:3522   */\n  and\n    /* \"#utility.yul\":3497:3522   */\n  swap2\n  pop\n    /* \"#utility.yul\":3410:3528   */\n  pop\n    /* \"#utility.yul\":3359:3528   */\n  swap3\n  swap2\n  pop\n  pop\n  jump\t// out\n    /* \"#utility.yul\":3533:3828   */\ntag_34:\n    /* \"#utility.yul\":3609:3613   */\n  0x00\n    /* \"#utility.yul\":3755:3784   */\n  tag_82\n    /* \"#utility.yul\":3780:3783   */\n  dup4\n    /* \"#utility.yul\":3774:3778   */\n  dup4\n    /* \"#utility.yul\":3755:3784   */\n  tag_33\n  jump\t// in\ntag_82:\n    /* \"#utility.yul\":3747:3784   */\n  swap2\n  pop\n    /* \"#utility.yul\":3817:3820   */\n  dup3\n    /* \"#utility.yul\":3814:3815   */\n  0x02\n    /* \"#utility.yul\":3810:3821   */\n  mul\n    /* \"#utility.yul\":3804:3808   */\n  dup3\n    /* \"#utility.yul\":3801:3822   */\n  or\n    /* \"#utility.yul\":3793:3822   */\n  swap1\n  pop\n    /* \"#utility.yul\":3533:3828   */\n  swap3\n  swap2\n  pop\n  pop\n  jump\t// out\n    /* \"#utility.yul\":3833:5228   */\ntag_2:\n    /* \"#utility.yul\":3950:3987   */\n  tag_84\n    /* \"#utility.yul\":3983:3986   */\n  dup3\n    /* \"#utility.yul\":3950:3987   */\n  tag_15\n  jump\t// in\ntag_84:\n    /* \"#utility.yul\":4052:4070   */\n  0xffffffffffffffff\n    /* \"#utility.yul\":4044:4050   */\n  dup2\n    /* \"#utility.yul\":4041:4071   */\n  gt\n    /* \"#utility.yul\":4038:4094   */\n  iszero\n  tag_85\n  jumpi\n    /* \"#utility.yul\":4074:4092   */\n  tag_86\n  tag_16\n  jump\t// in\ntag_86:\n    /* \"#utility.yul\":4038:4094   */\ntag_85:\n    /* \"#utility.yul\":4118:4156   */\n  tag_87\n    /* \"#utility.yul\":4150:4154   */\n  dup3\n    /* \"#utility.yul\":4144:4155   */\n  sload\n    /* \"#utility.yul\":4118:4156   */\n  tag_18\n  jump\t// in\ntag_87:\n    /* \"#utility.yul\":4203:4270   */\n  tag_88\n    /* \"#utility.yul\":4263:4269   */\n  dup3\n    /* \"#utility.yul\":4255:4261   */\n  dup3\n    /* \"#utility.yul\":4249:4253   */\n  dup6\n    /* \"#utility.yul\":4203:4270   */\n  tag_31\n  jump\t// in\ntag_88:\n    /* \"#utility.yul\":4297:4298   */\n  0x00\n    /* \"#utility.yul\":4321:4325   */\n  0x20\n    /* \"#utility.yul\":4308:4325   */\n  swap1\n  pop\n    /* \"#utility.yul\":4353:4355   */\n  0x1f\n    /* \"#utility.yul\":4345:4351   */\n  dup4\n    /* \"#utility.yul\":4342:4356   */\n  gt\n    /* \"#utility.yul\":4370:4371   */\n  0x01\n    /* \"#utility.yul\":4365:4983   */\n  dup2\n  eq\n  tag_90\n  jumpi\n    /* \"#utility.yul\":5027:5028   */\n  0x00\n    /* \"#utility.yul\":5044:5050   */\n  dup5\n    /* \"#utility.yul\":5041:5118   */\n  iszero\n  tag_91\n  jumpi\n    /* \"#utility.yul\":5093:5102   */\n  dup3\n    /* \"#utility.yul\":5088:5091   */\n  dup8\n    /* \"#utility.yul\":5084:5103   */\n  add\n    /* \"#utility.yul\":5078:5104   */\n  mload\n    /* \"#utility.yul\":5069:5104   */\n  swap1\n  pop\n    /* \"#utility.yul\":5041:5118   */\ntag_91:\n    /* \"#utility.yul\":5144:5211   */\n  tag_92\n    /* \"#utility.yul\":5204:5210   */\n  dup6\n    /* \"#utility.yul\":5197:5202   */\n  dup3\n    /* \"#utility.yul\":5144:5211   */\n  tag_34\n  jump\t// in\ntag_92:\n    /* \"#utility.yul\":5138:5142   */\n  dup7\n    /* \"#utility.yul\":5131:5212   */\n  sstore\n    /* \"#utility.yul\":5000:5222   */\n  pop\n    /* \"#utility.yul\":4335:5222   */\n  jump(tag_89)\n    /* \"#utility.yul\":4365:4983   */\ntag_90:\n    /* \"#utility.yul\":4417:4421   */\n  0x1f\n    /* \"#utility.yul\":4413:4422   */\n  not\n    /* \"#utility.yul\":4405:4411   */\n  dup5\n    /* \"#utility.yul\":4401:4423   */\n  and\n    /* \"#utility.yul\":4451:4488   */\n  tag_93\n    /* \"#utility.yul\":4483:4487   */\n  dup7\n    /* \"#utility.yul\":4451:4488   */\n  tag_19\n  jump\t// in\ntag_93:\n    /* \"#utility.yul\":4510:4511   */\n  0x00\n    /* \"#utility.yul\":4524:4732   */\ntag_94:\n    /* \"#utility.yul\":4538:4545   */\n  dup3\n    /* \"#utility.yul\":4535:4536   */\n  dup2\n    /* \"#utility.yul\":4532:4546   */\n  lt\n    /* \"#utility.yul\":4524:4732   */\n  iszero\n  tag_96\n  jumpi\n    /* \"#utility.yul\":4617:4626   */\n  dup5\n    /* \"#utility.yul\":4612:4615   */\n  dup10\n    /* \"#utility.yul\":4608:4627   */\n  add\n    /* \"#utility.yul\":4602:4628   */\n  mload\n    /* \"#utility.yul\":4594:4600   */\n  dup3\n    /* \"#utility.yul\":4587:4629   */\n  sstore\n    /* \"#utility.yul\":4668:4669   */\n  0x01\n    /* \"#utility.yul\":4660:4666   */\n  dup3\n    /* \"#utility.yul\":4656:4670   */\n  add\n    /* \"#utility.yul\":4646:4670   */\n  swap2\n  pop\n    /* \"#utility.yul\":4715:4717   */\n  0x20\n    /* \"#utility.yul\":4704:4713   */\n  dup6\n    /* \"#utility.yul\":4700:4718   */\n  add\n    /* \"#utility.yul\":4687:4718   */\n  swap5\n  pop\n    /* \"#utility.yul\":4561:4565   */\n  0x20\n    /* \"#utility.yul\":4558:4559   */\n  dup2\n    /* \"#utility.yul\":4554:4566   */\n  add\n    /* \"#utility.yul\":4549:4566   */\n  swap1\n  pop\n    /* \"#utility.yul\":4524:4732   */\n  jump(tag_94)\ntag_96:\n    /* \"#utility.yul\":4760:4766   */\n  dup7\n    /* \"#utility.yul\":4751:4758   */\n  dup4\n    /* \"#utility.yul\":4748:4767   */\n  lt\n    /* \"#utility.yul\":4745:4924   */\n  iszero\n  tag_97\n  jumpi\n    /* \"#utility.yul\":4818:4827   */\n  dup5\n    /* \"#utility.yul\":4813:4816   */\n  dup10\n    /* \"#utility.yul\":4809:4828   */\n  add\n    /* \"#utility.yul\":4803:4829   */\n  mload\n    /* \"#utility.yul\":4861:4909   */\n  tag_98\n    /* \"#utility.yul\":4903:4907   */\n  0x1f\n    /* \"#utility.yul\":4895:4901   */\n  dup10\n    /* \"#utility.yul\":4891:4908   */\n  and\n    /* \"#utility.yul\":4880:4889   */\n  dup3\n    /* \"#utility.yul\":4861:4909   */\n  tag_33\n  jump\t// in\ntag_98:\n    /* \"#utility.yul\":4853:4859   */\n  dup4\n    /* \"#utility.yul\":4846:4910   */\n  sstore\n    /* \"#utility.yul\":4768:4924   */\n  pop\n    /* \"#utility.yul\":4745:4924   */\ntag_97:\n    /* \"#utility.yul\":4970:4971   */\n  0x01\n    /* \"#utility.yul\":4966:4967   */\n  0x02\n    /* \"#utility.yul\":4958:4964   */\n  dup9\n    /* \"#utility.yul\":4954:4968   */\n  mul\n    /* \"#utility.yul\":4950:4972   */\n  add\n    /* \"#utility.yul\":4944:4948   */\n  dup9\n    /* \"#utility.yul\":4937:4973   */\n  sstore\n    /* \"#utility.yul\":4372:4983   */\n  pop\n  pop\n  pop\n    /* \"#utility.yul\":4335:5222   */\ntag_89:\n  pop\n    /* \"#utility.yul\":3925:5228   */\n  pop\n  pop\n  pop\n    /* \"#utility.yul\":3833:5228   */\n  pop\n  pop\n  jump\t// out\n    /* \"#utility.yul\":5234:5310   */\ntag_35:\n    /* \"#utility.yul\":5270:5277   */\n  0x00\n    /* \"#utility.yul\":5299:5304   */\n  dup2\n    /* \"#utility.yul\":5288:5304   */\n  swap1\n  pop\n    /* \"#utility.yul\":5234:5310   */\n  swap2\n  swap1\n  pop\n  jump\t// out\n    /* \"#utility.yul\":5316:5496   */\ntag_36:\n    /* \"#utility.yul\":5364:5441   */\n  0x4e487b7100000000000000000000000000000000000000000000000000000000\n    /* \"#utility.yul\":5361:5362   */\n  0x00\n    /* \"#utility.yul\":5354:5442   */\n  mstore\n    /* \"#utility.yul\":5461:5465   */\n  0x11\n    /* \"#utility.yul\":5458:5459   */\n  0x04\n    /* \"#utility.yul\":5451:5466   */\n  mstore\n    /* \"#utility.yul\":5485:5489   */\n  0x24\n    /* \"#utility.yul\":5482:5483   */\n  0x00\n    /* \"#utility.yul\":5475:5490   */\n  revert\n    /* \"#utility.yul\":5502:5877   */\ntag_4:\n    /* \"#utility.yul\":5541:5544   */\n  0x00\n    /* \"#utility.yul\":5560:5579   */\n  tag_102\n    /* \"#utility.yul\":5577:5578   */\n  dup3\n    /* \"#utility.yul\":5560:5579   */\n  tag_35\n  jump\t// in\ntag_102:\n    /* \"#utility.yul\":5555:5579   */\n  swap2\n  pop\n    /* \"#utility.yul\":5593:5612   */\n  tag_103\n    /* \"#utility.yul\":5610:5611   */\n  dup4\n    /* \"#utility.yul\":5593:5612   */\n  tag_35\n  jump\t// in\ntag_103:\n    /* \"#utility.yul\":5588:5612   */\n  swap3\n  pop\n    /* \"#utility.yul\":5635:5636   */\n  dup3\n    /* \"#utility.yul\":5632:5633   */\n  dup3\n    /* \"#utility.yul\":5628:5637   */\n  add\n    /* \"#utility.yul\":5621:5637   */\n  swap1\n  pop\n    /* \"#utility.yul\":5833:5834   */\n  dup3\n    /* \"#utility.yul\":5828:5831   */\n  dup2\n    /* \"#utility.yul\":5824:5835   */\n  slt\n    /* \"#utility.yul\":5817:5836   */\n  iszero\n    /* \"#utility.yul\":5813:5814   */\n  0x00\n    /* \"#utility.yul\":5810:5811   */\n  dup4\n    /* \"#utility.yul\":5806:5815   */\n  slt\n    /* \"#utility.yul\":5802:5837   */\n  and\n    /* \"#utility.yul\":5785:5786   */\n  dup4\n    /* \"#utility.yul\":5780:5783   */\n  dup3\n    /* \"#utility.yul\":5776:5787   */\n  slt\n    /* \"#utility.yul\":5771:5772   */\n  0x00\n    /* \"#utility.yul\":5768:5769   */\n  dup5\n    /* \"#utility.yul\":5764:5773   */\n  slt\n    /* \"#utility.yul\":5757:5774   */\n  iszero\n    /* \"#utility.yul\":5753:5788   */\n  and\n    /* \"#utility.yul\":5737:5847   */\n  or\n    /* \"#utility.yul\":5734:5870   */\n  iszero\n  tag_104\n  jumpi\n    /* \"#utility.yul\":5850:5868   */\n  tag_105\n  tag_36\n  jump\t// in\ntag_105:\n    /* \"#utility.yul\":5734:5870   */\ntag_104:\n    /* \"#utility.yul\":5502:5877   */\n  swap3\n  swap2\n  pop\n  pop\n  jump\t// out\n    /* \"#utility.yul\":5883:6063   */\ntag_7:\n    /* \"#utility.yul\":5931:6008   */\n  0x4e487b7100000000000000000000000000000000000000000000000000000000\n    /* \"#utility.yul\":5928:5929   */\n  0x00\n    /* \"#utility.yul\":5921:6009   */\n  mstore\n    /* \"#utility.yul\":6028:6032   */\n  0x32\n    /* \"#utility.yul\":6025:6026   */\n  0x04\n    /* \"#utility.yul\":6018:6033   */\n  mstore\n    /* \"#utility.yul\":6052:6056   */\n  0x24\n    /* \"#utility.yul\":6049:6050   */\n  0x00\n    /* \"#utility.yul\":6042:6057   */\n  revert\n    /* \"#utility.yul\":6069:6249   */\ntag_10:\n    /* \"#utility.yul\":6117:6194   */\n  0x4e487b7100000000000000000000000000000000000000000000000000000000\n    /* \"#utility.yul\":6114:6115   */\n  0x00\n    /* \"#utility.yul\":6107:6195   */\n  mstore\n    /* \"#utility.yul\":6214:6218   */\n  0x21\n    /* \"#utility.yul\":6211:6212   */\n  0x04\n    /* \"#utility.yul\":6204:6219   */\n  mstore\n    /* \"#utility.yul\":6238:6242   */\n  0x24\n    /* \"#utility.yul\":6235:6236   */\n  0x00\n    /* \"#utility.yul\":6228:6243   */\n  revert\n    /* \"01-hello-web3/hello.sol\":58:3319  contract HelloWeb3 {... */\ntag_14:\n  dataSize(sub_0)\n  dup1\n  dataOffset(sub_0)\n  0x00\n  codecopy\n  0x00\n  return\nstop\ndata_0e1c2c755636190fc34c47eab02ed86f26ac627817aa35057e859c79e585b6a1 68656c6c6f20736f6c69646974792c74686973206973206d792066697273742070726f6a6563742e\n\nsub_0: assembly {\n        /* \"01-hello-web3/hello.sol\":58:3319  contract HelloWeb3 {... */\n      mstore(0x40, 0x80)\n      jumpi(tag_1, lt(calldatasize, 0x04))\n      shr(0xe0, calldataload(0x00))\n      dup1\n      0x5ea5cabe\n      gt\n      tag_24\n      jumpi\n      dup1\n      0xb262eb7f\n      gt\n      tag_25\n      jumpi\n      dup1\n      0xb262eb7f\n      eq\n      tag_18\n      jumpi\n      dup1\n      0xb69ef8a8\n      eq\n      tag_19\n      jumpi\n      dup1\n      0xd28d8852\n      eq\n      tag_20\n      jumpi\n      dup1\n      0xeac23280\n      eq\n      tag_21\n      jumpi\n      dup1\n      0xf02aa16f\n      eq\n      tag_22\n      jumpi\n      dup1\n      0xf97dd17f\n      eq\n      tag_23\n      jumpi\n      jump(tag_1)\n    tag_25:\n      dup1\n      0x5ea5cabe\n      eq\n      tag_13\n      jumpi\n      dup1\n      0x5ed9d14b\n      eq\n      tag_14\n      jumpi\n      dup1\n      0x7032c4f2\n      eq\n      tag_15\n      jumpi\n      dup1\n      0x776b41bb\n      eq\n      tag_16\n      jumpi\n      dup1\n      0x93aba6c7\n      eq\n      tag_17\n      jumpi\n      jump(tag_1)\n    tag_24:\n      dup1\n      0x3f346102\n      gt\n      tag_26\n      jumpi\n      dup1\n      0x3f346102\n      eq\n      tag_7\n      jumpi\n      dup1\n      0x41673cab\n      eq\n      tag_8\n      jumpi\n      dup1\n      0x4507d86d\n      eq\n      tag_9\n      jumpi\n      dup1\n      0x4f2be91f\n      eq\n      tag_10\n      jumpi\n      dup1\n      0x54ed8022\n      eq\n      tag_11\n      jumpi\n      dup1\n      0x59e55020\n      eq\n      tag_12\n      jumpi\n      jump(tag_1)\n    tag_26:\n      dup1\n      0x04b98547\n      eq\n      tag_2\n      jumpi\n      dup1\n      0x0a0d67b2\n      eq\n      tag_3\n      jumpi\n      dup1\n      0x2108f0de\n      eq\n      tag_4\n      jumpi\n      dup1\n      0x2611b138\n      eq\n      tag_5\n      jumpi\n      dup1\n      0x2dcf61f8\n      eq\n      tag_6\n      jumpi\n    tag_1:\n      0x00\n      dup1\n      revert\n        /* \"01-hello-web3/hello.sol\":666:697  uint256 public  _num_3 = 201233 */\n    tag_2:\n      callvalue\n      dup1\n      iszero\n      tag_27\n      jumpi\n      0x00\n      dup1\n      revert\n    tag_27:\n      pop\n      tag_28\n      tag_29\n      jump\t// in\n    tag_28:\n      mload(0x40)\n      tag_30\n      swap2\n      swap1\n      tag_31\n      jump\t// in\n    tag_30:\n      mload(0x40)\n      dup1\n      swap2\n      sub\n      swap1\n      return\n        /* \"01-hello-web3/hello.sol\":585:607  int public _num_1 = -1 */\n    tag_3:\n      callvalue\n      dup1\n      iszero\n      tag_32\n      jumpi\n      0x00\n      dup1\n      revert\n    tag_32:\n      pop\n      tag_33\n      tag_34\n      jump\t// in\n    tag_33:\n      mload(0x40)\n      tag_35\n      swap2\n      swap1\n      tag_36\n      jump\t// in\n    tag_35:\n      mload(0x40)\n      dup1\n      swap2\n      sub\n      swap1\n      return\n        /* \"01-hello-web3/hello.sol\":3142:3316  function readReturnName() public pure  {... */\n    tag_4:\n      callvalue\n      dup1\n      iszero\n      tag_37\n      jumpi\n      0x00\n      dup1\n      revert\n    tag_37:\n      pop\n      tag_38\n      tag_39\n      jump\t// in\n    tag_38:\n      stop\n        /* \"01-hello-web3/hello.sol\":2698:2808  function return_numbe2 () public view returns (int _number, bool _bool) {... */\n    tag_5:\n      callvalue\n      dup1\n      iszero\n      tag_40\n      jumpi\n      0x00\n      dup1\n      revert\n    tag_40:\n      pop\n      tag_41\n      tag_42\n      jump\t// in\n    tag_41:\n      mload(0x40)\n      tag_43\n      swap3\n      swap2\n      swap1\n      tag_44\n      jump\t// in\n    tag_43:\n      mload(0x40)\n      dup1\n      swap2\n      sub\n      swap1\n      return\n        /* \"01-hello-web3/hello.sol\":926:981  address payable public _address_2 = payable(_address_1) */\n    tag_6:\n      callvalue\n      dup1\n      iszero\n      tag_45\n      jumpi\n      0x00\n      dup1\n      revert\n    tag_45:\n      pop\n      tag_46\n      tag_47\n      jump\t// in\n    tag_46:\n      mload(0x40)\n      tag_48\n      swap2\n      swap1\n      tag_49\n      jump\t// in\n    tag_48:\n      mload(0x40)\n      dup1\n      swap2\n      sub\n      swap1\n      return\n        /* \"01-hello-web3/hello.sol\":1057:1089  bytes32 public _byte32 = \"aello\" */\n    tag_7:\n      callvalue\n      dup1\n      iszero\n      tag_50\n      jumpi\n      0x00\n      dup1\n      revert\n    tag_50:\n      pop\n      tag_51\n      tag_52\n      jump\t// in\n    tag_51:\n      mload(0x40)\n      tag_53\n      swap2\n      swap1\n      tag_54\n      jump\t// in\n    tag_53:\n      mload(0x40)\n      dup1\n      swap2\n      sub\n      swap1\n      return\n        /* \"01-hello-web3/hello.sol\":2509:2660  function minutesPayable() external payable returns (uint256 currentBalance) {... */\n    tag_8:\n      tag_55\n      tag_56\n      jump\t// in\n    tag_55:\n      mload(0x40)\n      tag_57\n      swap2\n      swap1\n      tag_31\n      jump\t// in\n    tag_57:\n      mload(0x40)\n      dup1\n      swap2\n      sub\n      swap1\n      return\n        /* \"01-hello-web3/hello.sol\":2425:2504  function minutes2_call() external {... */\n    tag_9:\n      callvalue\n      dup1\n      iszero\n      tag_58\n      jumpi\n      0x00\n      dup1\n      revert\n    tag_58:\n      pop\n      tag_59\n      tag_60\n      jump\t// in\n    tag_59:\n      stop\n        /* \"01-hello-web3/hello.sol\":1764:1816  function add() external {... */\n    tag_10:\n      callvalue\n      dup1\n      iszero\n      tag_61\n      jumpi\n      0x00\n      dup1\n      revert\n    tag_61:\n      pop\n      tag_62\n      tag_63\n      jump\t// in\n    tag_62:\n      stop\n        /* \"01-hello-web3/hello.sol\":625:648  uint public  _num_2 = 1 */\n    tag_11:\n      callvalue\n      dup1\n      iszero\n      tag_64\n      jumpi\n      0x00\n      dup1\n      revert\n    tag_64:\n      pop\n      tag_65\n      tag_66\n      jump\t// in\n    tag_65:\n      mload(0x40)\n      tag_67\n      swap2\n      swap1\n      tag_31\n      jump\t// in\n    tag_67:\n      mload(0x40)\n      dup1\n      swap2\n      sub\n      swap1\n      return\n        /* \"01-hello-web3/hello.sol\":822:892  address public _address_1 = 0x6c85e349A70791e95fD6D9D5e066C6Ec136E0a92 */\n    tag_12:\n      callvalue\n      dup1\n      iszero\n      tag_68\n      jumpi\n      0x00\n      dup1\n      revert\n    tag_68:\n      pop\n      tag_69\n      tag_70\n      jump\t// in\n    tag_69:\n      mload(0x40)\n      tag_71\n      swap2\n      swap1\n      tag_72\n      jump\t// in\n    tag_71:\n      mload(0x40)\n      dup1\n      swap2\n      sub\n      swap1\n      return\n        /* \"01-hello-web3/hello.sol\":2832:3016  function returnName() public pure returns (uint256 _number, bool _bool, uint256[3] memory _array) {... */\n    tag_13:\n      callvalue\n      dup1\n      iszero\n      tag_73\n      jumpi\n      0x00\n      dup1\n      revert\n    tag_73:\n      pop\n      tag_74\n      tag_75\n      jump\t// in\n    tag_74:\n      mload(0x40)\n      tag_76\n      swap4\n      swap3\n      swap2\n      swap1\n      tag_77\n      jump\t// in\n    tag_76:\n      mload(0x40)\n      dup1\n      swap2\n      sub\n      swap1\n      return\n        /* \"01-hello-web3/hello.sol\":551:580  bool public  _is_first = true */\n    tag_14:\n      callvalue\n      dup1\n      iszero\n      tag_78\n      jumpi\n      0x00\n      dup1\n      revert\n    tag_78:\n      pop\n      tag_79\n      tag_80\n      jump\t// in\n    tag_79:\n      mload(0x40)\n      tag_81\n      swap2\n      swap1\n      tag_82\n      jump\t// in\n    tag_81:\n      mload(0x40)\n      dup1\n      swap2\n      sub\n      swap1\n      return\n        /* \"01-hello-web3/hello.sol\":1823:1981  function addPure(uint256 number) external pure returns (uint256 new_number) {... */\n    tag_15:\n      callvalue\n      dup1\n      iszero\n      tag_83\n      jumpi\n      0x00\n      dup1\n      revert\n    tag_83:\n      pop\n      tag_84\n      0x04\n      dup1\n      calldatasize\n      sub\n      dup2\n      add\n      swap1\n      tag_85\n      swap2\n      swap1\n      tag_86\n      jump\t// in\n    tag_85:\n      tag_87\n      jump\t// in\n    tag_84:\n      mload(0x40)\n      tag_88\n      swap2\n      swap1\n      tag_31\n      jump\t// in\n    tag_88:\n      mload(0x40)\n      dup1\n      swap2\n      sub\n      swap1\n      return\n        /* \"01-hello-web3/hello.sol\":3021:3123  function returnName2() public pure returns (int _number, bool _bool) {... */\n    tag_16:\n      callvalue\n      dup1\n      iszero\n      tag_89\n      jumpi\n      0x00\n      dup1\n      revert\n    tag_89:\n      pop\n      tag_90\n      tag_91\n      jump\t// in\n    tag_90:\n      mload(0x40)\n      tag_92\n      swap3\n      swap2\n      swap1\n      tag_44\n      jump\t// in\n    tag_92:\n      mload(0x40)\n      dup1\n      swap2\n      sub\n      swap1\n      return\n        /* \"01-hello-web3/hello.sol\":737:768  int public  _num_4 = _num_1 + 1 */\n    tag_17:\n      callvalue\n      dup1\n      iszero\n      tag_93\n      jumpi\n      0x00\n      dup1\n      revert\n    tag_93:\n      pop\n      tag_94\n      tag_95\n      jump\t// in\n    tag_94:\n      mload(0x40)\n      tag_96\n      swap2\n      swap1\n      tag_36\n      jump\t// in\n    tag_96:\n      mload(0x40)\n      dup1\n      swap2\n      sub\n      swap1\n      return\n        /* \"01-hello-web3/hello.sol\":1988:2130  function addView() external view returns (uint256 new_number_2) {... */\n    tag_18:\n      callvalue\n      dup1\n      iszero\n      tag_97\n      jumpi\n      0x00\n      dup1\n      revert\n    tag_97:\n      pop\n      tag_98\n      tag_99\n      jump\t// in\n    tag_98:\n      mload(0x40)\n      tag_100\n      swap2\n      swap1\n      tag_31\n      jump\t// in\n    tag_100:\n      mload(0x40)\n      dup1\n      swap2\n      sub\n      swap1\n      return\n        /* \"01-hello-web3/hello.sol\":986:1029  uint256 public balance = _address_2.balance */\n    tag_19:\n      callvalue\n      dup1\n      iszero\n      tag_101\n      jumpi\n      0x00\n      dup1\n      revert\n    tag_101:\n      pop\n      tag_102\n      tag_103\n      jump\t// in\n    tag_102:\n      mload(0x40)\n      tag_104\n      swap2\n      swap1\n      tag_31\n      jump\t// in\n    tag_104:\n      mload(0x40)\n      dup1\n      swap2\n      sub\n      swap1\n      return\n        /* \"01-hello-web3/hello.sol\":83:147  string public _name = \"hello solidity,this is my first project.\" */\n    tag_20:\n      callvalue\n      dup1\n      iszero\n      tag_105\n      jumpi\n      0x00\n      dup1\n      revert\n    tag_105:\n      pop\n      tag_106\n      tag_107\n      jump\t// in\n    tag_106:\n      mload(0x40)\n      tag_108\n      swap2\n      swap1\n      tag_109\n      jump\t// in\n    tag_108:\n      mload(0x40)\n      dup1\n      swap2\n      sub\n      swap1\n      return\n        /* \"01-hello-web3/hello.sol\":1099:1132  bytes1 public _byte1 = _byte32[0] */\n    tag_21:\n      callvalue\n      dup1\n      iszero\n      tag_110\n      jumpi\n      0x00\n      dup1\n      revert\n    tag_110:\n      pop\n      tag_111\n      tag_112\n      jump\t// in\n    tag_111:\n      mload(0x40)\n      tag_113\n      swap2\n      swap1\n      tag_114\n      jump\t// in\n    tag_113:\n      mload(0x40)\n      dup1\n      swap2\n      sub\n      swap1\n      return\n        /* \"01-hello-web3/hello.sol\":702:732  uint256 public  _num_5 = 7 % 5 */\n    tag_22:\n      callvalue\n      dup1\n      iszero\n      tag_115\n      jumpi\n      0x00\n      dup1\n      revert\n    tag_115:\n      pop\n      tag_116\n      tag_117\n      jump\t// in\n    tag_116:\n      mload(0x40)\n      tag_118\n      swap2\n      swap1\n      tag_31\n      jump\t// in\n    tag_118:\n      mload(0x40)\n      dup1\n      swap2\n      sub\n      swap1\n      return\n        /* \"01-hello-web3/hello.sol\":1289:1327  uint public _status_1 = uint(n_status) */\n    tag_23:\n      callvalue\n      dup1\n      iszero\n      tag_119\n      jumpi\n      0x00\n      dup1\n      revert\n    tag_119:\n      pop\n      tag_120\n      tag_121\n      jump\t// in\n    tag_120:\n      mload(0x40)\n      tag_122\n      swap2\n      swap1\n      tag_31\n      jump\t// in\n    tag_122:\n      mload(0x40)\n      dup1\n      swap2\n      sub\n      swap1\n      return\n        /* \"01-hello-web3/hello.sol\":666:697  uint256 public  _num_3 = 201233 */\n    tag_29:\n      sload(0x04)\n      dup2\n      jump\t// out\n        /* \"01-hello-web3/hello.sol\":585:607  int public _num_1 = -1 */\n    tag_34:\n      sload(0x02)\n      dup2\n      jump\t// out\n        /* \"01-hello-web3/hello.sol\":3142:3316  function readReturnName() public pure  {... */\n    tag_39:\n        /* \"01-hello-web3/hello.sol\":3191:3206  uint256 _number */\n      0x00\n        /* \"01-hello-web3/hello.sol\":3216:3226  bool _bool */\n      dup1\n        /* \"01-hello-web3/hello.sol\":3236:3260  uint256[3] memory _array */\n      tag_124\n      tag_125\n      jump\t// in\n    tag_124:\n        /* \"01-hello-web3/hello.sol\":3297:3309  returnName() */\n      tag_126\n        /* \"01-hello-web3/hello.sol\":3297:3307  returnName */\n      tag_75\n        /* \"01-hello-web3/hello.sol\":3297:3309  returnName() */\n      jump\t// in\n    tag_126:\n        /* \"01-hello-web3/hello.sol\":3270:3309  (_number, _bool, _array) = returnName() */\n      dup1\n      swap4\n      pop\n      dup2\n      swap5\n      pop\n      dup3\n      swap6\n      pop\n      pop\n      pop\n      pop\n        /* \"01-hello-web3/hello.sol\":3181:3316  {... */\n      pop\n      pop\n      pop\n        /* \"01-hello-web3/hello.sol\":3142:3316  function readReturnName() public pure  {... */\n      jump\t// out\n        /* \"01-hello-web3/hello.sol\":2698:2808  function return_numbe2 () public view returns (int _number, bool _bool) {... */\n    tag_42:\n        /* \"01-hello-web3/hello.sol\":2745:2756  int _number */\n      0x00\n        /* \"01-hello-web3/hello.sol\":2758:2768  bool _bool */\n      dup1\n        /* \"01-hello-web3/hello.sol\":2788:2794  _num_4 */\n      sload(0x06)\n        /* \"01-hello-web3/hello.sol\":2796:2800  true */\n      0x01\n        /* \"01-hello-web3/hello.sol\":2780:2801  return (_num_4, true) */\n      swap2\n      pop\n      swap2\n      pop\n        /* \"01-hello-web3/hello.sol\":2698:2808  function return_numbe2 () public view returns (int _number, bool _bool) {... */\n      swap1\n      swap2\n      jump\t// out\n        /* \"01-hello-web3/hello.sol\":926:981  address payable public _address_2 = payable(_address_1) */\n    tag_47:\n      0x09\n      0x00\n      swap1\n      sload\n      swap1\n      0x0100\n      exp\n      swap1\n      div\n      0xffffffffffffffffffffffffffffffffffffffff\n      and\n      dup2\n      jump\t// out\n        /* \"01-hello-web3/hello.sol\":1057:1089  bytes32 public _byte32 = \"aello\" */\n    tag_52:\n      sload(0x0b)\n      dup2\n      jump\t// out\n        /* \"01-hello-web3/hello.sol\":2509:2660  function minutesPayable() external payable returns (uint256 currentBalance) {... */\n    tag_56:\n        /* \"01-hello-web3/hello.sol\":2561:2583  uint256 currentBalance */\n      0x00\n        /* \"01-hello-web3/hello.sol\":2595:2605  minutes2() */\n      tag_129\n        /* \"01-hello-web3/hello.sol\":2595:2603  minutes2 */\n      tag_130\n        /* \"01-hello-web3/hello.sol\":2595:2605  minutes2() */\n      jump\t// in\n    tag_129:\n        /* \"01-hello-web3/hello.sol\":2632:2653  address(this).balance */\n      selfbalance\n        /* \"01-hello-web3/hello.sol\":2615:2653  currentBalance = address(this).balance */\n      swap1\n      pop\n        /* \"01-hello-web3/hello.sol\":2509:2660  function minutesPayable() external payable returns (uint256 currentBalance) {... */\n      swap1\n      jump\t// out\n        /* \"01-hello-web3/hello.sol\":2425:2504  function minutes2_call() external {... */\n    tag_60:\n        /* \"01-hello-web3/hello.sol\":2468:2478  minutes2() */\n      tag_132\n        /* \"01-hello-web3/hello.sol\":2468:2476  minutes2 */\n      tag_130\n        /* \"01-hello-web3/hello.sol\":2468:2478  minutes2() */\n      jump\t// in\n    tag_132:\n        /* \"01-hello-web3/hello.sol\":2487:2497  minutes3() */\n      tag_133\n        /* \"01-hello-web3/hello.sol\":2487:2495  minutes3 */\n      tag_134\n        /* \"01-hello-web3/hello.sol\":2487:2497  minutes3() */\n      jump\t// in\n    tag_133:\n        /* \"01-hello-web3/hello.sol\":2425:2504  function minutes2_call() external {... */\n      jump\t// out\n        /* \"01-hello-web3/hello.sol\":1764:1816  function add() external {... */\n    tag_63:\n        /* \"01-hello-web3/hello.sol\":1808:1809  3 */\n      0x03\n        /* \"01-hello-web3/hello.sol\":1801:1807  _num_1 */\n      sload(0x02)\n        /* \"01-hello-web3/hello.sol\":1801:1809  _num_1+3 */\n      tag_136\n      swap2\n      swap1\n      tag_137\n      jump\t// in\n    tag_136:\n        /* \"01-hello-web3/hello.sol\":1794:1800  _num_1 */\n      0x02\n        /* \"01-hello-web3/hello.sol\":1794:1809  _num_1=_num_1+3 */\n      dup2\n      swap1\n      sstore\n      pop\n        /* \"01-hello-web3/hello.sol\":1764:1816  function add() external {... */\n      jump\t// out\n        /* \"01-hello-web3/hello.sol\":625:648  uint public  _num_2 = 1 */\n    tag_66:\n      sload(0x03)\n      dup2\n      jump\t// out\n        /* \"01-hello-web3/hello.sol\":822:892  address public _address_1 = 0x6c85e349A70791e95fD6D9D5e066C6Ec136E0a92 */\n    tag_70:\n      0x08\n      0x00\n      swap1\n      sload\n      swap1\n      0x0100\n      exp\n      swap1\n      div\n      0xffffffffffffffffffffffffffffffffffffffff\n      and\n      dup2\n      jump\t// out\n        /* \"01-hello-web3/hello.sol\":2832:3016  function returnName() public pure returns (uint256 _number, bool _bool, uint256[3] memory _array) {... */\n    tag_75:\n        /* \"01-hello-web3/hello.sol\":2875:2890  uint256 _number */\n      0x00\n        /* \"01-hello-web3/hello.sol\":2892:2902  bool _bool */\n      dup1\n        /* \"01-hello-web3/hello.sol\":2904:2928  uint256[3] memory _array */\n      tag_138\n      tag_125\n      jump\t// in\n    tag_138:\n        /* \"01-hello-web3/hello.sol\":2950:2951  2 */\n      0x02\n        /* \"01-hello-web3/hello.sol\":2940:2951  _number = 2 */\n      swap3\n      pop\n        /* \"01-hello-web3/hello.sol\":2969:2974  false */\n      0x00\n        /* \"01-hello-web3/hello.sol\":2961:2974  _bool = false */\n      swap2\n      pop\n        /* \"01-hello-web3/hello.sol\":2984:3009  _array = [uint256(3),2,1] */\n      mload(0x40)\n      dup1\n      0x60\n      add\n      0x40\n      mstore\n      dup1\n        /* \"01-hello-web3/hello.sol\":3002:3003  3 */\n      0x03\n        /* \"01-hello-web3/hello.sol\":2984:3009  _array = [uint256(3),2,1] */\n      dup2\n      mstore\n      0x20\n      add\n        /* \"01-hello-web3/hello.sol\":3005:3006  2 */\n      0x02\n        /* \"01-hello-web3/hello.sol\":2984:3009  _array = [uint256(3),2,1] */\n      dup2\n      mstore\n      0x20\n      add\n        /* \"01-hello-web3/hello.sol\":3007:3008  1 */\n      0x01\n        /* \"01-hello-web3/hello.sol\":2984:3009  _array = [uint256(3),2,1] */\n      dup2\n      mstore\n      pop\n      swap1\n      pop\n        /* \"01-hello-web3/hello.sol\":2832:3016  function returnName() public pure returns (uint256 _number, bool _bool, uint256[3] memory _array) {... */\n      swap1\n      swap2\n      swap3\n      jump\t// out\n        /* \"01-hello-web3/hello.sol\":551:580  bool public  _is_first = true */\n    tag_80:\n      0x01\n      0x00\n      swap1\n      sload\n      swap1\n      0x0100\n      exp\n      swap1\n      div\n      0xff\n      and\n      dup2\n      jump\t// out\n        /* \"01-hello-web3/hello.sol\":1823:1981  function addPure(uint256 number) external pure returns (uint256 new_number) {... */\n    tag_87:\n        /* \"01-hello-web3/hello.sol\":1879:1897  uint256 new_number */\n      0x00\n        /* \"01-hello-web3/hello.sol\":1966:1967  1 */\n      0x01\n        /* \"01-hello-web3/hello.sol\":1957:1963  number */\n      dup3\n        /* \"01-hello-web3/hello.sol\":1957:1967  number + 1 */\n      tag_141\n      swap2\n      swap1\n      tag_142\n      jump\t// in\n    tag_141:\n        /* \"01-hello-web3/hello.sol\":1945:1967  new_number+=number + 1 */\n      dup2\n      tag_143\n      swap2\n      swap1\n      tag_142\n      jump\t// in\n    tag_143:\n      swap1\n      pop\n        /* \"01-hello-web3/hello.sol\":1823:1981  function addPure(uint256 number) external pure returns (uint256 new_number) {... */\n      swap2\n      swap1\n      pop\n      jump\t// out\n        /* \"01-hello-web3/hello.sol\":3021:3123  function returnName2() public pure returns (int _number, bool _bool) {... */\n    tag_91:\n        /* \"01-hello-web3/hello.sol\":3065:3076  int _number */\n      0x00\n        /* \"01-hello-web3/hello.sol\":3078:3088  bool _bool */\n      dup1\n        /* \"01-hello-web3/hello.sol\":3108:3109  1 */\n      0x01\n        /* \"01-hello-web3/hello.sol\":3111:3115  true */\n      dup1\n        /* \"01-hello-web3/hello.sol\":3100:3116  return (1, true) */\n      swap2\n      pop\n      swap2\n      pop\n        /* \"01-hello-web3/hello.sol\":3021:3123  function returnName2() public pure returns (int _number, bool _bool) {... */\n      swap1\n      swap2\n      jump\t// out\n        /* \"01-hello-web3/hello.sol\":737:768  int public  _num_4 = _num_1 + 1 */\n    tag_95:\n      sload(0x06)\n      dup2\n      jump\t// out\n        /* \"01-hello-web3/hello.sol\":1988:2130  function addView() external view returns (uint256 new_number_2) {... */\n    tag_99:\n        /* \"01-hello-web3/hello.sol\":2030:2050  uint256 new_number_2 */\n      0x00\n        /* \"01-hello-web3/hello.sol\":2122:2123  1 */\n      0x01\n        /* \"01-hello-web3/hello.sol\":2113:2119  _num_3 */\n      sload(0x04)\n        /* \"01-hello-web3/hello.sol\":2113:2123  _num_3 + 1 */\n      tag_146\n      swap2\n      swap1\n      tag_142\n      jump\t// in\n    tag_146:\n        /* \"01-hello-web3/hello.sol\":2098:2123  new_number_2 = _num_3 + 1 */\n      swap1\n      pop\n        /* \"01-hello-web3/hello.sol\":1988:2130  function addView() external view returns (uint256 new_number_2) {... */\n      swap1\n      jump\t// out\n        /* \"01-hello-web3/hello.sol\":986:1029  uint256 public balance = _address_2.balance */\n    tag_103:\n      sload(0x0a)\n      dup2\n      jump\t// out\n        /* \"01-hello-web3/hello.sol\":83:147  string public _name = \"hello solidity,this is my first project.\" */\n    tag_107:\n      0x00\n      dup1\n      sload\n      tag_147\n      swap1\n      tag_148\n      jump\t// in\n    tag_147:\n      dup1\n      0x1f\n      add\n      0x20\n      dup1\n      swap2\n      div\n      mul\n      0x20\n      add\n      mload(0x40)\n      swap1\n      dup2\n      add\n      0x40\n      mstore\n      dup1\n      swap3\n      swap2\n      swap1\n      dup2\n      dup2\n      mstore\n      0x20\n      add\n      dup3\n      dup1\n      sload\n      tag_149\n      swap1\n      tag_148\n      jump\t// in\n    tag_149:\n      dup1\n      iszero\n      tag_150\n      jumpi\n      dup1\n      0x1f\n      lt\n      tag_151\n      jumpi\n      0x0100\n      dup1\n      dup4\n      sload\n      div\n      mul\n      dup4\n      mstore\n      swap2\n      0x20\n      add\n      swap2\n      jump(tag_150)\n    tag_151:\n      dup3\n      add\n      swap2\n      swap1\n      0x00\n      mstore\n      keccak256(0x00, 0x20)\n      swap1\n    tag_152:\n      dup2\n      sload\n      dup2\n      mstore\n      swap1\n      0x01\n      add\n      swap1\n      0x20\n      add\n      dup1\n      dup4\n      gt\n      tag_152\n      jumpi\n      dup3\n      swap1\n      sub\n      0x1f\n      and\n      dup3\n      add\n      swap2\n    tag_150:\n      pop\n      pop\n      pop\n      pop\n      pop\n      dup2\n      jump\t// out\n        /* \"01-hello-web3/hello.sol\":1099:1132  bytes1 public _byte1 = _byte32[0] */\n    tag_112:\n      0x0c\n      0x00\n      swap1\n      sload\n      swap1\n      0x0100\n      exp\n      swap1\n      div\n      0xf8\n      shl\n      dup2\n      jump\t// out\n        /* \"01-hello-web3/hello.sol\":702:732  uint256 public  _num_5 = 7 % 5 */\n    tag_117:\n      sload(0x05)\n      dup2\n      jump\t// out\n        /* \"01-hello-web3/hello.sol\":1289:1327  uint public _status_1 = uint(n_status) */\n    tag_121:\n      sload(0x0d)\n      dup2\n      jump\t// out\n        /* \"01-hello-web3/hello.sol\":2188:2285  function minutes2 () internal   {... */\n    tag_130:\n        /* \"01-hello-web3/hello.sol\":2248:2249  1 */\n      0x01\n        /* \"01-hello-web3/hello.sol\":2239:2245  _num_1 */\n      sload(0x02)\n        /* \"01-hello-web3/hello.sol\":2239:2249  _num_1 + 1 */\n      tag_154\n      swap2\n      swap1\n      tag_137\n      jump\t// in\n    tag_154:\n        /* \"01-hello-web3/hello.sol\":2230:2236  _num_1 */\n      0x02\n        /* \"01-hello-web3/hello.sol\":2230:2249  _num_1 = _num_1 + 1 */\n      dup2\n      swap1\n      sstore\n      pop\n        /* \"01-hello-web3/hello.sol\":2277:2278  1 */\n      0x01\n        /* \"01-hello-web3/hello.sol\":2268:2274  _num_6 */\n      sload(0x07)\n        /* \"01-hello-web3/hello.sol\":2268:2278  _num_6 + 1 */\n      tag_155\n      swap2\n      swap1\n      tag_137\n      jump\t// in\n    tag_155:\n        /* \"01-hello-web3/hello.sol\":2259:2265  _num_6 */\n      0x07\n        /* \"01-hello-web3/hello.sol\":2259:2278  _num_6 = _num_6 + 1 */\n      dup2\n      swap1\n      sstore\n      pop\n        /* \"01-hello-web3/hello.sol\":2188:2285  function minutes2 () internal   {... */\n      jump\t// out\n        /* \"01-hello-web3/hello.sol\":2290:2355  function minutes3() private  {... */\n    tag_134:\n        /* \"01-hello-web3/hello.sol\":2347:2348  2 */\n      0x02\n        /* \"01-hello-web3/hello.sol\":2338:2344  _num_1 */\n      dup1\n      sload\n        /* \"01-hello-web3/hello.sol\":2338:2348  _num_1 + 2 */\n      tag_157\n      swap2\n      swap1\n      tag_137\n      jump\t// in\n    tag_157:\n        /* \"01-hello-web3/hello.sol\":2329:2335  _num_1 */\n      0x02\n        /* \"01-hello-web3/hello.sol\":2329:2348  _num_1 = _num_1 + 2 */\n      dup2\n      swap1\n      sstore\n      pop\n        /* \"01-hello-web3/hello.sol\":2290:2355  function minutes3() private  {... */\n      jump\t// out\n    tag_125:\n      mload(0x40)\n      dup1\n      0x60\n      add\n      0x40\n      mstore\n      dup1\n      0x03\n      swap1\n      0x20\n      dup3\n      mul\n      dup1\n      calldatasize\n      dup4\n      calldatacopy\n      dup1\n      dup3\n      add\n      swap2\n      pop\n      pop\n      swap1\n      pop\n      pop\n      swap1\n      jump\t// out\n        /* \"#utility.yul\":7:84   */\n    tag_158:\n        /* \"#utility.yul\":44:51   */\n      0x00\n        /* \"#utility.yul\":73:78   */\n      dup2\n        /* \"#utility.yul\":62:78   */\n      swap1\n      pop\n        /* \"#utility.yul\":7:84   */\n      swap2\n      swap1\n      pop\n      jump\t// out\n        /* \"#utility.yul\":90:208   */\n    tag_159:\n        /* \"#utility.yul\":177:201   */\n      tag_195\n        /* \"#utility.yul\":195:200   */\n      dup2\n        /* \"#utility.yul\":177:201   */\n      tag_158\n      jump\t// in\n    tag_195:\n        /* \"#utility.yul\":172:175   */\n      dup3\n        /* \"#utility.yul\":165:202   */\n      mstore\n        /* \"#utility.yul\":90:208   */\n      pop\n      pop\n      jump\t// out\n        /* \"#utility.yul\":214:436   */\n    tag_31:\n        /* \"#utility.yul\":307:311   */\n      0x00\n        /* \"#utility.yul\":345:347   */\n      0x20\n        /* \"#utility.yul\":334:343   */\n      dup3\n        /* \"#utility.yul\":330:348   */\n      add\n        /* \"#utility.yul\":322:348   */\n      swap1\n      pop\n        /* \"#utility.yul\":358:429   */\n      tag_197\n        /* \"#utility.yul\":426:427   */\n      0x00\n        /* \"#utility.yul\":415:424   */\n      dup4\n        /* \"#utility.yul\":411:428   */\n      add\n        /* \"#utility.yul\":402:408   */\n      dup5\n        /* \"#utility.yul\":358:429   */\n      tag_159\n      jump\t// in\n    tag_197:\n        /* \"#utility.yul\":214:436   */\n      swap3\n      swap2\n      pop\n      pop\n      jump\t// out\n        /* \"#utility.yul\":442:518   */\n    tag_160:\n        /* \"#utility.yul\":478:485   */\n      0x00\n        /* \"#utility.yul\":507:512   */\n      dup2\n        /* \"#utility.yul\":496:512   */\n      swap1\n      pop\n        /* \"#utility.yul\":442:518   */\n      swap2\n      swap1\n      pop\n      jump\t// out\n        /* \"#utility.yul\":524:639   */\n    tag_161:\n        /* \"#utility.yul\":609:632   */\n      tag_200\n        /* \"#utility.yul\":626:631   */\n      dup2\n        /* \"#utility.yul\":609:632   */\n      tag_160\n      jump\t// in\n    tag_200:\n        /* \"#utility.yul\":604:607   */\n      dup3\n        /* \"#utility.yul\":597:633   */\n      mstore\n        /* \"#utility.yul\":524:639   */\n      pop\n      pop\n      jump\t// out\n        /* \"#utility.yul\":645:863   */\n    tag_36:\n        /* \"#utility.yul\":736:740   */\n      0x00\n        /* \"#utility.yul\":774:776   */\n      0x20\n        /* \"#utility.yul\":763:772   */\n      dup3\n        /* \"#utility.yul\":759:777   */\n      add\n        /* \"#utility.yul\":751:777   */\n      swap1\n      pop\n        /* \"#utility.yul\":787:856   */\n      tag_202\n        /* \"#utility.yul\":853:854   */\n      0x00\n        /* \"#utility.yul\":842:851   */\n      dup4\n        /* \"#utility.yul\":838:855   */\n      add\n        /* \"#utility.yul\":829:835   */\n      dup5\n        /* \"#utility.yul\":787:856   */\n      tag_161\n      jump\t// in\n    tag_202:\n        /* \"#utility.yul\":645:863   */\n      swap3\n      swap2\n      pop\n      pop\n      jump\t// out\n        /* \"#utility.yul\":869:959   */\n    tag_162:\n        /* \"#utility.yul\":903:910   */\n      0x00\n        /* \"#utility.yul\":946:951   */\n      dup2\n        /* \"#utility.yul\":939:952   */\n      iszero\n        /* \"#utility.yul\":932:953   */\n      iszero\n        /* \"#utility.yul\":921:953   */\n      swap1\n      pop\n        /* \"#utility.yul\":869:959   */\n      swap2\n      swap1\n      pop\n      jump\t// out\n        /* \"#utility.yul\":965:1074   */\n    tag_163:\n        /* \"#utility.yul\":1046:1067   */\n      tag_205\n        /* \"#utility.yul\":1061:1066   */\n      dup2\n        /* \"#utility.yul\":1046:1067   */\n      tag_162\n      jump\t// in\n    tag_205:\n        /* \"#utility.yul\":1041:1044   */\n      dup3\n        /* \"#utility.yul\":1034:1068   */\n      mstore\n        /* \"#utility.yul\":965:1074   */\n      pop\n      pop\n      jump\t// out\n        /* \"#utility.yul\":1080:1396   */\n    tag_44:\n        /* \"#utility.yul\":1193:1197   */\n      0x00\n        /* \"#utility.yul\":1231:1233   */\n      0x40\n        /* \"#utility.yul\":1220:1229   */\n      dup3\n        /* \"#utility.yul\":1216:1234   */\n      add\n        /* \"#utility.yul\":1208:1234   */\n      swap1\n      pop\n        /* \"#utility.yul\":1244:1313   */\n      tag_207\n        /* \"#utility.yul\":1310:1311   */\n      0x00\n        /* \"#utility.yul\":1299:1308   */\n      dup4\n        /* \"#utility.yul\":1295:1312   */\n      add\n        /* \"#utility.yul\":1286:1292   */\n      dup6\n        /* \"#utility.yul\":1244:1313   */\n      tag_161\n      jump\t// in\n    tag_207:\n        /* \"#utility.yul\":1323:1389   */\n      tag_208\n        /* \"#utility.yul\":1385:1387   */\n      0x20\n        /* \"#utility.yul\":1374:1383   */\n      dup4\n        /* \"#utility.yul\":1370:1388   */\n      add\n        /* \"#utility.yul\":1361:1367   */\n      dup5\n        /* \"#utility.yul\":1323:1389   */\n      tag_163\n      jump\t// in\n    tag_208:\n        /* \"#utility.yul\":1080:1396   */\n      swap4\n      swap3\n      pop\n      pop\n      pop\n      jump\t// out\n        /* \"#utility.yul\":1402:1528   */\n    tag_164:\n        /* \"#utility.yul\":1439:1446   */\n      0x00\n        /* \"#utility.yul\":1479:1521   */\n      0xffffffffffffffffffffffffffffffffffffffff\n        /* \"#utility.yul\":1472:1477   */\n      dup3\n        /* \"#utility.yul\":1468:1522   */\n      and\n        /* \"#utility.yul\":1457:1522   */\n      swap1\n      pop\n        /* \"#utility.yul\":1402:1528   */\n      swap2\n      swap1\n      pop\n      jump\t// out\n        /* \"#utility.yul\":1534:1638   */\n    tag_165:\n        /* \"#utility.yul\":1579:1586   */\n      0x00\n        /* \"#utility.yul\":1608:1632   */\n      tag_211\n        /* \"#utility.yul\":1626:1631   */\n      dup3\n        /* \"#utility.yul\":1608:1632   */\n      tag_164\n      jump\t// in\n    tag_211:\n        /* \"#utility.yul\":1597:1632   */\n      swap1\n      pop\n        /* \"#utility.yul\":1534:1638   */\n      swap2\n      swap1\n      pop\n      jump\t// out\n        /* \"#utility.yul\":1644:1786   */\n    tag_166:\n        /* \"#utility.yul\":1747:1779   */\n      tag_213\n        /* \"#utility.yul\":1773:1778   */\n      dup2\n        /* \"#utility.yul\":1747:1779   */\n      tag_165\n      jump\t// in\n    tag_213:\n        /* \"#utility.yul\":1742:1745   */\n      dup3\n        /* \"#utility.yul\":1735:1780   */\n      mstore\n        /* \"#utility.yul\":1644:1786   */\n      pop\n      pop\n      jump\t// out\n        /* \"#utility.yul\":1792:2046   */\n    tag_49:\n        /* \"#utility.yul\":1901:1905   */\n      0x00\n        /* \"#utility.yul\":1939:1941   */\n      0x20\n        /* \"#utility.yul\":1928:1937   */\n      dup3\n        /* \"#utility.yul\":1924:1942   */\n      add\n        /* \"#utility.yul\":1916:1942   */\n      swap1\n      pop\n        /* \"#utility.yul\":1952:2039   */\n      tag_215\n        /* \"#utility.yul\":2036:2037   */\n      0x00\n        /* \"#utility.yul\":2025:2034   */\n      dup4\n        /* \"#utility.yul\":2021:2038   */\n      add\n        /* \"#utility.yul\":2012:2018   */\n      dup5\n        /* \"#utility.yul\":1952:2039   */\n      tag_166\n      jump\t// in\n    tag_215:\n        /* \"#utility.yul\":1792:2046   */\n      swap3\n      swap2\n      pop\n      pop\n      jump\t// out\n        /* \"#utility.yul\":2052:2129   */\n    tag_167:\n        /* \"#utility.yul\":2089:2096   */\n      0x00\n        /* \"#utility.yul\":2118:2123   */\n      dup2\n        /* \"#utility.yul\":2107:2123   */\n      swap1\n      pop\n        /* \"#utility.yul\":2052:2129   */\n      swap2\n      swap1\n      pop\n      jump\t// out\n        /* \"#utility.yul\":2135:2253   */\n    tag_168:\n        /* \"#utility.yul\":2222:2246   */\n      tag_218\n        /* \"#utility.yul\":2240:2245   */\n      dup2\n        /* \"#utility.yul\":2222:2246   */\n      tag_167\n      jump\t// in\n    tag_218:\n        /* \"#utility.yul\":2217:2220   */\n      dup3\n        /* \"#utility.yul\":2210:2247   */\n      mstore\n        /* \"#utility.yul\":2135:2253   */\n      pop\n      pop\n      jump\t// out\n        /* \"#utility.yul\":2259:2481   */\n    tag_54:\n        /* \"#utility.yul\":2352:2356   */\n      0x00\n        /* \"#utility.yul\":2390:2392   */\n      0x20\n        /* \"#utility.yul\":2379:2388   */\n      dup3\n        /* \"#utility.yul\":2375:2393   */\n      add\n        /* \"#utility.yul\":2367:2393   */\n      swap1\n      pop\n        /* \"#utility.yul\":2403:2474   */\n      tag_220\n        /* \"#utility.yul\":2471:2472   */\n      0x00\n        /* \"#utility.yul\":2460:2469   */\n      dup4\n        /* \"#utility.yul\":2456:2473   */\n      add\n        /* \"#utility.yul\":2447:2453   */\n      dup5\n        /* \"#utility.yul\":2403:2474   */\n      tag_168\n      jump\t// in\n    tag_220:\n        /* \"#utility.yul\":2259:2481   */\n      swap3\n      swap2\n      pop\n      pop\n      jump\t// out\n        /* \"#utility.yul\":2487:2583   */\n    tag_169:\n        /* \"#utility.yul\":2524:2531   */\n      0x00\n        /* \"#utility.yul\":2553:2577   */\n      tag_222\n        /* \"#utility.yul\":2571:2576   */\n      dup3\n        /* \"#utility.yul\":2553:2577   */\n      tag_164\n      jump\t// in\n    tag_222:\n        /* \"#utility.yul\":2542:2577   */\n      swap1\n      pop\n        /* \"#utility.yul\":2487:2583   */\n      swap2\n      swap1\n      pop\n      jump\t// out\n        /* \"#utility.yul\":2589:2707   */\n    tag_170:\n        /* \"#utility.yul\":2676:2700   */\n      tag_224\n        /* \"#utility.yul\":2694:2699   */\n      dup2\n        /* \"#utility.yul\":2676:2700   */\n      tag_169\n      jump\t// in\n    tag_224:\n        /* \"#utility.yul\":2671:2674   */\n      dup3\n        /* \"#utility.yul\":2664:2701   */\n      mstore\n        /* \"#utility.yul\":2589:2707   */\n      pop\n      pop\n      jump\t// out\n        /* \"#utility.yul\":2713:2935   */\n    tag_72:\n        /* \"#utility.yul\":2806:2810   */\n      0x00\n        /* \"#utility.yul\":2844:2846   */\n      0x20\n        /* \"#utility.yul\":2833:2842   */\n      dup3\n        /* \"#utility.yul\":2829:2847   */\n      add\n        /* \"#utility.yul\":2821:2847   */\n      swap1\n      pop\n        /* \"#utility.yul\":2857:2928   */\n      tag_226\n        /* \"#utility.yul\":2925:2926   */\n      0x00\n        /* \"#utility.yul\":2914:2923   */\n      dup4\n        /* \"#utility.yul\":2910:2927   */\n      add\n        /* \"#utility.yul\":2901:2907   */\n      dup5\n        /* \"#utility.yul\":2857:2928   */\n      tag_170\n      jump\t// in\n    tag_226:\n        /* \"#utility.yul\":2713:2935   */\n      swap3\n      swap2\n      pop\n      pop\n      jump\t// out\n        /* \"#utility.yul\":2941:3045   */\n    tag_171:\n        /* \"#utility.yul\":3006:3012   */\n      0x00\n        /* \"#utility.yul\":3034:3038   */\n      0x03\n        /* \"#utility.yul\":3024:3038   */\n      swap1\n      pop\n        /* \"#utility.yul\":2941:3045   */\n      swap2\n      swap1\n      pop\n      jump\t// out\n        /* \"#utility.yul\":3051:3194   */\n    tag_172:\n        /* \"#utility.yul\":3148:3159   */\n      0x00\n        /* \"#utility.yul\":3185:3188   */\n      dup2\n        /* \"#utility.yul\":3170:3188   */\n      swap1\n      pop\n        /* \"#utility.yul\":3051:3194   */\n      swap3\n      swap2\n      pop\n      pop\n      jump\t// out\n        /* \"#utility.yul\":3200:3298   */\n    tag_173:\n        /* \"#utility.yul\":3265:3269   */\n      0x00\n        /* \"#utility.yul\":3288:3291   */\n      dup2\n        /* \"#utility.yul\":3280:3291   */\n      swap1\n      pop\n        /* \"#utility.yul\":3200:3298   */\n      swap2\n      swap1\n      pop\n      jump\t// out\n        /* \"#utility.yul\":3304:3412   */\n    tag_174:\n        /* \"#utility.yul\":3381:3405   */\n      tag_231\n        /* \"#utility.yul\":3399:3404   */\n      dup2\n        /* \"#utility.yul\":3381:3405   */\n      tag_158\n      jump\t// in\n    tag_231:\n        /* \"#utility.yul\":3376:3379   */\n      dup3\n        /* \"#utility.yul\":3369:3406   */\n      mstore\n        /* \"#utility.yul\":3304:3412   */\n      pop\n      pop\n      jump\t// out\n        /* \"#utility.yul\":3418:3597   */\n    tag_175:\n        /* \"#utility.yul\":3487:3497   */\n      0x00\n        /* \"#utility.yul\":3508:3554   */\n      tag_233\n        /* \"#utility.yul\":3550:3553   */\n      dup4\n        /* \"#utility.yul\":3542:3548   */\n      dup4\n        /* \"#utility.yul\":3508:3554   */\n      tag_174\n      jump\t// in\n    tag_233:\n        /* \"#utility.yul\":3586:3590   */\n      0x20\n        /* \"#utility.yul\":3581:3584   */\n      dup4\n        /* \"#utility.yul\":3577:3591   */\n      add\n        /* \"#utility.yul\":3563:3591   */\n      swap1\n      pop\n        /* \"#utility.yul\":3418:3597   */\n      swap3\n      swap2\n      pop\n      pop\n      jump\t// out\n        /* \"#utility.yul\":3603:3714   */\n    tag_176:\n        /* \"#utility.yul\":3671:3675   */\n      0x00\n        /* \"#utility.yul\":3703:3707   */\n      0x20\n        /* \"#utility.yul\":3698:3701   */\n      dup3\n        /* \"#utility.yul\":3694:3708   */\n      add\n        /* \"#utility.yul\":3686:3708   */\n      swap1\n      pop\n        /* \"#utility.yul\":3603:3714   */\n      swap2\n      swap1\n      pop\n      jump\t// out\n        /* \"#utility.yul\":3752:4446   */\n    tag_177:\n        /* \"#utility.yul\":3888:3940   */\n      tag_236\n        /* \"#utility.yul\":3934:3939   */\n      dup2\n        /* \"#utility.yul\":3888:3940   */\n      tag_171\n      jump\t// in\n    tag_236:\n        /* \"#utility.yul\":3956:4040   */\n      tag_237\n        /* \"#utility.yul\":4033:4039   */\n      dup2\n        /* \"#utility.yul\":4028:4031   */\n      dup5\n        /* \"#utility.yul\":3956:4040   */\n      tag_172\n      jump\t// in\n    tag_237:\n        /* \"#utility.yul\":3949:4040   */\n      swap3\n      pop\n        /* \"#utility.yul\":4064:4118   */\n      tag_238\n        /* \"#utility.yul\":4112:4117   */\n      dup3\n        /* \"#utility.yul\":4064:4118   */\n      tag_173\n      jump\t// in\n    tag_238:\n        /* \"#utility.yul\":4141:4148   */\n      dup1\n        /* \"#utility.yul\":4172:4173   */\n      0x00\n        /* \"#utility.yul\":4157:4439   */\n    tag_239:\n        /* \"#utility.yul\":4182:4188   */\n      dup4\n        /* \"#utility.yul\":4179:4180   */\n      dup2\n        /* \"#utility.yul\":4176:4189   */\n      lt\n        /* \"#utility.yul\":4157:4439   */\n      iszero\n      tag_241\n      jumpi\n        /* \"#utility.yul\":4258:4264   */\n      dup2\n        /* \"#utility.yul\":4252:4265   */\n      mload\n        /* \"#utility.yul\":4285:4348   */\n      tag_242\n        /* \"#utility.yul\":4344:4347   */\n      dup8\n        /* \"#utility.yul\":4329:4342   */\n      dup3\n        /* \"#utility.yul\":4285:4348   */\n      tag_175\n      jump\t// in\n    tag_242:\n        /* \"#utility.yul\":4278:4348   */\n      swap7\n      pop\n        /* \"#utility.yul\":4371:4429   */\n      tag_243\n        /* \"#utility.yul\":4422:4428   */\n      dup4\n        /* \"#utility.yul\":4371:4429   */\n      tag_176\n      jump\t// in\n    tag_243:\n        /* \"#utility.yul\":4361:4429   */\n      swap3\n      pop\n        /* \"#utility.yul\":4217:4439   */\n      pop\n        /* \"#utility.yul\":4204:4205   */\n      0x01\n        /* \"#utility.yul\":4201:4202   */\n      dup2\n        /* \"#utility.yul\":4197:4206   */\n      add\n        /* \"#utility.yul\":4192:4206   */\n      swap1\n      pop\n        /* \"#utility.yul\":4157:4439   */\n      jump(tag_239)\n    tag_241:\n        /* \"#utility.yul\":4161:4175   */\n      pop\n        /* \"#utility.yul\":3864:4446   */\n      pop\n      pop\n      pop\n        /* \"#utility.yul\":3752:4446   */\n      pop\n      pop\n      jump\t// out\n        /* \"#utility.yul\":4452:4975   */\n    tag_77:\n        /* \"#utility.yul\":4641:4645   */\n      0x00\n        /* \"#utility.yul\":4679:4682   */\n      0xa0\n        /* \"#utility.yul\":4668:4677   */\n      dup3\n        /* \"#utility.yul\":4664:4683   */\n      add\n        /* \"#utility.yul\":4656:4683   */\n      swap1\n      pop\n        /* \"#utility.yul\":4693:4764   */\n      tag_245\n        /* \"#utility.yul\":4761:4762   */\n      0x00\n        /* \"#utility.yul\":4750:4759   */\n      dup4\n        /* \"#utility.yul\":4746:4763   */\n      add\n        /* \"#utility.yul\":4737:4743   */\n      dup7\n        /* \"#utility.yul\":4693:4764   */\n      tag_159\n      jump\t// in\n    tag_245:\n        /* \"#utility.yul\":4774:4840   */\n      tag_246\n        /* \"#utility.yul\":4836:4838   */\n      0x20\n        /* \"#utility.yul\":4825:4834   */\n      dup4\n        /* \"#utility.yul\":4821:4839   */\n      add\n        /* \"#utility.yul\":4812:4818   */\n      dup6\n        /* \"#utility.yul\":4774:4840   */\n      tag_163\n      jump\t// in\n    tag_246:\n        /* \"#utility.yul\":4850:4968   */\n      tag_247\n        /* \"#utility.yul\":4964:4966   */\n      0x40\n        /* \"#utility.yul\":4953:4962   */\n      dup4\n        /* \"#utility.yul\":4949:4967   */\n      add\n        /* \"#utility.yul\":4940:4946   */\n      dup5\n        /* \"#utility.yul\":4850:4968   */\n      tag_177\n      jump\t// in\n    tag_247:\n        /* \"#utility.yul\":4452:4975   */\n      swap5\n      swap4\n      pop\n      pop\n      pop\n      pop\n      jump\t// out\n        /* \"#utility.yul\":4981:5191   */\n    tag_82:\n        /* \"#utility.yul\":5068:5072   */\n      0x00\n        /* \"#utility.yul\":5106:5108   */\n      0x20\n        /* \"#utility.yul\":5095:5104   */\n      dup3\n        /* \"#utility.yul\":5091:5109   */\n      add\n        /* \"#utility.yul\":5083:5109   */\n      swap1\n      pop\n        /* \"#utility.yul\":5119:5184   */\n      tag_249\n        /* \"#utility.yul\":5181:5182   */\n      0x00\n        /* \"#utility.yul\":5170:5179   */\n      dup4\n        /* \"#utility.yul\":5166:5183   */\n      add\n        /* \"#utility.yul\":5157:5163   */\n      dup5\n        /* \"#utility.yul\":5119:5184   */\n      tag_163\n      jump\t// in\n    tag_249:\n        /* \"#utility.yul\":4981:5191   */\n      swap3\n      swap2\n      pop\n      pop\n      jump\t// out\n        /* \"#utility.yul\":5278:5395   */\n    tag_179:\n        /* \"#utility.yul\":5387:5388   */\n      0x00\n        /* \"#utility.yul\":5384:5385   */\n      dup1\n        /* \"#utility.yul\":5377:5389   */\n      revert\n        /* \"#utility.yul\":5524:5646   */\n    tag_181:\n        /* \"#utility.yul\":5597:5621   */\n      tag_254\n        /* \"#utility.yul\":5615:5620   */\n      dup2\n        /* \"#utility.yul\":5597:5621   */\n      tag_158\n      jump\t// in\n    tag_254:\n        /* \"#utility.yul\":5590:5595   */\n      dup2\n        /* \"#utility.yul\":5587:5622   */\n      eq\n        /* \"#utility.yul\":5577:5640   */\n      tag_255\n      jumpi\n        /* \"#utility.yul\":5636:5637   */\n      0x00\n        /* \"#utility.yul\":5633:5634   */\n      dup1\n        /* \"#utility.yul\":5626:5638   */\n      revert\n        /* \"#utility.yul\":5577:5640   */\n    tag_255:\n        /* \"#utility.yul\":5524:5646   */\n      pop\n      jump\t// out\n        /* \"#utility.yul\":5652:5791   */\n    tag_182:\n        /* \"#utility.yul\":5698:5703   */\n      0x00\n        /* \"#utility.yul\":5736:5742   */\n      dup2\n        /* \"#utility.yul\":5723:5743   */\n      calldataload\n        /* \"#utility.yul\":5714:5743   */\n      swap1\n      pop\n        /* \"#utility.yul\":5752:5785   */\n      tag_257\n        /* \"#utility.yul\":5779:5784   */\n      dup2\n        /* \"#utility.yul\":5752:5785   */\n      tag_181\n      jump\t// in\n    tag_257:\n        /* \"#utility.yul\":5652:5791   */\n      swap3\n      swap2\n      pop\n      pop\n      jump\t// out\n        /* \"#utility.yul\":5797:6126   */\n    tag_86:\n        /* \"#utility.yul\":5856:5862   */\n      0x00\n        /* \"#utility.yul\":5905:5907   */\n      0x20\n        /* \"#utility.yul\":5893:5902   */\n      dup3\n        /* \"#utility.yul\":5884:5891   */\n      dup5\n        /* \"#utility.yul\":5880:5903   */\n      sub\n        /* \"#utility.yul\":5876:5908   */\n      slt\n        /* \"#utility.yul\":5873:5992   */\n      iszero\n      tag_259\n      jumpi\n        /* \"#utility.yul\":5911:5990   */\n      tag_260\n      tag_179\n      jump\t// in\n    tag_260:\n        /* \"#utility.yul\":5873:5992   */\n    tag_259:\n        /* \"#utility.yul\":6031:6032   */\n      0x00\n        /* \"#utility.yul\":6056:6109   */\n      tag_261\n        /* \"#utility.yul\":6101:6108   */\n      dup5\n        /* \"#utility.yul\":6092:6098   */\n      dup3\n        /* \"#utility.yul\":6081:6090   */\n      dup6\n        /* \"#utility.yul\":6077:6099   */\n      add\n        /* \"#utility.yul\":6056:6109   */\n      tag_182\n      jump\t// in\n    tag_261:\n        /* \"#utility.yul\":6046:6109   */\n      swap2\n      pop\n        /* \"#utility.yul\":6002:6119   */\n      pop\n        /* \"#utility.yul\":5797:6126   */\n      swap3\n      swap2\n      pop\n      pop\n      jump\t// out\n        /* \"#utility.yul\":6132:6231   */\n    tag_183:\n        /* \"#utility.yul\":6184:6190   */\n      0x00\n        /* \"#utility.yul\":6218:6223   */\n      dup2\n        /* \"#utility.yul\":6212:6224   */\n      mload\n        /* \"#utility.yul\":6202:6224   */\n      swap1\n      pop\n        /* \"#utility.yul\":6132:6231   */\n      swap2\n      swap1\n      pop\n      jump\t// out\n        /* \"#utility.yul\":6237:6406   */\n    tag_184:\n        /* \"#utility.yul\":6321:6332   */\n      0x00\n        /* \"#utility.yul\":6355:6361   */\n      dup3\n        /* \"#utility.yul\":6350:6353   */\n      dup3\n        /* \"#utility.yul\":6343:6362   */\n      mstore\n        /* \"#utility.yul\":6395:6399   */\n      0x20\n        /* \"#utility.yul\":6390:6393   */\n      dup3\n        /* \"#utility.yul\":6386:6400   */\n      add\n        /* \"#utility.yul\":6371:6400   */\n      swap1\n      pop\n        /* \"#utility.yul\":6237:6406   */\n      swap3\n      swap2\n      pop\n      pop\n      jump\t// out\n        /* \"#utility.yul\":6412:6551   */\n    tag_185:\n        /* \"#utility.yul\":6501:6507   */\n      dup3\n        /* \"#utility.yul\":6496:6499   */\n      dup2\n        /* \"#utility.yul\":6491:6494   */\n      dup4\n        /* \"#utility.yul\":6485:6508   */\n      mcopy\n        /* \"#utility.yul\":6542:6543   */\n      0x00\n        /* \"#utility.yul\":6533:6539   */\n      dup4\n        /* \"#utility.yul\":6528:6531   */\n      dup4\n        /* \"#utility.yul\":6524:6540   */\n      add\n        /* \"#utility.yul\":6517:6544   */\n      mstore\n        /* \"#utility.yul\":6412:6551   */\n      pop\n      pop\n      pop\n      jump\t// out\n        /* \"#utility.yul\":6557:6659   */\n    tag_186:\n        /* \"#utility.yul\":6598:6604   */\n      0x00\n        /* \"#utility.yul\":6649:6651   */\n      0x1f\n        /* \"#utility.yul\":6645:6652   */\n      not\n        /* \"#utility.yul\":6640:6642   */\n      0x1f\n        /* \"#utility.yul\":6633:6638   */\n      dup4\n        /* \"#utility.yul\":6629:6643   */\n      add\n        /* \"#utility.yul\":6625:6653   */\n      and\n        /* \"#utility.yul\":6615:6653   */\n      swap1\n      pop\n        /* \"#utility.yul\":6557:6659   */\n      swap2\n      swap1\n      pop\n      jump\t// out\n        /* \"#utility.yul\":6665:7042   */\n    tag_187:\n        /* \"#utility.yul\":6753:6756   */\n      0x00\n        /* \"#utility.yul\":6781:6820   */\n      tag_267\n        /* \"#utility.yul\":6814:6819   */\n      dup3\n        /* \"#utility.yul\":6781:6820   */\n      tag_183\n      jump\t// in\n    tag_267:\n        /* \"#utility.yul\":6836:6907   */\n      tag_268\n        /* \"#utility.yul\":6900:6906   */\n      dup2\n        /* \"#utility.yul\":6895:6898   */\n      dup6\n        /* \"#utility.yul\":6836:6907   */\n      tag_184\n      jump\t// in\n    tag_268:\n        /* \"#utility.yul\":6829:6907   */\n      swap4\n      pop\n        /* \"#utility.yul\":6916:6981   */\n      tag_269\n        /* \"#utility.yul\":6974:6980   */\n      dup2\n        /* \"#utility.yul\":6969:6972   */\n      dup6\n        /* \"#utility.yul\":6962:6966   */\n      0x20\n        /* \"#utility.yul\":6955:6960   */\n      dup7\n        /* \"#utility.yul\":6951:6967   */\n      add\n        /* \"#utility.yul\":6916:6981   */\n      tag_185\n      jump\t// in\n    tag_269:\n        /* \"#utility.yul\":7006:7035   */\n      tag_270\n        /* \"#utility.yul\":7028:7034   */\n      dup2\n        /* \"#utility.yul\":7006:7035   */\n      tag_186\n      jump\t// in\n    tag_270:\n        /* \"#utility.yul\":7001:7004   */\n      dup5\n        /* \"#utility.yul\":6997:7036   */\n      add\n        /* \"#utility.yul\":6990:7036   */\n      swap2\n      pop\n        /* \"#utility.yul\":6757:7042   */\n      pop\n        /* \"#utility.yul\":6665:7042   */\n      swap3\n      swap2\n      pop\n      pop\n      jump\t// out\n        /* \"#utility.yul\":7048:7361   */\n    tag_109:\n        /* \"#utility.yul\":7161:7165   */\n      0x00\n        /* \"#utility.yul\":7199:7201   */\n      0x20\n        /* \"#utility.yul\":7188:7197   */\n      dup3\n        /* \"#utility.yul\":7184:7202   */\n      add\n        /* \"#utility.yul\":7176:7202   */\n      swap1\n      pop\n        /* \"#utility.yul\":7248:7257   */\n      dup2\n        /* \"#utility.yul\":7242:7246   */\n      dup2\n        /* \"#utility.yul\":7238:7258   */\n      sub\n        /* \"#utility.yul\":7234:7235   */\n      0x00\n        /* \"#utility.yul\":7223:7232   */\n      dup4\n        /* \"#utility.yul\":7219:7236   */\n      add\n        /* \"#utility.yul\":7212:7259   */\n      mstore\n        /* \"#utility.yul\":7276:7354   */\n      tag_272\n        /* \"#utility.yul\":7349:7353   */\n      dup2\n        /* \"#utility.yul\":7340:7346   */\n      dup5\n        /* \"#utility.yul\":7276:7354   */\n      tag_187\n      jump\t// in\n    tag_272:\n        /* \"#utility.yul\":7268:7354   */\n      swap1\n      pop\n        /* \"#utility.yul\":7048:7361   */\n      swap3\n      swap2\n      pop\n      pop\n      jump\t// out\n        /* \"#utility.yul\":7367:7516   */\n    tag_188:\n        /* \"#utility.yul\":7403:7410   */\n      0x00\n        /* \"#utility.yul\":7443:7509   */\n      0xff00000000000000000000000000000000000000000000000000000000000000\n        /* \"#utility.yul\":7436:7441   */\n      dup3\n        /* \"#utility.yul\":7432:7510   */\n      and\n        /* \"#utility.yul\":7421:7510   */\n      swap1\n      pop\n        /* \"#utility.yul\":7367:7516   */\n      swap2\n      swap1\n      pop\n      jump\t// out\n        /* \"#utility.yul\":7522:7637   */\n    tag_189:\n        /* \"#utility.yul\":7607:7630   */\n      tag_275\n        /* \"#utility.yul\":7624:7629   */\n      dup2\n        /* \"#utility.yul\":7607:7630   */\n      tag_188\n      jump\t// in\n    tag_275:\n        /* \"#utility.yul\":7602:7605   */\n      dup3\n        /* \"#utility.yul\":7595:7631   */\n      mstore\n        /* \"#utility.yul\":7522:7637   */\n      pop\n      pop\n      jump\t// out\n        /* \"#utility.yul\":7643:7861   */\n    tag_114:\n        /* \"#utility.yul\":7734:7738   */\n      0x00\n        /* \"#utility.yul\":7772:7774   */\n      0x20\n        /* \"#utility.yul\":7761:7770   */\n      dup3\n        /* \"#utility.yul\":7757:7775   */\n      add\n        /* \"#utility.yul\":7749:7775   */\n      swap1\n      pop\n        /* \"#utility.yul\":7785:7854   */\n      tag_277\n        /* \"#utility.yul\":7851:7852   */\n      0x00\n        /* \"#utility.yul\":7840:7849   */\n      dup4\n        /* \"#utility.yul\":7836:7853   */\n      add\n        /* \"#utility.yul\":7827:7833   */\n      dup5\n        /* \"#utility.yul\":7785:7854   */\n      tag_189\n      jump\t// in\n    tag_277:\n        /* \"#utility.yul\":7643:7861   */\n      swap3\n      swap2\n      pop\n      pop\n      jump\t// out\n        /* \"#utility.yul\":7867:8047   */\n    tag_190:\n        /* \"#utility.yul\":7915:7992   */\n      0x4e487b7100000000000000000000000000000000000000000000000000000000\n        /* \"#utility.yul\":7912:7913   */\n      0x00\n        /* \"#utility.yul\":7905:7993   */\n      mstore\n        /* \"#utility.yul\":8012:8016   */\n      0x11\n        /* \"#utility.yul\":8009:8010   */\n      0x04\n        /* \"#utility.yul\":8002:8017   */\n      mstore\n        /* \"#utility.yul\":8036:8040   */\n      0x24\n        /* \"#utility.yul\":8033:8034   */\n      0x00\n        /* \"#utility.yul\":8026:8041   */\n      revert\n        /* \"#utility.yul\":8053:8428   */\n    tag_137:\n        /* \"#utility.yul\":8092:8095   */\n      0x00\n        /* \"#utility.yul\":8111:8130   */\n      tag_280\n        /* \"#utility.yul\":8128:8129   */\n      dup3\n        /* \"#utility.yul\":8111:8130   */\n      tag_160\n      jump\t// in\n    tag_280:\n        /* \"#utility.yul\":8106:8130   */\n      swap2\n      pop\n        /* \"#utility.yul\":8144:8163   */\n      tag_281\n        /* \"#utility.yul\":8161:8162   */\n      dup4\n        /* \"#utility.yul\":8144:8163   */\n      tag_160\n      jump\t// in\n    tag_281:\n        /* \"#utility.yul\":8139:8163   */\n      swap3\n      pop\n        /* \"#utility.yul\":8186:8187   */\n      dup3\n        /* \"#utility.yul\":8183:8184   */\n      dup3\n        /* \"#utility.yul\":8179:8188   */\n      add\n        /* \"#utility.yul\":8172:8188   */\n      swap1\n      pop\n        /* \"#utility.yul\":8384:8385   */\n      dup3\n        /* \"#utility.yul\":8379:8382   */\n      dup2\n        /* \"#utility.yul\":8375:8386   */\n      slt\n        /* \"#utility.yul\":8368:8387   */\n      iszero\n        /* \"#utility.yul\":8364:8365   */\n      0x00\n        /* \"#utility.yul\":8361:8362   */\n      dup4\n        /* \"#utility.yul\":8357:8366   */\n      slt\n        /* \"#utility.yul\":8353:8388   */\n      and\n        /* \"#utility.yul\":8336:8337   */\n      dup4\n        /* \"#utility.yul\":8331:8334   */\n      dup3\n        /* \"#utility.yul\":8327:8338   */\n      slt\n        /* \"#utility.yul\":8322:8323   */\n      0x00\n        /* \"#utility.yul\":8319:8320   */\n      dup5\n        /* \"#utility.yul\":8315:8324   */\n      slt\n        /* \"#utility.yul\":8308:8325   */\n      iszero\n        /* \"#utility.yul\":8304:8339   */\n      and\n        /* \"#utility.yul\":8288:8398   */\n      or\n        /* \"#utility.yul\":8285:8421   */\n      iszero\n      tag_282\n      jumpi\n        /* \"#utility.yul\":8401:8419   */\n      tag_283\n      tag_190\n      jump\t// in\n    tag_283:\n        /* \"#utility.yul\":8285:8421   */\n    tag_282:\n        /* \"#utility.yul\":8053:8428   */\n      swap3\n      swap2\n      pop\n      pop\n      jump\t// out\n        /* \"#utility.yul\":8434:8625   */\n    tag_142:\n        /* \"#utility.yul\":8474:8477   */\n      0x00\n        /* \"#utility.yul\":8493:8513   */\n      tag_285\n        /* \"#utility.yul\":8511:8512   */\n      dup3\n        /* \"#utility.yul\":8493:8513   */\n      tag_158\n      jump\t// in\n    tag_285:\n        /* \"#utility.yul\":8488:8513   */\n      swap2\n      pop\n        /* \"#utility.yul\":8527:8547   */\n      tag_286\n        /* \"#utility.yul\":8545:8546   */\n      dup4\n        /* \"#utility.yul\":8527:8547   */\n      tag_158\n      jump\t// in\n    tag_286:\n        /* \"#utility.yul\":8522:8547   */\n      swap3\n      pop\n        /* \"#utility.yul\":8570:8571   */\n      dup3\n        /* \"#utility.yul\":8567:8568   */\n      dup3\n        /* \"#utility.yul\":8563:8572   */\n      add\n        /* \"#utility.yul\":8556:8572   */\n      swap1\n      pop\n        /* \"#utility.yul\":8591:8594   */\n      dup1\n        /* \"#utility.yul\":8588:8589   */\n      dup3\n        /* \"#utility.yul\":8585:8595   */\n      gt\n        /* \"#utility.yul\":8582:8618   */\n      iszero\n      tag_287\n      jumpi\n        /* \"#utility.yul\":8598:8616   */\n      tag_288\n      tag_190\n      jump\t// in\n    tag_288:\n        /* \"#utility.yul\":8582:8618   */\n    tag_287:\n        /* \"#utility.yul\":8434:8625   */\n      swap3\n      swap2\n      pop\n      pop\n      jump\t// out\n        /* \"#utility.yul\":8631:8811   */\n    tag_191:\n        /* \"#utility.yul\":8679:8756   */\n      0x4e487b7100000000000000000000000000000000000000000000000000000000\n        /* \"#utility.yul\":8676:8677   */\n      0x00\n        /* \"#utility.yul\":8669:8757   */\n      mstore\n        /* \"#utility.yul\":8776:8780   */\n      0x22\n        /* \"#utility.yul\":8773:8774   */\n      0x04\n        /* \"#utility.yul\":8766:8781   */\n      mstore\n        /* \"#utility.yul\":8800:8804   */\n      0x24\n        /* \"#utility.yul\":8797:8798   */\n      0x00\n        /* \"#utility.yul\":8790:8805   */\n      revert\n        /* \"#utility.yul\":8817:9137   */\n    tag_148:\n        /* \"#utility.yul\":8861:8867   */\n      0x00\n        /* \"#utility.yul\":8898:8899   */\n      0x02\n        /* \"#utility.yul\":8892:8896   */\n      dup3\n        /* \"#utility.yul\":8888:8900   */\n      div\n        /* \"#utility.yul\":8878:8900   */\n      swap1\n      pop\n        /* \"#utility.yul\":8945:8946   */\n      0x01\n        /* \"#utility.yul\":8939:8943   */\n      dup3\n        /* \"#utility.yul\":8935:8947   */\n      and\n        /* \"#utility.yul\":8966:8984   */\n      dup1\n        /* \"#utility.yul\":8956:9037   */\n      tag_291\n      jumpi\n        /* \"#utility.yul\":9022:9026   */\n      0x7f\n        /* \"#utility.yul\":9014:9020   */\n      dup3\n        /* \"#utility.yul\":9010:9027   */\n      and\n        /* \"#utility.yul\":9000:9027   */\n      swap2\n      pop\n        /* \"#utility.yul\":8956:9037   */\n    tag_291:\n        /* \"#utility.yul\":9084:9086   */\n      0x20\n        /* \"#utility.yul\":9076:9082   */\n      dup3\n        /* \"#utility.yul\":9073:9087   */\n      lt\n        /* \"#utility.yul\":9053:9071   */\n      dup2\n        /* \"#utility.yul\":9050:9088   */\n      sub\n        /* \"#utility.yul\":9047:9131   */\n      tag_292\n      jumpi\n        /* \"#utility.yul\":9103:9121   */\n      tag_293\n      tag_191\n      jump\t// in\n    tag_293:\n        /* \"#utility.yul\":9047:9131   */\n    tag_292:\n        /* \"#utility.yul\":8868:9137   */\n      pop\n        /* \"#utility.yul\":8817:9137   */\n      swap2\n      swap1\n      pop\n      jump\t// out\n\n    auxdata: 0xa2646970667358221220c7ec4207f8d2e0a2f72faf9dc6d99c197518850c1ce97ccd5c63ab498e1fa9f364736f6c634300081a0033\n}\n",
				"bytecode": {
					"linkReferences": {},
					"object": "6080604052604051806060016040528060288152602001611202602891395f908161002a919061047c565b506001805f6101000a81548160ff0219169083151502179055507fffffffffffffffffffffffffffffffffffffffffffffffffffffffffffffffff600255600160035562031211600455600260055560016002546100889190610581565b600655600a600755736c85e349a70791e95fd6d9d5e066c6ec136e0a9260085f6101000a81548173ffffffffffffffffffffffffffffffffffffffff021916908373ffffffffffffffffffffffffffffffffffffffff16021790555060085f9054906101000a900473ffffffffffffffffffffffffffffffffffffffff1660095f6101000a81548173ffffffffffffffffffffffffffffffffffffffff021916908373ffffffffffffffffffffffffffffffffffffffff16021790555060095f9054906101000a900473ffffffffffffffffffffffffffffffffffffffff1673ffffffffffffffffffffffffffffffffffffffff1631600a557f61656c6c6f000000000000000000000000000000000000000000000000000000600b55600b545f602081106101ba576101b96105c2565b5b1a60f81b600c5f6101000a81548160ff021916908360f81c02179055506001600c60016101000a81548160ff021916908360018111156101fd576101fc6105ef565b5b0217905550600c60019054906101000a900460ff166001811115610224576102236105ef565b5b600d556001600e55600a600f5534801561023c575f80fd5b5061061c565b5f81519050919050565b7f4e487b71000000000000000000000000000000000000000000000000000000005f52604160045260245ffd5b7f4e487b71000000000000000000000000000000000000000000000000000000005f52602260045260245ffd5b5f60028204905060018216806102bd57607f821691505b6020821081036102d0576102cf610279565b5b50919050565b5f819050815f5260205f209050919050565b5f6020601f8301049050919050565b5f82821b905092915050565b5f600883026103327fffffffffffffffffffffffffffffffffffffffffffffffffffffffffffffffff826102f7565b61033c86836102f7565b95508019841693508086168417925050509392505050565b5f819050919050565b5f819050919050565b5f61038061037b61037684610354565b61035d565b610354565b9050919050565b5f819050919050565b61039983610366565b6103ad6103a582610387565b848454610303565b825550505050565b5f90565b6103c16103b5565b6103cc818484610390565b505050565b5b818110156103ef576103e45f826103b9565b6001810190506103d2565b5050565b601f82111561043457610405816102d6565b61040e846102e8565b8101602085101561041d578190505b610431610429856102e8565b8301826103d1565b50505b505050565b5f82821c905092915050565b5f6104545f1984600802610439565b1980831691505092915050565b5f61046c8383610445565b9150826002028217905092915050565b61048582610242565b67ffffffffffffffff81111561049e5761049d61024c565b5b6104a882546102a6565b6104b38282856103f3565b5f60209050601f8311600181146104e4575f84156104d2578287015190505b6104dc8582610461565b865550610543565b601f1984166104f2866102d6565b5f5b82811015610519578489015182556001820191506020850194506020810190506104f4565b868310156105365784890151610532601f891682610445565b8355505b6001600288020188555050505b505050505050565b5f819050919050565b7f4e487b71000000000000000000000000000000000000000000000000000000005f52601160045260245ffd5b5f61058b8261054b565b91506105968361054b565b92508282019050828112155f8312168382125f8412151617156105bc576105bb610554565b5b92915050565b7f4e487b71000000000000000000000000000000000000000000000000000000005f52603260045260245ffd5b7f4e487b71000000000000000000000000000000000000000000000000000000005f52602160045260245ffd5b610bd9806106295f395ff3fe608060405260043610610134575f3560e01c80635ea5cabe116100aa578063b262eb7f1161006e578063b262eb7f146103a6578063b69ef8a8146103d0578063d28d8852146103fa578063eac2328014610424578063f02aa16f1461044e578063f97dd17f1461047857610134565b80635ea5cabe146102bf5780635ed9d14b146102eb5780637032c4f214610315578063776b41bb1461035157806393aba6c71461037c57610134565b80633f346102116100fc5780633f346102146101f757806341673cab146102215780634507d86d1461023f5780634f2be91f1461025557806354ed80221461026b57806359e550201461029557610134565b806304b98547146101385780630a0d67b2146101625780632108f0de1461018c5780632611b138146101a25780632dcf61f8146101cd575b5f80fd5b348015610143575f80fd5b5061014c6104a2565b6040516101599190610729565b60405180910390f35b34801561016d575f80fd5b506101766104a8565b604051610183919061075a565b60405180910390f35b348015610197575f80fd5b506101a06104ae565b005b3480156101ad575f80fd5b506101b66104d1565b6040516101c492919061078d565b60405180910390f35b3480156101d8575f80fd5b506101e16104e0565b6040516101ee91906107f3565b60405180910390f35b348015610202575f80fd5b5061020b610505565b6040516102189190610824565b60405180910390f35b61022961050b565b6040516102369190610729565b60405180910390f35b34801561024a575f80fd5b5061025361051a565b005b348015610260575f80fd5b5061026961052c565b005b348015610276575f80fd5b5061027f610543565b60405161028c9190610729565b60405180910390f35b3480156102a0575f80fd5b506102a9610549565b6040516102b6919061085d565b60405180910390f35b3480156102ca575f80fd5b506102d361056e565b6040516102e29392919061091b565b60405180910390f35b3480156102f6575f80fd5b506102ff6105a4565b60405161030c9190610950565b60405180910390f35b348015610320575f80fd5b5061033b60048036038101906103369190610997565b6105b6565b6040516103489190610729565b60405180910390f35b34801561035c575f80fd5b506103656105d6565b60405161037392919061078d565b60405180910390f35b348015610387575f80fd5b506103906105e3565b60405161039d919061075a565b60405180910390f35b3480156103b1575f80fd5b506103ba6105e9565b6040516103c79190610729565b60405180910390f35b3480156103db575f80fd5b506103e46105fe565b6040516103f19190610729565b60405180910390f35b348015610405575f80fd5b5061040e610604565b60405161041b9190610a32565b60405180910390f35b34801561042f575f80fd5b5061043861068f565b6040516104459190610a8c565b60405180910390f35b348015610459575f80fd5b506104626106a1565b60405161046f9190610729565b60405180910390f35b348015610483575f80fd5b5061048c6106a7565b6040516104999190610729565b60405180910390f35b60045481565b60025481565b5f806104b86106ef565b6104c061056e565b809350819450829550505050505050565b5f806006546001915091509091565b60095f9054906101000a900473ffffffffffffffffffffffffffffffffffffffff1681565b600b5481565b5f6105146106ad565b47905090565b6105226106ad565b61052a6106d9565b565b600360025461053b9190610ad2565b600281905550565b60035481565b60085f9054906101000a900473ffffffffffffffffffffffffffffffffffffffff1681565b5f806105786106ef565b600292505f91506040518060600160405280600381526020016002815260200160018152509050909192565b60015f9054906101000a900460ff1681565b5f6001826105c49190610b13565b816105cf9190610b13565b9050919050565b5f80600180915091509091565b60065481565b5f60016004546105f99190610b13565b905090565b600a5481565b5f805461061090610b73565b80601f016020809104026020016040519081016040528092919081815260200182805461063c90610b73565b80156106875780601f1061065e57610100808354040283529160200191610687565b820191905f5260205f20905b81548152906001019060200180831161066a57829003601f168201915b505050505081565b600c5f9054906101000a900460f81b81565b60055481565b600d5481565b60016002546106bc9190610ad2565b60028190555060016007546106d19190610ad2565b600781905550565b600280546106e79190610ad2565b600281905550565b6040518060600160405280600390602082028036833780820191505090505090565b5f819050919050565b61072381610711565b82525050565b5f60208201905061073c5f83018461071a565b92915050565b5f819050919050565b61075481610742565b82525050565b5f60208201905061076d5f83018461074b565b92915050565b5f8115159050919050565b61078781610773565b82525050565b5f6040820190506107a05f83018561074b565b6107ad602083018461077e565b9392505050565b5f73ffffffffffffffffffffffffffffffffffffffff82169050919050565b5f6107dd826107b4565b9050919050565b6107ed816107d3565b82525050565b5f6020820190506108065f8301846107e4565b92915050565b5f819050919050565b61081e8161080c565b82525050565b5f6020820190506108375f830184610815565b92915050565b5f610847826107b4565b9050919050565b6108578161083d565b82525050565b5f6020820190506108705f83018461084e565b92915050565b5f60039050919050565b5f81905092915050565b5f819050919050565b61089c81610711565b82525050565b5f6108ad8383610893565b60208301905092915050565b5f602082019050919050565b6108ce81610876565b6108d88184610880565b92506108e38261088a565b805f5b838110156109135781516108fa87826108a2565b9650610905836108b9565b9250506001810190506108e6565b505050505050565b5f60a08201905061092e5f83018661071a565b61093b602083018561077e565b61094860408301846108c5565b949350505050565b5f6020820190506109635f83018461077e565b92915050565b5f80fd5b61097681610711565b8114610980575f80fd5b50565b5f813590506109918161096d565b92915050565b5f602082840312156109ac576109ab610969565b5b5f6109b984828501610983565b91505092915050565b5f81519050919050565b5f82825260208201905092915050565b8281835e5f83830152505050565b5f601f19601f8301169050919050565b5f610a04826109c2565b610a0e81856109cc565b9350610a1e8185602086016109dc565b610a27816109ea565b840191505092915050565b5f6020820190508181035f830152610a4a81846109fa565b905092915050565b5f7fff0000000000000000000000000000000000000000000000000000000000000082169050919050565b610a8681610a52565b82525050565b5f602082019050610a9f5f830184610a7d565b92915050565b7f4e487b71000000000000000000000000000000000000000000000000000000005f52601160045260245ffd5b5f610adc82610742565b9150610ae783610742565b92508282019050828112155f8312168382125f841215161715610b0d57610b0c610aa5565b5b92915050565b5f610b1d82610711565b9150610b2883610711565b9250828201905080821115610b4057610b3f610aa5565b5b92915050565b7f4e487b71000000000000000000000000000000000000000000000000000000005f52602260045260245ffd5b5f6002820490506001821680610b8a57607f821691505b602082108103610b9d57610b9c610b46565b5b5091905056fea2646970667358221220c7ec4207f8d2e0a2f72faf9dc6d99c197518850c1ce97ccd5c63ab498e1fa9f364736f6c634300081a003368656c6c6f20736f6c69646974792c74686973206973206d792066697273742070726f6a6563742e",
					"opcodes": "PUSH1 0x80 PUSH1 0x40 MSTORE PUSH1 0x40 MLOAD DUP1 PUSH1 0x60 ADD PUSH1 0x40 MSTORE DUP1 PUSH1 0x28 DUP2 MSTORE PUSH1 0x20 ADD PUSH2 0x1202 PUSH1 0x28 SWAP2 CODECOPY PUSH0 SWAP1 DUP2 PUSH2 0x2A SWAP2 SWAP1 PUSH2 0x47C JUMP JUMPDEST POP PUSH1 0x1 DUP1 PUSH0 PUSH2 0x100 EXP DUP2 SLOAD DUP2 PUSH1 0xFF MUL NOT AND SWAP1 DUP4 ISZERO ISZERO MUL OR SWAP1 SSTORE POP PUSH32 0xFFFFFFFFFFFFFFFFFFFFFFFFFFFFFFFFFFFFFFFFFFFFFFFFFFFFFFFFFFFFFFFF PUSH1 0x2 SSTORE PUSH1 0x1 PUSH1 0x3 SSTORE PUSH3 0x31211 PUSH1 0x4 SSTORE PUSH1 0x2 PUSH1 0x5 SSTORE PUSH1 0x1 PUSH1 0x2 SLOAD PUSH2 0x88 SWAP2 SWAP1 PUSH2 0x581 JUMP JUMPDEST PUSH1 0x6 SSTORE PUSH1 0xA PUSH1 0x7 SSTORE PUSH20 0x6C85E349A70791E95FD6D9D5E066C6EC136E0A92 PUSH1 0x8 PUSH0 PUSH2 0x100 EXP DUP2 SLOAD DUP2 PUSH20 0xFFFFFFFFFFFFFFFFFFFFFFFFFFFFFFFFFFFFFFFF MUL NOT AND SWAP1 DUP4 PUSH20 0xFFFFFFFFFFFFFFFFFFFFFFFFFFFFFFFFFFFFFFFF AND MUL OR SWAP1 SSTORE POP PUSH1 0x8 PUSH0 SWAP1 SLOAD SWAP1 PUSH2 0x100 EXP SWAP1 DIV PUSH20 0xFFFFFFFFFFFFFFFFFFFFFFFFFFFFFFFFFFFFFFFF AND PUSH1 0x9 PUSH0 PUSH2 0x100 EXP DUP2 SLOAD DUP2 PUSH20 0xFFFFFFFFFFFFFFFFFFFFFFFFFFFFFFFFFFFFFFFF MUL NOT AND SWAP1 DUP4 PUSH20 0xFFFFFFFFFFFFFFFFFFFFFFFFFFFFFFFFFFFFFFFF AND MUL OR SWAP1 SSTORE POP PUSH1 0x9 PUSH0 SWAP1 SLOAD SWAP1 PUSH2 0x100 EXP SWAP1 DIV PUSH20 0xFFFFFFFFFFFFFFFFFFFFFFFFFFFFFFFFFFFFFFFF AND PUSH20 0xFFFFFFFFFFFFFFFFFFFFFFFFFFFFFFFFFFFFFFFF AND BALANCE PUSH1 0xA SSTORE PUSH32 0x61656C6C6F000000000000000000000000000000000000000000000000000000 PUSH1 0xB SSTORE PUSH1 0xB SLOAD PUSH0 PUSH1 0x20 DUP2 LT PUSH2 0x1BA JUMPI PUSH2 0x1B9 PUSH2 0x5C2 JUMP JUMPDEST JUMPDEST BYTE PUSH1 0xF8 SHL PUSH1 0xC PUSH0 PUSH2 0x100 EXP DUP2 SLOAD DUP2 PUSH1 0xFF MUL NOT AND SWAP1 DUP4 PUSH1 0xF8 SHR MUL OR SWAP1 SSTORE POP PUSH1 0x1 PUSH1 0xC PUSH1 0x1 PUSH2 0x100 EXP DUP2 SLOAD DUP2 PUSH1 0xFF MUL NOT AND SWAP1 DUP4 PUSH1 0x1 DUP2 GT ISZERO PUSH2 0x1FD JUMPI PUSH2 0x1FC PUSH2 0x5EF JUMP JUMPDEST JUMPDEST MUL OR SWAP1 SSTORE POP PUSH1 0xC PUSH1 0x1 SWAP1 SLOAD SWAP1 PUSH2 0x100 EXP SWAP1 DIV PUSH1 0xFF AND PUSH1 0x1 DUP2 GT ISZERO PUSH2 0x224 JUMPI PUSH2 0x223 PUSH2 0x5EF JUMP JUMPDEST JUMPDEST PUSH1 0xD SSTORE PUSH1 0x1 PUSH1 0xE SSTORE PUSH1 0xA PUSH1 0xF SSTORE CALLVALUE DUP1 ISZERO PUSH2 0x23C JUMPI PUSH0 DUP1 REVERT JUMPDEST POP PUSH2 0x61C JUMP JUMPDEST PUSH0 DUP2 MLOAD SWAP1 POP SWAP2 SWAP1 POP JUMP JUMPDEST PUSH32 0x4E487B7100000000000000000000000000000000000000000000000000000000 PUSH0 MSTORE PUSH1 0x41 PUSH1 0x4 MSTORE PUSH1 0x24 PUSH0 REVERT JUMPDEST PUSH32 0x4E487B7100000000000000000000000000000000000000000000000000000000 PUSH0 MSTORE PUSH1 0x22 PUSH1 0x4 MSTORE PUSH1 0x24 PUSH0 REVERT JUMPDEST PUSH0 PUSH1 0x2 DUP3 DIV SWAP1 POP PUSH1 0x1 DUP3 AND DUP1 PUSH2 0x2BD JUMPI PUSH1 0x7F DUP3 AND SWAP2 POP JUMPDEST PUSH1 0x20 DUP3 LT DUP2 SUB PUSH2 0x2D0 JUMPI PUSH2 0x2CF PUSH2 0x279 JUMP JUMPDEST JUMPDEST POP SWAP2 SWAP1 POP JUMP JUMPDEST PUSH0 DUP2 SWAP1 POP DUP2 PUSH0 MSTORE PUSH1 0x20 PUSH0 KECCAK256 SWAP1 POP SWAP2 SWAP1 POP JUMP JUMPDEST PUSH0 PUSH1 0x20 PUSH1 0x1F DUP4 ADD DIV SWAP1 POP SWAP2 SWAP1 POP JUMP JUMPDEST PUSH0 DUP3 DUP3 SHL SWAP1 POP SWAP3 SWAP2 POP POP JUMP JUMPDEST PUSH0 PUSH1 0x8 DUP4 MUL PUSH2 0x332 PUSH32 0xFFFFFFFFFFFFFFFFFFFFFFFFFFFFFFFFFFFFFFFFFFFFFFFFFFFFFFFFFFFFFFFF DUP3 PUSH2 0x2F7 JUMP JUMPDEST PUSH2 0x33C DUP7 DUP4 PUSH2 0x2F7 JUMP JUMPDEST SWAP6 POP DUP1 NOT DUP5 AND SWAP4 POP DUP1 DUP7 AND DUP5 OR SWAP3 POP POP POP SWAP4 SWAP3 POP POP POP JUMP JUMPDEST PUSH0 DUP2 SWAP1 POP SWAP2 SWAP1 POP JUMP JUMPDEST PUSH0 DUP2 SWAP1 POP SWAP2 SWAP1 POP JUMP JUMPDEST PUSH0 PUSH2 0x380 PUSH2 0x37B PUSH2 0x376 DUP5 PUSH2 0x354 JUMP JUMPDEST PUSH2 0x35D JUMP JUMPDEST PUSH2 0x354 JUMP JUMPDEST SWAP1 POP SWAP2 SWAP1 POP JUMP JUMPDEST PUSH0 DUP2 SWAP1 POP SWAP2 SWAP1 POP JUMP JUMPDEST PUSH2 0x399 DUP4 PUSH2 0x366 JUMP JUMPDEST PUSH2 0x3AD PUSH2 0x3A5 DUP3 PUSH2 0x387 JUMP JUMPDEST DUP5 DUP5 SLOAD PUSH2 0x303 JUMP JUMPDEST DUP3 SSTORE POP POP POP POP JUMP JUMPDEST PUSH0 SWAP1 JUMP JUMPDEST PUSH2 0x3C1 PUSH2 0x3B5 JUMP JUMPDEST PUSH2 0x3CC DUP2 DUP5 DUP5 PUSH2 0x390 JUMP JUMPDEST POP POP POP JUMP JUMPDEST JUMPDEST DUP2 DUP2 LT ISZERO PUSH2 0x3EF JUMPI PUSH2 0x3E4 PUSH0 DUP3 PUSH2 0x3B9 JUMP JUMPDEST PUSH1 0x1 DUP2 ADD SWAP1 POP PUSH2 0x3D2 JUMP JUMPDEST POP POP JUMP JUMPDEST PUSH1 0x1F DUP3 GT ISZERO PUSH2 0x434 JUMPI PUSH2 0x405 DUP2 PUSH2 0x2D6 JUMP JUMPDEST PUSH2 0x40E DUP5 PUSH2 0x2E8 JUMP JUMPDEST DUP2 ADD PUSH1 0x20 DUP6 LT ISZERO PUSH2 0x41D JUMPI DUP2 SWAP1 POP JUMPDEST PUSH2 0x431 PUSH2 0x429 DUP6 PUSH2 0x2E8 JUMP JUMPDEST DUP4 ADD DUP3 PUSH2 0x3D1 JUMP JUMPDEST POP POP JUMPDEST POP POP POP JUMP JUMPDEST PUSH0 DUP3 DUP3 SHR SWAP1 POP SWAP3 SWAP2 POP POP JUMP JUMPDEST PUSH0 PUSH2 0x454 PUSH0 NOT DUP5 PUSH1 0x8 MUL PUSH2 0x439 JUMP JUMPDEST NOT DUP1 DUP4 AND SWAP2 POP POP SWAP3 SWAP2 POP POP JUMP JUMPDEST PUSH0 PUSH2 0x46C DUP4 DUP4 PUSH2 0x445 JUMP JUMPDEST SWAP2 POP DUP3 PUSH1 0x2 MUL DUP3 OR SWAP1 POP SWAP3 SWAP2 POP POP JUMP JUMPDEST PUSH2 0x485 DUP3 PUSH2 0x242 JUMP JUMPDEST PUSH8 0xFFFFFFFFFFFFFFFF DUP2 GT ISZERO PUSH2 0x49E JUMPI PUSH2 0x49D PUSH2 0x24C JUMP JUMPDEST JUMPDEST PUSH2 0x4A8 DUP3 SLOAD PUSH2 0x2A6 JUMP JUMPDEST PUSH2 0x4B3 DUP3 DUP3 DUP6 PUSH2 0x3F3 JUMP JUMPDEST PUSH0 PUSH1 0x20 SWAP1 POP PUSH1 0x1F DUP4 GT PUSH1 0x1 DUP2 EQ PUSH2 0x4E4 JUMPI PUSH0 DUP5 ISZERO PUSH2 0x4D2 JUMPI DUP3 DUP8 ADD MLOAD SWAP1 POP JUMPDEST PUSH2 0x4DC DUP6 DUP3 PUSH2 0x461 JUMP JUMPDEST DUP7 SSTORE POP PUSH2 0x543 JUMP JUMPDEST PUSH1 0x1F NOT DUP5 AND PUSH2 0x4F2 DUP7 PUSH2 0x2D6 JUMP JUMPDEST PUSH0 JUMPDEST DUP3 DUP2 LT ISZERO PUSH2 0x519 JUMPI DUP5 DUP10 ADD MLOAD DUP3 SSTORE PUSH1 0x1 DUP3 ADD SWAP2 POP PUSH1 0x20 DUP6 ADD SWAP5 POP PUSH1 0x20 DUP2 ADD SWAP1 POP PUSH2 0x4F4 JUMP JUMPDEST DUP7 DUP4 LT ISZERO PUSH2 0x536 JUMPI DUP5 DUP10 ADD MLOAD PUSH2 0x532 PUSH1 0x1F DUP10 AND DUP3 PUSH2 0x445 JUMP JUMPDEST DUP4 SSTORE POP JUMPDEST PUSH1 0x1 PUSH1 0x2 DUP9 MUL ADD DUP9 SSTORE POP POP POP JUMPDEST POP POP POP POP POP POP JUMP JUMPDEST PUSH0 DUP2 SWAP1 POP SWAP2 SWAP1 POP JUMP JUMPDEST PUSH32 0x4E487B7100000000000000000000000000000000000000000000000000000000 PUSH0 MSTORE PUSH1 0x11 PUSH1 0x4 MSTORE PUSH1 0x24 PUSH0 REVERT JUMPDEST PUSH0 PUSH2 0x58B DUP3 PUSH2 0x54B JUMP JUMPDEST SWAP2 POP PUSH2 0x596 DUP4 PUSH2 0x54B JUMP JUMPDEST SWAP3 POP DUP3 DUP3 ADD SWAP1 POP DUP3 DUP2 SLT ISZERO PUSH0 DUP4 SLT AND DUP4 DUP3 SLT PUSH0 DUP5 SLT ISZERO AND OR ISZERO PUSH2 0x5BC JUMPI PUSH2 0x5BB PUSH2 0x554 JUMP JUMPDEST JUMPDEST SWAP3 SWAP2 POP POP JUMP JUMPDEST PUSH32 0x4E487B7100000000000000000000000000000000000000000000000000000000 PUSH0 MSTORE PUSH1 0x32 PUSH1 0x4 MSTORE PUSH1 0x24 PUSH0 REVERT JUMPDEST PUSH32 0x4E487B7100000000000000000000000000000000000000000000000000000000 PUSH0 MSTORE PUSH1 0x21 PUSH1 0x4 MSTORE PUSH1 0x24 PUSH0 REVERT JUMPDEST PUSH2 0xBD9 DUP1 PUSH2 0x629 PUSH0 CODECOPY PUSH0 RETURN INVALID PUSH1 0x80 PUSH1 0x40 MSTORE PUSH1 0x4 CALLDATASIZE LT PUSH2 0x134 JUMPI PUSH0 CALLDATALOAD PUSH1 0xE0 SHR DUP1 PUSH4 0x5EA5CABE GT PUSH2 0xAA JUMPI DUP1 PUSH4 0xB262EB7F GT PUSH2 0x6E JUMPI DUP1 PUSH4 0xB262EB7F EQ PUSH2 0x3A6 JUMPI DUP1 PUSH4 0xB69EF8A8 EQ PUSH2 0x3D0 JUMPI DUP1 PUSH4 0xD28D8852 EQ PUSH2 0x3FA JUMPI DUP1 PUSH4 0xEAC23280 EQ PUSH2 0x424 JUMPI DUP1 PUSH4 0xF02AA16F EQ PUSH2 0x44E JUMPI DUP1 PUSH4 0xF97DD17F EQ PUSH2 0x478 JUMPI PUSH2 0x134 JUMP JUMPDEST DUP1 PUSH4 0x5EA5CABE EQ PUSH2 0x2BF JUMPI DUP1 PUSH4 0x5ED9D14B EQ PUSH2 0x2EB JUMPI DUP1 PUSH4 0x7032C4F2 EQ PUSH2 0x315 JUMPI DUP1 PUSH4 0x776B41BB EQ PUSH2 0x351 JUMPI DUP1 PUSH4 0x93ABA6C7 EQ PUSH2 0x37C JUMPI PUSH2 0x134 JUMP JUMPDEST DUP1 PUSH4 0x3F346102 GT PUSH2 0xFC JUMPI DUP1 PUSH4 0x3F346102 EQ PUSH2 0x1F7 JUMPI DUP1 PUSH4 0x41673CAB EQ PUSH2 0x221 JUMPI DUP1 PUSH4 0x4507D86D EQ PUSH2 0x23F JUMPI DUP1 PUSH4 0x4F2BE91F EQ PUSH2 0x255 JUMPI DUP1 PUSH4 0x54ED8022 EQ PUSH2 0x26B JUMPI DUP1 PUSH4 0x59E55020 EQ PUSH2 0x295 JUMPI PUSH2 0x134 JUMP JUMPDEST DUP1 PUSH4 0x4B98547 EQ PUSH2 0x138 JUMPI DUP1 PUSH4 0xA0D67B2 EQ PUSH2 0x162 JUMPI DUP1 PUSH4 0x2108F0DE EQ PUSH2 0x18C JUMPI DUP1 PUSH4 0x2611B138 EQ PUSH2 0x1A2 JUMPI DUP1 PUSH4 0x2DCF61F8 EQ PUSH2 0x1CD JUMPI JUMPDEST PUSH0 DUP1 REVERT JUMPDEST CALLVALUE DUP1 ISZERO PUSH2 0x143 JUMPI PUSH0 DUP1 REVERT JUMPDEST POP PUSH2 0x14C PUSH2 0x4A2 JUMP JUMPDEST PUSH1 0x40 MLOAD PUSH2 0x159 SWAP2 SWAP1 PUSH2 0x729 JUMP JUMPDEST PUSH1 0x40 MLOAD DUP1 SWAP2 SUB SWAP1 RETURN JUMPDEST CALLVALUE DUP1 ISZERO PUSH2 0x16D JUMPI PUSH0 DUP1 REVERT JUMPDEST POP PUSH2 0x176 PUSH2 0x4A8 JUMP JUMPDEST PUSH1 0x40 MLOAD PUSH2 0x183 SWAP2 SWAP1 PUSH2 0x75A JUMP JUMPDEST PUSH1 0x40 MLOAD DUP1 SWAP2 SUB SWAP1 RETURN JUMPDEST CALLVALUE DUP1 ISZERO PUSH2 0x197 JUMPI PUSH0 DUP1 REVERT JUMPDEST POP PUSH2 0x1A0 PUSH2 0x4AE JUMP JUMPDEST STOP JUMPDEST CALLVALUE DUP1 ISZERO PUSH2 0x1AD JUMPI PUSH0 DUP1 REVERT JUMPDEST POP PUSH2 0x1B6 PUSH2 0x4D1 JUMP JUMPDEST PUSH1 0x40 MLOAD PUSH2 0x1C4 SWAP3 SWAP2 SWAP1 PUSH2 0x78D JUMP JUMPDEST PUSH1 0x40 MLOAD DUP1 SWAP2 SUB SWAP1 RETURN JUMPDEST CALLVALUE DUP1 ISZERO PUSH2 0x1D8 JUMPI PUSH0 DUP1 REVERT JUMPDEST POP PUSH2 0x1E1 PUSH2 0x4E0 JUMP JUMPDEST PUSH1 0x40 MLOAD PUSH2 0x1EE SWAP2 SWAP1 PUSH2 0x7F3 JUMP JUMPDEST PUSH1 0x40 MLOAD DUP1 SWAP2 SUB SWAP1 RETURN JUMPDEST CALLVALUE DUP1 ISZERO PUSH2 0x202 JUMPI PUSH0 DUP1 REVERT JUMPDEST POP PUSH2 0x20B PUSH2 0x505 JUMP JUMPDEST PUSH1 0x40 MLOAD PUSH2 0x218 SWAP2 SWAP1 PUSH2 0x824 JUMP JUMPDEST PUSH1 0x40 MLOAD DUP1 SWAP2 SUB SWAP1 RETURN JUMPDEST PUSH2 0x229 PUSH2 0x50B JUMP JUMPDEST PUSH1 0x40 MLOAD PUSH2 0x236 SWAP2 SWAP1 PUSH2 0x729 JUMP JUMPDEST PUSH1 0x40 MLOAD DUP1 SWAP2 SUB SWAP1 RETURN JUMPDEST CALLVALUE DUP1 ISZERO PUSH2 0x24A JUMPI PUSH0 DUP1 REVERT JUMPDEST POP PUSH2 0x253 PUSH2 0x51A JUMP JUMPDEST STOP JUMPDEST CALLVALUE DUP1 ISZERO PUSH2 0x260 JUMPI PUSH0 DUP1 REVERT JUMPDEST POP PUSH2 0x269 PUSH2 0x52C JUMP JUMPDEST STOP JUMPDEST CALLVALUE DUP1 ISZERO PUSH2 0x276 JUMPI PUSH0 DUP1 REVERT JUMPDEST POP PUSH2 0x27F PUSH2 0x543 JUMP JUMPDEST PUSH1 0x40 MLOAD PUSH2 0x28C SWAP2 SWAP1 PUSH2 0x729 JUMP JUMPDEST PUSH1 0x40 MLOAD DUP1 SWAP2 SUB SWAP1 RETURN JUMPDEST CALLVALUE DUP1 ISZERO PUSH2 0x2A0 JUMPI PUSH0 DUP1 REVERT JUMPDEST POP PUSH2 0x2A9 PUSH2 0x549 JUMP JUMPDEST PUSH1 0x40 MLOAD PUSH2 0x2B6 SWAP2 SWAP1 PUSH2 0x85D JUMP JUMPDEST PUSH1 0x40 MLOAD DUP1 SWAP2 SUB SWAP1 RETURN JUMPDEST CALLVALUE DUP1 ISZERO PUSH2 0x2CA JUMPI PUSH0 DUP1 REVERT JUMPDEST POP PUSH2 0x2D3 PUSH2 0x56E JUMP JUMPDEST PUSH1 0x40 MLOAD PUSH2 0x2E2 SWAP4 SWAP3 SWAP2 SWAP1 PUSH2 0x91B JUMP JUMPDEST PUSH1 0x40 MLOAD DUP1 SWAP2 SUB SWAP1 RETURN JUMPDEST CALLVALUE DUP1 ISZERO PUSH2 0x2F6 JUMPI PUSH0 DUP1 REVERT JUMPDEST POP PUSH2 0x2FF PUSH2 0x5A4 JUMP JUMPDEST PUSH1 0x40 MLOAD PUSH2 0x30C SWAP2 SWAP1 PUSH2 0x950 JUMP JUMPDEST PUSH1 0x40 MLOAD DUP1 SWAP2 SUB SWAP1 RETURN JUMPDEST CALLVALUE DUP1 ISZERO PUSH2 0x320 JUMPI PUSH0 DUP1 REVERT JUMPDEST POP PUSH2 0x33B PUSH1 0x4 DUP1 CALLDATASIZE SUB DUP2 ADD SWAP1 PUSH2 0x336 SWAP2 SWAP1 PUSH2 0x997 JUMP JUMPDEST PUSH2 0x5B6 JUMP JUMPDEST PUSH1 0x40 MLOAD PUSH2 0x348 SWAP2 SWAP1 PUSH2 0x729 JUMP JUMPDEST PUSH1 0x40 MLOAD DUP1 SWAP2 SUB SWAP1 RETURN JUMPDEST CALLVALUE DUP1 ISZERO PUSH2 0x35C JUMPI PUSH0 DUP1 REVERT JUMPDEST POP PUSH2 0x365 PUSH2 0x5D6 JUMP JUMPDEST PUSH1 0x40 MLOAD PUSH2 0x373 SWAP3 SWAP2 SWAP1 PUSH2 0x78D JUMP JUMPDEST PUSH1 0x40 MLOAD DUP1 SWAP2 SUB SWAP1 RETURN JUMPDEST CALLVALUE DUP1 ISZERO PUSH2 0x387 JUMPI PUSH0 DUP1 REVERT JUMPDEST POP PUSH2 0x390 PUSH2 0x5E3 JUMP JUMPDEST PUSH1 0x40 MLOAD PUSH2 0x39D SWAP2 SWAP1 PUSH2 0x75A JUMP JUMPDEST PUSH1 0x40 MLOAD DUP1 SWAP2 SUB SWAP1 RETURN JUMPDEST CALLVALUE DUP1 ISZERO PUSH2 0x3B1 JUMPI PUSH0 DUP1 REVERT JUMPDEST POP PUSH2 0x3BA PUSH2 0x5E9 JUMP JUMPDEST PUSH1 0x40 MLOAD PUSH2 0x3C7 SWAP2 SWAP1 PUSH2 0x729 JUMP JUMPDEST PUSH1 0x40 MLOAD DUP1 SWAP2 SUB SWAP1 RETURN JUMPDEST CALLVALUE DUP1 ISZERO PUSH2 0x3DB JUMPI PUSH0 DUP1 REVERT JUMPDEST POP PUSH2 0x3E4 PUSH2 0x5FE JUMP JUMPDEST PUSH1 0x40 MLOAD PUSH2 0x3F1 SWAP2 SWAP1 PUSH2 0x729 JUMP JUMPDEST PUSH1 0x40 MLOAD DUP1 SWAP2 SUB SWAP1 RETURN JUMPDEST CALLVALUE DUP1 ISZERO PUSH2 0x405 JUMPI PUSH0 DUP1 REVERT JUMPDEST POP PUSH2 0x40E PUSH2 0x604 JUMP JUMPDEST PUSH1 0x40 MLOAD PUSH2 0x41B SWAP2 SWAP1 PUSH2 0xA32 JUMP JUMPDEST PUSH1 0x40 MLOAD DUP1 SWAP2 SUB SWAP1 RETURN JUMPDEST CALLVALUE DUP1 ISZERO PUSH2 0x42F JUMPI PUSH0 DUP1 REVERT JUMPDEST POP PUSH2 0x438 PUSH2 0x68F JUMP JUMPDEST PUSH1 0x40 MLOAD PUSH2 0x445 SWAP2 SWAP1 PUSH2 0xA8C JUMP JUMPDEST PUSH1 0x40 MLOAD DUP1 SWAP2 SUB SWAP1 RETURN JUMPDEST CALLVALUE DUP1 ISZERO PUSH2 0x459 JUMPI PUSH0 DUP1 REVERT JUMPDEST POP PUSH2 0x462 PUSH2 0x6A1 JUMP JUMPDEST PUSH1 0x40 MLOAD PUSH2 0x46F SWAP2 SWAP1 PUSH2 0x729 JUMP JUMPDEST PUSH1 0x40 MLOAD DUP1 SWAP2 SUB SWAP1 RETURN JUMPDEST CALLVALUE DUP1 ISZERO PUSH2 0x483 JUMPI PUSH0 DUP1 REVERT JUMPDEST POP PUSH2 0x48C PUSH2 0x6A7 JUMP JUMPDEST PUSH1 0x40 MLOAD PUSH2 0x499 SWAP2 SWAP1 PUSH2 0x729 JUMP JUMPDEST PUSH1 0x40 MLOAD DUP1 SWAP2 SUB SWAP1 RETURN JUMPDEST PUSH1 0x4 SLOAD DUP2 JUMP JUMPDEST PUSH1 0x2 SLOAD DUP2 JUMP JUMPDEST PUSH0 DUP1 PUSH2 0x4B8 PUSH2 0x6EF JUMP JUMPDEST PUSH2 0x4C0 PUSH2 0x56E JUMP JUMPDEST DUP1 SWAP4 POP DUP2 SWAP5 POP DUP3 SWAP6 POP POP POP POP POP POP POP JUMP JUMPDEST PUSH0 DUP1 PUSH1 0x6 SLOAD PUSH1 0x1 SWAP2 POP SWAP2 POP SWAP1 SWAP2 JUMP JUMPDEST PUSH1 0x9 PUSH0 SWAP1 SLOAD SWAP1 PUSH2 0x100 EXP SWAP1 DIV PUSH20 0xFFFFFFFFFFFFFFFFFFFFFFFFFFFFFFFFFFFFFFFF AND DUP2 JUMP JUMPDEST PUSH1 0xB SLOAD DUP2 JUMP JUMPDEST PUSH0 PUSH2 0x514 PUSH2 0x6AD JUMP JUMPDEST SELFBALANCE SWAP1 POP SWAP1 JUMP JUMPDEST PUSH2 0x522 PUSH2 0x6AD JUMP JUMPDEST PUSH2 0x52A PUSH2 0x6D9 JUMP JUMPDEST JUMP JUMPDEST PUSH1 0x3 PUSH1 0x2 SLOAD PUSH2 0x53B SWAP2 SWAP1 PUSH2 0xAD2 JUMP JUMPDEST PUSH1 0x2 DUP2 SWAP1 SSTORE POP JUMP JUMPDEST PUSH1 0x3 SLOAD DUP2 JUMP JUMPDEST PUSH1 0x8 PUSH0 SWAP1 SLOAD SWAP1 PUSH2 0x100 EXP SWAP1 DIV PUSH20 0xFFFFFFFFFFFFFFFFFFFFFFFFFFFFFFFFFFFFFFFF AND DUP2 JUMP JUMPDEST PUSH0 DUP1 PUSH2 0x578 PUSH2 0x6EF JUMP JUMPDEST PUSH1 0x2 SWAP3 POP PUSH0 SWAP2 POP PUSH1 0x40 MLOAD DUP1 PUSH1 0x60 ADD PUSH1 0x40 MSTORE DUP1 PUSH1 0x3 DUP2 MSTORE PUSH1 0x20 ADD PUSH1 0x2 DUP2 MSTORE PUSH1 0x20 ADD PUSH1 0x1 DUP2 MSTORE POP SWAP1 POP SWAP1 SWAP2 SWAP3 JUMP JUMPDEST PUSH1 0x1 PUSH0 SWAP1 SLOAD SWAP1 PUSH2 0x100 EXP SWAP1 DIV PUSH1 0xFF AND DUP2 JUMP JUMPDEST PUSH0 PUSH1 0x1 DUP3 PUSH2 0x5C4 SWAP2 SWAP1 PUSH2 0xB13 JUMP JUMPDEST DUP2 PUSH2 0x5CF SWAP2 SWAP1 PUSH2 0xB13 JUMP JUMPDEST SWAP1 POP SWAP2 SWAP1 POP JUMP JUMPDEST PUSH0 DUP1 PUSH1 0x1 DUP1 SWAP2 POP SWAP2 POP SWAP1 SWAP2 JUMP JUMPDEST PUSH1 0x6 SLOAD DUP2 JUMP JUMPDEST PUSH0 PUSH1 0x1 PUSH1 0x4 SLOAD PUSH2 0x5F9 SWAP2 SWAP1 PUSH2 0xB13 JUMP JUMPDEST SWAP1 POP SWAP1 JUMP JUMPDEST PUSH1 0xA SLOAD DUP2 JUMP JUMPDEST PUSH0 DUP1 SLOAD PUSH2 0x610 SWAP1 PUSH2 0xB73 JUMP JUMPDEST DUP1 PUSH1 0x1F ADD PUSH1 0x20 DUP1 SWAP2 DIV MUL PUSH1 0x20 ADD PUSH1 0x40 MLOAD SWAP1 DUP2 ADD PUSH1 0x40 MSTORE DUP1 SWAP3 SWAP2 SWAP1 DUP2 DUP2 MSTORE PUSH1 0x20 ADD DUP3 DUP1 SLOAD PUSH2 0x63C SWAP1 PUSH2 0xB73 JUMP JUMPDEST DUP1 ISZERO PUSH2 0x687 JUMPI DUP1 PUSH1 0x1F LT PUSH2 0x65E JUMPI PUSH2 0x100 DUP1 DUP4 SLOAD DIV MUL DUP4 MSTORE SWAP2 PUSH1 0x20 ADD SWAP2 PUSH2 0x687 JUMP JUMPDEST DUP3 ADD SWAP2 SWAP1 PUSH0 MSTORE PUSH1 0x20 PUSH0 KECCAK256 SWAP1 JUMPDEST DUP2 SLOAD DUP2 MSTORE SWAP1 PUSH1 0x1 ADD SWAP1 PUSH1 0x20 ADD DUP1 DUP4 GT PUSH2 0x66A JUMPI DUP3 SWAP1 SUB PUSH1 0x1F AND DUP3 ADD SWAP2 JUMPDEST POP POP POP POP POP DUP2 JUMP JUMPDEST PUSH1 0xC PUSH0 SWAP1 SLOAD SWAP1 PUSH2 0x100 EXP SWAP1 DIV PUSH1 0xF8 SHL DUP2 JUMP JUMPDEST PUSH1 0x5 SLOAD DUP2 JUMP JUMPDEST PUSH1 0xD SLOAD DUP2 JUMP JUMPDEST PUSH1 0x1 PUSH1 0x2 SLOAD PUSH2 0x6BC SWAP2 SWAP1 PUSH2 0xAD2 JUMP JUMPDEST PUSH1 0x2 DUP2 SWAP1 SSTORE POP PUSH1 0x1 PUSH1 0x7 SLOAD PUSH2 0x6D1 SWAP2 SWAP1 PUSH2 0xAD2 JUMP JUMPDEST PUSH1 0x7 DUP2 SWAP1 SSTORE POP JUMP JUMPDEST PUSH1 0x2 DUP1 SLOAD PUSH2 0x6E7 SWAP2 SWAP1 PUSH2 0xAD2 JUMP JUMPDEST PUSH1 0x2 DUP2 SWAP1 SSTORE POP JUMP JUMPDEST PUSH1 0x40 MLOAD DUP1 PUSH1 0x60 ADD PUSH1 0x40 MSTORE DUP1 PUSH1 0x3 SWAP1 PUSH1 0x20 DUP3 MUL DUP1 CALLDATASIZE DUP4 CALLDATACOPY DUP1 DUP3 ADD SWAP2 POP POP SWAP1 POP POP SWAP1 JUMP JUMPDEST PUSH0 DUP2 SWAP1 POP SWAP2 SWAP1 POP JUMP JUMPDEST PUSH2 0x723 DUP2 PUSH2 0x711 JUMP JUMPDEST DUP3 MSTORE POP POP JUMP JUMPDEST PUSH0 PUSH1 0x20 DUP3 ADD SWAP1 POP PUSH2 0x73C PUSH0 DUP4 ADD DUP5 PUSH2 0x71A JUMP JUMPDEST SWAP3 SWAP2 POP POP JUMP JUMPDEST PUSH0 DUP2 SWAP1 POP SWAP2 SWAP1 POP JUMP JUMPDEST PUSH2 0x754 DUP2 PUSH2 0x742 JUMP JUMPDEST DUP3 MSTORE POP POP JUMP JUMPDEST PUSH0 PUSH1 0x20 DUP3 ADD SWAP1 POP PUSH2 0x76D PUSH0 DUP4 ADD DUP5 PUSH2 0x74B JUMP JUMPDEST SWAP3 SWAP2 POP POP JUMP JUMPDEST PUSH0 DUP2 ISZERO ISZERO SWAP1 POP SWAP2 SWAP1 POP JUMP JUMPDEST PUSH2 0x787 DUP2 PUSH2 0x773 JUMP JUMPDEST DUP3 MSTORE POP POP JUMP JUMPDEST PUSH0 PUSH1 0x40 DUP3 ADD SWAP1 POP PUSH2 0x7A0 PUSH0 DUP4 ADD DUP6 PUSH2 0x74B JUMP JUMPDEST PUSH2 0x7AD PUSH1 0x20 DUP4 ADD DUP5 PUSH2 0x77E JUMP JUMPDEST SWAP4 SWAP3 POP POP POP JUMP JUMPDEST PUSH0 PUSH20 0xFFFFFFFFFFFFFFFFFFFFFFFFFFFFFFFFFFFFFFFF DUP3 AND SWAP1 POP SWAP2 SWAP1 POP JUMP JUMPDEST PUSH0 PUSH2 0x7DD DUP3 PUSH2 0x7B4 JUMP JUMPDEST SWAP1 POP SWAP2 SWAP1 POP JUMP JUMPDEST PUSH2 0x7ED DUP2 PUSH2 0x7D3 JUMP JUMPDEST DUP3 MSTORE POP POP JUMP JUMPDEST PUSH0 PUSH1 0x20 DUP3 ADD SWAP1 POP PUSH2 0x806 PUSH0 DUP4 ADD DUP5 PUSH2 0x7E4 JUMP JUMPDEST SWAP3 SWAP2 POP POP JUMP JUMPDEST PUSH0 DUP2 SWAP1 POP SWAP2 SWAP1 POP JUMP JUMPDEST PUSH2 0x81E DUP2 PUSH2 0x80C JUMP JUMPDEST DUP3 MSTORE POP POP JUMP JUMPDEST PUSH0 PUSH1 0x20 DUP3 ADD SWAP1 POP PUSH2 0x837 PUSH0 DUP4 ADD DUP5 PUSH2 0x815 JUMP JUMPDEST SWAP3 SWAP2 POP POP JUMP JUMPDEST PUSH0 PUSH2 0x847 DUP3 PUSH2 0x7B4 JUMP JUMPDEST SWAP1 POP SWAP2 SWAP1 POP JUMP JUMPDEST PUSH2 0x857 DUP2 PUSH2 0x83D JUMP JUMPDEST DUP3 MSTORE POP POP JUMP JUMPDEST PUSH0 PUSH1 0x20 DUP3 ADD SWAP1 POP PUSH2 0x870 PUSH0 DUP4 ADD DUP5 PUSH2 0x84E JUMP JUMPDEST SWAP3 SWAP2 POP POP JUMP JUMPDEST PUSH0 PUSH1 0x3 SWAP1 POP SWAP2 SWAP1 POP JUMP JUMPDEST PUSH0 DUP2 SWAP1 POP SWAP3 SWAP2 POP POP JUMP JUMPDEST PUSH0 DUP2 SWAP1 POP SWAP2 SWAP1 POP JUMP JUMPDEST PUSH2 0x89C DUP2 PUSH2 0x711 JUMP JUMPDEST DUP3 MSTORE POP POP JUMP JUMPDEST PUSH0 PUSH2 0x8AD DUP4 DUP4 PUSH2 0x893 JUMP JUMPDEST PUSH1 0x20 DUP4 ADD SWAP1 POP SWAP3 SWAP2 POP POP JUMP JUMPDEST PUSH0 PUSH1 0x20 DUP3 ADD SWAP1 POP SWAP2 SWAP1 POP JUMP JUMPDEST PUSH2 0x8CE DUP2 PUSH2 0x876 JUMP JUMPDEST PUSH2 0x8D8 DUP2 DUP5 PUSH2 0x880 JUMP JUMPDEST SWAP3 POP PUSH2 0x8E3 DUP3 PUSH2 0x88A JUMP JUMPDEST DUP1 PUSH0 JUMPDEST DUP4 DUP2 LT ISZERO PUSH2 0x913 JUMPI DUP2 MLOAD PUSH2 0x8FA DUP8 DUP3 PUSH2 0x8A2 JUMP JUMPDEST SWAP7 POP PUSH2 0x905 DUP4 PUSH2 0x8B9 JUMP JUMPDEST SWAP3 POP POP PUSH1 0x1 DUP2 ADD SWAP1 POP PUSH2 0x8E6 JUMP JUMPDEST POP POP POP POP POP POP JUMP JUMPDEST PUSH0 PUSH1 0xA0 DUP3 ADD SWAP1 POP PUSH2 0x92E PUSH0 DUP4 ADD DUP7 PUSH2 0x71A JUMP JUMPDEST PUSH2 0x93B PUSH1 0x20 DUP4 ADD DUP6 PUSH2 0x77E JUMP JUMPDEST PUSH2 0x948 PUSH1 0x40 DUP4 ADD DUP5 PUSH2 0x8C5 JUMP JUMPDEST SWAP5 SWAP4 POP POP POP POP JUMP JUMPDEST PUSH0 PUSH1 0x20 DUP3 ADD SWAP1 POP PUSH2 0x963 PUSH0 DUP4 ADD DUP5 PUSH2 0x77E JUMP JUMPDEST SWAP3 SWAP2 POP POP JUMP JUMPDEST PUSH0 DUP1 REVERT JUMPDEST PUSH2 0x976 DUP2 PUSH2 0x711 JUMP JUMPDEST DUP2 EQ PUSH2 0x980 JUMPI PUSH0 DUP1 REVERT JUMPDEST POP JUMP JUMPDEST PUSH0 DUP2 CALLDATALOAD SWAP1 POP PUSH2 0x991 DUP2 PUSH2 0x96D JUMP JUMPDEST SWAP3 SWAP2 POP POP JUMP JUMPDEST PUSH0 PUSH1 0x20 DUP3 DUP5 SUB SLT ISZERO PUSH2 0x9AC JUMPI PUSH2 0x9AB PUSH2 0x969 JUMP JUMPDEST JUMPDEST PUSH0 PUSH2 0x9B9 DUP5 DUP3 DUP6 ADD PUSH2 0x983 JUMP JUMPDEST SWAP2 POP POP SWAP3 SWAP2 POP POP JUMP JUMPDEST PUSH0 DUP2 MLOAD SWAP1 POP SWAP2 SWAP1 POP JUMP JUMPDEST PUSH0 DUP3 DUP3 MSTORE PUSH1 0x20 DUP3 ADD SWAP1 POP SWAP3 SWAP2 POP POP JUMP JUMPDEST DUP3 DUP2 DUP4 MCOPY PUSH0 DUP4 DUP4 ADD MSTORE POP POP POP JUMP JUMPDEST PUSH0 PUSH1 0x1F NOT PUSH1 0x1F DUP4 ADD AND SWAP1 POP SWAP2 SWAP1 POP JUMP JUMPDEST PUSH0 PUSH2 0xA04 DUP3 PUSH2 0x9C2 JUMP JUMPDEST PUSH2 0xA0E DUP2 DUP6 PUSH2 0x9CC JUMP JUMPDEST SWAP4 POP PUSH2 0xA1E DUP2 DUP6 PUSH1 0x20 DUP7 ADD PUSH2 0x9DC JUMP JUMPDEST PUSH2 0xA27 DUP2 PUSH2 0x9EA JUMP JUMPDEST DUP5 ADD SWAP2 POP POP SWAP3 SWAP2 POP POP JUMP JUMPDEST PUSH0 PUSH1 0x20 DUP3 ADD SWAP1 POP DUP2 DUP2 SUB PUSH0 DUP4 ADD MSTORE PUSH2 0xA4A DUP2 DUP5 PUSH2 0x9FA JUMP JUMPDEST SWAP1 POP SWAP3 SWAP2 POP POP JUMP JUMPDEST PUSH0 PUSH32 0xFF00000000000000000000000000000000000000000000000000000000000000 DUP3 AND SWAP1 POP SWAP2 SWAP1 POP JUMP JUMPDEST PUSH2 0xA86 DUP2 PUSH2 0xA52 JUMP JUMPDEST DUP3 MSTORE POP POP JUMP JUMPDEST PUSH0 PUSH1 0x20 DUP3 ADD SWAP1 POP PUSH2 0xA9F PUSH0 DUP4 ADD DUP5 PUSH2 0xA7D JUMP JUMPDEST SWAP3 SWAP2 POP POP JUMP JUMPDEST PUSH32 0x4E487B7100000000000000000000000000000000000000000000000000000000 PUSH0 MSTORE PUSH1 0x11 PUSH1 0x4 MSTORE PUSH1 0x24 PUSH0 REVERT JUMPDEST PUSH0 PUSH2 0xADC DUP3 PUSH2 0x742 JUMP JUMPDEST SWAP2 POP PUSH2 0xAE7 DUP4 PUSH2 0x742 JUMP JUMPDEST SWAP3 POP DUP3 DUP3 ADD SWAP1 POP DUP3 DUP2 SLT ISZERO PUSH0 DUP4 SLT AND DUP4 DUP3 SLT PUSH0 DUP5 SLT ISZERO AND OR ISZERO PUSH2 0xB0D JUMPI PUSH2 0xB0C PUSH2 0xAA5 JUMP JUMPDEST JUMPDEST SWAP3 SWAP2 POP POP JUMP JUMPDEST PUSH0 PUSH2 0xB1D DUP3 PUSH2 0x711 JUMP JUMPDEST SWAP2 POP PUSH2 0xB28 DUP4 PUSH2 0x711 JUMP JUMPDEST SWAP3 POP DUP3 DUP3 ADD SWAP1 POP DUP1 DUP3 GT ISZERO PUSH2 0xB40 JUMPI PUSH2 0xB3F PUSH2 0xAA5 JUMP JUMPDEST JUMPDEST SWAP3 SWAP2 POP POP JUMP JUMPDEST PUSH32 0x4E487B7100000000000000000000000000000000000000000000000000000000 PUSH0 MSTORE PUSH1 0x22 PUSH1 0x4 MSTORE PUSH1 0x24 PUSH0 REVERT JUMPDEST PUSH0 PUSH1 0x2 DUP3 DIV SWAP1 POP PUSH1 0x1 DUP3 AND DUP1 PUSH2 0xB8A JUMPI PUSH1 0x7F DUP3 AND SWAP2 POP JUMPDEST PUSH1 0x20 DUP3 LT DUP2 SUB PUSH2 0xB9D JUMPI PUSH2 0xB9C PUSH2 0xB46 JUMP JUMPDEST JUMPDEST POP SWAP2 SWAP1 POP JUMP INVALID LOG2 PUSH5 0x6970667358 0x22 SLT KECCAK256 0xC7 0xEC TIMESTAMP SMOD 0xF8 0xD2 0xE0 LOG2 0xF7 0x2F 0xAF SWAP14 0xC6 0xD9 SWAP13 NOT PUSH22 0x18850C1CE97CCD5C63AB498E1FA9F364736F6C634300 ADDMOD BYTE STOP CALLER PUSH9 0x656C6C6F20736F6C69 PUSH5 0x6974792C74 PUSH9 0x6973206973206D7920 PUSH7 0x69727374207072 PUSH16 0x6A6563742E0000000000000000000000 "
				},
				"gasEstimates": {
					"creation": {
						"codeDepositCost": "606600",
						"executionCost": "infinite",
						"totalCost": "infinite"
					},
					"external": {
						"_address_1()": "2641",
						"_address_2()": "2620",
						"_byte1()": "2554",
						"_byte32()": "2448",
						"_is_first()": "2511",
						"_name()": "infinite",
						"_num_1()": "2471",
						"_num_2()": "2536",
						"_num_3()": "2449",
						"_num_4()": "2536",
						"_num_5()": "2535",
						"_status_1()": "2557",
						"add()": "infinite",
						"addPure(uint256)": "infinite",
						"addView()": "infinite",
						"balance()": "2469",
						"minutes2_call()": "infinite",
						"minutesPayable()": "infinite",
						"readReturnName()": "infinite",
						"returnName()": "infinite",
						"returnName2()": "540",
						"return_numbe2()": "2641"
					},
					"internal": {
						"minutes2()": "infinite",
						"minutes3()": "infinite"
					}
				},
				"methodIdentifiers": {
					"_address_1()": "59e55020",
					"_address_2()": "2dcf61f8",
					"_byte1()": "eac23280",
					"_byte32()": "3f346102",
					"_is_first()": "5ed9d14b",
					"_name()": "d28d8852",
					"_num_1()": "0a0d67b2",
					"_num_2()": "54ed8022",
					"_num_3()": "04b98547",
					"_num_4()": "93aba6c7",
					"_num_5()": "f02aa16f",
					"_status_1()": "f97dd17f",
					"add()": "4f2be91f",
					"addPure(uint256)": "7032c4f2",
					"addView()": "b262eb7f",
					"balance()": "b69ef8a8",
					"minutes2_call()": "4507d86d",
					"minutesPayable()": "41673cab",
					"readReturnName()": "2108f0de",
					"returnName()": "5ea5cabe",
					"returnName2()": "776b41bb",
					"return_numbe2()": "2611b138"
				}
			},
			"storageLayout": {
				"storage": [
					{
						"astId": 4,
						"contract": "01-hello-web3/hello.sol:HelloWeb3",
						"label": "_name",
						"offset": 0,
						"slot": "0",
						"type": "t_string_storage"
					},
					{
						"astId": 7,
						"contract": "01-hello-web3/hello.sol:HelloWeb3",
						"label": "_is_first",
						"offset": 0,
						"slot": "1",
						"type": "t_bool"
					},
					{
						"astId": 11,
						"contract": "01-hello-web3/hello.sol:HelloWeb3",
						"label": "_num_1",
						"offset": 0,
						"slot": "2",
						"type": "t_int256"
					},
					{
						"astId": 14,
						"contract": "01-hello-web3/hello.sol:HelloWeb3",
						"label": "_num_2",
						"offset": 0,
						"slot": "3",
						"type": "t_uint256"
					},
					{
						"astId": 17,
						"contract": "01-hello-web3/hello.sol:HelloWeb3",
						"label": "_num_3",
						"offset": 0,
						"slot": "4",
						"type": "t_uint256"
					},
					{
						"astId": 22,
						"contract": "01-hello-web3/hello.sol:HelloWeb3",
						"label": "_num_5",
						"offset": 0,
						"slot": "5",
						"type": "t_uint256"
					},
					{
						"astId": 27,
						"contract": "01-hello-web3/hello.sol:HelloWeb3",
						"label": "_num_4",
						"offset": 0,
						"slot": "6",
						"type": "t_int256"
					},
					{
						"astId": 30,
						"contract": "01-hello-web3/hello.sol:HelloWeb3",
						"label": "_num_6",
						"offset": 0,
						"slot": "7",
						"type": "t_int256"
					},
					{
						"astId": 33,
						"contract": "01-hello-web3/hello.sol:HelloWeb3",
						"label": "_address_1",
						"offset": 0,
						"slot": "8",
						"type": "t_address"
					},
					{
						"astId": 39,
						"contract": "01-hello-web3/hello.sol:HelloWeb3",
						"label": "_address_2",
						"offset": 0,
						"slot": "9",
						"type": "t_address_payable"
					},
					{
						"astId": 43,
						"contract": "01-hello-web3/hello.sol:HelloWeb3",
						"label": "balance",
						"offset": 0,
						"slot": "10",
						"type": "t_uint256"
					},
					{
						"astId": 46,
						"contract": "01-hello-web3/hello.sol:HelloWeb3",
						"label": "_byte32",
						"offset": 0,
						"slot": "11",
						"type": "t_bytes32"
					},
					{
						"astId": 51,
						"contract": "01-hello-web3/hello.sol:HelloWeb3",
						"label": "_byte1",
						"offset": 0,
						"slot": "12",
						"type": "t_bytes1"
					},
					{
						"astId": 59,
						"contract": "01-hello-web3/hello.sol:HelloWeb3",
						"label": "n_status",
						"offset": 1,
						"slot": "12",
						"type": "t_enum(Status)54"
					},
					{
						"astId": 65,
						"contract": "01-hello-web3/hello.sol:HelloWeb3",
						"label": "_status_1",
						"offset": 0,
						"slot": "13",
						"type": "t_uint256"
					},
					{
						"astId": 68,
						"contract": "01-hello-web3/hello.sol:HelloWeb3",
						"label": "_interal",
						"offset": 0,
						"slot": "14",
						"type": "t_int256"
					},
					{
						"astId": 71,
						"contract": "01-hello-web3/hello.sol:HelloWeb3",
						"label": "_private_num",
						"offset": 0,
						"slot": "15",
						"type": "t_int256"
					}
				],
				"types": {
					"t_address": {
						"encoding": "inplace",
						"label": "address",
						"numberOfBytes": "20"
					},
					"t_address_payable": {
						"encoding": "inplace",
						"label": "address payable",
						"numberOfBytes": "20"
					},
					"t_bool": {
						"encoding": "inplace",
						"label": "bool",
						"numberOfBytes": "1"
					},
					"t_bytes1": {
						"encoding": "inplace",
						"label": "bytes1",
						"numberOfBytes": "1"
					},
					"t_bytes32": {
						"encoding": "inplace",
						"label": "bytes32",
						"numberOfBytes": "32"
					},
					"t_enum(Status)54": {
						"encoding": "inplace",
						"label": "enum HelloWeb3.Status",
						"numberOfBytes": "1"
					},
					"t_int256": {
						"encoding": "inplace",
						"label": "int256",
						"numberOfBytes": "32"
					},
					"t_string_storage": {
						"encoding": "bytes",
						"label": "string",
						"numberOfBytes": "32"
					},
					"t_uint256": {
						"encoding": "inplace",
						"label": "uint256",
						"numberOfBytes": "32"
					}
				}
			},
			"userdoc": {
				"kind": "user",
				"methods": {
					"add()": {
						"notice": "[ external、internal、public、private ] [pure view payable] public 内部和外部都可以访问 private 只能从合约内部访问，继承的合约不能使用 interval 只能从合约内部访问，继承的合约可以用 external 只能从合约外部访问，*"
					}
				},
				"version": 1
			}
		}
	}
}