{
	"data": {
		"bytecode": {
			"linkReferences": {},
			"object": "60a06040526402540be3ff6080908152506040518060400160405280600760ff168152602001600860ff16815250600190600261003d929190610071565b50348015610049575f80fd5b5061005861006460201b60201c565b608081815250506100d1565b5f80600a90508091505090565b82600281019282156100a5579160200282015b828111156100a4578251829060ff16905591602001919060010190610084565b5b5090506100b291906100b6565b5090565b5b808211156100cd575f815f9055506001016100b7565b5090565b608051610cf56100e95f395f61060f0152610cf55ff3fe608060405234801561000f575f80fd5b50600436106100cd575f3560e01c80635cfac8371161008a578063c90fd7a711610064578063c90fd7a714610247578063de152f8d14610265578063e30c36f114610283578063ed7ff875146102b3576100cd565b80635cfac837146101c95780636baa0330146101f9578063a09da55014610229576100cd565b8063101c9881146100d1578063227a025a146100ed5780634408e5c014610109578063441bbaf31461013957806345cb6f311461016957806358e40a5a14610199575b5f80fd5b6100eb60048036038101906100e691906106cf565b6102d1565b005b6101076004803603810190610102919061076e565b610324565b005b610123600480360381019061011e91906107cb565b6103a5565b6040516101309190610805565b60405180910390f35b610153600480360381019061014e91906107cb565b6103d5565b604051610160919061082d565b60405180910390f35b610183600480360381019061017e91906107cb565b6103f4565b6040516101909190610860565b60405180910390f35b6101b360048036038101906101ae91906107cb565b61040e565b6040516101c0919061082d565b60405180910390f35b6101e360048036038101906101de91906108ac565b610427565b6040516101f09190610805565b60405180910390f35b610213600480360381019061020e91906108ac565b610460565b6040516102209190610805565b60405180910390f35b610231610490565b60405161023e919061082d565b60405180910390f35b61024f6104c8565b60405161025c919061082d565b60405180910390f35b61026d6104d5565b60405161027a919061082d565b60405180910390f35b61029d60048036038101906102989190610a1f565b61050d565b6040516102aa9190610b1d565b60405180910390f35b6102bb61060d565b6040516102c8919061082d565b60405180910390f35b8060035f8481526020019081526020015f205f6101000a81548173ffffffffffffffffffffffffffffffffffffffff021916908373ffffffffffffffffffffffffffffffffffffffff1602179055505050565b5f8383604051602001610338929190610b79565b6040516020818303038152906040528051906020012090508160045f8381526020019081526020015f205f6101000a81548173ffffffffffffffffffffffffffffffffffffffff021916908373ffffffffffffffffffffffffffffffffffffffff16021790555050505050565b6003602052805f5260405f205f915054906101000a900473ffffffffffffffffffffffffffffffffffffffff1681565b5f81815481106103e3575f80fd5b905f5260205f20015f915090505481565b5f808203610404575f9050610409565b600190505b919050565b6001816002811061041d575f80fd5b015f915090505481565b5f60045f8381526020019081526020015f205f9054906101000a900473ffffffffffffffffffffffffffffffffffffffff169050919050565b6004602052805f5260405f205f915054906101000a900473ffffffffffffffffffffffffffffffffffffffff1681565b5f805f90505f5b600a81116104c05780826104ab9190610bbe565b915080806104b890610bf1565b915050610497565b819250505090565b5f80600a90508091505090565b5f805f90505f5b600a81116105055780826104f09190610bbe565b915080806104fd90610bf1565b9150506104dc565b508091505090565b60605f600190505b8251811015610604575f83828151811061053257610531610c38565b5b602002602001015190505f8290505b6001811015801561057757508460018261055b9190610c65565b8151811061056c5761056b610c38565b5b602002602001015182105b156105d5578460018261058a9190610c65565b8151811061059b5761059a610c38565b5b60200260200101518582815181106105b6576105b5610c38565b5b60200260200101818152505080806105cd90610c98565b915050610541565b818582815181106105e9576105e8610c38565b5b60200260200101818152505050508080600101915050610515565b50819050919050565b7f000000000000000000000000000000000000000000000000000000000000000081565b5f604051905090565b5f80fd5b5f80fd5b5f819050919050565b61065481610642565b811461065e575f80fd5b50565b5f8135905061066f8161064b565b92915050565b5f73ffffffffffffffffffffffffffffffffffffffff82169050919050565b5f61069e82610675565b9050919050565b6106ae81610694565b81146106b8575f80fd5b50565b5f813590506106c9816106a5565b92915050565b5f80604083850312156106e5576106e461063a565b5b5f6106f285828601610661565b9250506020610703858286016106bb565b9150509250929050565b5f80fd5b5f80fd5b5f80fd5b5f8083601f84011261072e5761072d61070d565b5b8235905067ffffffffffffffff81111561074b5761074a610711565b5b60208301915083600182028301111561076757610766610715565b5b9250929050565b5f805f604084860312156107855761078461063a565b5b5f84013567ffffffffffffffff8111156107a2576107a161063e565b5b6107ae86828701610719565b935093505060206107c1868287016106bb565b9150509250925092565b5f602082840312156107e0576107df61063a565b5b5f6107ed84828501610661565b91505092915050565b6107ff81610694565b82525050565b5f6020820190506108185f8301846107f6565b92915050565b61082781610642565b82525050565b5f6020820190506108405f83018461081e565b92915050565b5f8115159050919050565b61085a81610846565b82525050565b5f6020820190506108735f830184610851565b92915050565b5f819050919050565b61088b81610879565b8114610895575f80fd5b50565b5f813590506108a681610882565b92915050565b5f602082840312156108c1576108c061063a565b5b5f6108ce84828501610898565b91505092915050565b5f601f19601f8301169050919050565b7f4e487b71000000000000000000000000000000000000000000000000000000005f52604160045260245ffd5b61091d826108d7565b810181811067ffffffffffffffff8211171561093c5761093b6108e7565b5b80604052505050565b5f61094e610631565b905061095a8282610914565b919050565b5f67ffffffffffffffff821115610979576109786108e7565b5b602082029050602081019050919050565b5f61099c6109978461095f565b610945565b905080838252602082019050602084028301858111156109bf576109be610715565b5b835b818110156109e857806109d48882610661565b8452602084019350506020810190506109c1565b5050509392505050565b5f82601f830112610a0657610a0561070d565b5b8135610a1684826020860161098a565b91505092915050565b5f60208284031215610a3457610a3361063a565b5b5f82013567ffffffffffffffff811115610a5157610a5061063e565b5b610a5d848285016109f2565b91505092915050565b5f81519050919050565b5f82825260208201905092915050565b5f819050602082019050919050565b610a9881610642565b82525050565b5f610aa98383610a8f565b60208301905092915050565b5f602082019050919050565b5f610acb82610a66565b610ad58185610a70565b9350610ae083610a80565b805f5b83811015610b10578151610af78882610a9e565b9750610b0283610ab5565b925050600181019050610ae3565b5085935050505092915050565b5f6020820190508181035f830152610b358184610ac1565b905092915050565b5f81905092915050565b828183375f83830152505050565b5f610b608385610b3d565b9350610b6d838584610b47565b82840190509392505050565b5f610b85828486610b55565b91508190509392505050565b7f4e487b71000000000000000000000000000000000000000000000000000000005f52601160045260245ffd5b5f610bc882610642565b9150610bd383610642565b9250828201905080821115610beb57610bea610b91565b5b92915050565b5f610bfb82610642565b91507fffffffffffffffffffffffffffffffffffffffffffffffffffffffffffffffff8203610c2d57610c2c610b91565b5b600182019050919050565b7f4e487b71000000000000000000000000000000000000000000000000000000005f52603260045260245ffd5b5f610c6f82610642565b9150610c7a83610642565b9250828203905081811115610c9257610c91610b91565b5b92915050565b5f610ca282610642565b91505f8203610cb457610cb3610b91565b5b60018203905091905056fea264697066735822122062ced73b096c8b0e3637f52dec703bddf9f0651575e08b10e9288b3fdc51440664736f6c634300081a0033",
			"opcodes": "PUSH1 0xA0 PUSH1 0x40 MSTORE PUSH5 0x2540BE3FF PUSH1 0x80 SWAP1 DUP2 MSTORE POP PUSH1 0x40 MLOAD DUP1 PUSH1 0x40 ADD PUSH1 0x40 MSTORE DUP1 PUSH1 0x7 PUSH1 0xFF AND DUP2 MSTORE PUSH1 0x20 ADD PUSH1 0x8 PUSH1 0xFF AND DUP2 MSTORE POP PUSH1 0x1 SWAP1 PUSH1 0x2 PUSH2 0x3D SWAP3 SWAP2 SWAP1 PUSH2 0x71 JUMP JUMPDEST POP CALLVALUE DUP1 ISZERO PUSH2 0x49 JUMPI PUSH0 DUP1 REVERT JUMPDEST POP PUSH2 0x58 PUSH2 0x64 PUSH1 0x20 SHL PUSH1 0x20 SHR JUMP JUMPDEST PUSH1 0x80 DUP2 DUP2 MSTORE POP POP PUSH2 0xD1 JUMP JUMPDEST PUSH0 DUP1 PUSH1 0xA SWAP1 POP DUP1 SWAP2 POP POP SWAP1 JUMP JUMPDEST DUP3 PUSH1 0x2 DUP2 ADD SWAP3 DUP3 ISZERO PUSH2 0xA5 JUMPI SWAP2 PUSH1 0x20 MUL DUP3 ADD JUMPDEST DUP3 DUP2 GT ISZERO PUSH2 0xA4 JUMPI DUP3 MLOAD DUP3 SWAP1 PUSH1 0xFF AND SWAP1 SSTORE SWAP2 PUSH1 0x20 ADD SWAP2 SWAP1 PUSH1 0x1 ADD SWAP1 PUSH2 0x84 JUMP JUMPDEST JUMPDEST POP SWAP1 POP PUSH2 0xB2 SWAP2 SWAP1 PUSH2 0xB6 JUMP JUMPDEST POP SWAP1 JUMP JUMPDEST JUMPDEST DUP1 DUP3 GT ISZERO PUSH2 0xCD JUMPI PUSH0 DUP2 PUSH0 SWAP1 SSTORE POP PUSH1 0x1 ADD PUSH2 0xB7 JUMP JUMPDEST POP SWAP1 JUMP JUMPDEST PUSH1 0x80 MLOAD PUSH2 0xCF5 PUSH2 0xE9 PUSH0 CODECOPY PUSH0 PUSH2 0x60F ADD MSTORE PUSH2 0xCF5 PUSH0 RETURN INVALID PUSH1 0x80 PUSH1 0x40 MSTORE CALLVALUE DUP1 ISZERO PUSH2 0xF JUMPI PUSH0 DUP1 REVERT JUMPDEST POP PUSH1 0x4 CALLDATASIZE LT PUSH2 0xCD JUMPI PUSH0 CALLDATALOAD PUSH1 0xE0 SHR DUP1 PUSH4 0x5CFAC837 GT PUSH2 0x8A JUMPI DUP1 PUSH4 0xC90FD7A7 GT PUSH2 0x64 JUMPI DUP1 PUSH4 0xC90FD7A7 EQ PUSH2 0x247 JUMPI DUP1 PUSH4 0xDE152F8D EQ PUSH2 0x265 JUMPI DUP1 PUSH4 0xE30C36F1 EQ PUSH2 0x283 JUMPI DUP1 PUSH4 0xED7FF875 EQ PUSH2 0x2B3 JUMPI PUSH2 0xCD JUMP JUMPDEST DUP1 PUSH4 0x5CFAC837 EQ PUSH2 0x1C9 JUMPI DUP1 PUSH4 0x6BAA0330 EQ PUSH2 0x1F9 JUMPI DUP1 PUSH4 0xA09DA550 EQ PUSH2 0x229 JUMPI PUSH2 0xCD JUMP JUMPDEST DUP1 PUSH4 0x101C9881 EQ PUSH2 0xD1 JUMPI DUP1 PUSH4 0x227A025A EQ PUSH2 0xED JUMPI DUP1 PUSH4 0x4408E5C0 EQ PUSH2 0x109 JUMPI DUP1 PUSH4 0x441BBAF3 EQ PUSH2 0x139 JUMPI DUP1 PUSH4 0x45CB6F31 EQ PUSH2 0x169 JUMPI DUP1 PUSH4 0x58E40A5A EQ PUSH2 0x199 JUMPI JUMPDEST PUSH0 DUP1 REVERT JUMPDEST PUSH2 0xEB PUSH1 0x4 DUP1 CALLDATASIZE SUB DUP2 ADD SWAP1 PUSH2 0xE6 SWAP2 SWAP1 PUSH2 0x6CF JUMP JUMPDEST PUSH2 0x2D1 JUMP JUMPDEST STOP JUMPDEST PUSH2 0x107 PUSH1 0x4 DUP1 CALLDATASIZE SUB DUP2 ADD SWAP1 PUSH2 0x102 SWAP2 SWAP1 PUSH2 0x76E JUMP JUMPDEST PUSH2 0x324 JUMP JUMPDEST STOP JUMPDEST PUSH2 0x123 PUSH1 0x4 DUP1 CALLDATASIZE SUB DUP2 ADD SWAP1 PUSH2 0x11E SWAP2 SWAP1 PUSH2 0x7CB JUMP JUMPDEST PUSH2 0x3A5 JUMP JUMPDEST PUSH1 0x40 MLOAD PUSH2 0x130 SWAP2 SWAP1 PUSH2 0x805 JUMP JUMPDEST PUSH1 0x40 MLOAD DUP1 SWAP2 SUB SWAP1 RETURN JUMPDEST PUSH2 0x153 PUSH1 0x4 DUP1 CALLDATASIZE SUB DUP2 ADD SWAP1 PUSH2 0x14E SWAP2 SWAP1 PUSH2 0x7CB JUMP JUMPDEST PUSH2 0x3D5 JUMP JUMPDEST PUSH1 0x40 MLOAD PUSH2 0x160 SWAP2 SWAP1 PUSH2 0x82D JUMP JUMPDEST PUSH1 0x40 MLOAD DUP1 SWAP2 SUB SWAP1 RETURN JUMPDEST PUSH2 0x183 PUSH1 0x4 DUP1 CALLDATASIZE SUB DUP2 ADD SWAP1 PUSH2 0x17E SWAP2 SWAP1 PUSH2 0x7CB JUMP JUMPDEST PUSH2 0x3F4 JUMP JUMPDEST PUSH1 0x40 MLOAD PUSH2 0x190 SWAP2 SWAP1 PUSH2 0x860 JUMP JUMPDEST PUSH1 0x40 MLOAD DUP1 SWAP2 SUB SWAP1 RETURN JUMPDEST PUSH2 0x1B3 PUSH1 0x4 DUP1 CALLDATASIZE SUB DUP2 ADD SWAP1 PUSH2 0x1AE SWAP2 SWAP1 PUSH2 0x7CB JUMP JUMPDEST PUSH2 0x40E JUMP JUMPDEST PUSH1 0x40 MLOAD PUSH2 0x1C0 SWAP2 SWAP1 PUSH2 0x82D JUMP JUMPDEST PUSH1 0x40 MLOAD DUP1 SWAP2 SUB SWAP1 RETURN JUMPDEST PUSH2 0x1E3 PUSH1 0x4 DUP1 CALLDATASIZE SUB DUP2 ADD SWAP1 PUSH2 0x1DE SWAP2 SWAP1 PUSH2 0x8AC JUMP JUMPDEST PUSH2 0x427 JUMP JUMPDEST PUSH1 0x40 MLOAD PUSH2 0x1F0 SWAP2 SWAP1 PUSH2 0x805 JUMP JUMPDEST PUSH1 0x40 MLOAD DUP1 SWAP2 SUB SWAP1 RETURN JUMPDEST PUSH2 0x213 PUSH1 0x4 DUP1 CALLDATASIZE SUB DUP2 ADD SWAP1 PUSH2 0x20E SWAP2 SWAP1 PUSH2 0x8AC JUMP JUMPDEST PUSH2 0x460 JUMP JUMPDEST PUSH1 0x40 MLOAD PUSH2 0x220 SWAP2 SWAP1 PUSH2 0x805 JUMP JUMPDEST PUSH1 0x40 MLOAD DUP1 SWAP2 SUB SWAP1 RETURN JUMPDEST PUSH2 0x231 PUSH2 0x490 JUMP JUMPDEST PUSH1 0x40 MLOAD PUSH2 0x23E SWAP2 SWAP1 PUSH2 0x82D JUMP JUMPDEST PUSH1 0x40 MLOAD DUP1 SWAP2 SUB SWAP1 RETURN JUMPDEST PUSH2 0x24F PUSH2 0x4C8 JUMP JUMPDEST PUSH1 0x40 MLOAD PUSH2 0x25C SWAP2 SWAP1 PUSH2 0x82D JUMP JUMPDEST PUSH1 0x40 MLOAD DUP1 SWAP2 SUB SWAP1 RETURN JUMPDEST PUSH2 0x26D PUSH2 0x4D5 JUMP JUMPDEST PUSH1 0x40 MLOAD PUSH2 0x27A SWAP2 SWAP1 PUSH2 0x82D JUMP JUMPDEST PUSH1 0x40 MLOAD DUP1 SWAP2 SUB SWAP1 RETURN JUMPDEST PUSH2 0x29D PUSH1 0x4 DUP1 CALLDATASIZE SUB DUP2 ADD SWAP1 PUSH2 0x298 SWAP2 SWAP1 PUSH2 0xA1F JUMP JUMPDEST PUSH2 0x50D JUMP JUMPDEST PUSH1 0x40 MLOAD PUSH2 0x2AA SWAP2 SWAP1 PUSH2 0xB1D JUMP JUMPDEST PUSH1 0x40 MLOAD DUP1 SWAP2 SUB SWAP1 RETURN JUMPDEST PUSH2 0x2BB PUSH2 0x60D JUMP JUMPDEST PUSH1 0x40 MLOAD PUSH2 0x2C8 SWAP2 SWAP1 PUSH2 0x82D JUMP JUMPDEST PUSH1 0x40 MLOAD DUP1 SWAP2 SUB SWAP1 RETURN JUMPDEST DUP1 PUSH1 0x3 PUSH0 DUP5 DUP2 MSTORE PUSH1 0x20 ADD SWAP1 DUP2 MSTORE PUSH1 0x20 ADD PUSH0 KECCAK256 PUSH0 PUSH2 0x100 EXP DUP2 SLOAD DUP2 PUSH20 0xFFFFFFFFFFFFFFFFFFFFFFFFFFFFFFFFFFFFFFFF MUL NOT AND SWAP1 DUP4 PUSH20 0xFFFFFFFFFFFFFFFFFFFFFFFFFFFFFFFFFFFFFFFF AND MUL OR SWAP1 SSTORE POP POP POP JUMP JUMPDEST PUSH0 DUP4 DUP4 PUSH1 0x40 MLOAD PUSH1 0x20 ADD PUSH2 0x338 SWAP3 SWAP2 SWAP1 PUSH2 0xB79 JUMP JUMPDEST PUSH1 0x40 MLOAD PUSH1 0x20 DUP2 DUP4 SUB SUB DUP2 MSTORE SWAP1 PUSH1 0x40 MSTORE DUP1 MLOAD SWAP1 PUSH1 0x20 ADD KECCAK256 SWAP1 POP DUP2 PUSH1 0x4 PUSH0 DUP4 DUP2 MSTORE PUSH1 0x20 ADD SWAP1 DUP2 MSTORE PUSH1 0x20 ADD PUSH0 KECCAK256 PUSH0 PUSH2 0x100 EXP DUP2 SLOAD DUP2 PUSH20 0xFFFFFFFFFFFFFFFFFFFFFFFFFFFFFFFFFFFFFFFF MUL NOT AND SWAP1 DUP4 PUSH20 0xFFFFFFFFFFFFFFFFFFFFFFFFFFFFFFFFFFFFFFFF AND MUL OR SWAP1 SSTORE POP POP POP POP POP JUMP JUMPDEST PUSH1 0x3 PUSH1 0x20 MSTORE DUP1 PUSH0 MSTORE PUSH1 0x40 PUSH0 KECCAK256 PUSH0 SWAP2 POP SLOAD SWAP1 PUSH2 0x100 EXP SWAP1 DIV PUSH20 0xFFFFFFFFFFFFFFFFFFFFFFFFFFFFFFFFFFFFFFFF AND DUP2 JUMP JUMPDEST PUSH0 DUP2 DUP2 SLOAD DUP2 LT PUSH2 0x3E3 JUMPI PUSH0 DUP1 REVERT JUMPDEST SWAP1 PUSH0 MSTORE PUSH1 0x20 PUSH0 KECCAK256 ADD PUSH0 SWAP2 POP SWAP1 POP SLOAD DUP2 JUMP JUMPDEST PUSH0 DUP1 DUP3 SUB PUSH2 0x404 JUMPI PUSH0 SWAP1 POP PUSH2 0x409 JUMP JUMPDEST PUSH1 0x1 SWAP1 POP JUMPDEST SWAP2 SWAP1 POP JUMP JUMPDEST PUSH1 0x1 DUP2 PUSH1 0x2 DUP2 LT PUSH2 0x41D JUMPI PUSH0 DUP1 REVERT JUMPDEST ADD PUSH0 SWAP2 POP SWAP1 POP SLOAD DUP2 JUMP JUMPDEST PUSH0 PUSH1 0x4 PUSH0 DUP4 DUP2 MSTORE PUSH1 0x20 ADD SWAP1 DUP2 MSTORE PUSH1 0x20 ADD PUSH0 KECCAK256 PUSH0 SWAP1 SLOAD SWAP1 PUSH2 0x100 EXP SWAP1 DIV PUSH20 0xFFFFFFFFFFFFFFFFFFFFFFFFFFFFFFFFFFFFFFFF AND SWAP1 POP SWAP2 SWAP1 POP JUMP JUMPDEST PUSH1 0x4 PUSH1 0x20 MSTORE DUP1 PUSH0 MSTORE PUSH1 0x40 PUSH0 KECCAK256 PUSH0 SWAP2 POP SLOAD SWAP1 PUSH2 0x100 EXP SWAP1 DIV PUSH20 0xFFFFFFFFFFFFFFFFFFFFFFFFFFFFFFFFFFFFFFFF AND DUP2 JUMP JUMPDEST PUSH0 DUP1 PUSH0 SWAP1 POP PUSH0 JUMPDEST PUSH1 0xA DUP2 GT PUSH2 0x4C0 JUMPI DUP1 DUP3 PUSH2 0x4AB SWAP2 SWAP1 PUSH2 0xBBE JUMP JUMPDEST SWAP2 POP DUP1 DUP1 PUSH2 0x4B8 SWAP1 PUSH2 0xBF1 JUMP JUMPDEST SWAP2 POP POP PUSH2 0x497 JUMP JUMPDEST DUP2 SWAP3 POP POP POP SWAP1 JUMP JUMPDEST PUSH0 DUP1 PUSH1 0xA SWAP1 POP DUP1 SWAP2 POP POP SWAP1 JUMP JUMPDEST PUSH0 DUP1 PUSH0 SWAP1 POP PUSH0 JUMPDEST PUSH1 0xA DUP2 GT PUSH2 0x505 JUMPI DUP1 DUP3 PUSH2 0x4F0 SWAP2 SWAP1 PUSH2 0xBBE JUMP JUMPDEST SWAP2 POP DUP1 DUP1 PUSH2 0x4FD SWAP1 PUSH2 0xBF1 JUMP JUMPDEST SWAP2 POP POP PUSH2 0x4DC JUMP JUMPDEST POP DUP1 SWAP2 POP POP SWAP1 JUMP JUMPDEST PUSH1 0x60 PUSH0 PUSH1 0x1 SWAP1 POP JUMPDEST DUP3 MLOAD DUP2 LT ISZERO PUSH2 0x604 JUMPI PUSH0 DUP4 DUP3 DUP2 MLOAD DUP2 LT PUSH2 0x532 JUMPI PUSH2 0x531 PUSH2 0xC38 JUMP JUMPDEST JUMPDEST PUSH1 0x20 MUL PUSH1 0x20 ADD ADD MLOAD SWAP1 POP PUSH0 DUP3 SWAP1 POP JUMPDEST PUSH1 0x1 DUP2 LT ISZERO DUP1 ISZERO PUSH2 0x577 JUMPI POP DUP5 PUSH1 0x1 DUP3 PUSH2 0x55B SWAP2 SWAP1 PUSH2 0xC65 JUMP JUMPDEST DUP2 MLOAD DUP2 LT PUSH2 0x56C JUMPI PUSH2 0x56B PUSH2 0xC38 JUMP JUMPDEST JUMPDEST PUSH1 0x20 MUL PUSH1 0x20 ADD ADD MLOAD DUP3 LT JUMPDEST ISZERO PUSH2 0x5D5 JUMPI DUP5 PUSH1 0x1 DUP3 PUSH2 0x58A SWAP2 SWAP1 PUSH2 0xC65 JUMP JUMPDEST DUP2 MLOAD DUP2 LT PUSH2 0x59B JUMPI PUSH2 0x59A PUSH2 0xC38 JUMP JUMPDEST JUMPDEST PUSH1 0x20 MUL PUSH1 0x20 ADD ADD MLOAD DUP6 DUP3 DUP2 MLOAD DUP2 LT PUSH2 0x5B6 JUMPI PUSH2 0x5B5 PUSH2 0xC38 JUMP JUMPDEST JUMPDEST PUSH1 0x20 MUL PUSH1 0x20 ADD ADD DUP2 DUP2 MSTORE POP POP DUP1 DUP1 PUSH2 0x5CD SWAP1 PUSH2 0xC98 JUMP JUMPDEST SWAP2 POP POP PUSH2 0x541 JUMP JUMPDEST DUP2 DUP6 DUP3 DUP2 MLOAD DUP2 LT PUSH2 0x5E9 JUMPI PUSH2 0x5E8 PUSH2 0xC38 JUMP JUMPDEST JUMPDEST PUSH1 0x20 MUL PUSH1 0x20 ADD ADD DUP2 DUP2 MSTORE POP POP POP POP DUP1 DUP1 PUSH1 0x1 ADD SWAP2 POP POP PUSH2 0x515 JUMP JUMPDEST POP DUP2 SWAP1 POP SWAP2 SWAP1 POP JUMP JUMPDEST PUSH32 0x0 DUP2 JUMP JUMPDEST PUSH0 PUSH1 0x40 MLOAD SWAP1 POP SWAP1 JUMP JUMPDEST PUSH0 DUP1 REVERT JUMPDEST PUSH0 DUP1 REVERT JUMPDEST PUSH0 DUP2 SWAP1 POP SWAP2 SWAP1 POP JUMP JUMPDEST PUSH2 0x654 DUP2 PUSH2 0x642 JUMP JUMPDEST DUP2 EQ PUSH2 0x65E JUMPI PUSH0 DUP1 REVERT JUMPDEST POP JUMP JUMPDEST PUSH0 DUP2 CALLDATALOAD SWAP1 POP PUSH2 0x66F DUP2 PUSH2 0x64B JUMP JUMPDEST SWAP3 SWAP2 POP POP JUMP JUMPDEST PUSH0 PUSH20 0xFFFFFFFFFFFFFFFFFFFFFFFFFFFFFFFFFFFFFFFF DUP3 AND SWAP1 POP SWAP2 SWAP1 POP JUMP JUMPDEST PUSH0 PUSH2 0x69E DUP3 PUSH2 0x675 JUMP JUMPDEST SWAP1 POP SWAP2 SWAP1 POP JUMP JUMPDEST PUSH2 0x6AE DUP2 PUSH2 0x694 JUMP JUMPDEST DUP2 EQ PUSH2 0x6B8 JUMPI PUSH0 DUP1 REVERT JUMPDEST POP JUMP JUMPDEST PUSH0 DUP2 CALLDATALOAD SWAP1 POP PUSH2 0x6C9 DUP2 PUSH2 0x6A5 JUMP JUMPDEST SWAP3 SWAP2 POP POP JUMP JUMPDEST PUSH0 DUP1 PUSH1 0x40 DUP4 DUP6 SUB SLT ISZERO PUSH2 0x6E5 JUMPI PUSH2 0x6E4 PUSH2 0x63A JUMP JUMPDEST JUMPDEST PUSH0 PUSH2 0x6F2 DUP6 DUP3 DUP7 ADD PUSH2 0x661 JUMP JUMPDEST SWAP3 POP POP PUSH1 0x20 PUSH2 0x703 DUP6 DUP3 DUP7 ADD PUSH2 0x6BB JUMP JUMPDEST SWAP2 POP POP SWAP3 POP SWAP3 SWAP1 POP JUMP JUMPDEST PUSH0 DUP1 REVERT JUMPDEST PUSH0 DUP1 REVERT JUMPDEST PUSH0 DUP1 REVERT JUMPDEST PUSH0 DUP1 DUP4 PUSH1 0x1F DUP5 ADD SLT PUSH2 0x72E JUMPI PUSH2 0x72D PUSH2 0x70D JUMP JUMPDEST JUMPDEST DUP3 CALLDATALOAD SWAP1 POP PUSH8 0xFFFFFFFFFFFFFFFF DUP2 GT ISZERO PUSH2 0x74B JUMPI PUSH2 0x74A PUSH2 0x711 JUMP JUMPDEST JUMPDEST PUSH1 0x20 DUP4 ADD SWAP2 POP DUP4 PUSH1 0x1 DUP3 MUL DUP4 ADD GT ISZERO PUSH2 0x767 JUMPI PUSH2 0x766 PUSH2 0x715 JUMP JUMPDEST JUMPDEST SWAP3 POP SWAP3 SWAP1 POP JUMP JUMPDEST PUSH0 DUP1 PUSH0 PUSH1 0x40 DUP5 DUP7 SUB SLT ISZERO PUSH2 0x785 JUMPI PUSH2 0x784 PUSH2 0x63A JUMP JUMPDEST JUMPDEST PUSH0 DUP5 ADD CALLDATALOAD PUSH8 0xFFFFFFFFFFFFFFFF DUP2 GT ISZERO PUSH2 0x7A2 JUMPI PUSH2 0x7A1 PUSH2 0x63E JUMP JUMPDEST JUMPDEST PUSH2 0x7AE DUP7 DUP3 DUP8 ADD PUSH2 0x719 JUMP JUMPDEST SWAP4 POP SWAP4 POP POP PUSH1 0x20 PUSH2 0x7C1 DUP7 DUP3 DUP8 ADD PUSH2 0x6BB JUMP JUMPDEST SWAP2 POP POP SWAP3 POP SWAP3 POP SWAP3 JUMP JUMPDEST PUSH0 PUSH1 0x20 DUP3 DUP5 SUB SLT ISZERO PUSH2 0x7E0 JUMPI PUSH2 0x7DF PUSH2 0x63A JUMP JUMPDEST JUMPDEST PUSH0 PUSH2 0x7ED DUP5 DUP3 DUP6 ADD PUSH2 0x661 JUMP JUMPDEST SWAP2 POP POP SWAP3 SWAP2 POP POP JUMP JUMPDEST PUSH2 0x7FF DUP2 PUSH2 0x694 JUMP JUMPDEST DUP3 MSTORE POP POP JUMP JUMPDEST PUSH0 PUSH1 0x20 DUP3 ADD SWAP1 POP PUSH2 0x818 PUSH0 DUP4 ADD DUP5 PUSH2 0x7F6 JUMP JUMPDEST SWAP3 SWAP2 POP POP JUMP JUMPDEST PUSH2 0x827 DUP2 PUSH2 0x642 JUMP JUMPDEST DUP3 MSTORE POP POP JUMP JUMPDEST PUSH0 PUSH1 0x20 DUP3 ADD SWAP1 POP PUSH2 0x840 PUSH0 DUP4 ADD DUP5 PUSH2 0x81E JUMP JUMPDEST SWAP3 SWAP2 POP POP JUMP JUMPDEST PUSH0 DUP2 ISZERO ISZERO SWAP1 POP SWAP2 SWAP1 POP JUMP JUMPDEST PUSH2 0x85A DUP2 PUSH2 0x846 JUMP JUMPDEST DUP3 MSTORE POP POP JUMP JUMPDEST PUSH0 PUSH1 0x20 DUP3 ADD SWAP1 POP PUSH2 0x873 PUSH0 DUP4 ADD DUP5 PUSH2 0x851 JUMP JUMPDEST SWAP3 SWAP2 POP POP JUMP JUMPDEST PUSH0 DUP2 SWAP1 POP SWAP2 SWAP1 POP JUMP JUMPDEST PUSH2 0x88B DUP2 PUSH2 0x879 JUMP JUMPDEST DUP2 EQ PUSH2 0x895 JUMPI PUSH0 DUP1 REVERT JUMPDEST POP JUMP JUMPDEST PUSH0 DUP2 CALLDATALOAD SWAP1 POP PUSH2 0x8A6 DUP2 PUSH2 0x882 JUMP JUMPDEST SWAP3 SWAP2 POP POP JUMP JUMPDEST PUSH0 PUSH1 0x20 DUP3 DUP5 SUB SLT ISZERO PUSH2 0x8C1 JUMPI PUSH2 0x8C0 PUSH2 0x63A JUMP JUMPDEST JUMPDEST PUSH0 PUSH2 0x8CE DUP5 DUP3 DUP6 ADD PUSH2 0x898 JUMP JUMPDEST SWAP2 POP POP SWAP3 SWAP2 POP POP JUMP JUMPDEST PUSH0 PUSH1 0x1F NOT PUSH1 0x1F DUP4 ADD AND SWAP1 POP SWAP2 SWAP1 POP JUMP JUMPDEST PUSH32 0x4E487B7100000000000000000000000000000000000000000000000000000000 PUSH0 MSTORE PUSH1 0x41 PUSH1 0x4 MSTORE PUSH1 0x24 PUSH0 REVERT JUMPDEST PUSH2 0x91D DUP3 PUSH2 0x8D7 JUMP JUMPDEST DUP2 ADD DUP2 DUP2 LT PUSH8 0xFFFFFFFFFFFFFFFF DUP3 GT OR ISZERO PUSH2 0x93C JUMPI PUSH2 0x93B PUSH2 0x8E7 JUMP JUMPDEST JUMPDEST DUP1 PUSH1 0x40 MSTORE POP POP POP JUMP JUMPDEST PUSH0 PUSH2 0x94E PUSH2 0x631 JUMP JUMPDEST SWAP1 POP PUSH2 0x95A DUP3 DUP3 PUSH2 0x914 JUMP JUMPDEST SWAP2 SWAP1 POP JUMP JUMPDEST PUSH0 PUSH8 0xFFFFFFFFFFFFFFFF DUP3 GT ISZERO PUSH2 0x979 JUMPI PUSH2 0x978 PUSH2 0x8E7 JUMP JUMPDEST JUMPDEST PUSH1 0x20 DUP3 MUL SWAP1 POP PUSH1 0x20 DUP2 ADD SWAP1 POP SWAP2 SWAP1 POP JUMP JUMPDEST PUSH0 PUSH2 0x99C PUSH2 0x997 DUP5 PUSH2 0x95F JUMP JUMPDEST PUSH2 0x945 JUMP JUMPDEST SWAP1 POP DUP1 DUP4 DUP3 MSTORE PUSH1 0x20 DUP3 ADD SWAP1 POP PUSH1 0x20 DUP5 MUL DUP4 ADD DUP6 DUP2 GT ISZERO PUSH2 0x9BF JUMPI PUSH2 0x9BE PUSH2 0x715 JUMP JUMPDEST JUMPDEST DUP4 JUMPDEST DUP2 DUP2 LT ISZERO PUSH2 0x9E8 JUMPI DUP1 PUSH2 0x9D4 DUP9 DUP3 PUSH2 0x661 JUMP JUMPDEST DUP5 MSTORE PUSH1 0x20 DUP5 ADD SWAP4 POP POP PUSH1 0x20 DUP2 ADD SWAP1 POP PUSH2 0x9C1 JUMP JUMPDEST POP POP POP SWAP4 SWAP3 POP POP POP JUMP JUMPDEST PUSH0 DUP3 PUSH1 0x1F DUP4 ADD SLT PUSH2 0xA06 JUMPI PUSH2 0xA05 PUSH2 0x70D JUMP JUMPDEST JUMPDEST DUP2 CALLDATALOAD PUSH2 0xA16 DUP5 DUP3 PUSH1 0x20 DUP7 ADD PUSH2 0x98A JUMP JUMPDEST SWAP2 POP POP SWAP3 SWAP2 POP POP JUMP JUMPDEST PUSH0 PUSH1 0x20 DUP3 DUP5 SUB SLT ISZERO PUSH2 0xA34 JUMPI PUSH2 0xA33 PUSH2 0x63A JUMP JUMPDEST JUMPDEST PUSH0 DUP3 ADD CALLDATALOAD PUSH8 0xFFFFFFFFFFFFFFFF DUP2 GT ISZERO PUSH2 0xA51 JUMPI PUSH2 0xA50 PUSH2 0x63E JUMP JUMPDEST JUMPDEST PUSH2 0xA5D DUP5 DUP3 DUP6 ADD PUSH2 0x9F2 JUMP JUMPDEST SWAP2 POP POP SWAP3 SWAP2 POP POP JUMP JUMPDEST PUSH0 DUP2 MLOAD SWAP1 POP SWAP2 SWAP1 POP JUMP JUMPDEST PUSH0 DUP3 DUP3 MSTORE PUSH1 0x20 DUP3 ADD SWAP1 POP SWAP3 SWAP2 POP POP JUMP JUMPDEST PUSH0 DUP2 SWAP1 POP PUSH1 0x20 DUP3 ADD SWAP1 POP SWAP2 SWAP1 POP JUMP JUMPDEST PUSH2 0xA98 DUP2 PUSH2 0x642 JUMP JUMPDEST DUP3 MSTORE POP POP JUMP JUMPDEST PUSH0 PUSH2 0xAA9 DUP4 DUP4 PUSH2 0xA8F JUMP JUMPDEST PUSH1 0x20 DUP4 ADD SWAP1 POP SWAP3 SWAP2 POP POP JUMP JUMPDEST PUSH0 PUSH1 0x20 DUP3 ADD SWAP1 POP SWAP2 SWAP1 POP JUMP JUMPDEST PUSH0 PUSH2 0xACB DUP3 PUSH2 0xA66 JUMP JUMPDEST PUSH2 0xAD5 DUP2 DUP6 PUSH2 0xA70 JUMP JUMPDEST SWAP4 POP PUSH2 0xAE0 DUP4 PUSH2 0xA80 JUMP JUMPDEST DUP1 PUSH0 JUMPDEST DUP4 DUP2 LT ISZERO PUSH2 0xB10 JUMPI DUP2 MLOAD PUSH2 0xAF7 DUP9 DUP3 PUSH2 0xA9E JUMP JUMPDEST SWAP8 POP PUSH2 0xB02 DUP4 PUSH2 0xAB5 JUMP JUMPDEST SWAP3 POP POP PUSH1 0x1 DUP2 ADD SWAP1 POP PUSH2 0xAE3 JUMP JUMPDEST POP DUP6 SWAP4 POP POP POP POP SWAP3 SWAP2 POP POP JUMP JUMPDEST PUSH0 PUSH1 0x20 DUP3 ADD SWAP1 POP DUP2 DUP2 SUB PUSH0 DUP4 ADD MSTORE PUSH2 0xB35 DUP2 DUP5 PUSH2 0xAC1 JUMP JUMPDEST SWAP1 POP SWAP3 SWAP2 POP POP JUMP JUMPDEST PUSH0 DUP2 SWAP1 POP SWAP3 SWAP2 POP POP JUMP JUMPDEST DUP3 DUP2 DUP4 CALLDATACOPY PUSH0 DUP4 DUP4 ADD MSTORE POP POP POP JUMP JUMPDEST PUSH0 PUSH2 0xB60 DUP4 DUP6 PUSH2 0xB3D JUMP JUMPDEST SWAP4 POP PUSH2 0xB6D DUP4 DUP6 DUP5 PUSH2 0xB47 JUMP JUMPDEST DUP3 DUP5 ADD SWAP1 POP SWAP4 SWAP3 POP POP POP JUMP JUMPDEST PUSH0 PUSH2 0xB85 DUP3 DUP5 DUP7 PUSH2 0xB55 JUMP JUMPDEST SWAP2 POP DUP2 SWAP1 POP SWAP4 SWAP3 POP POP POP JUMP JUMPDEST PUSH32 0x4E487B7100000000000000000000000000000000000000000000000000000000 PUSH0 MSTORE PUSH1 0x11 PUSH1 0x4 MSTORE PUSH1 0x24 PUSH0 REVERT JUMPDEST PUSH0 PUSH2 0xBC8 DUP3 PUSH2 0x642 JUMP JUMPDEST SWAP2 POP PUSH2 0xBD3 DUP4 PUSH2 0x642 JUMP JUMPDEST SWAP3 POP DUP3 DUP3 ADD SWAP1 POP DUP1 DUP3 GT ISZERO PUSH2 0xBEB JUMPI PUSH2 0xBEA PUSH2 0xB91 JUMP JUMPDEST JUMPDEST SWAP3 SWAP2 POP POP JUMP JUMPDEST PUSH0 PUSH2 0xBFB DUP3 PUSH2 0x642 JUMP JUMPDEST SWAP2 POP PUSH32 0xFFFFFFFFFFFFFFFFFFFFFFFFFFFFFFFFFFFFFFFFFFFFFFFFFFFFFFFFFFFFFFFF DUP3 SUB PUSH2 0xC2D JUMPI PUSH2 0xC2C PUSH2 0xB91 JUMP JUMPDEST JUMPDEST PUSH1 0x1 DUP3 ADD SWAP1 POP SWAP2 SWAP1 POP JUMP JUMPDEST PUSH32 0x4E487B7100000000000000000000000000000000000000000000000000000000 PUSH0 MSTORE PUSH1 0x32 PUSH1 0x4 MSTORE PUSH1 0x24 PUSH0 REVERT JUMPDEST PUSH0 PUSH2 0xC6F DUP3 PUSH2 0x642 JUMP JUMPDEST SWAP2 POP PUSH2 0xC7A DUP4 PUSH2 0x642 JUMP JUMPDEST SWAP3 POP DUP3 DUP3 SUB SWAP1 POP DUP2 DUP2 GT ISZERO PUSH2 0xC92 JUMPI PUSH2 0xC91 PUSH2 0xB91 JUMP JUMPDEST JUMPDEST SWAP3 SWAP2 POP POP JUMP JUMPDEST PUSH0 PUSH2 0xCA2 DUP3 PUSH2 0x642 JUMP JUMPDEST SWAP2 POP PUSH0 DUP3 SUB PUSH2 0xCB4 JUMPI PUSH2 0xCB3 PUSH2 0xB91 JUMP JUMPDEST JUMPDEST PUSH1 0x1 DUP3 SUB SWAP1 POP SWAP2 SWAP1 POP JUMP INVALID LOG2 PUSH5 0x6970667358 0x22 SLT KECCAK256 PUSH3 0xCED73B MULMOD PUSH13 0x8B0E3637F52DEC703BDDF9F065 ISZERO PUSH22 0xE08B10E9288B3FDC51440664736F6C634300081A0033 "
		},
		"gasEstimates": {
			"creation": {
				"codeDepositCost": "663400",
				"executionCost": "infinite",
				"totalCost": "infinite"
			},
			"external": {
				"IMMUTABLE_NUM()": "infinite",
				"_a(uint256)": "infinite",
				"_b(uint256)": "infinite",
				"bubbleSort(uint256[])": "infinite",
				"forTest()": "infinite",
				"forWhile()": "infinite",
				"getSymbol(bytes32)": "2875",
				"is_test(uint256)": "721",
				"new_address(uint256)": "2872",
				"set_immutable_num()": "367",
				"symbol(bytes32)": "2872",
				"wariteSymbolMap(string,address)": "infinite",
				"writeAddressMap(uint256,address)": "24963"
			}
		},
		"methodIdentifiers": {
			"IMMUTABLE_NUM()": "ed7ff875",
			"_a(uint256)": "441bbaf3",
			"_b(uint256)": "58e40a5a",
			"bubbleSort(uint256[])": "e30c36f1",
			"forTest()": "de152f8d",
			"forWhile()": "a09da550",
			"getSymbol(bytes32)": "5cfac837",
			"is_test(uint256)": "45cb6f31",
			"new_address(uint256)": "4408e5c0",
			"set_immutable_num()": "c90fd7a7",
			"symbol(bytes32)": "6baa0330",
			"wariteSymbolMap(string,address)": "227a025a",
			"writeAddressMap(uint256,address)": "101c9881"
		}
	},
	"abi": [
		{
			"inputs": [],
			"stateMutability": "nonpayable",
			"type": "constructor"
		},
		{
			"inputs": [],
			"name": "IMMUTABLE_NUM",
			"outputs": [
				{
					"internalType": "uint256",
					"name": "",
					"type": "uint256"
				}
			],
			"stateMutability": "view",
			"type": "function"
		},
		{
			"inputs": [
				{
					"internalType": "uint256",
					"name": "",
					"type": "uint256"
				}
			],
			"name": "_a",
			"outputs": [
				{
					"internalType": "uint256",
					"name": "",
					"type": "uint256"
				}
			],
			"stateMutability": "view",
			"type": "function"
		},
		{
			"inputs": [
				{
					"internalType": "uint256",
					"name": "",
					"type": "uint256"
				}
			],
			"name": "_b",
			"outputs": [
				{
					"internalType": "uint256",
					"name": "",
					"type": "uint256"
				}
			],
			"stateMutability": "view",
			"type": "function"
		},
		{
			"inputs": [
				{
					"internalType": "uint256[]",
					"name": "arr",
					"type": "uint256[]"
				}
			],
			"name": "bubbleSort",
			"outputs": [
				{
					"internalType": "uint256[]",
					"name": "",
					"type": "uint256[]"
				}
			],
			"stateMutability": "pure",
			"type": "function"
		},
		{
			"inputs": [],
			"name": "forTest",
			"outputs": [
				{
					"internalType": "uint256",
					"name": "",
					"type": "uint256"
				}
			],
			"stateMutability": "pure",
			"type": "function"
		},
		{
			"inputs": [],
			"name": "forWhile",
			"outputs": [
				{
					"internalType": "uint256",
					"name": "",
					"type": "uint256"
				}
			],
			"stateMutability": "pure",
			"type": "function"
		},
		{
			"inputs": [
				{
					"internalType": "bytes32",
					"name": "_key",
					"type": "bytes32"
				}
			],
			"name": "getSymbol",
			"outputs": [
				{
					"internalType": "address",
					"name": "",
					"type": "address"
				}
			],
			"stateMutability": "view",
			"type": "function"
		},
		{
			"inputs": [
				{
					"internalType": "uint256",
					"name": "num",
					"type": "uint256"
				}
			],
			"name": "is_test",
			"outputs": [
				{
					"internalType": "bool",
					"name": "",
					"type": "bool"
				}
			],
			"stateMutability": "pure",
			"type": "function"
		},
		{
			"inputs": [
				{
					"internalType": "uint256",
					"name": "",
					"type": "uint256"
				}
			],
			"name": "new_address",
			"outputs": [
				{
					"internalType": "address",
					"name": "",
					"type": "address"
				}
			],
			"stateMutability": "view",
			"type": "function"
		},
		{
			"inputs": [],
			"name": "set_immutable_num",
			"outputs": [
				{
					"internalType": "uint256",
					"name": "",
					"type": "uint256"
				}
			],
			"stateMutability": "pure",
			"type": "function"
		},
		{
			"inputs": [
				{
					"internalType": "bytes32",
					"name": "",
					"type": "bytes32"
				}
			],
			"name": "symbol",
			"outputs": [
				{
					"internalType": "address",
					"name": "",
					"type": "address"
				}
			],
			"stateMutability": "view",
			"type": "function"
		},
		{
			"inputs": [
				{
					"internalType": "string",
					"name": "_key",
					"type": "string"
				},
				{
					"internalType": "address",
					"name": "_value",
					"type": "address"
				}
			],
			"name": "wariteSymbolMap",
			"outputs": [],
			"stateMutability": "nonpayable",
			"type": "function"
		},
		{
			"inputs": [
				{
					"internalType": "uint256",
					"name": "_key",
					"type": "uint256"
				},
				{
					"internalType": "address",
					"name": "_value",
					"type": "address"
				}
			],
			"name": "writeAddressMap",
			"outputs": [],
			"stateMutability": "nonpayable",
			"type": "function"
		}
	]
}